:020000040800F2
:10000000B80A0020A1010008992F0008C12E00089D
:10001000972F00088D080008155700080000000001
:10002000000000000000000000000000D3360008BF
:10003000C1080008000000004D310008A34E000870
:10004000BB010008BB010008BB010008BB010008A0
:10005000BB010008BB010008C3080008FF08000836
:10006000050900080B09000811090008BB01000878
:10007000BB010008BB010008BB010008BB01000870
:10008000BB0100088F080008BB010008BB01000885
:10009000BB010008BB010008BB01000817090008EC
:1000A000BB010008BB010008BB010008BB01000840
:1000B000BB010008BB010008BB010008BB01000830
:1000C000BB010008BB010008BB010008BB01000820
:1000D000BB010008BB01000811570008BB01000864
:1000E000C908000801340008BB010008BB01000872
:1000F000BB010008BB010008BB010008BB010008F0
:10010000BB010008BB010008BB010008BB010008DF
:10011000BB010008BB010008BB010008BB010008CF
:10012000BB010008BB010008BB010008BB010008BF
:10013000BB010008BB010008BB010008BB010008AF
:10014000BB010008BB010008BB010008BB0100089F
:10015000BB010008BB010008BB010008BB0100088F
:10016000BB010008BB010008BB010008BB0100087F
:10017000BB010008BB010008BB0100080000000033
:10018000BB010008BB010008DFF810D000F06CFBD9
:100190000048004739650008AFF30080B80A002026
:1001A0000648804706480047FEE7FEE7FEE7FEE711
:1001B000FEE7FEE7FEE7FEE7FEE7FEE70D4F00087D
:1001C000890100082DE9F05F0546002092469B4614
:1001D00088460646814640241BE02846414647465D
:1001E000224600F04EFA53465A46C01A914110D3A7
:1001F00011461846224600F035FA2D1A67EB010821
:100200004F4622460120002100F02CFA17EB00098E
:100210004E41201EA4F10104DFDC484631462A4647
:10022000434600F000B830BCBDE8C09F40EA01037F
:100230009B0703D009E008C9121F08C0042AFAD29C
:1002400003E011F8013B00F8013B521EF9D2704760
:10025000D2B201E000F8012B491EFBD27047002208
:10026000F6E710B513460A4604461946FFF7F0FFB5
:10027000204610BD2DE9FE4F804681EA0300C00FE5
:100280000C46009021F0004123F00045B8EB02003D
:10029000A94105D24046214690461C460B460246DF
:1002A00023F00040104347D0270DC7F30A00C3F3E3
:1002B0000A510290401A019040286BDAC3F31300F0
:1002C00040F4801B0098924620B10023D2EB030A31
:1002D00063EB0B0B01985946C0F14002504600F009
:1002E000C1F906460D4650465946019A00F0D9F923
:1002F00010EB08006141002487EA115284EAE77399
:100300001A4340D0009A62B3019A012A4FEA075279
:1003100015DC001B61EB02014FF0004202EA0752BC
:10032000CDE90042001C41F5801132462B4600F019
:10033000D9F903B000F045B840462146F9E7001B63
:1003400061EB0201001C41F5801300185B4120188D
:10035000A2F5001747EB030140EAD570B6196D41CD
:1003600011E06D084FEA360645EAC0754FEA0752BC
:10037000001B61EB0201001C41F5801149084FEAA6
:1003800030000019514132462B4603B000F01CB832
:1003900000F099B90098012240000023D0EB02023E
:1003A00063EBE073009821464FEAE074B8EB00007D
:1003B00061EB0401E9E783F000435BE781F0004172
:1003C00058E730BCBDE8C08F30BCBDE8C04FFFF778
:1003D000DFBF2DE9FE4F81EA030404F0004421F061
:1003E000004100944FF0000B23F0004350EA010459
:1003F0005ED052EA03045BD0C3F30A54C1F30A553A
:100400002C44A4F2F3340194A0FB0254C1F3130171
:1004100041F48011C3F3130343F4801301FB02443E
:1004200000FB034E840A970A44EA815447EA835743
:10043000A4FB076802958D0A05FB07854FEA932CFC
:1004400004FB0C542705029D4FEA065847EA16376D
:10045000B5EB08056EEB070C870E920E47EA811785
:1004600042EA8312A7FB0201B6EB0B0164EB000426
:100470002B0D43EA0C335E1844EB1C50DA46514610
:10048000E7FB0201C5F313044FEA0B3343EA1453AD
:100490004FEA0432019C43EA0603A4F10C040294DF
:1004A000009CCDE900B400F01DF903B000F003B8E2
:1004B00000200146F9E730BCBDE8C08F2DE9F04DC2
:1004C00081EA030404F0004B21F0004514464FF08C
:1004D000000A23F0004150EA050220D054EA01024C
:1004E0001DD0C5F30A570246C5F31303C1F3130029
:1004F000C1F30A5640F4801543F48013A7EB0608B5
:10050000101BD64608F2FD3873EB050002D308F144
:10051000010801E092185B41B8F1000F03DA0020F6
:100520000146BDE8F08D00204FF480110646844658
:100530000EE0171B73EB050705D3121B63EB0503D6
:1005400006434CEA010C49084FEA300092185B411F
:1005500050EA0107EDD152EA030012D082EA04000A
:1005600083EA0501084305D0101BAB4106D20122E6
:10057000002306E000224FF0004302E06FF001028A
:1005800053101AEB06004CEB085110EB0A0041EB3C
:100590000B01BDE8F04D00F096B80EB5C10F80EA32
:1005A000E0700844CA07002140F233438DE80E0092
:1005B0000A460B4600F096F803B000BD0EB540F2B7
:1005C000334102910021CDE900110A460B4600F0AB
:1005D00089F803B000BDC1F30A5210B5C1F313018D
:1005E00040F2FF3341F480119A4201DA002010BD3D
:1005F00040F233439A42A2F2334203DC524200F00B
:1006000040F810BD904010BD30B5041E71F10004DB
:1006100004DB4FF00044404264EB0101141E73F10F
:10062000000405DB1C464FF00043524263EB040319
:10063000994208BF904230BD30B50B4601460020BC
:100640002022012409E021FA02F59D4205D303FA94
:1006500002F5491B04FA02F52844151EA2F1010215
:10066000F1DC30BD202A04DB203A00FA02F1002040
:1006700070479140C2F1200320FA03F319439040E0
:100680007047202A04DB203A21FA02F0002170474B
:1006900021FA02F3D040C2F12002914008431946EA
:1006A0007047202A06DBCB17203A41FA02F043EAD2
:1006B000E07306E041FA02F3D040C2F1200291401B
:1006C00008431946704710B5141E73F1000408DA88
:1006D000401C41F1000192185B411A4301D120F006
:1006E000010010BD2DE9F04D92469B4611B1B1FAC3
:1006F00081F202E0B0FA80F220329046FFF7B2FFBA
:1007000004460F4640EA0A0041EA0B0153465A46A6
:10071000084313D0114653EA010019D0C8F1400232
:100720005046FFF7AEFF05460E4650465946424634
:10073000FFF798FF084305D0012004E02046394622
:10074000BDE8F08D0020054346EAE0762C433743B0
:100750000A986305E40AA0EB08000022FD0A44EAB7
:1007600047540A3002D500200146E9E70105101977
:100770006941DDE9084500196941BDE8F04DA2E78E
:100780002DE9F041054621F000400C46284309D0F0
:10079000C4F30A5040F23341884205DD2846214621
:1007A000BDE8F0812846FBE740F2FE31884210DCCC
:1007B0000CDB4FEA043040EA155050EA053105D011
:1007C000104804F0004101430020E9E70020014601
:1007D000E6E7A0F233404642C6F1400228462146F1
:1007E000FFF740FF07468846284621463246FFF776
:1007F00048FF43463A46FFF766FF3246BDE8F04100
:10080000FFF730BF0000F03FC1F30A52C1F31301FC
:1008100040F2FF3341F480119A4202DA002001468F
:10082000704740F233439A42A2F2334202DC524212
:10083000FFF727BFFFF716BF30B5041E71F10004A4
:1008400004DB4FF00044404264EB0101141E73F1DD
:10085000000405DB1C464FF00043524263EB0403E7
:100860008B4208BF824230BD064C074D06E0E0686F
:1008700040F0010394E8070098471034AC42F6D3E7
:10088000FFF786FC3069000850690008FEE705F0B4
:100890000FBF30B590F8444004F01C050124AC4073
:1008A000056C6C60046863608368102B036803D078
:1008B00099600068C26030BD9A600068C16030BD58
:1008C0007047012000F068BA10B54FF4806000F066
:1008D00063FA4FF4006000F05FFA4FF4805000F0CC
:1008E0005BFA4FF4005000F057FA4FF4804000F0EC
:1008F00053FABDE810404FF4004000F04DBA02201A
:1009000000F04ABA042000F047BA082000F044BAC8
:10091000102000F041BA10B5202000F03DFA402030
:1009200000F03AFA802000F037FA4FF4807000F0BF
:1009300033FABDE810404FF4007000F02DBA00000B
:1009400001A004F015FCFEE74572726F725F48610A
:100950006E646C65720A0D00094A002152F831304C
:10096000834208D802EBC1039B68834203D902EBA0
:10097000C10000797047491CC9B21529EED3FEE7C2
:10098000AC670008F8B54FF0000504002E4600954E
:1009900002D0606D10B107E00120F8BD204600F0E4
:1009A000D5F8A66584F8506020688168C1F340716D
:1009B00019B181685B4A1140816020688168C1F388
:1009C000007179B98168584A114041F080518160C5
:1009D000564857490068B0FBF1F000E0401E009017
:1009E0000028FBD120688168C1F3007141B9616DB5
:1009F00041F010016165A16D41F00101A165012582
:100A000002F064FA616DC90600D430B1606D40F047
:100A10001000606501252846F8BD606D20F48070E7
:100A200040F0020060652068806810F0010F15D169
:100A300040488068404900F00100896801F00101E8
:100A400008433E49896801F00101084306D13C4949
:100A500060688A6822F47C1202438A60E168606BF5
:100A6000627E0843A16841EA4231084394F82010AD
:100A700040EA0140012904D1A18C324A02EB4141F4
:100A80000843A16A29B101F47071E26A014342EAA4
:100A900001002268D1682C4B19400143D1602068C5
:100AA00002F014FA0646206802F00CFA304315D121
:100AB000207E94F830102268800340EA4101D0681B
:100AC00044F2020398430843D06094F838000128A8
:100AD0000CD02068016921F0010101612069012821
:100AE0002068016B21F00F0111D013E0D4E90F0150
:100AF0000843D4E911121143084321680A6940F2FE
:100B0000FC739A43104340F001000861E6E7E26994
:100B1000521E11430163606D20F0020040F001009D
:100B2000606578E7C0FFFF5FC0FFFF7F3C000020EB
:100B3000400D030000000450000104500002045066
:100B4000000304500000FEFF07C0F0FF704710B51F
:100B500090F825100024022903D00421C163012448
:100B60001AE001680A6822F00E020A6001680A6849
:100B700022F001020A6090F84410036C01F01C029C
:100B8000012101FA02F25A6080F82510002180F854
:100B90002410816B01B18847204610BDF0B4016C70
:100BA0000C6801680D6890F8442002F01C060422CD
:100BB00002FA06F3234211D06B070FD50B689B0690
:100BC00003D40B6823F004030B6090F8441001F089
:100BD0001C018A40016C4A60016B1DE0022303FA8C
:100BE00006F727424FF0000C4FF0010218D0AF0774
:100BF00016D50C68A40605D40C6824F00A040C6011
:100C000080F8252090F8441001F01C018B40016C05
:100C10004B6080F824C0C16A00291AD0F0BC084794
:100C20000823B340234214D02B0712D50B6823F0BE
:100C30000E030B6090F84410036C01F01C0102FAE3
:100C400001F15960C26380F8252080F824C0416B0F
:100C5000E2E7F0BC7047000070B568B12B4C036848
:100C600014212B4AA34209D22A4C1C44B4FBF1F1B3
:100C70008900C0E910210BE0012070BD234C6442C3
:100C80001C44B4FBF1F18900416420490839016436
:100C9000022180F825101C6847F6F0718C43D0E9DA
:100CA00002152943D0E90456354329438569294370
:100CB000C5692943056A2943214319608168B1F553
:100CC000804F19D0036C0F21934202D152F8A83FF4
:100CD00002E00E4AA032136890F8444004F01C046D
:100CE000A1408B43136090F84430416803F01C032B
:100CF00099401368194311600021C163012280F8F3
:100D0000252080F82410084670BD00000804024029
:100D100000000240F8FFFDBF70B5044690F82400C3
:100D2000002501280CD0012084F8240094F82560C7
:100D30000020012E06D084F824000225284670BD2C
:100D4000022070BD022684F82560E06320680668F2
:100D500026F0010606602046FFF79BFD206B002869
:100D60002068016802D041F00E0106E021F0040184
:100D700001602068016841F00A0101602068016893
:100D800041F001010160D9E711B4009818BC01F0ED
:100D900031BE01F041BD0000044910B50A680242AD
:100DA00002D00860FFF7F5FF10BD000014040140F9
:100DB0002DE9F84FDFF898B100234FF0010C4FF008
:100DC000030A4FF00F090BF1040EB9E00CFA03F41B
:100DD000224070D04D68022D01D0122D0ED1DD08B9
:100DE00000EB8508D8F820505E07F70E09FA07F6E1
:100DF000B5430E69BE402E43C8F8206007685E0008
:100E000091F804800AFA06F508F00308AF4308FADF
:100E100006F848EA0708C0F800804F68012F05D09F
:100E2000022F03D0112F01D0122F13D1D0F8088038
:100E3000CF6828EA0508B74047EA08078760D0F876
:100E400004800F7928EA0408C7F300179F4047EA97
:100E500008074760D1F804806FEA0807BF0706D18A
:100E6000C76AA743C8F3C0049C403C43C462C4683B
:100E7000AC438D68B5402543C5604C68E4005ED541
:100E8000344C256E45F001052566246E23F00305DC
:100E900004F001040094304C2E19B4689D072F0F04
:100EA00009FA07F5AC43B0F1904F05D02B4DA8429D
:100EB00004D101251CE042E0002519E0284DA8429C
:100EC00001D1022514E0274DA84201D103250FE0EE
:100ED000254DA84201D104250AE0244DA84201D1A4
:100EE000052505E0224DA84201D1062500E0072591
:100EF000BD402543B560DBF800405D464E68944335
:100F0000F60300D514432C60DEF8004075464E68A9
:100F10009443B60300D514432C600D4D08352C685E
:100F20004E689443F60200D514432C60084D0C35EE
:100F30002C684E689443B60200D514432C605B1CA9
:100F40000A6832FA03F57FF441AF00F013B80000ED
:100F5000000401400010024000000140000400486D
:100F600000080048000C0048001000480014004829
:100F70000018004818BCBDE8E08F0AB181617047D5
:100F8000816270470148806870470000400000207F
:100F90000248816842681144816070474000002027
:100FA00010B50024032000F04FF80F2000F007F8E0
:100FB00008B1012401E000F005F8204610BD002032
:100FC00070470000084882B0816D41F08051816512
:100FD000816D01F080510091816821F400418160B0
:100FE00002B001F04BBC000000100240002809DBF9
:100FF00000F01F02012191404009800000F1E02033
:10100000C0F8001170470000F0B40E4B1B680C468E
:10101000C3F30223C3F10705042D00D90425191DCC
:10102000072901D2002300E0DB1E012606FA05F1A4
:10103000491E214099409E40761E16403143F0BC27
:1010400004F094BB0CED00E0064900F007020868CC
:101050004FF6FF03184040EA0220034A104308609D
:10106000704700000CED00E00000FA05024800683F
:1010700000F4C06070470000007000402DE9F84F98
:10108000044600270088E54D3E46010504F1200B8B
:101090001DD5606E78B1B0F5800F11D0B0F5000F9E
:1010A00004D0B0F5400F22D001270FE0E86840F4EB
:1010B0008030E8601BE00021201D02F049F803E0C9
:1010C0000021584602F0DAF8070010D03E4620888A
:1010D000C00426D5A06EC0B1B0F1807F1AD0B0F1A7
:1010E000007F0DD0B0F1407F19D0012718E0D5F86E
:1010F0008800616E20F440000843C5F88800E6E7E8
:10110000E86840F48030E86009E00021201D02F02A
:101110001FF803E00021584602F0B0F80746F7B187
:101120003E46206880033AD5A86D4FF00008C00005
:1011300009D4A86D40F08050A865A86D4FF0010853
:1011400000F080500090DFF8D8A2DAF8001041F4E7
:101150008071CAF80010FFF715FF814610E0D5F83E
:101160008800A16E20F040700843C5F88800D8E7D9
:10117000FFF708FFA0EB0900022801D9032705E0CB
:10118000DAF80000C005F3D5002F7CD04FEA07063F
:10119000B8F1000F03D0A86D20F08050A86520782A
:1011A000C00707D0D5F88800A16B20F003000843E2
:1011B000C5F888002078800707D5D5F88800E16B4E
:1011C00020F00C000843C5F888002078400707D5B8
:1011D000D5F88800216C20F030000843C5F888005D
:1011E0002078000707D5D5F88800616C20F0C00092
:1011F0000843C5F888002078C00607D5D5F88800D0
:10120000A16C20F440700843C5F88800207880065F
:1012100007D5D5F88800E16C20F440600843C5F894
:1012200088002088800507D5D5F88800E16D20F476
:1012300040200843C5F888002088400507D5D5F828
:101240008800216E20F440100843C5F888002078FB
:10125000400607D5D5F88800216D20F4405008439A
:10126000C5F888002078000607D5D5F88800616D9C
:1012700020F440400843C5F888002088C00509D5FF
:10128000D5F8880000E01CE0A16D20F44030084350
:10129000C5F8880020884FF0006780044FF0806810
:1012A0004FD5D5F88800E16E20F040600843C5F8BE
:1012B0008800E06EB8423CD1E86840F48010E860F5
:1012C0003FE0D5F8900010F4407015D0D4F88410A9
:1012D000814211D0D5F89000D5F8901020F44070DC
:1012E00041F48031C5F89010D5F8901021F4803188
:1012F000C5F89010C5F89000C00710D0FFF742FE67
:10130000074641F2883906E0FFF73CFEC11B49451C
:1013100001D903263CE7D5F890008007F4D5D5F82D
:101320009000D4F8841020F440700843C5F8900071
:101330002EE7404505D10121201D01F009FF00B134
:1013400006462068000317D5D5F88800216F20F0E5
:1013500040600843C5F88800206FB84204D1E868AF
:1013600040F48010E86007E0404505D10121201DD0
:1013700001F0EEFE00B106462068400317D5D5F80F
:101380008800616F20F040600843C5F88800606FF6
:10139000B84204D1E86840F48010E86007E04045B6
:1013A00005D10121201D01F0D3FE00B106462088A1
:1013B00040041AD5D5F88800A16F20F040500843AA
:1013C000C5F88800A06FB0F1805F03D0B0F1005F76
:1013D00005D00AE00221201D01F0BAFE03E002213F
:1013E000584601F04BFF00B106462088000407D59F
:1013F000D5F88800E16F20F080400843C5F88800E8
:101400002068C00307D555F8880FD4F8801020F065
:10141000004008432860304600F004B80010024045
:101420000070004018BCBDE8E08F00002DE9F047D7
:101430000F46050058D0404E306800F00700B84213
:1014400009D2306820F0070038433060306800F07F
:101450000700B84248D12878384CC0072CD06868BB
:10146000032811D0022812D0216898B1490500291B
:101470003ADAA16821F003010143A160FFF782FD80
:10148000804641F2883910E021688901EFE7216840
:101490008903ECE78907EAE7FFF774FDA0EB080191
:1014A000494502D90320BDE8F087A068696800F0CB
:1014B0000C00B0EB810FEFD12878800705D5A0682C
:1014C000A96820F0F0000843A060306800F0070031
:1014D000B8420BD9306820F00700384330603068DC
:1014E00000F00700B84201D00120DCE7287840076F
:1014F00005D5A068E96820F4E0600843A06028787A
:10150000000706D5A068296920F4605040EAC100B0
:10151000A06000F03FF8A168094AC1F30311515CD3
:1015200001F01F01C8400749086007480068BDE88E
:10153000F047FFF744BD00000020024000100240C9
:10154000D06800083C000020400000200548064903
:1015500000688968054AC1F30221515C01F01F014E
:10156000C84070473C00002000100240106900088D
:101570000548064900688968054AC1F3C221515CE3
:1015800001F01F01C84070473C00002000100240DD
:101590001069000870B52549002318468A68CC6890
:1015A00012F00C0204F00306214C4FEA640509D046
:1015B0000C2A05D0042A32D0082A00D1284670BD52
:1015C000012E10D10B681B0704D4D1F89430C3F35B
:1015D000032302E00B68C3F30313164E56F82330BF
:1015E000DAB10C2AEBD1C86800F00300022818D049
:1015F000032818D01846CA68CB68C2F30212C3F396
:1016000006234343521CB3FBF2F2C868C0F34160A7
:10161000401C4000B2FBF0F070BD184670BD204683
:1016200070BD2046E7E72846E5E7000000100240CD
:101630000024F400E06800082DE9F84304006ED0AF
:10164000FD4DA86800F00C06E86800F0030720785C
:10165000C00663D576B10C2E01D1012F0AD0A06946
:101660000028286878D040F001002860FFF78AFC45
:1016700080465BE02868800702D5A0690028DED09C
:10168000216A2868000703D5286800F0F00004E00C
:10169000D5F89400F02202EA1010814216D90846CB
:1016A00001F070FE00283AD1286840F00800286058
:1016B0002868216A20F0F000084328606868E16922
:1016C00020F47F4040EA0120686015E0286840F07F
:1016D000080028602868216A20F0F000084328608C
:1016E0006868E16920F47F4040EA01206860206A70
:1016F00001F048FE0028D6D1FFF74CFFA968CF4A79
:10170000C1F30311515C01F01F01C840CC490860CE
:10171000CC480068FFF753FC00287DD12DE0C9E0DC
:10172000FFF730FCA0EB0800022876D82868800775
:10173000F6D5286840F0080028602868216A20F063
:10174000F000084328606868E16920F47F4040EABF
:101750000120686011E0FFE720F001002860FFF73A
:1017600011FC804606E000BFFFF70CFCA0EB080070
:101770000228DAD828688007F6D42078C00740D03D
:10178000082E18D00C2E01D1032F14D06068B0F5AC
:10179000803F17D0B0F5A02F286817D020F48030F4
:1017A0002860286820F4802028606068E0B1FFF796
:1017B000E9FB804614E02868800322D56068002891
:1017C00078D01EE0286840F48030EDE740F48020B7
:1017D0002860F7E7FFF7D6FBA0EB08006428A4D841
:1017E00028688003F6D50CE0FFF7CCFB804605E0C7
:1017F000FFF7C8FBA0EB0800642896D82868800390
:10180000F6D4207880073BD5042E11D00C2E01D1C0
:10181000022F0DD0E06801E03EE19FE0002828683B
:101820001ED040F480702860FFF7ACFB07460CE048
:10183000286840050CD5E0680028C1D008E000BF4A
:10184000FFF7A0FBC01B022893D828684005F7D5F6
:101850006868217C20F0F85040EA016068600FE081
:1018600020F480702860FFF78DFB074605E000BF7D
:10187000FFF788FBC01B022870D828684005F7D402
:101880002078000729D560690028D5F8940012D087
:1018900040F00100C5F89400FFF774FB074604E030
:1018A000FFF770FBC01B022858D8D5F894008007BA
:1018B000F6D512E029E120F00100C5F89400FFF709
:1018C00061FB074605E000BFFFF75CFBC01B022879
:1018D00044D8D5F894008007F6D42078400768D51E
:1018E000A86D0027C00008D4A86D40F08050A865FE
:1018F000A86D012700F08050009053480168C90589
:1019000012D40168814641F480710160FFF73AFB0F
:10191000804605E0FFF736FBA0EB080002281DD843
:10192000D9F80000C005F5D5A068012817D0052812
:10193000D5F8900018D020F00100C5F89000D5F837
:10194000900020F0040000BFC5F89000A06841F2AC
:101950008839D0B1FFF716FB804611E06BE0D5F86F
:10196000900040F00100EFE740F00400C5F890005F
:10197000F5E700BFFFF706FBA0EB080149455AD881
:10198000D5F890008007F5D50EE0FFF7FBFA80460A
:1019900006E000BFFFF7F6FAA0EB080149457AD848
:1019A000D5F890008007F5D41FB1A86D20F08050C5
:1019B000A865A06AF0B30C2E75D00228286820F024
:1019C0008070286004D0286810F0205F51D054E067
:1019D000FFF7D8FA064604E0FFF7D4FA801B022886
:1019E00059D828688001F7D4D4E90B016FF00F02B1
:1019F00002EB01110843A18F5204490802EB415147
:101A0000626B41EA0221084394F840104FF07E4295
:101A1000490802EB41610843A16B090940EA4140D2
:101A2000E9680A4A11400843E860286840F080707D
:101A300028600DE06BE02EE000100240D068000846
:101A40003C00002040000020007000408C809DF988
:101A5000E86840F08070E860FFF794FA044604E01C
:101A6000FFF790FA001B022815D828688001F7D5E7
:101A70004DE0E86820F00300E860E8682549084088
:101A8000E860FFF77FFA044609E000BFFFF77AFA43
:101A9000001B022803D90320BDE8F88303E028686F
:101AA0008001F3D433E00128F6D0E868E26A00F060
:101AB0000301914229D1216B00F070020901103914
:101AC000914222D1626B00F4FE41B1EB022F1CD196
:101AD000A26B00F40031072A01D0012200E00022AD
:101AE000914212D1A18F00F4C00249084905A1F525
:101AF0000011914209D194F8401000F0C0604908EB
:101B00004906A1F10071814201D00120C4E7002003
:101B1000C2E70000FFFFEEFE90F8201001291AD066
:101B2000012180F82010022280F821200368CA22B7
:101B30005A62036853225A620268936843F0200392
:101B400093600368FF225A6280F82110002180F818
:101B50002010084670470220704703F025BA2DE98F
:101B6000F047044690F82000012823D04FF00108E8
:101B700084F82080022084F821002268CA20506264
:101B800022685320506220680025FF26B1F5807F2F
:101B900081684FF0030A4FF47A790ED021F4007176
:101BA00081602068816821F400518160FFF7EAF9C3
:101BB000074625E00220BDE8F08721F480718160AE
:101BC0002068816821F480518160FFF7DBF90746C6
:101BD00004E0FFF7D7F9C01B484509D82068C06862
:101BE000C007F6D010E0FFF7CDF9C01B484507D974
:101BF0002068466284F821A084F820500320DAE7A8
:101C00002068C0688007EED52068466284F821808D
:101C100084F820500020CEE710B500680B464168DC
:101C20000D480140080CD870C1F304245C7001F029
:101C30003F049C70C1F34231197052B901F0E2FBCC
:101C4000D870587801F0DEFB5870987801F0DAFB14
:101C50009870002010BD00003FFFFF0010B50B463C
:101C60000168896A596001680969C1F30E019960C8
:101C7000006801680D480140C1F305401870C1F3C8
:101C800006245C7001F07F049C70890DD97052B9F4
:101C900001F0B8FB1870587801F0B4FB58709878D0
:101CA00001F0B0FB9870002010BD00007F7F7F0026
:101CB00010B504004FF0010044D094F8210028B979
:101CC000002084F82000204600F040F8022084F82C
:101CD00021002168CA2048622168532048622046BA
:101CE00001F0A6FB00282DD120688168164A11401A
:101CF0008160216888686268A369104322691A4379
:101D0000104388602168E0680861206801692289C1
:101D100041EA02410161204601F0AEFB002811D1E9
:101D20002168CA6C22F00302CA646269E169114346
:101D30002268D36C1943D1642268FF2151620121CA
:101D400084F8211010BD0000BFFF8FFF00B5B3B0B5
:101D5000442122A8FEF783FA88216846FEF77FFA1D
:101D60000420229000202C900120249022A8FFF72C
:101D700063FC08B1FEF7E4FD4FF400300090401220
:101D800021906846FFF77AF908B1FEF7D9FD0848B7
:101D900050F8901F41F400410160002211462920B3
:101DA000FFF732F92920FFF721F933B000BD000019
:101DB000001002402DE9F05F044690F820000B4629
:101DC000012844D0012084F82000022084F821005A
:101DD0002068002680684FEA4060BAB3002800DB24
:101DE000DE7098781978DA7840EA0140597809026B
:101DF00041EA8251084393F8201040EA0165D8690E
:101E00005F68054358692168054398690743CA20FC
:101E10004862216853204862586A4FF0FF08B0F5C5
:101E2000807F20684FF0030B4FF47A7A81682BD0C3
:101E300021F4007181602068C16801F0800161F4C3
:101E40002071C160FFF79EF8814652E002E0022057
:101E500000F078B8002800DBDE70187801F0DBFABB
:101E60000504587801F0D7FA45EA0025987801F082
:101E7000D2FA0543D87845EA805593F8200001F05E
:101E8000CAFA45EA0065BAE721F4807181602068EA
:101E9000C16801F0800161F4C071C160FFF772F8A0
:101EA000814605E0FFF76EF8A0EB0900504517D812
:101EB0002068C068C007F5D02068C5612068476405
:101EC0002068816841F4807181602068816841F4F4
:101ED00080511FE0FFF756F8A0EB0900504508D9E4
:101EE0002168C1F8248084F821B084F820600320A0
:101EF000AEE72068C0688007ECD5206805622068DE
:101F000087642068816841F400718160206881687D
:101F100041F4005181600A48016841F48021016068
:101F200007480830016841F4802101602168C1F848
:101F30002480012084F8210084F82060002087E7B5
:101F40000004014030BCBDE8C09F000070B50446ED
:101F500090F820000B4601281BD0012684F8206051
:101F6000022084F82100B2B19878D97840EA01457E
:101F700058781978000240EA413005432168CA20A8
:101F80004862216853204862204601F051FAD0B1DE
:101F900020E0022070BD5878C10603D500F0EF00A4
:101FA0000A305870D87801F036FA0504587801F0F4
:101FB00032FA45EA0025987801F02DFA05431878A1
:101FC00045EA4035DAE70848054020684560204684
:101FD00001F052FA2268FF21516208B984F82160A9
:101FE000002184F8201070BD3FFFFF002DE9F04173
:101FF000044690F8200090460D46012811D0012794
:1020000084F82070022084F821002168CA204862E8
:10201000216853204862204601F00AFA002618B1D0
:1020200029E00220BDE8F0812068B8F1000F806847
:102030004FEA406024D0002800DBEE70A8782978B1
:10204000EA7840EA01406978090241EA825108438E
:1020500018490840216808602068816821F48021BF
:102060008160D5E90301084321688A6810438860CC
:10207000204601F001FA2268FF215162A0B115E06B
:10208000002800DBEE70287801F0C5F903046878B9
:1020900001F0C1F943EA0023A87801F0BCF9034339
:1020A000E87843EA8050D3E784F8217084F8206010
:1020B000B8E700007F7F7F0070B504460068C16804
:1020C00021F0A001C160FEF75DFF05464FF47A766E
:1020D00007E000BFFEF756FF401BB04201D90320C6
:1020E00070BD2068C0688006F4D5002070BD2DE961
:1020F000F041040005D00025A56294F85D0018B1F8
:1021000007E00120BDE8F08184F85C50204600F033
:1021100044F8022384F85D302068016821F0400112
:102120000160E0684FF4E066B04201D9002101E0AF
:102130004FF48051B0F5706F02D0B04200D0A5626C
:10214000276B012227B9B04201D9236300E0226343
:10215000D4E901031843D4E9043633431843238BED
:1021600003F400731843E3691843236A1843A36A0E
:10217000184323681860636B606AA66918430427D4
:10218000E36807EA1646334318430843216848606A
:10219000256684F85D200020B4E770472DE9F05FE4
:1021A000044690F85C0000270A9E1D4692468B4626
:1021B0004FF0010901280ED0012084F85C00FEF7E1
:1021C000E1FE804694F85D00616801280CD0B1F50D
:1021D000827F07D102E0022000F011B9A16809B99D
:1021E000042801D0022700E1BBF1000F24D0BAF18E
:1021F000000F21D005B394F85D00042802D005201B
:1022000084F85D0000202066C4F840A0A4F8465081
:10221000A4F84450C4F838B0E587A587E064206589
:10222000E0684FF4E061884201D8012D06D92068AA
:10223000426822F4805205E00127D6E02068426817
:1022400042F48052426020680268520603D4026859
:1022500042F040020260E0688842606845D908B1F7
:10226000012D3AD1A06B21680088C860A06B801C4A
:10227000A063E08F401EE0872FE020688168890717
:102280000FD5E18F69B1B9F1010F0AD1A16B0988AE
:10229000C160A06B801CA063E08F401EE0874FF000
:1022A000000920688168C9070FD0B4F8461061B1F1
:1022B000C068216C0880206C801C2064B4F8460043
:1022C000401EA4F846004FF00109FEF75BFEA0EBAC
:1022D0000800B04201D3701C75D1E08F0028CCD12A
:1022E000B4F846000028C8D176E008B1012D6CD1C1
:1022F000E08F0128A06B08D921680088C860A06B16
:10230000801CA063E08F801E07E0216800780873BE
:10231000A06B401CA063E08F401EE08755E0206862
:10232000816889071AD5E18FC1B1B9F1010F15D1C3
:10233000E18F0129A16B07D90988C160A06B801CBE
:10234000A063E08F801E06E009780173A06B401C3B
:10235000A063E08F401EE0874FF00009206881688D
:10236000C90728D0B4F8461029B3B4F8461001299B
:1023700014D9C068216C0880206C801C2064B4F8DB
:102380004600801EA4F84600B4F84600012810D884
:102390002068416841F4805141600AE0007B216C73
:1023A0000870206C401C2064B4F84600401EA4F85D
:1023B00046004FF00109FEF7E5FDA0EB0800B04232
:1023C00002D3701C01D018E0BEB1E08F0028A6D166
:1023D000B4F846000028A2D142463146204601F01A
:1023E000BFF810B1012720202066012084F85D008D
:1023F000002084F85C003846EEE60327F5E730BCA1
:10240000BDE8C09F704770472DE9F041026804465F
:10241000D0691168936810F00F0F4FF000055BD082
:1024200003F0010601F49077374369D0C70707D05E
:10243000CF0505D501271762E26F42F00102E2677E
:10244000820708D5DA0706D0276802223A62E26FCF
:1024500042F00402E267420708D5DA0706D0236893
:1024600004221A62E26F42F00202E26702070AD512
:1024700001F02002324306D0236808221A62E26F7C
:1024800042F00802E267E26F002A32D0800605D5EA
:10249000880603D5216E09B120468847E06F216880
:1024A0008968490601D4000725D5204602F099FF26
:1024B00020688168490619D5816821F04001816052
:1024C000E06E98B120498163E06EFEF740FB002882
:1024D0000FD0E06E816B06E0860611D58E060FD513
:1024E000216E1EE02046BDE8F04108472046FFF778
:1024F0008AFFBDE8F0812046FFF785FFE567F8E732
:10250000C60209D55B0207D54FF480101062204641
:10251000BDE8F041FFF776BF030605D50B0603D5EE
:10252000616E0029DED1E4E74006E2D54806E0D539
:102530001168204621F04001116020216167656625
:1025400000F0D8F8D5E700004D53000810B504009E
:1025500002D0606F10B107E0012010BD002084F8A8
:102560007000204600F026F824206067206801688B
:1025700021F001010160204602F04AFF0128ECD061
:10258000606A10B1204602F051FE2068416821F4D3
:10259000904141602068816821F02A0181602068B3
:1025A000016841F0010101602046BDE8104002F0E1
:1025B000A1BE000038B5054600682649884248D1CA
:1025C0002549C86C40F00100C864C86C00F00100E7
:1025D0000090C86C40F00100C864C86C00F00100B5
:1025E0000090886D40F400308865886D00F40030FC
:1025F0000090886C40F001008864886C00F0010055
:10260000009004F081F8164C14480021206010203E
:10261000C4E902018020C4E90401A161E161022052
:10262000216260602046FEF717FBAC6601220021A4
:102630001120A562FEF7E8FC1120FEF7D7FC01226D
:1026400000212620FEF7E0FCBDE838402620FEF7FA
:10265000CDBC38BD00440040001002408000024064
:102660007C04002070B50446406F20283AD159B34D
:1026700052B394F87000012834D0012084F870001F
:10268000E164A4F85020A4F852200025E567212039
:102690006067A06ED0B11449C162A16E13481346A1
:1026A0000863A16E12484863A06E85632668E16CDA
:1026B00006F12802A06EFEF72FFB38B11020E0676C
:1026C00084F8705020206067012070BD2168402090
:1026D000086284F870502068816841F08001816050
:1026E000002070BD022070BDA9530008D953000816
:1026F00061530008014800680047000064000020A2
:1027000070470000154882B00178002923D10121CB
:102710000170144812494FF480320160002180F8A2
:1027200038104260017681600161C160417680F8B5
:10273000201004224261C16280F830100A48C16C46
:1027400041F40051C164C06C00F400500090054891
:1027500002B0FEF717B902B0704700006800002011
:1027600000000450440500200010024001460020F3
:102770000A0A00D008204FF2F002114201D040F0C6
:1027800004004CF6CC42114201D040F002004AF65F
:10279000AA22114201D040F00100704718B41C4B2E
:1027A000B0F1904F10D01B4C041915D0B4F5806FC8
:1027B0001FD0B4F5006FDC6C23D044F08004DC64DF
:1027C000DB6C03F080030EE0DC6C44F00104DC649D
:1027D000DB6C03F0010306E0DC6C44F00204DC6413
:1027E000DB6C03F002030093116018BC1146FEF786
:1027F000DFBADC6C44F00404DC64DB6C03F004033B
:10280000F1E744F00804DC64DB6C03F00803EAE75A
:102810000010024000FCFFB710B5FFF7A7FF054905
:1028200051F82010002903D0BDE8104000200847CF
:1028300010BD00003C02002070B51C4615460E4637
:102840000846FFF793FF0A4974B141F8204030462B
:1028500000F076FB044600222946FEF7D5FB204611
:10286000BDE87040FEF7C2BB002241F8202070BDD9
:102870003C020020D2B2FEF780BB000010B586B04B
:1028800014216846FDF7EBFC464CE06C40F001007B
:10289000E064E06C00F001000590E06C40F00200A4
:1028A000E064E06C00F002000590E06C40F0040091
:1028B000E064E06C00F004000590E06C40F008007B
:1028C000E064E06C00F008000590E06C40F010005F
:1028D000E064E06C00F010000590E06C40F0200037
:1028E000E064E06C00F020000590E06C40F04000F7
:1028F000E064E06C00F040000590E06C40F0800087
:10290000E064E06C694600F08000059003200190CF
:102910000020029049F6FF7000904FF09040FEF7C3
:1029200047FA4FF6FF70009069461F48FEF740FADD
:1029300069461E48FEF73CFA69461D48FEF738FA1C
:1029400069461C48FEF734FA69461B48FEF730FA20
:1029500069461A48FEF72CFA69461948FEF728FA24
:10296000E06C20F00100E064E06C20F00200E06424
:10297000E06C20F00400E064E06C20F00800E0640B
:10298000E06C20F01000E064E06C20F02000E064D7
:10299000E06C20F04000E064E06C20F08000E06437
:1029A00006B010BD001002400004004800080048B6
:1029B000000C0048001000480014004800180048AF
:1029C000001C004810B5094C607800280CD1FFF7B6
:1029D00099FE07480068804700F0FCF900F09AF87B
:1029E00002F0B4FB0120607010BD00006800002000
:1029F0005C68000870B5410EC0017D220023FDF720
:102A0000E1FB054600F07EF8044600E000BF00F060
:102A100079F8001BA842F9D370BD00002DE9F04100
:102A200005460C4600222748FFF718F9264FB86ADA
:102A3000002286B229462348FFF7EEF800222146FD
:102A40002048FFF70BF9B86A80B2B042EFD1E878BE
:102A500040F2B55110FB01F1C91C8A0880072ED045
:102A60001A486B7803EB4301C1EB83115B009B1E9B
:102A7000D8403C3900F0030001EBD171C0EB61009C
:102A80001044A978401E08441149227848436178CF
:102A9000C2EB4213C1EB01118900C3EB022201EB2F
:102AA0000211A27810440844810D83026068A0F2EC
:102AB000FF304042181841F10001BDE8F08105489F
:102AC000CFE700007C02002000280040A0AA990067
:102AD00080510100505544000320704701480068B0
:102AE00070470000C802002000B587B0694605A8FD
:102AF000FFF794FF0249096807B0401A00BD0000C3
:102B0000C802002000B587B0694605A8FFF786FF18
:102B100007B000BD10B5084C207800280AD100F09D
:102B200051F84FF480710548FFF719F800F07CF870
:102B30000120207010BD00004C0000207C0200200D
:102B400010B50E4C0021042000F0E8F90C494FF4B8
:102B50008020086021688868C0040DD5C868C00559
:102B60000AD5C86800F0800060F4C070C8602046D4
:102B7000BDE81040FEF7F1BF10BD00007C02002050
:102B80001404014070B50446FFF7AEFF0C4D211A46
:102B9000B5F90200C01C814201D9002100E00121E9
:102BA000042000F0BBF900F095F9012802D1B5F935
:102BB0000200241A2046BDE8704000F041B8000031
:102BC0004C00002010B5174886B015490024C0E914
:102BD00000141F21816040F2FF31C0E903148461B9
:102BE000C461FFF765F88DF8174001208DF81500D6
:102BF0008DF816008DF81400002205A90948FFF78A
:102C0000A5F90094019404940022694605480394B0
:102C1000FFF7ECF90348FEF77FFF06B010BD000098
:102C2000002800407C02002010B5044C211D04F156
:102C30001800FFF7F3FE206010BD0000C80200205E
:102C400070B586B00546142241496846FDF7EEFA94
:102C50003F485038446E00F081F80198C5F30901EF
:102C6000A0F2FF30404208443A4A86B2AB0AC4F3AD
:102C70000740514202E0401C134480B28B42FAD21A
:102C80009DF800204FF4616103E0521C92B2A3F55D
:102C900061638B42F9D29DF8011002E0491C89B2B0
:102CA0003C3B3C2BFAD29DF802502B449DB24FF492
:102CB000806304E0A6F580666D1CB6B2ADB29E429C
:102CC000F8D203E03C3D491CADB289B23C2DF9D2AB
:102CD00003E03C39521C89B292B23C29F9D203E09C
:102CE000183A401C92B280B2182AF9D2230E9B07E0
:102CF000C4F3072429D0184B5B1EE35C834203D244
:102D0000B0FBF3F403FB1400114BA6F2FF362C3B8F
:102D100074425C604FF020649C619D7059701A7021
:102D200083F820009DF80300D8700020D861586116
:102D30004FF48071D8605962024618611946A1F1BA
:102D40002400FFF737F806B070BD034B0C33D3E710
:102D5000CC02002080AEFEFF1869000810B54FF4C9
:102D600080710848FEF7FBFE06480068C16801F064
:102D7000800161F4C071C16003494FF48020086094
:102D800010BD00007C02002014040140810A4FF4B1
:102D90007A72C0F30900514310FB02F001EB90205E
:102DA000704710B5410EC0017D220023FDF70AFADD
:102DB00010BD000001B582B04FF0FF30009001233C
:102DC00001AA02A90248FFF7E9F9BDF804000EBD07
:102DD000E402002008B51D481B491E4A01601C4B37
:102DE0000021126803E05208491C072901D29A42C7
:102DF000F9D8302202EAC102C90700D008210A43EB
:102E0000C26100214FF48272C0E901210161416178
:102E10004FF4E0628162C26001624FF4007282612D
:102E200041620D48016E41F480510166006E00F46C
:102E3000805000900548FFF75AF908B1FDF780FD72
:102E4000BDE8084000F00AB800300140E40200206C
:102E5000809698003C0000200010024030B585B0FC
:102E600014216846FDF7FBF902200024CDE9010496
:102E70000320039005204FF0904504906A462021DE
:102E80002846FFF78BFC6A4640212846FFF786FC60
:102E90006A4680212846FFF781FC0120CDE9010424
:102EA000064C6A4640212046FFF778FC012240216B
:102EB0002046FFF7DFFC05B030BD000000040048ED
:102EC00000BFFDE78068C0F3C00070478068C0F3B2
:102ED00080007047EFF3108172B6064802680AB1AD
:102EE000002004E0406808B1012000E0022081F3E6
:102EF000108870476C00002010B5EFF3108272B696
:102F0000054C636819B1012903D1034300E08343F1
:102F1000636082F3108810BD6C00002010B5EFF3E1
:102F2000108272B6054C236819B1012903D10343FD
:102F300000E08343236082F3108810BD6C00002002
:102F4000802826D010DC08281FD006DC012816D0E7
:102F5000022816D0042810D115E0102817D02028F8
:102F600017D0402809D114E0B0F5805F05DAB0F53C
:102F7000807F0ED0B0F5007F0BD028207047062050
:102F800070470720704708207047092070470A20C3
:102F9000704717207047FEE7704700002DE9F041A9
:102FA000214C17460A46A180014698461F48FDF766
:102FB0003DF9677084F80280012020701CA002F0A7
:102FC000ABFB0025194E05E0715D1AA002F0A4FBD1
:102FD0006D1CEDB2A0888542F6D315A002F09CFBD3
:102FE000A18816A002F098FB424639461BA002F0C9
:102FF00093FBA16821A0491CA16002F08DFB002079
:10300000A18808E0325C312A03D0E088401CE080CF
:1030100003E0401CC0B28842F4D3E188BDE8F0412F
:103020001DA002F079BB00005000002048030020E2
:103030000A00000025782020200000004F6E527802
:10304000446F6E652C205061796C6F6164206C65F3
:103050006E677468203D2025640A0000527373690E
:1030600056616C75653D25642064426D2C20536E5D
:103070007256616C75653D25640A00007265636572
:10308000697665207061636B65747320636F756E1C
:10309000743D256C640A00005061796C6F61642096
:1030A0006572726F722120436F756E743A25640DDC
:1030B0000A000000044803210170C168491CC16076
:1030C00002A002F055B80000500000200D0A4F6E1B
:1030D00052784572726F722C436F756E743A256424
:1030E0000A0D000002490220087002A002F040B858
:1030F000500000204F6E527854696D656F75740AE8
:103100000D00000002490420087002A002F030B84F
:10311000500000204F6E5478446F6E650A0D000019
:1031200002490520087002A002F022B850000020D9
:103130004F6E547854696D656F75740A0D00000008
:10314000014801F099BF00004804002070470000CA
:103150002DE9F041444C05468846E0680026810789
:1031600028680DD0E16801F00301814216D1A8B1B1
:10317000E0686968C0F30210401C88420ED120E06C
:10318000012804D0022805D0032807D108E02168CF
:10319000890701E021684905002907DB01265FE076
:1031A0002168890302D421684903F5E7E1686A6868
:1031B0006FF00F0321F0730103EB0212114301437F
:1031C000E160206820F080602060FDF7DBFE0746AC
:1031D00005E000BFFDF7D6FEC01B022837D82068E7
:1031E0000001F7D4B8F1000F18D0B8F1010F1ED0CC
:1031F000287D4FF07E41400801EB4060A96840EA1D
:1032000001202169194A114008432061206840F0DB
:1032100080602060FDF7B6FE07461AE0A868E968FE
:103220000002090940EA41402169114AEBE7288A76
:103230001049400801EB4050A96840EA012021698B
:103240000D4AE0E7FDF79EFEC01B022801D90326C8
:1032500006E020680001F5D52069A96908432061CE
:103260003046BDE8F081000000100240FF80FFF909
:10327000FF80FDFF0000E0FFFF809FFF2DE9F04190
:103280003D4C06468846E0680025810730680DD031
:10329000E16801F00301814216D1A8B1E0687168CC
:1032A000C0F30210401C88420ED120E0012804D057
:1032B000022805D0032807D108E02168890701E02A
:1032C00021684905002907DB012551E021688903B0
:1032D00002D421684903F5E7E16872686FF00F03D3
:1032E00021F0730103EB021211430143E1602068F6
:1032F00020F080502060FDF745FE074605E000BF46
:10330000FDF740FEC01B022829D820688000F7D4B2
:10331000B8F1000F15D0307C4FF07E41400801EB32
:103320004060B16840EA01206169144A11400843D5
:103330006061206840F080502060FDF723FE074662
:103340000FE0B068F1680002090940EA4140616994
:103350000B4AEBE7FDF716FEC01B022801D9032537
:1033600006E020688000F5D56069716908436061F6
:103370002846BDE8F081000000100240FF80FFF900
:10338000FF80FDFFF8B51C4D06460024A86DC00067
:1033900002D5FDF76BFE0DE0A86D40F08050A865EA
:1033A000A86D00F080500090FDF760FEA96D21F03F
:1033B0008051A965B0F5007F04D0802E07D94FF069
:1033C00003040AE0802E08D9A02E01D804E001D120
:1033D000022402E0702E00D101240848016821F087
:1033E000070121430160006800F00700A04201D0FE
:1033F0000120F8BD0020F8BD00100240002002406E
:10340000FFF79EBB010901EB810100F00F0000EB0B
:103410004100C0B270470022014602E00A39C9B239
:10342000521C0A29FAD2100741EA106070470000C6
:103430002DE9F041044600680025C168490617D40B
:10344000691EC160FDF79EFD06464FF47A7803279A
:1034500008E000BFFDF796FD801B404502D903251B
:1034600084F821702068C068400601D4032DF1D192
:103470002846BDE8F08100002DE9F04106461348DA
:103480000025016821F080010160041F20684FF0D1
:103490000307800607D43046FEF70EFE90B186F88B
:1034A000217003250EE0206820F0200020603046C7
:1034B000FEF702FE10B186F821700325206840F067
:1034C000200020602846BDE8F08100000C28004064
:1034D00070B5092000F025FE0546062000F021FE0B
:1034E0000404072000F01DFE44EA0024082000F038
:1034F00018FE0443220AA4EB022343F60950434377
:103500004243803302EB13240021092001F09CFC8C
:103510003B2000F006FE40F040013B2001F094FC0F
:103520003B2000F0FEFD8006FAD40C4800F016FFA8
:103530003B2000F0F6FD40F040013B2001F084FC10
:103540003B2000F0EEFD8006FAD42946092001F068
:103550007BFC2046BDE8704000F000BF00A1BC33FA
:10356000F8B515460E460B460092044600224FF46D
:10357000C05100F019F888B9334600228021204656
:10358000009500F05CF848B9334600224FF4C06162
:103590002046009500F008F8002804D0206E40F086
:1035A000200020660320F8BD2DE9F0471D46174690
:1035B0000E4604464FF4C068DDF820900CE0464506
:1035C00001D107B9007B681C06D0FDF7DBFCA0EB3E
:1035D0000900A84208D23DB1206881683140B94253
:1035E000EDD10020BDE8F0872068416821F0E001BE
:1035F00041606068B0F5827F0BD1A068B0F5004FE4
:1036000002D0B0F5806F04D12068016821F040013C
:103610000160A06AB0F5005F09D12068016821F45B
:10362000005101602068016841F4005101600120EF
:1036300084F85D00002084F85C000320D2E72DE9C7
:10364000F0411D4617460E460446DDF8188008E096
:10365000681C06D0FDF796FCA0EB0800A8420BD230
:1036600055B12068806836EA000030D00020B842AA
:10367000EED10020BDE8F0812068416821F0E00132
:1036800041606068B0F5827F0BD1A068B0F5004F53
:1036900002D0B0F5806F04D12068016821F04001AC
:1036A0000160A06AB0F5005F09D12068016821F4CB
:1036B000005101602068016841F40051016001205F
:1036C00084F85D00002084F85C000320D2E701202C
:1036D000CDE77047014948607047000000000020B6
:1036E00001207047014800797047000080010020E8
:1036F00070B50D462DED0E8B01004FF000009FEDD3
:1037000083BB9FED84CB9FED85AB864C9FED868B75
:103710000DD001297ED1606CB0EE489AF0EE689A27
:1037200007285ED008285FD0092862D15FE0E069F1
:10373000FCF744FF41EC190B2846FCF73FFF41EC36
:103740001D0B302000F0EDFC30F0F90004D0B0EE9D
:103750004AEAF0EE6AEA03E0B0EE48EAF0EE68EA20
:10376000272000F0DEFC20F0F800218C401C0844EB
:10377000FCF724FF41EC100B94F82200012803D140
:10378000B0EE48AAF0EE68AA53EC1A2B51EC100BDD
:10379000FCF770FD53EC1E2BFCF76CFD53EC1D2B5E
:1037A000FCF768FD41EC100B94F82400012801D1CE
:1037B0009FED5F8B51EC100B53EC182BFCF75AFD6F
:1037C00053EC1B2BFCF705FE53EC192BFCF776FE94
:1037D00053EC1C2BFCF7FDFD41EC100B02F0F0F854
:1037E00089E09FED559B04E09FED559B01E09FED27
:1037F000569B54F8486F0120B040FCF7CEFE41ECD8
:10380000100B51EC190B53EC102BFCF757FE41EC4D
:10381000100B00E077E053EC102B51EC1A0BFCF787
:103820004DFE41EC190BE088FCF7C8FE9FED481BEC
:1038300053EC112BFCF71EFD53EC192BFCF7C9FDC3
:1038400041EC1D0B6079001DFCF7B8FE41EC1E0B2E
:103850002079483C00B10220301A8000FCF7AEFE0F
:1038600041EC1A0BE800714200EB810094F8521011
:1038700000EB011094F8501001B11421401A1C30D3
:10388000FCF79CFE53EC1A2BFCF718FE41EC100BD6
:1038900001F07EFF53EC1E2B51EC100BFCF799FD51
:1038A00041EC1A0B53EC182BFCF7AEFE03D2B0EE32
:1038B0004A8AF0EE6A8A53EC1B2B51EC180BFCF78A
:1038C000D9FC53EC192BFCF784FD41EC100B51ECA7
:1038D0001D0B53EC102BFCF7CDFC53EC1C2BFCF711
:1038E00078FD9FED1D1B53EC112BFCF7C3FC41EC45
:1038F000100B01F0D9FF00F033B851EC100BBDE80C
:103900007040FCF768BE00F031B870BD00000000E8
:10391000000020400000000000408F400000000038
:103920000000F03F800100200000000000000000C7
:103930000000000000000040000000008084FE4005
:103940000000000080840E410000000080841E41C1
:1039500000000000000011402B8716D9CEF7EF3F82
:10396000BDEC088BBDEC06CBFFF7C7BFBDEC088BE9
:10397000BDEC06CBFFF7C9BF00207047034810B568
:10398000406840688047801C10BD00000000002097
:103990002DE9F0411E4D1F4928601F4801F0EFFA44
:1039A0001D481C49183001F0EAFA1B48194930300B
:1039B00001F0E5FA686801680120884700F002FC20
:1039C000FFF786FD002000F043FD6868816805F17F
:1039D00008008847114E002404EB4407F05D00F016
:1039E000FBFCB8198178407801F02EFA641CE4B22F
:1039F000102CF1D3002000F0EFFC074900206839BB
:103A00000871686840688047801CBDE8F08100004C
:103A10000000002005400008E80100207C67000845
:103A200010B586B014216846FCF719FC0D480190CA
:103A30000220410202906A464FF09040FEF7AEFE2F
:103A4000094C6A4608212046FEF7A8FE6A46202156
:103A50002046FEF7A3FE6A4610212046FEF79EFE92
:103A600006B010BD000011100004004810B586B06B
:103A700014216846FCF7F3FB1048FFF72BFE1048B3
:103A8000019002200290032003906A464FF4806167
:103A90004FF09040FEF782FE0A4C6A46082120460D
:103AA000FEF77CFE6A4620212046FEF777FE6A4636
:103AB00010212046FEF772FE06B010BD2400002043
:103AC000000011100004004870B50446036800228D
:103AD0004FF480614FF09040FEF7AEFE0A4D002299
:103AE000082128466368FEF7A7FE00222021284609
:103AF000A368FEF7A1FE2846E368BDE870400022F7
:103B00001021FEF799BE0000000400482DE9F041A5
:103B1000804615481D46174600790E46012410B10F
:103B20000020BDE8F081404600F056FC304600F031
:103B300015FC052000F08CFC0120FDF725F901F0B3
:103B400007FA064606E0404600F01CFBB84201DDDD
:103B5000002404E0304601F002FAA842F3D300F05A
:103B600071FF2046DDE7000080010020F8B5002548
:103B70008DF800509F4CA04E2079012809D00228D2
:103B80007ED104F1680001F0B1FA6079012878D1A2
:103B900020E16079E8B3012876D14021122001F0BC
:103BA00053F91C2000F0BDFA924FB03738701D2039
:103BB00000F0B7FA78701E2000F0B3FAB870202039
:103BC00000F0AFFAF870212000F0ABFA3871222033
:103BD00000F0A7FA7871232000F0A3FAB871112041
:103BE00000F09FFAF871122000F09BFA8DF80000A7
:103BF0009DF8000080067DD52021122001F024F9D7
:103C00001021122001F020F9122000F08AFA3872F7
:103C100000E004E094F8560000286CD083E094F8AB
:103C20002400012837D13F2000F07BFA8DF80000F6
:103C30009DF8000080072ED40B213E2001F004F9EE
:103C400010213F2001F000F96A48803001F04EFA5F
:103C500094F82600C8B10D2000F063FA40F040014E
:103C60000D2001F0F1F86348983001F005FA306852
:103C700010B1006900B1804704F8305F657001E061
:103C800002E0ABE0A5816581F8BD5A48983001F0AB
:103C90002DFA2571EBE7618F584F59B9A08F48B9BC
:103CA00094F8220040B3322000F03BFAA4F83A0026
:103CB00094F83A10A08F091AC9B2384400F05CFA9F
:103CC000608FA0874B48803001F010FA94F82600EE
:103CD00010B30D2000F025FA40F040010D2001F056
:103CE000B3F84448983001F0C7F930680028C3D0D1
:103CF000866802E020E015E008E0002EBCD094F9D0
:103D00003220618F00233D48B047B5E73948012193
:103D10003A3000F031FACBE736482571983001F09F
:103D2000E5F9E2E725713348803001F0DFF93068CA
:103D30000028A9D0006956E0192000F0F2F902210C
:103D400041FA80F0801084F860001A2000F0E9F950
:103D500094F960102A4A00290CDAA36801449342BE
:103D600002D96FF09C0201E06FF0A30202EB201079
:103D7000084407E0A16800EB2010914201D99D386A
:103D800000E0A438A4F86200132000F0CAF984F817
:103D900064001020563400F0C4F901460D2001F0F3
:103DA00053F8A17B154800F0E7F914F8560900B95B
:103DB000257130680028BCD08568002DB9D014F971
:103DC000603FAC46B4F90220217901B00B48BDE850
:103DD000F04060470821122001F036F82571306864
:103DE0000028A6D000680028A3D001B0BDE8F040AC
:103DF000004700008001002000000020800000201B
:103E000040DD4A1F70B5334C204621794079A4F536
:103E10008075012913D0022955D1002853D1618F13
:103E2000A08F2B460A1A94F83F1018448A424BDDA3
:103E300001F032F8A08F94F83F10084442E0A8B196
:103E4000012840D12348803001F050F98021122010
:103E500000F0FAFF002020711F480068002832D0CF
:103E6000C06800282FD0BDE870400047194898303E
:103E700001F03CF9608F40B9A08F30B994F822006E
:103E8000A8B1322000F04DF96087618FA08F0A1A27
:103E900094F83E108A4210DB491EC9B2284400F053
:103EA0006BF9A08F94F83E100844401E0AE00948C0
:103EB00001213A3000F060F9E7E7D1B2284400F080
:103EC0005BF904E0A08770BDD1B200F0E5FF608F20
:103ED000F8E70000800100200000002070B52A4DA6
:103EE0002A4C29462A79487991F85310012A03D09F
:103EF000022A00D108B970BDB8B10128FBD101294F
:103F0000F9D10221122000F09FFF20680028F2D092
:103F100040690028EFD01C2000F003F9216800F070
:103F20003F004969BDE870400847012485F83040EA
:103F300095F831000028DED11348983001F0D6F80A
:103F400005F8314F112000F0ECF84008404268704D
:103F50001C2000F0E6F804461B2000F0E2F844EADA
:103F60000020010AA0EB012043F6095211FB02F1E7
:103F70005043803001EB1020C5F803000C2000F006
:103F8000D0F84009E87170BD8001002000000020D9
:103F9000134810B54079002821D001281FD11220E4
:103FA00000F0BFF80F4CC0070BD00521122000F025
:103FB0004BFF2068002812D0816900290FD0012012
:103FC0000AE00421122000F03FFF2068002806D0FC
:103FD0008169002903D00020BDE81040084710BDCA
:103FE000800100200000002005484179002906D109
:103FF00090F83010002902D1012180F8301070476C
:10400000800100202DE9F047334CDFF8D0904FF0CD
:104010000008207901282CD002285AD100F0D2F8CB
:10402000FFF756FA002000F013FA2D4E002500BFCE
:1040300005EB4507F05D00F0CFF9B81981784078BD
:1040400000F002FF6D1CEDB2102DF1D3002000F046
:10405000C3F994F85C0000F02BFA84F80480D9F8D6
:104060000000002835D04068002832D0BDE8F04775
:1040700000476079D0B984F8308084F83180A4F8A2
:104080003C80A4F83A8045460B213E20263400F0BF
:10409000DBFE10213F2000F0D7FE14F8260901288E
:1040A0000AD00D482571983001F020F8D9F80000A9
:1040B00000280ED0C068D7E70D2000F032F840F09D
:1040C00040010D2000F0C0FE0348983000F0D4FFFE
:1040D000ECE7BDE8F0870000800100200000002030
:1040E0007C67000870B50025012000F075F9FF21FC
:1040F000112000F0A9FE052000F0AAF900240120FB
:10410000FCF742FE2C2000F00CF800F00100A0406B
:10411000641C0543E4B2202CF1D300F093FC284644
:1041200070BD08B50122694600F004F89DF8000052
:1041300008BD00002DE9F0410E4F15460E4604461D
:10414000002240213846FEF795FB04F07F00FEF781
:1041500031FE002405E00020FEF72CFE3055641CE3
:10416000E4B2AC42F7D33846BDE8F0410122402129
:10417000FEF780BB000400480A4601460020FFF716
:10418000D9BF000010B520B1012808D04FF0FF3092
:1041900010BD1120FFF7C5FF4008404210BD074881
:1041A0000749806888424FF01B0003D9FFF7B9FF29
:1041B0009D3810BDFFF7B5FFA43810BD8001002069
:1041C00040DD4A1F30B585B014216846FCF747F83A
:1041D00001200024CDE9010403204FF09045039015
:1041E0006A4601212846FEF7D9FA00220121284615
:1041F000FEF740FB0120FCF7C7FD6A460121284677
:104200000194FEF7CBFA0620FCF7BEFD05B030BDE9
:1042100073B5394C05460020617911B1012967D188
:104220002AE00020A0879DF80410618794F82200FE
:1042300050B1322000F008FE9DF80420501E3F28A7
:1042400007D884F83F200BE0012101A800F024FEEC
:10425000F2E72946294802F017FA202084F83F00A7
:1042600094F83F102846283400F016FEA08AE17D1D
:104270000844A08220683BE094F8550001284FF0E4
:10428000330021D0FFF74DFF00F0BE013320491C61
:1042900000F0DAFD1D213B2000F0D6FD9DF8041052
:1042A00084F86410222000F0CFFD00210E2000F0E1
:1042B000CBFD00210D2000F0C7FD0120FFF731FFED
:1042C00030F0F80009D00DE0FFF72BFF00F0BE0141
:1042D000332000F0B9FD1921DDE700F0D1FB01200A
:1042E000FCF752FD9DF80410284600F0D5FDA06DA6
:1042F00000F0DCFB7CBD000080010020800000207D
:10430000044B032804D0002202211846FEF7B2BA5B
:104310000122F9E700080048F0B50E4985B00A7897
:10432000824215D008700025012603270A4C14216B
:104330006846FBF794FF0397CDE901656A460221C1
:104340002046FEF72BFA002202212046FEF792FAC1
:1043500005B0F0BD2000002000080048104910B54D
:1043600043F609528860B0FBF2F1534201FB0300AF
:10437000531003EB0020B0FBF2F000EB0124C4F378
:104380000741062000F060FDC4F30721072000F07C
:104390005BFDE1B2BDE81040082000F055BD000013
:1043A0008001002070B50D46044600F015F824B1D8
:1043B000012C0DD12946232006E0064890F8220062
:1043C000002805D129463220BDE8704000F03CBDF0
:1043D00070BD00008001002010B504460120FFF7E9
:1043E000A0FE1A49000601D5012000E00020487116
:1043F000C0B2A04228D04C71012C4FF000000FD069
:1044000000F026F80120FFF78CFE00F07F0101206C
:1044100000F01AFD0021402000F016FD30210EE0D2
:1044200000F016F80120FFF77CFE40F0800101202B
:1044300000F00AFD0021402000F006FD0021BDE84B
:104440001040412000F000BD10BD000080010020A0
:1044500070B5164C050016D06068016801208847C9
:10446000606801690020884760684169284688477C
:104470000120FFF756FE00F0F8012943BDE8704027
:10448000012000F0E1BC0120FFF74BFE00F0F80135
:10449000012000F0D9FC606801690120884760684C
:1044A0000168BDE8704000200847000000000020BF
:1044B00010B504460120FFF78FFF064880F85C40E6
:1044C0000CB1342100E01221BDE81040392000F089
:1044D000BBBC00008001002070B504460920FFF736
:1044E00020FE06464D20FFF71CFE054606F07F0025
:1044F000010623D5112C02DD45F0070502E005F089
:10450000F8052D1DE943490703D0022C0CDA0224DB
:104510000DE0052C01DA052402E0142C00DD142442
:1045200000F0F001641F05E0112C00DD112400F003
:10453000F001A41E04F00F0001430FE0002C05DD84
:104540000F2C00DD0F2444F0700006E06FF0030034
:10455000844200DA0446241D2046C1B2092000F03E
:1045600073FC2946BDE870404D2000F06DBC000092
:1045700070B505460026784800F0B8FD764C683CDA
:10458000607910B1012824D124E014F8266F40206E
:10459000FFF7C7FD00F0030040F00C01402000F0E1
:1045A00053FC4120FFF7BDFD40F0C101412000F068
:1045B0004BFC3520FFF7B5FD00F03F0020761E21B3
:1045C0000D2000F041FC0020A072E072E082A08289
:1045D000263C85E094F8550001284FF0330025D0A3
:1045E000FFF79FFD00F0BE013320491C00F02CFCBA
:1045F0001D213B2000F028FC606C09284FF03100A1
:104600007ED2FFF78EFD00F07F01312000F01CFC10
:104610000021302000F018FC606C092846D2DFE849
:1046200000F00E161E262E3641414100FFF779FD9F
:1046300040F04101332000F007FC1921D9E748215F
:104640002F2000F001FC41F68261A06826E04421A1
:104650002F2000F0F9FB42F6B401A0681EE04421CF
:104660002F2000F0F1FB43F60451A06816E044212E
:104670002F2000F0E9FB45F25E11A0680EE0442116
:104680002F2000F0E1FB47F61221A06806E044214C
:104690002F2000F0D9FBA0684AF2C6210844FFF79A
:1046A0005DFE03E040212F2000F0CEFB94F8530084
:1046B00094F85660012831D00F21112000F0C4FB7E
:1046C0004020FFF72EFD00F03F01402000F0BCFB32
:1046D00000210F2000F0B8FB00210D2000F0B4FBFA
:1046E0004FF480711D48FBF7BAFD0120207155B1D0
:1046F00019482946183000F0AEFC1748183000E081
:1047000006E000F0B9FC607990B1FEB105201EE032
:10471000FFF707FD40F080013120C5E71D21112082
:1047200000F092FB4020FFF7FCFC00F03301CCE7E7
:104730000520FFF78DFE0848E16A303000F08BFC61
:10474000BDE870400448303000F096BC0620BDE85B
:104750007040FFF77DBE0000E801002080000020CF
:104760002DE9F04F9B462DED028B81B014468A4611
:104770008046DDF844900D9F0F9EFFF72DFE380A0E
:10478000A24D0090B8F1000F06D0B8F1010F73D11F
:10479000BAF1020F71D9FEE745F814AFAC600C987E
:1047A0006860AE731098E87385F810901498687478
:1047B0001598A874AF812046FBF700FF884648ECA7
:1047C000100B044653EC102B9FED910B51EC100B8A
:1047D000FBF774FE9FED901B53EC112BFBF7F9FDDB
:1047E00041EC180B0E98FBF7E9FE53EC182BFBF786
:1047F000F0FD9FED8B1B53EC112BFBF7EAFDFBF754
:10480000EAFE48EC104B53EC102B9FED870BA86190
:1048100051EC100BFBF752FEFBF7DDFE84B2210AD0
:10482000022000F011FBE1B2032000F00DFB504626
:10483000FCF792F80146122000F006FB0C98FCF7FA
:104840008BF80146132000F0FFFA2520009900F0B4
:10485000FBFAF9B2262000F0F7FA0EB1109900E049
:10486000FF21322000F0F0FA3020FFF75AFC00F070
:104870006F001EB1002102E0C2E00DE0802108437C
:1048800040EA0911302000F0DFFA3120FFF749FC3F
:1048900040F040013120A2E028460AF10708E0E993
:1048A00011840C2C80F809B047810673109941736C
:1048B00080F80E901299C173139901741499417480
:1048C000159985F8561001D90C2402E0062C00D267
:1048D0000624B8F1070F03D0B8F1080F02D003E0A7
:1048E0000B2C47D00C2C45D05FF0000185F84C1004
:1048F0001D20FFF716FC4FEA081141EA4B00304338
:10490000C1B21D2000F0A0FA1E20FFF70AFC00F043
:10491000080040EA04110E98032241EA890102EAE4
:1049200010200143C9B21E2000F08EFA2620FFF7A6
:10493000F8FB00F0F70195F84C0041EAC000C1B265
:10494000262000F081FA0E98C1B21F2000F07CFAF8
:104950002020009900F078FAF9B2212000F074FAD2
:104960001EB12220109900F06FFA95F8530001282B
:1049700002D00EE00121B9E74420FFF7D2FB40F05E
:104980008001442000F060FA95F85410242000F0D3
:104990005BFAB8F1090F02D0032136200FE0244959
:1049A000A86888424FF002014FF0360003D900F0AA
:1049B0004BFA642102E000F047FA7F213A2000F030
:1049C00043FA062C4FF0310010D0FFF7AAFB00F09D
:1049D000F8013120C91C00F037FA0A21372001B054
:1049E000BDEC028B00F026B800F02EBAFFF799FB61
:1049F00000F0F8013120491D00F026FA0C21EDE706
:104A000001B0BDEC028B00F01AB80000800100205C
:104A1000000000000000F03F000000000000204007
:104A20000000000000408F400000000080847E41B4
:104A300040DD4A1F30BCBDE8C04FFFF7D5BF30BCDA
:104A4000BDE8C08F10B50C4800F050FB0A4818387C
:104A500000F04CFB0848183000F048FB0020FFF73E
:104A6000F7FC06484068016800208847024900209A
:104A70008039087110BD00000002002000000020F5
:104A800010B5094800F032FB0748183800F02EFB3B
:104A90000548183000F02AFB0120FFF7D9FC024935
:104AA00000208039087110BD0002002010B50446B6
:104AB000274800F01BFB26482146183800F0CBFAA7
:104AC000234C803C607910B101282CD119E04020A2
:104AD000FFF727FB00F0030040F01001402000F03A
:104AE000B3F94120FFF71DFB00F03E01412000F02B
:104AF000ABF93520FFF715FB00F03F0084F83E00CE
:104B000011E094F85300012818D0F721112000F08B
:104B10009BF94020FFF705FB00F03F0040F040010B
:104B2000402000F091F9022020710948183800F067
:104B3000A3FABDE810400320FFF78ABCF52111203D
:104B400000F082F94020FFF7ECFA00F03300E5E7CF
:104B5000000200202DE9FF4F81B01D46DDE90E4B1C
:104B6000DDE910688946DDF854A0129F0198FFF72F
:104B700033FC7B484068C168484688477948320A18
:104B80000199009231B1012978D180F84090022D2D
:104B90005BD9FEE780F80C900399C461C0E9041565
:104BA000068480F8228080F8247080F825A0169969
:104BB00081620398FBF702FD9FED6B1B53EC112BF9
:104BC000FBF77CFCFBF707FD85B2290A042000F007
:104BD0003BF9E9B2052000F037F92046FBF7EEFC7F
:104BE00041EC100B53EC102B9FED610B51EC100BB3
:104BF000FBF764FCFBF7EFFC84B2210A022000F013
:104C000023F9E1B2032000F01FF92520009900F0FC
:104C10001BF9F1B2262000F017F93020FFF781FAD6
:104C200000F06F00B8F1000F01D0002100E08021FA
:104C3000084340EA0711302000F006F93120FFF761
:104C400070FA40F04001312077E0ED1DC0E91154C9
:104C500080F84DB0A0F84E6080F85080139980F82D
:104C60005310149A80F8542080F8527080F855A0A0
:104C7000169A82650C2C02D90C2403E06CE0062CF9
:104C800000D20624072D02D0082D02D003E00B2C01
:104C900008D00C2C06D0002280F84C208146012937
:104CA00002D00EE00122F7E74420FFF73AFA40F085
:104CB0008001442000F0C8F899F85410242000F036
:104CC000C3F81D20FFF72DFA290141EA4B0040EA05
:104CD0000800C1B21D2000F0B7F81E20FFF721FA2E
:104CE00000F00B0040EA041040EA8700C1B21E2029
:104CF00000F0AAF82620FFF714FA00F0F70199F85F
:104D00004C0041EAC000C1B2262000F09DF82020EE
:104D1000009900F099F8F1B2212000F095F8062CE6
:104D20004FF031000ED0FFF7FCF900F0F801312010
:104D3000C91C00F089F80A21372005B000F01CB822
:104D400000F082B8FFF7EDF900F0F8013120491DBD
:104D500000F07AF80C21EFE705B000F012B800007F
:104D600000000020800100200000000080844E40F0
:104D70000000000080847E4130BCBDE8C04FFFF7DA
:104D8000DFBF30BCBDE8C08F30B50D464FF47A713F
:104D900089B002FB01F4FFF7E1FA002005900690CC
:104DA000CDE907040521CDE90101039004904FF4FA
:104DB0009650002300901A4629461846FFF7CAFE6F
:104DC0003120FFF7AEF900F0BF01312000F03CF8D0
:104DD000F021402000F038F8A021412000F034F804
:104DE0002146084800F037F9064902206839087161
:104DF000044800F041F909B00320BDE83040FFF756
:104E000027BB0000E80100207047000010B50D4CE2
:104E10006079002814D0012812D1FA21112000F065
:104E200013F84020FFF77DF900F0FC01402000F06E
:104E30000BF803202071BDE810400720FFF708BBE6
:104E400010BD00008001002013B5012201A900F06F
:104E500001F81CBD2DE9F0410E4F15460E460446E3
:104E6000002240213846FDF705FD44F08000FDF7A3
:104E7000A1FF002404E0305DFDF79CFF641CE4B258
:104E8000AC42F8D33846BDE8F04101224021FDF79D
:104E9000F1BC0000000400480A4601460020FFF76C
:104EA000D9BFFCF775B810B596B0142111A8FBF75F
:104EB000D6F944216846FBF7D2F910200090012072
:104EC000602100240690CDE907410221CDE90A10B6
:104ED0000C9028200D9007200E900420CDE90F01A2
:104EE0006846FCF7A9FB00B1FEE70F2011900320F4
:104EF000CDE912041494042111A81594FCF796FA34
:104F0000002800D0FEE716B010BD00000D48016873
:104F100041F4700101600C48016841F00101016039
:104F2000002181600268094B1A4002608214C2604D
:104F3000026822F48022026081610249C003803944
:104F40000860704788ED00E000100240FFFFF6EABD
:104F500010B5FDF7D7FDBDE81040FDF717BF70B5E0
:104F600005000AD0FDF7CEFD04462846FDF719FFDF
:104F7000201ABDE87040FDF709BF002070BD002277
:104F80000260426002724272C0E9031242617047DD
:104F9000044A116809B100234B724161106000F0AE
:104FA00043B800007400002070B5FDF797FD04467B
:104FB000FDF73AFE031B1B4C2068002831D0024647
:104FC000002507E00E689E4202D9F61A0E6000E046
:104FD0000D60526951690029F4D1002821D041693E
:104FE00021600572C16801B9FEE700698847206841
:104FF000002816D0FDF778FD01462068026891422E
:1050000006D9416921600572C1680029EDD1FEE72A
:10501000002806D0417A002903D1BDE8704000F095
:1050200003B870BD7400002070B50446FDF754FD50
:10503000054601206072FDF757FD2168284488422B
:1050400001D8084603E0FDF74FFD28442060BDE885
:105050007040FDF797BD70B505460846FDF7A1FE07
:105060000446284600F042F8FDF736FD844200D29F
:1050700004462C606C6070BD2DE9F0410400EFF334
:10508000108572B62CD0184F01223868014602E014
:10509000A04225D040690028FAD16068206000262F
:1050A0002272667261B1FDF71FFD21680144216023
:1050B00038680268914206D22046FFF769FF0FE088
:1050C000FDF7B2FDF8E7416941B122680B689A42E9
:1050D00001D90846F7E74461616101E04461666116
:1050E00085F31088BDE8F0817400002070B5EFF3FF
:1050F000108572B6144C21680A1E21D000B3002618
:1051000006720B46814219D1487A012803D05869AA
:1051100050B1206014E04E72586918B12060FFF75A
:1051200083FF0DE0FDF71AFE266009E0814203D1FE
:1051300048695061002803E00A4649690029F5D111
:1051400085F3108870BD00007400002010B506487B
:1051500001F0BAFA0549BDE810404FF48072A1F1A0
:10516000100001F0A6B90000E1510008B8050020C8
:105170000FB44FF48071F0B5C3B049AB6846489A9C
:1051800000F0DAFA82B2ADF800210026EFF31084C5
:1051900072B66946104801F002F9050003D10F4FBD
:1051A0003878012806D084F3108843B02846F0BC34
:1051B0005DF814FB40AA41A9074801F05EF93E7072
:1051C00001212020FDF7AAFE84F31088BDF800110C
:1051D000419801F0CBFAE8E7A8050020780000200C
:1051E0001CB5EFF3108472B60E4801F06AF90D4851
:1051F00001F08EF948B100212020FDF78FFE0A4909
:105200000120087084F310881CBD01AA6946054876
:1052100001F033F984F31088BDF80410009801F010
:10522000A5FA1CBDA80500207800002090F82410E5
:10523000C90706D001684A68836A22F400321A431B
:105240004A6090F82410890706D501684A68C36A45
:1052500022F480321A434A6090F82410490706D598
:1052600001684A68036B22F480221A434A6090F86E
:105270002410090706D501684A68436B22F40042EE
:105280001A434A6090F82410C90606D501688A6856
:10529000836B22F480521A438A6090F824108906A6
:1052A00006D501688A68C36B22F400521A438A60EB
:1052B00090F82410490611D501684A68036C22F45D
:1052C00080121A434A60016CB1F5801F06D1016853
:1052D0004A68436C22F4C0021A434A6090F82410D2
:1052E000090606D501684A68806C22F40022024350
:1052F0004A607047F8B500260446C667FBF742FED1
:105300000546206800686FF07E47000708D52B46E9
:1053100000224FF400112046009700F0C9F960B94F
:105320002068006840070AD52B4600224FF4800110
:105330002046009700F0BCF908B10320F8BD2020FA
:105340006067A06784F870600020F8BD10B5806ABF
:105350000021A0F85A10A0F85210FDF754F810BD23
:1053600070B5846A606FA56F216889684FF0000688
:10537000090606D5212804D1A4F85260204600F081
:105380003FF820688068400606D5222D04D1A4F895
:105390005A60204600F025F8E06F40F01000E0670A
:1053A0002046FDF730F870BD10B50146806A0968E7
:1053B000096889060DD40021A0F8521001688A6896
:1053C00022F080028A600068016841F040010160BB
:1053D00010BDFDF78FF910BD10B5806AFDF790F98B
:1053E00010BD01680A6822F490720A6001688A6838
:1053F00022F001028A602021816700210166704746
:1054000001680A6822F0C0020A60202141677047E3
:105410002DE9F0410546016880682B69EC69184365
:105420006B69002723431843954A0B68954C23402A
:1054300003430B6028684168EB6821F4405119432D
:1054400041602968A869914201D02B6A18438B6892
:1054500023F4306303438B608B4B29688B4899425C
:105460000DD1D0F8880010F0030006D0012868D0D4
:10547000022864D0032851D165E001244FE0844B19
:1054800099420BD1D0F8880010F00C0055D00428B8
:1054900057D0082853D00C2840D154E07D4B994276
:1054A0000BD1D0F8880010F0300046D0102848D03A
:1054B000202844D0302831D145E0774B99420BD198
:1054C000D0F8880010F0C00037D0402839D08028AC
:1054D00035D0C02822D136E0704B99420ED1D0F899
:1054E000880010F4407028D0B0F5807F29D0B0F546
:1054F000007F24D0B0F5407F10D124E091420DD13F
:10550000D0F8880010F4406017D0B0F5806F18D044
:10551000B0F5006F13D0B0F5406F14D01024604B7D
:1055200000264FF40040914245D174B1022C0FD0B7
:10553000042C0FD0082C18D10FE00024EFE7022430
:10554000EDE70424EBE70824E9E7FBF7FFFF03E0BE
:10555000184602E0FCF71EF8A8B36A6802EB4201A5
:10556000814202D8B0EB023F01D9012775E0DFF894
:1055700034815CB1022C0CD0042C13D0082CF4D153
:1055800050082105401846F1000105E0FBF7DEFF59
:105590000AE050084449F5E70023FAF713FEA0F5A6
:1055A000407156E0FBF7F6FF6A68010E03025008EF
:1055B00018187141F0E7E9694FF6EF7881422FD171
:1055C000092CD2D200E048E0DFE804F0060920050B
:1055D000230505052600C8E7FBF7B8FF01E0FBF748
:1055E000C7FF4100D5F8040001EB5001B1FBF0F01A
:1055F00080B2A0F110014145B7D84FF6F0710140DB
:10560000C0F3420001432868C16026E0274968686A
:10561000EAE7FBF7BFFFE4E74FF480316868E3E7B0
:10562000092CA2D2DFE804F006091E0522050505B3
:1056300025009AE7FBF78AFF01E0FBF799FF014697
:10564000686801EB500100BFB1FBF0F080B2A0F13F
:105650001001414589D82968C8602E6638466E66B3
:10566000BDE8F081686803EB5001EDE7FBF792FFBE
:10567000E5E7696800EB5100B0FBF1F0E6E70000F8
:1056800000800040F369FFEF003801400010024045
:105690000044004000480040004C004000500040E2
:1056A0000024F400FFFC0F00000024F40048E8018F
:1056B0002DE9F041984617460E460446069D08E03F
:1056C000681C06D0FBF75EFCA0EB0800A8420BD8D4
:1056D00055B12068C06936EA000017D00020B842F2
:1056E000EED00020BDE8F0812068016821F4D0717F
:1056F00001602068816821F00101816020206067DD
:10570000A067002084F870000320EBE70120E6E7A3
:1057100000F0D4BFFEE700000FB4054B10B503A99D
:10572000044A029800F092FA10BC5DF814FB0000E5
:10573000216500087C0000207CB50C001D46164643
:10574000014601D0601E00E00020CDE90010064BAC
:105750006A462946304600F079FA002C02D0009AB9
:10576000002111707CBD0000596300080907090E73
:10577000002804DB00F1E02080F80014704700F0FE
:105780000F0000F1E02080F8141D704700000000B9
:105790002DE9F0412DED020B9FED3D0B2DED028B20
:1057A0009FED3D8BDDE90254C4F30A50A0F2FF36B1
:1057B000142E37DA002E18DA53EC102B9DED020B65
:1057C00051EC100BFAF756FD53EC182BFAF71CFFAF
:1057D00057D2002CBCBF4FF00044002551DB54EAE7
:1057E000050018BF2E4C1BD14BE02E4820FA06F7BF
:1057F00004EA070028431FD053EC102B9DED020B49
:1058000051EC100BFAF736FD53EC182BFAF7FCFEAF
:1058100037D2002C03DD4FF48010F0400444BC4329
:1058200000252EE0332E07DCA6F114004FF0FF31E7
:1058300021FA00F73D4206D19DED020BBDEC028B33
:1058400002B0BDE8F08153EC102B9DED020B51EC42
:10585000100BFAF7B3FD53EC182BFAF7D5FE10D264
:10586000002C0DDD142E08BF641C09D0C6F13400D5
:10587000012101FA00F02844A84238BF641C054603
:10588000BD43CDE902549DED020BD7E700000000B7
:105890009C7500883CE4377E00000000000000009A
:1058A0000000F03FFFFF0F002DE9F0412DED020B4E
:1058B0009FED3D0B2DED028B9FED3D8BDDE90254FD
:1058C000C4F30A50A0F2FF36142E37DA002E18DA8D
:1058D00053EC102B9DED020B51EC100BFAF7CAFCA8
:1058E00053EC182BFAF790FE57D2002CA4BF0024DB
:1058F000254652DA24F00040284318BF2E4C4CD0E5
:105900001AE02E4820FA06F704EA070028431FD0C1
:1059100053EC102B9DED020B51EC100BFAF7AAFC87
:1059200053EC182BFAF770FE37D2002C03DA4FF441
:105930008010F0400444BC4300252EE0332E07DCE9
:10594000A6F114004FF0FF3121FA00F73D4206D1D5
:105950009DED020BBDEC028B02B0BDE8F08153EC73
:10596000102B9DED020B51EC100BFAF727FD53ECB9
:10597000182BFAF749FE10D2002C0DDA142E08BFAE
:10598000641C09D0C6F13400012101FA00F028445A
:10599000A84238BF641C0546BD43CDE902549DEDC5
:1059A000020BD7E7000000009C7500883CE4377EBE
:1059B00000000000000000000000F0BFFFFF0F002B
:1059C00010B52DED020B2DED088B84B09DED0C0B69
:1059D00051EC100BFAF7D4FE41EC180B9DED0C0BBB
:1059E00053EC182B51EC100BFAF7E5FC41EC190BBA
:1059F0000D989FED290B10F0004F53EC102B51EC3C
:105A0000190B9FED21AB9FED22BB0ED0FAF714FFCF
:105A10000ED953EC1B2B51EC190BFAF7F5FD1CD2E8
:105A200014E000BF41EC180B17E0FAF705FF06D2AF
:105A300053EC1A2B51EC180BFAF7BDFCF2E753ECC0
:105A40001B2B51EC190BFAF7DFFD06D853EC1A2B80
:105A500051EC180BFAF70EFCE4E78DED028B9DED8F
:105A60000C0B18EE901A10EE900A8DED000B61F3FE
:105A70001E0003909DED020B04B0BDEC088B02B03C
:105A800010BD000000000000000000000000F03F1A
:105A9000000000000000E03F000000000000E0BF48
:105AA00002E008C8121F08C1002AFAD170477047E7
:105AB000002001E001C1121F002AFBD17047000045
:105AC0002DE9FF5F82B00021DDE90430020DDDF831
:105AD00040B0034318D044F61050A2F2FF324243C4
