:020000040800F2
:10000000780400209D0100088F1700086D16000875
:100010008D17000809020008571D000800000000A5
:10002000000000000000000000000000F11A0008BD
:100030000B0200080000000091170008F31A0008E6
:10004000B7010008B7010008B7010008E51A000869
:10005000B7010008B7010008B7010008B7010008A0
:10006000B7010008B7010008B7010008B701000890
:10007000B7010008B7010008B7010008B701000880
:10008000B7010008B7010008B7010008B701000870
:10009000B7010008B7010008B7010008B701000860
:1000A000DD1B0008B7010008B7010008B701000810
:1000B000B7010008B7010008B7010008B701000840
:1000C000B7010008B7010008B7010008B701000830
:1000D000B7010008B7010008B7010008B701000820
:1000E000B7010008B7010008B7010008B701000810
:1000F000B7010008B7010008B7010008B701000800
:10010000B7010008B7010008B7010008B7010008EF
:10011000B7010008B7010008B7010008B7010008DF
:10012000B7010008B7010008B7010008B7010008CF
:10013000B7010008B7010008B7010008B7010008BF
:10014000B7010008B7010008B7010008B7010008AF
:10015000B7010008B7010008B7010008B70100089F
:10016000B7010008B7010008B7010008B70100088F
:10017000B7010008B7010008B7010008000000003F
:10018000B7010008B7010008DFF80CD000F02AF82A
:1001900000480047991D0008780400200648804761
:1001A00006480047FEE7FEE7FEE7FEE7FEE7FEE75C
:1001B000FEE7FEE7FEE7FEE7991B0008890100085D
:1001C000D2B201E000F8012B491EFBD27047002299
:1001D000F6E710B513460A4604461946FFF7F0FF46
:1001E000204610BD064C074D06E0E06840F00103D4
:1001F00094E8070098471034AC42F6D3FFF7C8FFE5
:100200001C1E00083C1E0008FEE770472DE9F84F51
:10021000DFF898B100234FF0010C4FF0030A4FF0C4
:100220000F090BF1040EB9E00CFA03F4224070D070
:100230004D68022D01D0122D0ED1DD0800EB85088E
:10024000D8F820505E07F70E09FA07F6B5430E6995
:10025000BE402E43C8F8206007685E0091F8048015
:100260000AFA06F508F00308AF4308FA06F848EA68
:100270000708C0F800804F68012F05D0022F03D077
:10028000112F01D0122F13D1D0F80880CF6828EA9F
:100290000508B74047EA08078760D0F804800F795F
:1002A00028EA0408C7F300179F4047EA0807476099
:1002B000D1F804806FEA0807BF0706D1C76AA743D1
:1002C000C8F3C0049C403C43C462C468AC438D681E
:1002D000B5402543C5604C68E4005ED5344C256EBE
:1002E00045F001052566246E23F0030504F00104A2
:1002F0000094304C2E19B4689D072F0F09FA07F5AA
:10030000AC43B0F1904F05D02B4DA84204D101254C
:100310001CE042E0002519E0284DA84201D1022549
:1003200014E0274DA84201D103250FE0254DA84236
:1003300001D104250AE0244DA84201D1052505E09C
:10034000224DA84201D1062500E00725BD402543E6
:10035000B560DBF800405D464E689443F60300D577
:1003600014432C60DEF8004075464E689443B60393
:1003700000D514432C600D4D08352C684E6894430D
:10038000F60200D514432C60084D0C352C684E68DD
:100390009443B60200D514432C605B1C0A6832FA01
:1003A00003F57FF441AF00F013B8000000040140F2
:1003B000001002400000014000040048000800480E
:1003C000000C0048001000480014004800180048C5
:1003D00018BCBDE8E08F000001488068704700004D
:1003E0000000002002488168426811448160704723
:1003F00000000020094810B50168002441F4807114
:100400000160032000F072F8002000F009F808B144
:10041000012401E000F026F8204610BD0020024033
:1004200070B50E4E05460024706898B14FF47A718D
:10043000B1FBF0F00A490968B1FBF0F000F011FFE0
:1004400040B9102D06D200222946501E00F02EF889
:10045000356000E00124204670BD0000000000204F
:100460000C000020094808B5016E41F00101016649
:10047000016E01F001010091816D41F080518165B3
:10048000806D00F08050009008BD00000010024018
:10049000002809DB00F01F02012191404009800083
:1004A00000F1E020C0F8001170470000F0B40E4BDE
:1004B0001B680C46C3F30223C3F10705042D00D9C2
:1004C0000425191D072901D2002300E0DB1E0126A7
:1004D00006FA05F1491E214099409E40761E1640BD
:1004E0003143F0BC01F038BC0CED00E0064900F0EF
:1004F000070208684FF6FF03184040EA0220034A4B
:1005000010430860704700000CED00E00000FA05A1
:100510001649B0F5007F0868C0F3412009D00228D1
:1005200005D0086820F4C06040F4806008600020B6
:1005300070470128FBD0086820F4C06040F40070C8
:1005400008600B483222006850430A4AB0FBF2F0C0
:10055000401C00E0401E4A69520501D50028F9D12F
:1005600048694005E3D50320704700000070004053
:100570000C00002040420F000248006800F4C060F8
:1005800070470000007000400248016841F480712B
:1005900001607047007000400248016841F00401AA
:1005A00001607047001002402DE9F84F0446002713
:1005B0000088E54D3E46010504F1200B1DD5606E17
:1005C00078B1B0F5800F11D0B0F5000F04D0B0F5C0
:1005D000400F22D001270FE0E86840F48030E86047
:1005E0001BE00021201D01F0D5F803E00021584652
:1005F00001F066F9070010D03E462088C00426D5D9
:10060000A06EC0B1B0F1807F1AD0B0F1007F0DD0E4
:10061000B0F1407F19D0012718E0D5F88800616E4D
:1006200020F440000843C5F88800E6E7E86840F495
:100630008030E86009E00021201D01F0ABF803E004
:100640000021584601F03CF90746F7B13E462068C4
:1006500080033AD5A86D4FF00008C00009D4A86DFA
:1006600040F08050A865A86D4FF0010800F0805060
:100670000090DFF8D8A2DAF8001041F48071CAF8CF
:100680000010FFF7A9FE814610E0D5F88800A16EA2
:1006900020F040700843C5F88800D8E7FFF79CFEBB
:1006A000A0EB0900022801D9032705E0DAF80000D1
:1006B000C005F3D5002F7CD04FEA0706B8F1000F34
:1006C00003D0A86D20F08050A8652078C00707D01F
:1006D000D5F88800A16B20F003000843C5F8880016
:1006E0002078800707D5D5F88800E16B20F00C0052
:1006F0000843C5F888002078400707D5D5F888005A
:10070000216C20F030000843C5F8880020780007ED
:1007100007D5D5F88800616C20F0C0000843C5F803
:1007200088002078C00607D5D5F88800A16C20F491
:1007300040700843C5F888002078800607D5D5F8B2
:100740008800E16C20F440600843C5F888002088E8
:10075000800507D5D5F88800E16D20F440200843D6
:10076000C5F888002088400507D5D5F88800216E97
:1007700020F440100843C5F888002078400607D5CB
:10078000D5F88800216D20F440500843C5F8880052
:100790002078000607D5D5F88800616D20F4404028
:1007A0000843C5F888002088C00509D5D5F8880019
:1007B00000E01CE0A16D20F440300843C5F888003B
:1007C00020884FF0006780044FF080684FD5D5F83F
:1007D0008800E16E20F040600843C5F88800E06EB4
:1007E000B8423CD1E86840F48010E8603FE0D5F8BA
:1007F000900010F4407015D0D4F88410814211D0CC
:10080000D5F89000D5F8901020F4407041F4803174
:10081000C5F89010D5F8901021F48031C5F89010EB
:10082000C5F89000C00710D0FFF7D6FD074641F28B
:10083000883906E0FFF7D0FDC11B494501D90326E1
:100840003CE7D5F890008007F4D5D5F89000D4F8AF
:10085000841020F440700843C5F890002EE740450E
:1008600005D10121201D00F095FF00B1064620684A
:10087000000317D5D5F88800216F20F040600843A9
:10088000C5F88800206FB84204D1E86840F48010B1
:10089000E86007E0404505D10121201D00F07AFF06
:1008A00000B106462068400317D5D5F88800616F6F
:1008B00020F040600843C5F88800606FB84204D15A
:1008C000E86840F48010E86007E0404505D1012168
:1008D000201D00F05FFF00B10646208840041AD5B5
:1008E000D5F88800A16F20F040500843C5F8880073
:1008F000A06FB0F1805F03D0B0F1005F05D00AE0D7
:100900000221201D00F046FF03E00221584600F0BE
:10091000D7FF00B106462088000407D5D5F8880027
:10092000E16F20F080400843C5F888002068C003CC
:1009300007D555F8880FD4F8801020F00040084300
:100940002860304600F004B80010024000700040FB
:1009500018BCBDE8E08F00002DE9F0470F46050008
:1009600058D0404E306800F00700B84209D23068D5
:1009700020F0070038433060306800F00700B842CC
:1009800048D12878384CC0072CD06868032811D08B
:10099000022812D0216898B1490500293ADAA168E5
:1009A00021F003010143A160FFF716FD804641F2EB
:1009B000883910E021688901EFE721688903ECE7B5
:1009C0008907EAE7FFF708FDA0EB0801494502D9CE
:1009D0000320BDE8F087A068696800F00C00B0EB68
:1009E000810FEFD12878800705D5A068A96820F08D
:1009F000F0000843A060306800F00700B8420BD94F
:100A0000306820F0070038433060306800F007009D
:100A1000B84201D00120DCE72878400705D5A0685E
:100A2000E96820F4E0600843A0602878000706D554
:100A3000A068296920F4605040EAC100A06000F07D
:100A40001BF8A168094AC1F30311515C01F01F01B1
:100A5000C8400749086007480068BDE8F047FFF74D
:100A6000DFBC00000020024000100240DC1D000836
:100A70000C0000200000002070B525490023184616
:100A80008A68CC6812F00C0204F00306214C4FEA8D
:100A9000640509D00C2A05D0042A32D0082A00D1D6
:100AA000284670BD012E10D10B681B0704D4D1F865
:100AB0009430C3F3032302E00B68C3F30313164E11
:100AC00056F82330DAB10C2AEBD1C86800F00300E5
:100AD000022818D0032818D01846CA68CB68C2F379
:100AE0000212C3F306234343521CB3FBF2F2C8685D
:100AF000C0F34160401C4000B2FBF0F070BD1846EE
:100B000070BD204670BD2046E7E72846E5E70000B7
:100B1000001002400024F400EC1D000870B5104CD9
:100B200086B01646E06C0D4640F00100E064E06CD3
:100B3000694600F001000590A01500900220019088
:100B400003900020029004904FF09040FFF75EFB6E
:100B5000A068354320F0EE402843A06006B070BD89
:100B6000001002402DE9F84304006ED0FD4DA86846
:100B700000F00C06E86800F003072078C00663D593
:100B800076B10C2E01D1012F0AD0A0690028286867
:100B900078D040F001002860FFF71EFC80465BE043
:100BA0002868800702D5A0690028DED0216A28685D
:100BB000000703D5286800F0F00004E0D5F89400A1
:100BC000F02202EA1010814216D9084600F0FCFE1D
:100BD00000283AD1286840F0080028602868216A77
:100BE00020F0F000084328606868E16920F47F4045
:100BF00040EA0120686015E0286840F0080028609D
:100C00002868216A20F0F000084328606868E169DC
:100C100020F47F4040EA01206860206A00F0D4FEA2
:100C20000028D6D1FFF728FFA968CF4AC1F30311E6
:100C3000515C01F01F01C840CC490860CC480068F5
:100C4000FFF7EEFB00287DD12DE0C9E0FFF7C4FBE4
:100C5000A0EB0800022876D828688007F6D5286817
:100C600040F0080028602868216A20F0F00008435E
:100C700028606868E16920F47F4040EA01206860EC
:100C800011E0FFE720F001002860FFF7A5FB804698
:100C900006E000BFFFF7A0FBA0EB08000228DAD8AF
:100CA00028688007F6D42078C00740D0082E18D0D6
:100CB0000C2E01D1032F14D06068B0F5803F17D0FF
:100CC000B0F5A02F286817D020F48030286028685D
:100CD00020F4802028606068E0B1FFF77DFB80464B
:100CE00014E02868800322D56068002878D01EE0D0
:100CF000286840F48030EDE740F480202860F7E772
:100D0000FFF76AFBA0EB08006428A4D828688003DA
:100D1000F6D50CE0FFF760FB804605E0FFF75CFBD3
:100D2000A0EB0800642896D828688003F6D42078C1
:100D300080073BD5042E11D00C2E01D1022F0DD0EF
:100D4000E06801E03EE19FE0002828681ED040F402
:100D500080702860FFF740FB07460CE028684005DC
:100D60000CD5E0680028C1D008E000BFFFF734FBD5
:100D7000C01B022893D828684005F7D56868217CF5
:100D800020F0F85040EA016068600FE020F48070C5
:100D90002860FFF721FB074605E000BFFFF71CFBBB
:100DA000C01B022870D828684005F7D420780007B7
:100DB00029D560690028D5F8940012D040F00100D0
:100DC000C5F89400FFF708FB074604E0FFF704FBB3
:100DD000C01B022858D8D5F894008007F6D512E039
:100DE00029E120F00100C5F89400FFF7F5FA074665
:100DF00005E000BFFFF7F0FAC01B022844D8D5F881
:100E000094008007F6D42078400768D5A86D0027A5
:100E1000C00008D4A86D40F08050A865A86D0127D7
:100E200000F08050009053480168C90512D4016851
:100E3000814641F480710160FFF7CEFA804605E0FB
:100E4000FFF7CAFAA0EB080002281DD8D9F8000065
:100E5000C005F5D5A068012817D00528D5F8900061
:100E600018D020F00100C5F89000D5F8900020F0CF
:100E7000040000BFC5F89000A06841F28839D0B1E5
:100E8000FFF7AAFA804611E06BE0D5F8900040F039
:100E90000100EFE740F00400C5F89000F5E700BF5F
:100EA000FFF79AFAA0EB080149455AD8D5F8900007
:100EB0008007F5D50EE0FFF78FFA804606E000BF09
:100EC000FFF78AFAA0EB080149457AD8D5F89000D7
:100ED0008007F5D41FB1A86D20F08050A865A06AE6
:100EE000F0B30C2E75D00228286820F0807028609E
:100EF00004D0286810F0205F51D054E0FFF76CFA5E
:100F0000064604E0FFF768FA801B022859D82868D3
:100F10008001F7D4D4E90B016FF00F0202EB01114D
:100F20000843A18F5204490802EB4151626B41EA28
:100F30000221084394F840104FF07E42490802EB2A
:100F400041610843A16B090940EA4140E9680A4A46
:100F500011400843E860286840F0807028600DE088
:100F60006BE02EE000100240DC1D00080C000020A9
:100F700000000020007000408C809DF9E86840F07F
:100F80008070E860FFF728FA044604E0FFF724FACF
:100F9000001B022815D828688001F7D54DE0E868C5
:100FA00020F00300E860E86825490840E860FFF7A2
:100FB00013FA044609E000BFFFF70EFA001B0228EF
:100FC00003D90320BDE8F88303E028688001F3D447
:100FD00033E00128F6D0E868E26A00F003019142AC
:100FE00029D1216B00F0700209011039914222D100
:100FF000626B00F4FE41B1EB022F1CD1A26B00F436
:101000000031072A01D0012200E00022914212D1D2
:10101000A18F00F4C00249084905A1F500119142D1
:1010200009D194F8401000F0C06049084906A1F1C8
:101030000071814201D00120C4E70020C2E7000016
:10104000FFFFEEFE2DE9F05F044690F82000934686
:101050008A46012825D0012684F82060022084F8E1
:1010600021002168CA204862216853204862206814
:10107000816821F4806181602068C16801F080018D
:1010800061F49061C1602068C0684FF000074006BD
:101090004FF0FF081AD4FFF79FF905464FF47A790D
:1010A00010E0022000F03CB8FFF796F9401B4845DD
:1010B00008D92168C1F82480032084F8210084F82D
:1010C0002070EFE72068C0684007EDD52168C1F8BF
:1010D00014A02068816821F0070141EA0B018160BA
:1010E0000E48016841F4801101600C480830016825
:1010F00041F4801101602068816841F48041816081
:101100002068816841F4806181602168C1F8248091
:1011100084F8216084F820700020C3E700040140B7
:1011200030BCBDE8C09F704710B50B4904464FF472
:10113000801008602068C168490508D5C16801F0C1
:10114000800161F49061C1602046FFF7ECFF01204F
:1011500084F8210010BD00001404014010B5040003
:101160004FF0010044D094F8210028B9002084F801
:101170002000204600F040F8022084F82100216879
:10118000CA204862216853204862204600F05AFC79
:1011900000282DD120688168164A1140816021689D
:1011A00088686268A369104322691A431043886003
:1011B0002168E068086120680169228941EA0241EA
:1011C0000161204600F062FC002811D12168CA6C40
:1011D00022F00302CA646269E16911432268D36C98
:1011E0001943D1642268FF215162012184F8211042
:1011F00010BD0000BFFF8FFF10B50068094988428D
:101200000FD1094850F8901F41F4004101600022BD
:1012100011460320FFF74AF9BDE810400320FFF70D
:1012200037B910BD002800400010024070B50446D8
:101230000068C16821F0A001C160FFF7CDF8054644
:101240004FF47A7607E000BFFFF7C6F8401BB042C4
:1012500001D9032070BD2068C0688006F4D5002045
:1012600070BD10B5401EB0F1807F01D3012010BDCC
:101270004FF0E02460610F21601700F06DFD002049
:10128000A06107202061002010BD704770477047A3
:1012900070B590F83C20012A24D0012480F83C400D
:1012A000022280F83D200268536895680E4EB242D3
:1012B00002D00E4EB24203D123F470064B68334382
:1012C00023F070060B688968334325F080052943B5
:1012D00053600268916080F83D40002180F83C1026
:1012E000084670BD022070BD002C01400034014052
:1012F00010B590F83C20012A1FD0012280F83C2034
:101300000F4B02689A4208D0B2F1804F05D00D4BC6
:101310009A4202D00C4B9A4206D1136E23F4E03469
:1013200001F4E03323431366026821F4E0311165D0
:10133000002180F83C10084610BD022010BD0000BE
:10134000002C0140000400400034014070470000C0
:101350002DE9F041044690F83C000D4601283DD0AF
:10136000012684F83C60022084F83D00AAB3042AD8
:1013700046D02068082A55D0D5E90027E968036AD5
:1013800023F480530362D0F81CC0036A2CF4407C21
:101390004CEA07274FF6FF7C27F470470CEA01312F
:1013A00039434FF4204723F4204307EA02321A431B
:1013B000C16102622068C16921F44061C161206895
:1013C000C169AA6841EA0221C0F81C1084F83D6096
:1013D000002084F83C00BDE8F08101E00220FAE73B
:1013E000D5E90012EB68206800F05EFC2068816996
:1013F00021F00C01816120688169AA6811430FE026
:10140000D5E90012EB68206800F08AFC2068816949
:1014100021F44061816120688169AA6841EA022162
:101420008161D3E7D5E9002C2F7B016A21F480711B
:101430000162C169036A21F0030141EA0C0121F054
:10144000F00C39074FF420674CEA116123F4206354
:1014500007EA02221A43C16102622068C16921F0D1
:101460000C01C1612068C169AA681143ACE710B5DD
:10147000040003D094F83D0010B107E0012010BD36
:10148000002084F83C00204600F00CF8022084F88C
:101490003D00211D206800F0A7FB012084F83D00DD
:1014A000002010BD08B500680B49884212D10B48D6
:1014B000016E41F480310166006E002200F480303C
:1014C000009011461820FEF7F1FFBDE808401820F3
:1014D000FEF7DEBF08BD00000040014000100240E2
:1014E00070B50446006801694FF00005C9438907DB
:1014F00015D4C168C943890711D4E91E01610120CF
:101500002077206880698007204602D0FFF71EFF01
:1015100004E000F0A7F8204600F0A5F82577206841
:101520000169C943490717D4C168C943490713D49E
:101530006FF004010161022020772068806910F4B7
:10154000407F204602D0FFF701FF04E000F08AF858
:10155000204600F088F8257720680169C94309070B
:1015600016D4C168C943090712D46FF0080101619C
:10157000042020772068C0698007204602D0FFF74A
:10158000E5FE04E000F06EF8204600F06CF82577E8
:1015900020680169C943C90617D4C168C943C9068F
:1015A00013D46FF010010161082020772068C06912
:1015B00010F4407F204602D0FFF7C8FE04E000F0A0
:1015C00051F8204600F04FF8257720680169C9439B
:1015D000C90708D1C168C943C90704D1891E01617F
:1015E000204600F041F820680169C943090609D482
:1015F000C168C943090605D46FF080010161204626
:10160000FFF744FE20680169C943C90509D4C168D0
:10161000C943090605D46FF4807101612046FFF7C4
:1016200034FE20680169C943490609D4C168C94329
:10163000490605D46FF040010161204600F015F81D
:1016400020680169C94389060BD4C168C94389066A
:1016500007D46FF0200101612046BDE87040FFF71C
:1016600016BE70BD7047704770477047FEE70000B8
:1016700070B586B014216846FEF7A9FD2348C16CF9
:1016800041F00401C164C16C01F004010591C16C19
:1016900041F08001C164C16C01F080010591C16C11
:1016A00041F00101C164C16C01F001010591C16CFF
:1016B00041F00201C164C06C002400F002000590FA
:1016C0004FF4005000901248CDE9010469461148DA
:1016D000FEF79CFD0C200225CDE900050320CDE995
:1016E000024007204FF09046049069463046FEF7CE
:1016F0008DFDE8010090CDE9015403946946304620
:101700000494FEF783FD06B070BD00000010024097
:10171000000021100008004830B587B000241A4DA1
:10172000059406940494009401940294154803943B
:1017300028604F20C5E901044FF6FF70C5E9030496
:101740008020C5E905402846FFF791FE202004903F
:1017500004A906942846FFF79BFD0120CDE900402F
:1017600002940022694628460394FFF7F1FD012107
:101770002846FFF7BDFD2868C16841F00101C1603E
:1017800007B030BD0040014034000020FEE7704744
:10179000704700002DE9F041444C05468846E0685A
:1017A0000026810728680DD0E16801F0030181421D
:1017B00016D1A8B1E0686968C0F30210401C8842E5
:1017C0000ED120E0012804D0022805D0032807D13B
:1017D00008E02168890701E021684905002907DB45
:1017E00001265FE02168890302D421684903F5E7F7
:1017F000E1686A686FF00F0321F0730103EB0212D6
:1018000011430143E160206820F080602060FEF712
:10181000E3FD074605E000BFFEF7DEFDC01B022822
:1018200037D820680001F7D4B8F1000F18D0B8F10C
:10183000010F1ED0287D4FF07E41400801EB406033
:10184000A96840EA01202169194A11400843206132
:10185000206840F080602060FEF7BEFD07461AE079
:10186000A868E9680002090940EA41402169114A73
:10187000EBE7288A1049400801EB4050A96840EA8C
:10188000012021690D4AE0E7FEF7A6FDC01B0228F2
:1018900001D9032606E020680001F5D52069A96971
:1018A000084320613046BDE8F0810000001002408E
:1018B000FF80FFF9FF80FDFF0000E0FFFF809FFF3A
:1018C0002DE9F0413D4C06468846E0680025810739
:1018D00030680DD0E16801F00301814216D1A8B152
:1018E000E0687168C0F30210401C88420ED120E00D
:1018F000012804D0022805D0032807D108E0216878
:10190000890701E021684905002907DB012551E02D
:101910002168890302D421684903F5E7E168726808
:101920006FF00F0321F0730103EB02121143014327
:10193000E160206820F080502060FEF74DFD0746F2
:1019400005E000BFFEF748FDC01B022829D820682B
:101950008000F7D4B8F1000F15D0307C4FF07E41F5
:10196000400801EB4060B16840EA01206169144A17
:10197000114008436061206840F080502060FEF70D
:101980002BFD07460FE0B068F1680002090940EA44
:10199000414061690B4AEBE7FEF71EFDC01B0228C0
:1019A00001D9032506E020688000F5D560697169DA
:1019B000084360612846BDE8F08100000010024045
:1019C000FF80FFF9FF80FDFFF8B51C4D064600249F
:1019D000A86DC00002D5FEF7CFFD0DE0A86D40F068
:1019E0008050A865A86D00F080500090FEF7C4FDFF
:1019F000A96D21F08051A965B0F5007F04D0802E3B
:101A000007D94FF003040AE0802E08D9A02E01D890
:101A100004E001D1022402E0702E00D10124084824
:101A2000016821F0070121430160006800F0070010
:101A3000A04201D00120F8BD0020F8BD00100240F6
:101A4000002002402DE9F041044600680025C168ED
:101A5000490617D4691EC160FEF7BEFC06464FF466
:101A60007A78032708E000BFFEF7B6FC801B4045EC
:101A700002D9032584F821702068C068400601D48B
:101A8000032DF1D12846BDE8F08100002DE9F04199
:101A9000064613480025016821F080010160041FFB
:101AA00020684FF00307800607D43046FFF7BEFBDF
:101AB00090B186F8217003250EE0206820F0200008
:101AC00020603046FFF7B2FB10B186F82170032585
:101AD000206840F0200020602846BDE8F08100002A
:101AE0000C2800400148FFF71FBB00001000002039
:101AF0007047FEF777BC000010B5B8B0442122A8AB
:101B0000FEF765FB142133A8FEF761FB88216846C8
:101B1000FEF75DFBFEF738FD1E4850F8901F21F0E0
:101B200018010160142022900120249000246021DB
:101B30002890CDE929410221CDE92C102E902820B2
:101B40002F900720CDE9300122A83291FFF70AF843
:101B50000F2033900320CDE934043694042133A8B8
:101B60003794FEF7F9FE4FF40030009040122190B8
:101B70006846FEF719FD00224FF000711046FEF78F
:101B8000CDFF4FF40070FEF7C3FCFEF705FD38B043
:101B900010BD0000001002400D48016841F47001C2
:101BA00001600C48016841F0010101600021816081
:101BB0000268094B1A4002608214C260026822F473
:101BC0008022026081610249C00380390860704749
:101BD00088ED00E000100240FFFFF6EA0148FFF741
:101BE0007FBC0000340000202DE9F0470268264B3E
:101BF000264D274E274F284C4FF0804A984209D057
:101C0000504507D0A84205D0B04203D0B84201D019
:101C1000A04204D122F0700C4A6842EA0C02DFF8BC
:101C20007CC0DFF87C80DFF87C9098420FD0504574
:101C30000DD0A8420BD0B04209D0B84207D0A04284
:101C400005D0604503D0404501D0484503D122F47A
:101C50004075CA682A434D6922F080022A43026017
:101C60008A68C2620A688262984207D0A04205D0A0
:101C7000604503D0404501D0484501D10969016361
:101C800001214161BDE8F087002C014000040040C3
:101C900000080040000C00400034014000400140BA
:101CA000004401400048014070B5046A24F001047A
:101CB00004628469056A144EB04211D0B0F1804FBD
:101CC0000ED0124EB0420BD0114EB04208D0114E81
:101CD000B04205D0104EB04202D0104EB04203D1F7
:101CE00024F00304144301E044F001041A0724F033
:101CF000F00444EA126225F00A0301F00A011943D4
:101D00008261016270BD0000002C014000040040AF
:101D100000080040000C0040003401400040014039
:101D200030B5046A24F0100404628469056A24F45E
:101D3000407444EA022222F470444FF6FF7202EA31
:101D400003322243A02425F0A00304EA0111194321
:101D50008261016230BDFEE70907090E002804DB3D
:101D600000F1E02080F80014704700F00F0000F14F
:101D7000E02080F8141D704702E008C8121F08C157
:101D8000002AFAD170477047002001E001C1121FFC
:101D9000002AFBD170470000FEF72CFBFFF7ACFEDA
:101DA000FFF766FC0C480B497F2201600021C0E967
:101DB0000112FF22C0E9032141618161C161FFF786
:101DC000CDF9002211460448FFF73CF9FFF7A4FCC7
:101DD000FEE7000000280040100000200000000086
:101DE000000000000102030406070809A0860100A4
:101DF000400D0300801A060000350C0040420F0021
:101E000080841E0000093D0000127A000024F400C6
:101E100000366E010048E801006CDC023C1E000840
:101E20000000002010000000781D00084C1E000873
:101E30001000002068040000881D00081000000049
:0C1E4000010000000000000000093D004F
:040000050800018965
:00000001FF
