:020000040800F2
:10000000A8A70020A1010008EB3C0008E92C00088B
:10001000453B0008D10900086149000800000000C4
:10002000000000000000000000000000C93E0008C1
:100030002D0F000800000000ED3C0008CB3E00083A
:10004000BB010008BB010008D13F00088D3D00083E
:10005000BB010008BB010008BB010008BB01000890
:10006000BB010008BB010008BB010008BB01000880
:10007000BB010008BB010008BB010008BB01000870
:10008000BB010008BB010008BB010008BB01000860
:10009000BB010008BB010008BB010008BB01000850
:1000A000E13F0008BB010008BB010008BB010008DC
:1000B000F13F000811400008BB010008BB01000827
:1000C000BB010008BB010008BB010008BB01000820
:1000D000BB010008BB01000821490008BB01000862
:1000E000BB010008BB010008BB010008BB01000800
:1000F000BB010008BB010008BB010008BB010008F0
:10010000BB010008BB010008BB010008BB010008DF
:10011000BB010008BB010008BB010008BB010008CF
:10012000BB010008BB010008BB010008BB010008BF
:10013000BB010008BB010008BB010008BB010008AF
:10014000BB010008BB010008BB010008BB0100089F
:10015000BB010008BB010008BB010008BB0100088F
:10016000BB010008BB010008BB010008BB0100087F
:10017000BB010008BB010008BB0100080000000033
:10018000BB010008BB010008DFF810D000F016FB2F
:100190000048004795570008AFF30080A8A700204B
:1001A0000648804706480047FEE7FEE7FEE7FEE711
:1001B000FEE7FEE7FEE7FEE7FEE7FEE7813F000819
:1001C000890100082DE9F05F0546002092469B4614
:1001D00088460646814640241BE02846414647465D
:1001E000224600F03CFA53465A46C01A914110D3B9
:1001F00011461846224600F023FA2D1A67EB010833
:100200004F4622460120002100F01AFA17EB0009A0
:100210004E41201EA4F10104DFDC484631462A4647
:10022000434600F000B830BCBDE8C09F40EA01037F
:100230009B0703D009E008C9121F08C0042AFAD29C
:1002400003E011F8013B00F8013B521EF9D2704760
:10025000D2B201E000F8012B491EFBD27047002208
:10026000F6E710B513460A4604461946FFF7F0FFB5
:10027000204610BD2DE9FE4F804681EA0300C00FE5
:100280000C46009021F0004123F00045B8EB02003D
:10029000A94105D24046214690461C460B460246DF
:1002A00023F00040104347D0270DC7F30A00C3F3E3
:1002B0000A510290401A019040286BDAC3F31300F0
:1002C00040F4801B0098924620B10023D2EB030A31
:1002D00063EB0B0B01985946C0F14002504600F009
:1002E000AFF906460D4650465946019A00F0C7F947
:1002F00010EB08006141002487EA115284EAE77399
:100300001A4340D0009A62B3019A012A4FEA075279
:1003100015DC001B61EB02014FF0004202EA0752BC
:10032000CDE90042001C41F5801132462B4600F019
:10033000C7F903B000F045B840462146F9E7001B75
:1003400061EB0201001C41F5801300185B4120188D
:10035000A2F5001747EB030140EAD570B6196D41CD
:1003600011E06D084FEA360645EAC0754FEA0752BC
:10037000001B61EB0201001C41F5801149084FEAA6
:1003800030000019514132462B4603B000F01CB832
:1003900000F087B90098012240000023D0EB020250
:1003A00063EBE073009821464FEAE074B8EB00007D
:1003B00061EB0401E9E783F000435BE781F0004172
:1003C00058E730BCBDE8C08F30BCBDE8C04FFFF778
:1003D000DFBF2DE9FE4F81EA030404F0004421F061
:1003E000004100944FF0000B23F0004350EA010459
:1003F0005ED052EA03045BD0C3F30A54C1F30A553A
:100400002C44A4F2F3340194A0FB0254C1F3130171
:1004100041F48011C3F3130343F4801301FB02443E
:1004200000FB034E840A970A44EA815447EA835743
:10043000A4FB076802958D0A05FB07854FEA932CFC
:1004400004FB0C542705029D4FEA065847EA16376D
:10045000B5EB08056EEB070C870E920E47EA811785
:1004600042EA8312A7FB0201B6EB0B0164EB000426
:100470002B0D43EA0C335E1844EB1C50DA46514610
:10048000E7FB0201C5F313044FEA0B3343EA1453AD
:100490004FEA0432019C43EA0603A4F10C040294DF
:1004A000009CCDE900B400F00BF903B000F003B8F4
:1004B00000200146F9E730BCBDE8C08F2DE9F04DC2
:1004C00081EA030404F0004B21F0004514464FF08C
:1004D000000A23F0004150EA050220D054EA01024C
:1004E0001DD0C5F30A570246C5F31303C1F3130029
:1004F000C1F30A5640F4801543F48013A7EB0608B5
:10050000101BD64608F2FD3873EB050002D308F144
:10051000010801E092185B41B8F1000F03DA0020F6
:100520000146BDE8F08D00204FF480110646844658
:100530000EE0171B73EB050705D3121B63EB0503D6
:1005400006434CEA010C49084FEA300092185B411F
:1005500050EA0107EDD152EA030012D082EA04000A
:1005600083EA0501084305D0101BAB4106D20122E6
:10057000002306E000224FF0004302E06FF001028A
:1005800053101AEB06004CEB085110EB0A0041EB3C
:100590000B01BDE8F04D00F084B80EB5C10F80EA44
:1005A000E0700844CA07002140F233438DE80E0092
:1005B0000A460B4600F084F803B000BD0EB540F2C9
:1005C000334102910021CDE900110A460B4600F0AB
:1005D00077F803B000BD70B5C1F30A5201F00045D1
:1005E0000024C1F3130140F2FF3341F480119A4219
:1005F00001DA002070BD40F233439A42A2F2334246
:1006000003DC524200F02BF800E090402C43F1D084
:10061000404270BD30B50B46014600202022012427
:1006200009E021FA02F59D4205D303FA02F5491BC0
:1006300004FA02F52844151EA2F10102F1DC30BDD6
:10064000202A04DB203A00FA02F100207047914092
:10065000C2F1200320FA03F3194390407047202A87
:1006600004DB203A21FA02F00021704721FA02F35C
:10067000D040C2F120029140084319467047202A19
:1006800006DBCB17203A41FA02F043EAE07306E0BA
:1006900041FA02F3D040C2F12002914008431946CA
:1006A000704710B5141E73F1000408DA401C41F1C4
:1006B000000192185B411A4301D120F0010010BDE6
:1006C0002DE9F04D92469B4611B1B1FA81F202E05C
:1006D000B0FA80F220329046FFF7B2FF04460F4690
:1006E00040EA0A0041EA0B0153465A46084313D038
:1006F000114653EA010019D0C8F140025046FFF7F5
:10070000AEFF05460E46504659464246FFF798FF53
:10071000084305D0012004E020463946BDE8F08DAD
:100720000020054346EAE0762C4337430A986305E8
:10073000E40AA0EB08000022FD0A44EA47540A300C
:1007400002D500200146E9E7010510196941DDE9FC
:10075000084500196941BDE8F04DA2E7C1F30A520E
:10076000C1F3130140F2FF3341F480119A4202DADF
:1007700000200146704740F233439A42A2F23342CE
:1007800002DC5242FFF76BBFFFF75ABF30B5041EC1
:1007900071F1000404DB4FF00044404264EB0101BE
:1007A000141E73F1000405DB1C464FF00043524257
:1007B00063EB0403994208BF904230BD064C074DDD
:1007C00006E0E06840F0010394E807009847103421
:1007D000AC42F6D3FFF7DCFC485C0008685C00081C
:1007E0002DE9FF5F82460F46DDE90E4BBAF1000F9F
:1007F0003CD0201D04F056F9054600262246284626
:100800000399FFF713FD029800F0FF08B14607E0D7
:1008100017F80910304604F035FF86B209F10109D6
:10082000A8F102004845F3DCB8F1020F03DA401CDE
:10083000385C464008E0A8F10100385C7040A8F13F
:100840000201795C80EA012606F00F002855C6F304
:100850000311601C2954C6F30321A01C2954310B39
:10086000E01C2954201DABF800000AE0204604F0EB
:1008700019F90546224628460399FFF7D7FCABF83D
:100880000040284604B000F000B830BCBDE8C09F6E
:100890002DE9FE4F0746884691461E460D9D681D70
:1008A00004F000F904463FB12A4620460C99FFF7B0
:1008B000BDFC0E98058085E0C6F30710207006F099
:1008C0000F00607048EA4900A0702078C0F3C000B3
:1008D0002178C1F3800148402178C1F340014840AC
:1008E000217801F00101484000902078C0F3C00059
:1008F0006178C1F3C00148406178C1F3800148408C
:100900006178C1F340014840A17801F001014840FD
:1009100001902078C0F380006178C1F3C0014840A5
:10092000617801F001014840A178C1F3C00148405D
:10093000A178C1F34001484002902078C0F3400004
:100940006178C1F380014840617801F001014840BD
:10095000A178C1F380014840A178C1F3400148402B
:10096000A17801F0010180EA010B207800F001007C
:100970006178C1F340014840A178C1F3C00148400B
:10098000A178C1F380014840A178C1F340014840FB
:10099000A17801F0010180EA010A0098E070019855
:1009A000C100029841EA800040EA4B0040EA0A0098
:1009B00020712A46601D0C99FFF738FC681D81B232
:1009C0000E980180204600F000B81EBCBDE8E08F04
:1009D00000BFFEE72DE9F04107460D4616464020D0
:1009E0004649086000BF40214FF0904000F0ECFC09
:1009F0000128F8D0B7F53C5F3CDA06F00100F0B111
:100A00002A78394662F31F2141F0400003F020FAB2
:100A1000012E6CDD00240DE0012101EB4401695C35
:100A2000022202EB4402AA5C41EA022003F010FA1F
:100A3000601CC4B2701EB4EB600FEDDB57E0297888
:100A4000402242EA0121C8B203F026FA012E4EDB11
:100A500000240BE015F81410012202EB4402AA5CFA
:100A600041EA022003F0F4F9601CC4B2B4EB660F53
:100A7000F0DB3CE0F9B22F2242EA012141F04000D4
:100A800003F0E6F9804606F00100E8B1012E17DD1B
:100A900000240CE015F81410012202EB4402AA5CB9
:100AA00041EA022003F0D4F98046601CC4B2701EF3
:100AB000B4EB600FEEDB711E685C03F0EDF916E03D
:100AC000287803F0E9F912E0012E10DB00240BE096
:100AD00015F81410012202EB4402AA5C41EA02203C
:100AE00003F0B6F9601CC4B2B4EB660FF0DB402033
:100AF0000249103908600120BDE8F081280400484F
:100B000010B500F0E6F800F001F810BD10B5312185
:100B1000002000F071F90821012000F06DF9B021EA
:100B2000022000F069F90921032000F065F90B218A
:100B3000082000F061F90F210A2000F05DF91F2163
:100B40000B2000F059F904210C2000F055F9002188
:100B50000D2000F051F900210F2000F04DF9002187
:100B6000102000F049F98121112000F045F90621FB
:100B7000122000F041F94521132000F03DF9A42195
:100B8000142000F039F97A21152000F035F9E1211F
:100B9000162000F031F93C21172000F02DF9EC214E
:100BA000182000F029F983211A2000F025F960218E
:100BB0001B2000F021F9A9211C2000F01DF9C02103
:100BC0001D2000F019F900211E2000F015F9142154
:100BD000212000F011F90721262000F00DF9002155
:100BE000272000F009F92021282000F005F93F21F5
:100BF0002B2000F001F979212D2000F0FDF80021D3
:100C00004FF43C5000F0F8F80A2142F6027000F070
:100C1000F3F80C2142F6047000F0EEF8562142F68B
:100C20000C7000F0E9F8FC2142F60D7000F0E4F8D9
:100C3000CC2142F60E7000F0DFF8052142F611706B
:100C400000F0DAF8002142F6127000F0D5F85F21CA
:100C500042F6137000F0D0F80E2142F6177000F043
:100C6000CBF8032142F6197000F0C6F8332142F6A2
:100C70001B7000F0C1F8172142F61D7000F0BCF89F
:100C8000502142F61F7000F0B7F86E2142F6207036
:100C900000F0B2F8142142F6217000F0ADF8AC215A
:100CA00042F6227000F0A8F80E2142F6327000F0F1
:100CB000A3F8C72142F6347000F09EF8072142F6EF
:100CC000367000F099F8082142F6917000F094F81F
:100CD00010BD10B5002201214FF0904000F07CFBC8
:100CE000012004F0F1FC012211464FF0904000F089
:100CF00073FB012004F0E8FC10BD000038B5054688
:100D000000BF2F4AB5FBF2F000FB1251521002EB6C
:100D100081222B4BB2FBF3F202EB8022294B1A60AB
:100D200000BF18460068000C8DF8000018460088C7
:100D3000000A8DF80100184600788DF802009DF831
:100D4000000021490978884211D003201F4908700A
:100D50009DF800001C4908709DF801001C490870AE
:100D60009DF802001B49087042F60C741CE09DF8C7
:100D700001001749097888420DD0022013490870F4
:100D80009DF80100124908709DF802001149087091
:100D900042F60D7408E001200C4908709DF802002D
:100DA0000C49087042F60E740DF10300074A1278E0
:100DB000811A064802782046FFF70CFE38BD000075
:100DC0002D310100F4000020EC000020FB00002089
:100DD000ED000020EE00002010B50446402005493B
:100DE0000860204603F058F8402002491039086096
:100DF00010BD00002804004870B504460D46402090
:100E00001249086000BF40214FF0904000F0DCFA2A
:100E10000128F8D0B4F53C5F0BDBE1B22F2242EAA7
:100E2000012003F015F80646284603F035F806467B
:100E300006E0214665F31F21084603F009F806463F
:100E40004020024910390860012070BD2804004884
:100E500000B587B0142102A8FFF701FA00BF2548AA
:100E6000C06C40F002002349C8640846C06C00F022
:100E70000200019000BF00BF00BF0846C06C40F0F8
:100E80000100C8640846C06C00F00100019000BF7A
:100E900000BF00BF0846C06C40F00400C8640846AC
:100EA000C06C00F00400019000BF00BF262002903B
:100EB00001200390002004900320059002A90E4811
:100EC00000F080F940F2014002900120039002A955
:100ED0004FF0904000F076F9012211464FF090401B
:100EE00000F07AFA012291024FF0904000F074FA7B
:100EF00007B000BD001002400004004830B590F873
:100F0000444004F01C050124AC40056C6C6004688E
:100F100063608468102C04D10468A2600468E160F6
:100F200003E00468A1600468E26030BD704700001F
:100F300000BF03A003F096F800BF00BFFEE700006B
:100F40004572726F725F48616E646C65720A0D0063
:100F50002DE9F0470C46DDE90867002100258C46A5
:100F600000BF60E04FF0010808FA01F504EA050C43
:100F7000AC4557D1D0F800804FEA410A4FF0030941
:100F800009FA0AF928EA0908C0F80080D0F80080B8
:100F90004FEA410902FA09F948EA0908C0F8008055
:100FA000012A01D0022A27D1D0F808804FEA410A4D
:100FB0004FF0030909FA0AF928EA0908C0F808807D
:100FC000D0F808804FEA410906FA09F948EA090809
:100FD000C0F80880D0F804904FF0010808FA01F832
:100FE00029EA0809C0F80490D0F8048003FA01F94E
:100FF00048EA0908C0F80480D0F80C804FEA410A9A
:101000004FF0030909FA0AF928EA0908C0F80C8028
:10101000D0F80C804FEA410907FA09F948EA0908B3
:10102000C0F80C80491C10299CD3BDE8F0872DE93D
:10103000F05F83460E4691469846DDE90A7A7800CD
:1010400003F030FD044600251BE038F8150024F8B5
:101050001500012008E034F8151038F81520024179
:10106000514024F81510401CB042F4DB012202FA72
:1010700006F134F81520501C04F04CFC24F815003F
:101080006D1CBD42E1DBB9F1000F16D0082512E05E
:1010900034F8150000EBD0714910A0EB410149B9BB
:1010A000012202FA06F134F81520D01E04F032FCB9
:1010B00024F815006D1CBD42EADBAAF8007020463A
:1010C00000F000B830BCBDE8C09F70B504460025F4
:1010D00094F82500022803D00420E063012520E0D5
:1010E0002068006820F00E00216808602068006811
:1010F00020F001002168086094F8440000F01C0111
:1011000001208840216C4860012084F8250000BF40
:10111000002084F8240000BFA06B10B12046A16B12
:101120008847284670BD2DE9F04104460D46164615
:101130001F464FF0000800BF94F82400012802D198
:101140000220BDE8F081012084F8240000BF94F85B
:10115000250001282CD1022084F825000020E0631E
:101160002068006820F00100216808603B46324694
:1011700029462046FFF7C2FE206B30B12068006888
:1011800040F00E00216808600BE02068006820F045
:101190000400216808602068006840F00A002168A7
:1011A00008602068006840F001002168086006E0DF
:1011B00000BF002084F8240000BF4FF00208404622
:1011C000BFE7000078B503460022E5E0012696401F
:1011D0000D6805EA0604002C7DD04D68022D02D072
:1011E0004D68122D13D1D60803F1200555F82600BD
:1011F0005507EE0E0F25B540A8435607F60E0D69AC
:10120000B5402843D60803F1200545F826001868A4
:1012100056000325B540A8430D7905F00305560097
:10122000B540284318604D68012D08D04D68022D47
:1012300005D04D68112D02D04D68122D13D198683C
:1012400056000325B540A8435600CD68B540284355
:101250009860586801259540A8430D79C5F300159D
:101260009540284358600D7905F00305032D09D1F9
:10127000D86A01259540A8430D79C5F3C00595406E
:101280002843D862D86856000325B540A8435600C5
:101290008D68B5402843D8604D6805F08055B5F19C
:1012A000805F78D100BF3F4D2D6E45F001053D4E6A
:1012B000356635462D6E05F00105009500BF00BF6F
:1012C0004FEAB635960855F8260095072E0F0F25DC
:1012D000B540A84300E05EE0B3F1904F01D1002596
:1012E0001EE0314DAB4201D1012519E02F4DAB423B
:1012F00001D1022514E02E4DAB4201D103250FE0B0
:101300002C4DAB4201D104250AE02B4DAB4201D15B
:10131000052505E0294DAB4201D1062500E0072552
:101320009607360FB5402843254D960845F8260008
:10133000244D2868A0434D6805F48035B5F5803FFD
:1013400000D120431F4D28602D1D2868A0434D6803
:1013500005F40035B5F5003F00D12043194D2D1D92
:1013600028602D1D2868A0434D6805F48015B5F54B
:10137000801F00D12043134D083528602D1D28689B
:10138000A0434D6805F40015B5F5001F00D12043BA
:101390000C4D0C352860521C0D68D540002D7FF493
:1013A00015AF78BD00100240000400480008004856
:1013B000000C0048001000480014004800180048C5
:1013C0000800014000040140024613690B400BB1C4
:1013D000012000E0002070470AB1816100E08162D5
:1013E0007047000001480068704700006C00002052
:1013F00003480068034909680844014908607047C8
:101400006C0000207400002010B50024032000F0C0
:1014100089F80F2000F008F808B1012401E000F07D
:101420002FF8204610BD000070B504460025114875
:101430000068D8B10F4800684FF47A71B1FBF0F042
:101440000D490968B1FBF0F6304600F0A1FE58B92D
:10145000102C07D200222146501E00F022F8074827
:10146000046004E0012502E0012500E00125284692
:1014700070BD000074000020780000207000002083
:10148000704701460846002809DB00F01F030122CF
:101490009A4043099B0003F1E023C3F8002100BFF9
:1014A00070472DE9F05F80460D461646002703F091
:1014B000AFFA074639462A46334601F00700C0F125
:1014C000070ABAF1040F02D94FF0040A01E0C0F193
:1014D000070AD14600F1040ABAF1070F02D24FF011
:1014E000000A01E0A0F1030AD4464FF0010A0AFA0B
:1014F00009FAAAF1010A0AEA020A0AFA0CFA4FF0FA
:10150000010B0BFA0CFBABF1010B0BEA030B4AEAE4
:101510000B042146404603F083FA00F000B830BCCB
:10152000BDE8C09F00BF00F00702064B19684FF6E8
:10153000FF031940044B0B4343EA0221014B19609E
:1015400000BF70470CED00E00000FA050246B2F55E
:10155000007F2AD11D48006800F4C060B0F5007F0C
:1015600032D01A48006820F4C06040F40070174B75
:1015700018601748006832235843164BB0FBF3F04D
:10158000411C00E0491E1148406900F48060B0F53C
:10159000806F01D10029F5D10C48406900F48060CA
:1015A000B0F5806F10D1032070470848006800F440
:1015B000C060B0F5806F07D00448006820F4C060B8
:1015C00040F48060014B18600020EDE7007000409F
:1015D0007800002040420F000248006800F4C0601C
:1015E00070470000007000400348006840F48070BD
:1015F000014908607047000000700040034800681F
:1016000040F00400014908607047000000100240EB
:101610002DE9F04104460D4614B90120BDE8F081E2
:101620005548006800F00700A8420ED252480068F2
:1016300020F007002843504908600846006800F081
:101640000700A84201D00120E8E7207800F001005F
:10165000002840D06068032806D14848006800F0A0
:101660000070D8B90120D9E76068022806D1434844
:10167000006800F4003088B90120CFE7606830B915
:101680003E48006800F0020040B90120C6E73B4830
:10169000006800F4806008B90120BFE7374880681F
:1016A00020F003006168084334498860FFF79AFE20
:1016B000064608E0FFF796FE801B41F2883188421B
:1016C00001D90320AAE72D48806800F00C0061686A
:1016D000B0EB810FEED1207800F00200022807D194
:1016E0002648806820F0F000A168084323498860FC
:1016F0002148006800F00700A8420ED91E48006883
:1017000020F0070028431C4908600846006800F0E4
:101710000700A84201D0012080E7207800F00400F3
:10172000042807D11548806820F4E060E168084388
:1017300012498860207800F00800082808D10F4876
:10174000806820F46050216940EAC1000B4988603C
:1017500000F046F809498968C1F30311084A515C51
:1017600001F01F01C8400749086007480068FFF7FB
:101770005BFE0746384651E7002002400010024059
:10178000D45A00087800002070000020014800684A
:10179000704700007800002000B5FFF7F7FF05490B
:1017A0008968C1F30221044A515C01F01F01C8405D
:1017B00000BD000000100240E45A000800B5FFF729
:1017C000E5FF05498968C1F3C221044A515C01F073
:1017D0001F01C84000BD000000100240E45A00088C
:1017E000F0B500230020DFF8D4C0DCF808C00CF00E
:1017F0000C01DFF8C8C0DCF80CC00CF0030719B10D
:101800000C291ED1012F1CD1DFF8B0C0DCF800C0BC
:101810000CF0080CBCF1000F06D1DFF8A0C0DCF81A
:1018200094C0CCF3032305E0DFF890C0DCF800C0DF
:10183000CCF30313DFF888C05CF8233041B91846B5
:1018400006E0042901D11F4802E0082900D11E4802
:101850000C2932D1DFF864C0DCF80CC00CF00304B2
:10186000012C09D0022C02D0032C04D101E0154A2E
:1018700004E0154A02E000BF1A4600BF00BFDFF8CF
:101880003CC0DCF80CC0CCF3021C0CF10106DFF804
:101890002CC0DCF80CC0CCF3062C0CFB02FCBCFB0F
:1018A000F6F2DFF818C0DCF80CC0CCF3416C0CF198
:1018B000010C4FEA4C05B2FBF5F0F0BD0010024000
:1018C000EC5A00080024F40000127A0070B586B0CB
:1018D00006460D46144600BF1248C06C40F0010099
:1018E0001049C8640846C06C00F00100009000BFB9
:1018F00000BF881501900220029004900020039000
:10190000059001A94FF09040FFF75CFC0548806806
:1019100020F0EE4045EA040108430249886006B021
:1019200070BD0000001002402DE9F843044614B9D0
:101930000120BDE8F883F948806800F00C07F748FB
:10194000C06800F00306207800F01000102876D15F
:101950001FB10C2F75D1012E73D1F048006800F033
:10196000020018B1A06908B90120E2E7EB48216A3A
:10197000006800F0080020B1E848006800F0F000BE
:1019800005E0E6489430006800F470600009814288
:101990001FD9206A02F0ACF908B10120C9E700BFE5
:1019A000DE48006840F00800DC490860084600682E
:1019B00020F0F000216A0843D849086000BF0846BB
:1019C000406820F47F40E16940EA0120D349486043
:1019D0001EE000BFD148006840F00800CF49086011
:1019E0000846006820F0F000216A0843CB490860EF
:1019F00000BF0846406820F47F40E16940EA0120CA
:101A0000C6494860206A02F073F908B1012090E7E6
:101A1000FFF7E6FEC1498968C1F30311C04A515C72
:101A200001F01F01C840BF490860BF480068FFF7C8
:101A3000FBFC8046B8F1000F4ED0404679E74BE002
:101A4000FFE7A06980B3B548006840F00100B349E2
:101A50000860FFF7C7FC054606E0FFF7C3FC401B24
:101A6000022801D9032064E7AC48006800F00200B6
:101A70000028F2D000BFA948006840F00800A7493C
:101A800008600846006820F0F000216A0843A34976
:101A9000086000BF0846406820F47F40E16940EAE2
:101AA00001209E49486017E0FFE79C48006820F04D
:101AB00001009A490860FFF795FC054606E0FFF72C
:101AC00091FC401B022801D9032032E793480068AB
:101AD00000F002000028F2D1207800F00100002878
:101AE0005CD0082F03D00C2F0AD1032E08D18B48CD
:101AF000006800F4003088B3606878BB012018E704
:101B000000BF6068B0F5803F06D18448006840F4AB
:101B10008030824908601AE06068B0F5A02F0BD1D0
:101B20007E48006840F480207C49086008460068D0
:101B300040F4803008600AE07848006820F4803083
:101B4000764908600846006820F48020086000BFDD
:101B5000606890B1FFF746FC054607E01EE0FFF71E
:101B600041FC401B642801D90320E2E66B48006871
:101B700000F400300028F2D010E0FFF733FC0546F7
:101B800006E0FFF72FFC401B642801D90320D0E6B4
:101B90006248006800F400300028F2D1207800F09C
:101BA0000200022852D1042F03D00C2F14D1022E90
:101BB00012D15A48006800F4806018B1E06808B992
:101BC0000120B6E65548406820F0F850217C40EAF4
:101BD00001605249486039E0E06800B34F4800684E
:101BE00040F480704D490860FFF7FCFB054606E0B5
:101BF000FFF7F8FB401B022801D9032099E647486C
:101C0000006800F480600028F2D04448406820F06A
:101C1000F850217C40EA01604049486016E03F48A6
:101C2000006820F480703D490860FFF7DBFB054643
:101C300006E0FFF7D7FB401B022801D9032078E616
:101C40003648006800F480600028F2D1207800F067
:101C50000800082836D16069D0B130489430006857
:101C600040F001002D49C1F89400FFF7BBFB054689
:101C700006E0FFF7B7FB401B022801D9032058E616
:101C800026489430006800F002000028F1D019E0E6
:101C900022489430006820F001002049C1F89400E7
:101CA000FFF7A0FB054606E0FFF79CFB401B022860
:101CB00001D903203DE619489430006800F0020085
:101CC0000028F1D1207800F00400042873D14FF0EF
:101CD00000091248806D00F0805078B900BF0F48AD
:101CE000806D40F080500D4988650846806D00F099
:101CF0008050009000BF00BF4FF001090B48006802
:101D000000F4807008BB0948006840F480700749FF
:101D10000860FFF767FB054611E000000010024075
:101D2000D45A0008780000207000002000700040A5
:101D3000FFF758FB401B022801D90320F9E5994819
:101D4000006800F480700028F2D000BFA06801286D
:101D500008D19548006840F0010093499039C1F8D6
:101D6000900021E0A06805280FD18F48006840F05E
:101D700004008D499039C1F890000846D0F89000D1
:101D800040F00100C1F890000EE08748006820F0A4
:101D9000010085499039C1F890000846D0F89000BC
:101DA00020F00400C1F8900000BFA068A0B1FFF7C8
:101DB00019FB054609E02EE0FFF714FB401B41F23A
:101DC0008831884201D90320B3E57748006800F0E4
:101DD00002000028F0D012E0FFF704FB054608E0FF
:101DE000FFF700FB401B41F28831884201D90320F4
:101DF0009FE56D48006800F002000028F0D1B9F1BD
:101E0000010F07D168489038806D20F080506649F6
:101E10009039886500BFA06A00285BD00C2F78D06D
:101E2000A06A022857D160489038006820F080707E
:101E30005D4990390860FFF7D5FA054606E0FFF7DF
:101E4000D1FA401B022801D9032072E55648903888
:101E5000006800F000700028F1D1D4E90B10401E9A
:101E600041EA0011606B41EA0021A08F0122C2EB20
:101E7000500041EA40514020005DC2EB500041EA71
:101E80004061A06B000941EA404047499039C96868
:101E9000464A1140084344499039C86008460068E2
:101EA00040F0807008600846C06840F08070C860EC
:101EB000FFF798FA054606E0FFF794FA401B022860
:101EC00001D9032035E538489038006800F00070EB
:101ED0000028F1D064E034489038006820F0807029
:101EE0003149903908600846006800F0205020B958
:101EF0000846C06820F00300C8602B489038C068CE
:101F00002B49084028499039C860FFF76BFA05460D
:101F100007E00EE0FFF766FA401B022801D9032014
:101F200007E521489038006800F000700028F1D1E2
:101F300036E0A06A012800D1FBE41B489038C6684F
:101F400006F00301E06A814228D106F07001206B9F
:101F5000401EB1EB001F21D106F4FE41606BB1EBD6
:101F6000002F1BD106F40031A06B072801D00120FF
:101F700000E00020814211D106F4C001A08F0122AF
:101F8000C2EB5000B1EB405F08D106F0C0614020C9
:101F9000005DC2EB5000B1EB406F01D00120C8E4FE
:101FA0000020C6E400700040901002408C809DF933
:101FB000FFFFEEFE704770477047000010B5044603
:101FC0004FF400203249086020688068C0F3C030B8
:101FD00078B12068C068C0F3C02050B1204600F03E
:101FE00061F82068C06800F0800060F40860216833
:101FF000C8602068006C2749084008B1012000E053
:10200000002078B12068C068C0F3403050B120682B
:10201000C06800F0800060F402502168C86020466B
:10202000FFF7C8FF2068006C1B49084008B1012079
:1020300000E0002078B12068C068C0F3803050B163
:102040002068C06800F0800060F481402168C860AA
:102050002046FFF7B0FF2068006C1049084008B127
:10206000012000E0002078B12068C068C0F3C030D3
:1020700050B12068C06800F0800009490843216819
:10208000C8602046FFF798FF012084F8210010BDAA
:102090001404014004000100040008000400400092
:1020A0007F7FFFFF704770B504460CB9012070BDFB
:1020B000606A00B900BF0021A16294F85D0028B9F0
:1020C000002084F85C00204600F04DF8022084F8DF
:1020D0005D002068006820F0400021680860E0682A
:1020E000B0F5E06F01D9002501E04FF48055E068BC
:1020F000B0F5706F05D0E068B0F5E06F01D0002159
:10210000A162206B40B9E068B0F5E06F02D902210E
:10211000216301E001212163D4E901010843216920
:10212000084361690843218B01F400710843E169A8
:102130000843216A0843A16A084321680860042112
:10214000A06901EA1040616A0843616B0843E168D5
:10215000084328432168486000202066012084F855
:102160005D000020A3E77047042808D14FF0E0216C
:10217000096941F004014FF0E022116107E04FF0DE
:10218000E021096921F004014FF0E022116170475C
:1021900070B504462546681EB0F1807F01D301204A
:1021A0000FE0681E4FF0E02148610F214FF0FF3033
:1021B00002F036FC00204FF0E02188610720086122
:1021C000002070BD704770477047000010B504468E
:1021D0002648007800F0800080B90021244800F0F3
:1021E0007FF92449244A128801EB021108608020FB
:1021F0001E49087001202149086035E01F48006829
:10220000401C1E49086008460068B0F5004F2BD1FD
:102210000021174800F064F91649174A128801EBAB
:10222000021148601148007800F07F001149124AFD
:10223000128801EB021188600F480088401C0E498B
:1022400008800020094908700C4908600A48008885
:10225000032809DB0021064800F014F80020064995
:10226000088001200649087010BD00008C00002085
:10227000A4020020E402002094000020900000202E
:102280009600002030B504460D4635B1042D0BD024
:10229000082D10D00C2D1CD114E02068C06820F04F
:1022A00002002168C86015E02068C06820F00400C2
:1022B0002168C8600EE02068C06820F0080021682E
:1022C000C86007E02068C06820F010002168C8607E
:1022D00000E000BF00BF00222946206801F0B0FEE8
:1022E00000BF2068006A41F21111084050B920680F
:1022F000006A8910084028B92068006820F00100B1
:102300002168086000BF002030BD10B50446206879
:102310000069C0F34000D8B12068C068C0F3400035
:10232000B0B16FF0020021680861012020772068B9
:10233000806900F0030018B12046FFF747FF05E071
:10234000204600F0BEF8204600F0BCF800202077C0
:1023500020680069C0F38000D8B12068C068C0F36D
:102360008000B0B16FF0040021680861022020777E
:102370002068806900F4407018B12046FFF726FFFE
:1023800005E0204600F09DF8204600F09BF8002074
:10239000207720680069C0F3C000D8B12068C06809
:1023A000C0F3C000B0B16FF00800216808610420DC
:1023B00020772068C06900F0030018B12046FFF7BD
:1023C00005FF05E0204600F07CF8204600F07AF892
:1023D0000020207720680069C0F30010D8B1206881
:1023E000C068C0F30010B0B16FF010002168086140
:1023F000082020772068C06900F4407018B120469A
:10240000FFF7E4FE05E0204600F05BF8204600F010
:1024100059F8002020772068006900F0010058B1C9
:102420002068C06800F0010030B16FF00100216841
:102430000861204600F048F820680069C0F3C01029
:1024400058B12068C068C0F3C01030B16FF0800090
:10245000216808612046FFF7B6FE20680069C0F3D6
:10246000002058B12068C068C0F3C01030B16FF4CC
:102470008070216808612046FFF7A4FE206800698B
:10248000C0F3801058B12068C068C0F3801030B12C
:102490006FF0400021680861204600F03AF820689B
:1024A0000069C0F3401058B12068C068C0F3401004
:1024B00030B16FF02000216808612046FFF784FEEC
:1024C00010BD7047704700000449097821B10349E5
:1024D0000978491C014A1170704700008C000020E7
:1024E0000246002031B1042907D0082908D00C2960
:1024F0000CD108E01368586B09E01368986B06E08C
:102500001368D86B03E01368186C00E000BF00BFCD
:10251000704770477047704701464B6F8A6F43EAB8
:10252000020070472DE9F04704462068C56920681D
:1025300006682068876805F00F08B8F1000F0CD115
:1025400005F0200048B106F0200030B1206E10B137
:102550002046216E8847BDE8F087B8F1000F71D0A2
:1025600007F0010018B906F49070002879D005F042
:10257000010048B106F4807030B101202168086282
:10258000E06F40F00100E06705F0020048B107F09D
:10259000010030B1022021680862E06F40F00400C1
:1025A000E06705F0040048B107F0010030B10420F5
:1025B00021680862E06F40F00200E06705F0080063
:1025C00060B106F0200010B907F0010030B108201A
:1025D00021680862E06F40F00800E067E06F80B3B8
:1025E00005F0200038B106F0200020B1206E10B1B7
:1025F0002046216E8847D4F87C902068806800F0DF
:102600004000402802D009F0080020B3204601F025
:102610007AFE2068806800F04000402817D12068CA
:10262000806820F0400021688860E06E58B1204842
:10263000E16E8863E06EFEF748FD10B1E06E816BDD
:1026400088470DE00DE02046FFF765FF08E02046D3
:10265000FFF761FF04E02046FFF75DFF0020E06721
:1026600079E705F4801050B107F4800038B14FF4D9
:102670008010216808622046FFF74CFF6BE705F0E9
:10268000800040B106F0800028B1606E10B1204695
:10269000616E88475FE705F0400030B106F040000A
:1026A00018B1204601F040FE55E700BF53E7000097
:1026B0005342000810B504460CB9012010BDA069B2
:1026C00000B100E000BF606F28B9002084F87000FE
:1026D000204600F029F8242060672068006820F078
:1026E000010021680860204601F0A0FE012800D109
:1026F000E4E7606A10B1204601F0F8FC2068406809
:1027000020F49040216848602068806820F02A000A
:10271000216888602068006840F001002168086036
:10272000204601F05FFDC9E710B586B004461F4999
:102730002068884238D100BF1D48C06C40F00100BD
:102740001B49C8640846C06C00F00100009000BF3F
:1027500000BF00BF0846806D40F400308865084621
:10276000806D00F40030009000BF00BF0420019095
:10277000022002900120039002200490072005907F
:1027800001A94FF09040FEF71DFD0820019001A91E
:102790004FF09040FEF716FD2620FEF772FE032252
:1027A00000212620FEF77DFE06B010BD004400404B
:1027B0000010024010B50346986F202865D101B182
:1027C0000AB9012010BD00BF93F87000012801D1A3
:1027D0000220F7E7012083F8700000BF5965A3F8D5
:1027E0005820A3F85A200020186600BF9868B0F55A
:1027F000805F0AD1186920B940F2FF10A3F85C008D
:1028000020E0FF20A3F85C001CE0986848B9186934
:1028100018B9FF20A3F85C0014E07F20A3F85C0047
:1028200010E09868B0F1805F09D1186918B97F206D
:10283000A3F85C0006E03F20A3F85C0002E0002063
:10284000A3F85C0000BF0020D867222098671868B2
:10285000806840F001001C68A0609868B0F5805F57
:1028600004D1186910B90A48186601E009481866C9
:1028700000BF002083F8700000BF1868006840F4B3
:1028800090701C68206000209CE702209AE70000FE
:102890005B430008C54300081D4A0168914236D1D8
:1028A0001C49098801F4004189BB1A49098801F4CF
:1028B000804171B1184909780A2903D00021154ACD
:1028C000118024E01349098841F40041114A118024
:1028D0001DE0114909780D2906D10E49098841F4F6
:1028E00080410C4A118012E00B490978094A12888C
:1028F000C2F30D02094B995406490988491C054A3F
:10290000118011460988C72901DD00211180704717
:1029100000440040A0000020A20000204C03002042
:1029200070B504460E461546606F202849D106B1A1
:102930000DB9012070BD00BF94F87000012801D1CD
:102940000220F7E7012084F8700000BFE664A4F8D5
:102950005050A4F852500020E06721206067A06E1C
:10296000F8B11948A16EC8621848A16E08631848EA
:10297000A16E48630020A16E8863236803F12802DA
:102980002B46E16CA06EFEF7CEFB50B11020E06745
:1029900000BF002084F8700000BF20206067012085
:1029A000C8E740202168086200BF002084F870005A
:1029B00000BF2068806840F08000216888600020A7
:1029C000B8E70220B6E70000C1420008F94200085B
:1029D0006B42000810B5044601480068804710BDEE
:1029E0007C00002070470000F8B505460E461446EE
:1029F00000BF3449681A8D422CD006DCB5F1904FE7
:102A00000AD031482844A0BB15E0B0F5806F31D022
:102A1000B0F5A05F3DD13DE000BF2C48C06C40F058
:102A200001002A49C8640846C06C00F0010000900B
:102A300000BF00BF3DE000BF2448C06C40F0020072
:102A40002249C8640846C06C00F00200009000BF34
:102A500000BF2EE000BF1D48C06C40F004001B49C1
:102A6000C8640846C06C00F00400009000BF00BFBE
:102A70001FE00EE000BF1548C06C40F0080013498D
:102A8000C8640846C06C00F00800009000BF00BF9A
:102A90000FE000BF00BF0D48C06C40F080000B4944
:102AA000C8640846C06C00F08000009000BF00BF02
:102AB00000BF00BF00BF266021462846FEF782FB0C
:102AC000F8BD00000008004800FCFFB700100240FD
:102AD00070B505460E461446E2B231462846FEF76A
:102AE0007BFC70BD08B51D481D49086018211C48B5
:102AF000C161002181604FF4827019494860002152
:102B00001748016141614FF4E061C16000218162B9
:102B100001624FF4007181610021416200BF1148E0
:102B2000006E40F480500F4908660846006E00F4BD
:102B30008050009000BF00BF09480068006840F066
:102B400040000749096808600548FFF7ACFA08B17A
:102B5000FEF7EEF900F008F808BD00000030014073
:102B6000400100200010024000B585B014216846E5
:102B7000FDF775FB022001900020029003200390D6
:102B8000052004906A4620214FF09040FFF72CFF6B
:102B90006A4640214FF09040FFF726FF6A468021A9
:102BA0004FF09040FFF720FF01200190002002909D
:102BB0006A4640210448FFF717FF012240210248DE
:102BC000FFF786FF05B000BD000400482DE9FF4F68
:102BD00085B0884691461E46DDF848B00020049036
:102BE000039002900190009082460024304601F04C
:102BF00059FF0746ABF8006000256CE0A8F1020021
:102C0000A84201DD042000E00598824619F805403D
:102C1000BAF1010F41D004F00100C4F34001484073
:102C2000C4F3800148400490C4F34000C4F3800121
:102C30004840C4F3C0014840039004F00100C4F3CD
:102C400040014840C4F3C0014840029004F0010034
:102C5000C4F380014840C4F3C00148400190E0073C
:102C6000000EC4F3400140EA8110C4F3800140EA41
:102C70004110C4F3C00140EA0111049841EAC001C7
:102C8000039841EA8001029841EA40000199084313
:102C9000CAF10401084178551CE0C4F3C000C4F334
:102CA00080014840C4F34001484004F0010148401D
:102CB0000090E007C00EC4F3400140EAC100C4F335
:102CC000800140EA8100C4F3C00140EA410000995C
:102CD000084378556D1CB54290DB384609B000F0CA
:102CE00000B830BCBDE8C08F00E000BFFDE710B504
:102CF00000F080FE00F0ECFE10BD00002DE9FF4F5B
:102D000085B00D469B4600260027002412980490AB
:102D1000002003908046029082460190CEE0A81EDB
:102D2000B04201DD042000E00598001DC7B20798FD
:102D300010B1A81EC4B205E0A81EB04200DD00E03C
:102D40002846C4B22146039802F0FCFD03902146B8
:102D50000398FDF784FA31191298814206DA224667
:102D60000BEB06010398FDF761FA06E01298821B4F
:102D70000BEB06010398FDF759FA7900404602F083
:102D8000E1FD804679004046FDF769FA002054498C
:102D9000088006E0701C86B251480088401C5049EB
:102DA00008804F480088A042F4DB00204C4908808E
:102DB00066E000204B49088029E049490988494AD2
:102DC0001288891A481E214602F0A4FD0399085C66
:102DD00043490978791A491E01228A401040404926
:102DE0000978791A491E08413E490978691A491E2D
:102DF00088403B49098838F8111008433849098848
:102E000028F8110037480088401C364908803548AA
:102E10000088A042D1DBA81EB0422CD14FF000099F
:102E200000203149088010E02D48008838F8100053
:102E30002D490978084100F0010048441FFA80F943
:102E400029480088401C2849088027480088A84253
:102E5000EADB484609EBD0714910A9EB41012A1B76
:102E6000521E91401E4A128838F8122011431C4A03
:102E7000128828F812101A480088401C1849088047
:102E800017480088B84294DBBA444FEA4A010298D6
:102E900002F058FD0290029901EB4A01A1EB4700B4
:102EA0007A004146FDF7C2F90498A04201DD2146AF
:102EB00000E004990498401A80B204900498002815
:102EC0007FF42DAF1398A0F800A0039801F0BCFD8B
:102ED000404601F0B9FD029809B000F007B80000C3
:102EE000FC000020FE0000200001002030BCBDE8F6
:102EF000C08F000008B50549896D0143034A9165FB
:102F00001146896D0140009100BF08BD00100240CC
:102F1000014908607047000014040140F0B5034601
:102F20000A46106890FAA0F0B0FA80F47BE0012520
:102F3000A540106800EA0501002973D050681D689B
:102F400091FAA1F6B6FA86F677000326BE40B5439D
:102F500091FAA1F6B6FA86F6760000FA06F635433F
:102F60001D6000BF5068012802D05068022814D1AB
:102F700090689D6891FAA1F6B6FA86F67700032666
:102F8000BE40B54391FAA1F6B6FA86F6760000FA8D
:102F900006F635439D6000BF00BF1069DD6891FAF9
:102FA000A1F6B6FA86F677000326BE40B54391FA3D
:102FB000A1F6B6FA86F6760000FA06F63543DD602D
:102FC00000BF506802282DD1FF2914D850691D6A0E
:102FD00091FAA1F6B6FA86F6B7000F26BE40B543C1
:102FE00091FAA1F6B6FA86F6B60000FA06F635436F
:102FF0001D6200BF16E050695D6A0E0A96FAA6F6D9
:10300000B6FA86F6B7000F26BE40B5430E0A96FA0A
:10301000A6F6B6FA86F6B60000FA06F635435D6205
:1030200000BF00BF641C1068E04000287FF47FAF41
:103030005068012802D05068022809D1D56810686C
:103040005E68864300FB05F73E435E6000BF00BF3D
:103050000020F0BD816270478161704742694A403B
:1030600042617047C16801F0800161F49061C16004
:1030700070470146C868C0F380207047016821F09E
:10308000800101607047016821F001010160704713
:10309000C16821F48041C1607047C16821F04001DE
:1030A000C1607047016841F0010101607047C1686B
:1030B00041F00201C1607047F0B503461446012992
:1030C00001D1002520E0042901D101251CE01029AF
:1030D00001D1022518E0402901D1032514E0B1F502
:1030E000807F01D104250FE0B1F5806F01D1052566
:1030F0000AE0B1F5805F01D1062505E0B1F5803F1A
:1031000001D1072500E008252846094D2E5C03F172
:10311000180572191568074E375CF026BE40B54396
:10312000260C044F3F5CBE4035431560F0BD0000E7
:103130001C5B00082E5B000870B5012901D100243A
:1031400020E0042901D101241CE0102901D102242E
:1031500018E0402901D1032414E0B1F5807F01D1AA
:1031600004240FE0B1F5806F01D105240AE0B1F528
:10317000805F01D1062405E0B1F5803F01D107242D
:1031800000E008242346046A054DEE5C0A25B5409C
:10319000AC43034DED5C02FA05F52C43046270BDAF
:1031A000375B000810B5024613682C4882420ED0E7
:1031B000B2F1804F0BD02A48824208D0294882427F
:1031C00005D02948824202D02848824204D123F007
:1031D00070004C6840EA04032048824217D0B2F1E4
:1031E000804F14D01E48824211D01E4882420ED019
:1031F0001D4882420BD01D48824208D01C488242A2
:1032000005D01C48824202D01B48824204D123F4DC
:103210004070CC6840EA040313608868D06200BF45
:103220000888906200BF0D4882420BD00F4882424E
:1032300008D00F48824205D00E48824202D00E4884
:10324000824203D10869106300BF00BF00BF50690C
:1032500040F00100506100BF002010BD002C014073
:103260000004004000080040000C00400034014011
:103270000040014000440140004801400146086907
:1032800000F00100704700008268024B1A400A43B8
:1032900082607047F8BFFEFF826822F070020A4326
:1032A00082607047426822F070020A4342607047B1
:1032B00010B50A4600BFEFF31083194672B63AB153
:1032C000012A0BD1094B1B680343084C236006E01D
:1032D000064B1B688343054C236000E000BF00BF22
:1032E00000BF81F3108800BF10BD0000A4000020C3
:1032F0002DE9FF4F8FB005460C461E46DDE91C78D0
:103300004FF00009CA46CB4600200E900D900C905D
:103310000B900A90099008900790069005900490F1
:103320000AAA2146284601F01DFB814609A8BDF8DE
:10333000281023463A46CDE90091029041461E9856
:10334000FDF7A6FA8246484601F07EFB08A8BDF8C4
:10335000241053462246CDE9001029464046FDF789
:103360003FFA8346504601F06FFB07A80090BDF876
:1033700020305A4631463846FFF728FC0E90584612
:1033800001F062FB06A8BDF81C10CDE90010314623
:1033900038460E9B209AFFF7B1FC0D900E9801F075
:1033A00053FB05A8BDF81810CDE90010314638468A
:1033B0000D9B209AFDF73BFE0C900D9801F044FB0D
:1033C00004A8BDF81410CDE90010314638460C9B16
:1033D000119A00F0B9FB0B900C9801F035FBBDF889
:1033E00010101F9801600B9813B000F000B830BCAB
:1033F000BDE8C08F2DE9FF5F2DED028B06460F461D
:1034000090464FF00109424639463046059B01F08F
:10341000F3FF02F0CDFA002008EE100A08EE900A41
:103420000024002582468346FFF761FCFC48FDF737
:1034300065FC2021FB48FFF70FFE3520FDF7CCFC93
:10344000052002F041F9F848FFF72CFEF748FFF796
:1034500029FE0020F44924310860F4492431086031
:103460006AE23EE2B9F1000F7ED1082C25D200209D
:10347000EF490870ED4824300168EB4824300068BB
:1034800061F31F40EB49096851F82410401AC00845
:1034900008EE100AE848006850F8240000EE100A10
:1034A000B8EEC00AF8EEC80AE44890ED001A00EE43
:1034B000810AE34880ED000AD7E10A2C36D20120C8
:1034C000DB490870D94824300168D74824300068A7
:1034D00061F31F40D749096851F82410401AC00809
:1034E00008EE100AD448006850F8240000EE100AD4
:1034F000B8EEC00AF8EEC80AD04890ED001A00EE07
:10350000810ACF4880ED000A90ED000ADFEDCD0A78
:10351000B4EEE00AF1EE10FACEDD90ED000ADFED38
:10352000CA0A30EE600A80ED000A9EE10C2C27D218
:103530000220BF490870BD4824300168BA482430D1
:10354000006861F31F40BB49096851F82410401A14
:10355000C00808EE100AB848006850F8240000EED1
:10356000100AB8EEC00A00E06EE0F8EEC80AB348F0
:1035700090ED001A00EEC10AB14880ED000A74E136
:103580000D2C25D20320AA490870A84824300168D0
:10359000A5482430006861F31F40A649096851F826
:1035A0002410401AC00808EE100AA348006850F81A
:1035B000240000EE100AB8EEC00AF8EEC80A9F48D0
:1035C00090ED001A00EEC10A9D4880ED000A4CE122
:1035D0009E480068844236D204209549087093487A
:1035E0002430016890482430006861F31F409149FD
:1035F000096851F82410401AC00808EE100A8E48D5
:10360000006850F8240000EE100AB8EEC00AF8EE88
:10361000C80A8A4890ED001A00EE810A884880EDB9
:10362000000A90ED000ADFED870AB4EEE00AF1EE41
:1036300010FAA4DD90ED000ADFED830A30EE600A97
:1036400080ED000A11E159E1082D25D200208049C2
:10365000087076482430016873482430006861F3AC
:103660001F407C49096851F82510401AC00808EE2F
:10367000900A7948006850F8250000EE100AB8EE6C
:10368000C00AF8EEE80A754890ED001A00EE810ACB
:103690006B4880ED000AE8E00A2D36D201206C4923
:1036A00008706248243001685F482430006861F384
:1036B0001F406849096851F82510401AC00808EEF3
:1036C000900A6548006850F8250000EE100AB8EE30
:1036D000C00AF8EEE80A614890ED001A00EE810A8F
:1036E000574880ED000A90ED000ADFED5D0AB4EE68
:1036F000E00AF1EE10FA07DD90ED000ADFED520A64
:1037000030EE600A80ED000AAFE00C2D25D20220D9
:103710004F49087045482430016843482430006808
:1037200061F31F404B49096851F82510401AC00841
:1037300008EE900A4848006850F8250000EE100A8C
:10374000B8EEC00AF8EEE80A444890ED001A00EE20
:10375000C10A3B4880ED000A87E00D2D25D20320E9
:103760003B4908703148243001682F4824300068F4
:1037700061F31F403749096851F82510401AC00805
:1037800008EE900A3448006850F8250000EE100A50
:10379000B8EEC00AF8EEE80A304890ED001A00EEE4
:1037A000C10A274880ED000A5FE02E480068854284
:1037B0005AD20420264908701C48243001681A484F
:1037C0002430006861F31F402249096851F8251030
:1037D000401AC00808EE900A1F48006850F82500FB
:1037E00000EE100AB8EEC00AF8EEE80A1B4890EDA9
:1037F000001A00EE810A124880ED000A90ED000ADE
:10380000DFED170AB4EEE00AF1EE10FA2DDD90EDCF
:10381000000ADFED0D0A30EE600A80ED000A24E0B8
:103820003C65FB1C00040048000400400008004008
:10383000D0000020DC000020D4000020B0000020D8
:10384000F00000206CEAE74D0024F447C40000209B
:10385000D1000020E4000020D8000020B8000020A3
:10386000401BE84DCC00002048E0524890ED000A93
:10387000BCEEC00A10EE100AFDF740FA00BF4E4839
:1038800001684E48006861F31F4000F007000028FF
:10389000F5D1494801684948006861F31F4048492B
:1038A000096851F82410474A126852F8242011443C
:1038B000B0EB510F01D94FF001093F4801683F4873
:1038C000006861F31F404049096851F8251088429B
:1038D00000D36D1C0AF1010A0BF1010B01203B49D9
:1038E0000870354801683548006861F31F40354964
:1038F000096851F8241088427FF6B4AD00BF4FF03C
:10390000000B2D4801682D48006861F31F402D49C8
:10391000096851F82410884200D3641C2C480068C0
:10392000844202D24FF0000901E04FF0010900206B
:1039300008EE100A08EE900A254800688442FFF459
:1039400090AD244800688542F9D33620FDF744FA4B
:1039500020212148FFF77EFB2048006801F074F821
:103960001748006801F070F81648006801F06CF81C
:103970001B48006801F068F81A48006801F064F814
:103980001148006801F060F84FF0000A00240020A0
:103990001549087009490860074908600748243834
:1039A000FFF771FB04482438FFF76DFBBDEC028B79
:1039B00000F01CB8F000002024080040240400405F
:1039C000DC000020E0000020E8000020FB000020D8
:1039D000C4000020CC00002000040048D4000020D7
:1039E000D8000020E4000020D00000203FBCBDE84B
:1039F000C09F000000B58DB0142108A8FCF72FFC73
:103A0000182102A8FCF72BFC0220FFF773FA042010
:103A10002C49C96C01432B4AD1641146C96C014041
:103A2000019100BF00BF802002900220039000207F
:103A30000490059006900220079002A92248FFF703
:103A40006DFA0020ADF8200009904FF6FF700A9043
:103A500000200B9008A91D48FFF7A4FB1B48FFF7A7
:103A60000DFB60211948FFF717FC07211748FFF7E6
:103A70000BFC10201549096A8143144A116200BFEA
:103A8000002210211148FFF717FB002210210F48D8
:103A9000FFF752FB0D48FFF700FB0C48FFF7F8FA61
:103AA00020210A48FFF7FEFB00BF0848806840F06D
:103AB00080000649886000BF0846FFF7F8FA0DB09D
:103AC00000BD000000100240000800480004004053
:103AD00000B585B014216846FCF7C1FB0420FFF750
:103AE00009FA0020ADF8000001904FF6FF70029037
:103AF0000020039069461248FFF754FB1048FFF777
:103B0000BDFA20210E48FFF7C7FB07210C48FFF73D
:103B1000BBFB0B48FFF7C1FA0948FFF7B9FA0021D0
:103B20000748FFF7BFFB00BF0548806820F0800012
:103B30000349886000BF0846FFF7B9FA05B000BD29
:103B40000008004000BFFEE72DE9F04F2DED0E8B81
:103B500081B00D4690469946DDE9187A4FF0180B72
:103B600020200090B91C880000F09CFF044624B976
:103B70004EA000F023FF00BFFEE75846FCF70DFD06
:103B800041EC1A0B012101FA05F0FCF706FD41ECAE
:103B90001E0B9FED4D0B53EC102BFCF70CFC41EC76
:103BA0001C0B4046FCF70AFD41EC1D0B53EC1C2B93
:103BB000FCF784FC41EC1B0B53EC1A2BFCF709FCC3
:103BC00041EC190B9FED420B53EC102BFCF7F3FB70
:103BD00041EC180BFCF7FFFC20600098FCF7DDFCC3
:103BE00041EC1A0B012101FA05F0FCF7D6FC41EC7F
:103BF0001E0B9FED350B53EC102BFCF7DCFB41EC5F
:103C00001C0B4046FCF7DAFC41EC1D0B53EC1C2B63
:103C1000FCF754FC41EC1B0B53EC1A2BFCF7D9FBC3
:103C200041EC190B9FED2A0B53EC102BFCF7C3FB57
:103C300041EC180BFCF7CFFC606002262BE0B11EB4
:103C400039F81100FCF7BAFC41EC1A0B012101FA1A
:103C500005F0FCF7A2FC41EC1C0B4046FCF7AEFC67
:103C600041EC1D0B53EC1C2BFCF728FC41EC1B0B0F
:103C700053EC1A2BFCF7ADFB41EC190B9FED140B29
:103C800053EC102BFCF797FB41EC180BFCF7A3FC53
:103C900044F82600761CB81C8642D0DBAAF8000047
:103CA000204601B000F018B800F01CB80A206D657D
:103CB0006D657279206973206E6F7420616C69671D
:103CC0006E21210A00000000000000000000F03F0B
:103CD000000000008084EE40BDEC088BBDEC06CBFC
:103CE000FFF7E2BF30BCBDE8C08F704770470000EF
:103CF000F8B5044600262348806D00F0805018B1C6
:103D0000FDF76AFC054616E000BF1E48806D40F0D6
:103D100080501C4988650846806D00F080500090F6
:103D200000BF00BFFDF758FC05461648806D20F027
:103D3000805014498865B5F5007F07D1802C10D9D3
:103D4000A02C01D902260CE001260AE0802C01D922
:103D5000032606E0802C01D1022602E0702C00D15F
:103D600001260948006820F0070030430649086032
:103D70000846006800F00700B04201D00120F8BDFD
:103D80000020FCE7001002400020024010B5084867
:103D9000FFF76FF930B10648FFF764F904210548D1
:103DA000FFF75CF94FF48020FFF7B2F810BD000078
:103DB00000280040000400481CB500242248806C04
:103DC00040F00100204988640846006E40F48050AD
:103DD00008660120032100230222CDE90010E02122
:103DE0004FF09040FDF7B4F800BF44F4007444F481
:103DF000807444F0040400BF00BF44F0100400BF0E
:103E000044F040041148406840F480500F49486035
:103E10000846406840F4E060486008460460006876
:103E200020F0400008600846006820F002000860AA
:103E30000846006820F0010008600846006840F06D
:103E4000400008601CBD000000100240003001402E
:103E5000014600BF0F48806800F002000028F9D03A
:103E60000C48C16000BF0B48806800F001000028CA
:103E7000F9D00848C068C2B200BF0648806800F0A8
:103E800001000028F9D00348C06842EA002080B24F
:103E90007047000000300140014600BF09488068BB
:103EA00000F002000028F9D00648017300BF054861
:103EB000806800F001000028F9D00248C068C0B254
:103EC0007047000000300140704710B5FDF790FAD0
:103ED00010BD000000B5B9B0442128A8FCF7BFF917
:103EE000142123A8FCF7BBF9882101A8FCF7B7F936
:103EF000FDF77AFB2148006820F018001F4990392F
:103F0000C1F890001420289001202A902E900020C3
:103F10002F906020309002203290012128A8C162A9
:103F2000016328214163072181630221C163016488
:103F3000FDF7FAFC08B100BFFEE70F202390032035
:103F400024900020259026902790042123A8FDF797
:103F50005FFB08B100BFFEE74FF0005211110020D7
:103F6000FDF7B4FC4FF40070FDF7F0FA08B100BFA4
:103F7000FEE7FDF743FB39B000BD000090100240A2
:103F80001048006840F470000E4908600E48006850
:103F900040F001000C490860002088600846006875
:103FA0000A490840084908608814C8600846006843
:103FB00020F48020086000208861C803014980390E
:103FC0000860704788ED00E000100240FFFFF6EA4D
:103FD00010B50248FDF7F2FF10BD000014030020E9
:103FE00010B50248FEF791F910BD0000A4020020B0
:103FF00010B54FF08040FFF741F9012806D100BF0E
:10400000C01E4FF08041086100BF00BF10BD00001E
:1040100010B50948FFF732F901280BD107480068AD
:10402000401C0649086000BF6FF0010002490861AA
:1040300000BF00BF10BD0000000400408800002049
:1040400030B501F01F05012404FA05F3046A9C430E
:104050000462046A01F01F0502FA05F52C430462AC
:1040600030BD00000FB430B5C3B047A802904FF484
:10407000807103A8029B469A00F0B0FC80B20090C9
:1040800000200290002400BFEFF31080054672B6B6
:10409000BDF8002003A9134801F04AFA0446C4B948
:1040A00011480078012814D16A4601A90D4801F091
:1040B000ABFA00200C49087001212020FFF7F8F826
:1040C000284600F026FDBDF80010019801F0F6FC2E
:1040D00002E0284600F01DFD204643B030BC5DF8EC
:1040E00014FB000094040020AC00002090F8241081
:1040F00001F0010139B10168496821F40031826A97
:1041000011430268516090F8241001F00201022965
:1041100007D10168496821F48031C26A11430268FD
:10412000516090F8241001F00401042907D10168BE
:10413000496821F48021026B11430268516090F8B4
:10414000241001F00801082907D10168496821F409
:104150000041426B11430268516090F8241001F055
:104160001001102907D10168896821F48051826B00
:1041700011430268916090F8241001F02001202979
:1041800007D10168896821F40051C26B11430268AC
:10419000916090F8241001F04001402913D101688A
:1041A000496821F48011026C114302685160016C6E
:1041B000B1F5801F07D10168496821F4C001426C44
:1041C00011430268516090F8241001F080018029A9
:1041D00007D10168496821F40021826C114302680B
:1041E0005160704738B504460020E067FDF7FAF8E3
:1041F00005462068006800F0080008280CD16FF020
:104200007E402B4600224FF400110090204600F023
:1042100052FB08B1032038BD2068006800F004009C
:1042200004280CD16FF07E402B4600224FF4800111
:104230000090204600F03FFB08B10320EBE7202070
:104240006067A06700BF002084F8700000BF00BF57
:10425000E1E770B50546AC6A0020A4F85A00A4F85E
:1042600052002046FEF757F970BD2DE9F041054692
:10427000AC6A666FA76F2068806800F080008028B5
:1042800007D1212E05D10020A4F85200204600F0CD
:104290005BF82068806800F04000402807D1222F9A
:1042A00005D10020A4F85A00204600F02CF8E06F59
:1042B00040F01000E0672046FEF72DF9BDE8F081E0
:1042C00070B50546AC6A2868006800F0200078B92F
:1042D0000020A4F852002068806820F08000216847
:1042E00088602068006840F040002168086002E0B3
:1042F0002046FEF76FFB70BD70B50446A56A2846E0
:10430000FEF770FB70BD0168096821F490710268C6
:1043100011600168896821F0010102689160202123
:10432000816700210166704710B504462068006867
:1043300020F040002168086020206067002060664F
:104340002046FEF747FB10BD0168096821F0C00157
:10435000026811602021416770472DE9F041044651
:10436000B4F85C70A06F222824D12068868C656D1B
:1043700006EA07002880606D801C6065B4F85A006A
:10438000401EA4F85A00B4F85A00C8B92068006862
:1043900020F49070216808602068806820F0010097
:1043A000216888602020A067002020662046FEF754
:1043B00073FA05E02068008B40F00800216808834C
:1043C000BDE8F08170B50446B4F85C60A06F2228A7
:1043D00024D12068858CF0B22840616D0870606D32
:1043E000401C6065B4F85A00401EA4F85A00B4F8A6
:1043F0005A00C8B92068006820F4907021680860ED
:104400002068806820F00100216888602020A06773
:10441000002020662046FEF73FFA05E02068008B6A
:1044200040F008002168088370BD00002DE9F84FB6
:1044300004460026002000908246F8492068884201
:1044400000D100E000BF2169A0680843616908430A
:10445000E16940EA010920680068F149084040EA42
:104460000900216808602068406820F44050E16835
:10447000084321684860D4F81890E84920688842C9
:1044800002D0206A40EA09092068806820F4306080
:1044900040EA09002168886000BFE249206888423C
:1044A00016D1E148006800F0030030B1012808D0BF
:1044B000022804D0032808D105E0012507E00225E1
:1044C00005E0042503E0082501E0102500BF8DE08C
:1044D000D6492068884216D1D348006800F00C0005
:1044E00030B1042808D0082804D00C2808D105E0F1
:1044F000002507E0022505E0042503E0082501E08A
:10450000102500BF72E0CA492068884216D1C6480B
:10451000006800F0300030B1102808D0202804D006
:10452000302808D105E0002507E0022505E0042534
:1045300003E0082501E0102500BF57E0BD492068D1
:10454000884216D1B848006800F0C00030B1402859
:1045500008D0802804D0C02808D105E0002507E055
:10456000022505E0042503E0082501E0102500BF31
:104570003CE0B1492068884219D1AB48006800F49A
:10458000407048B1B0F5807F0AD0B0F5007F05D00B
:10459000B0F5407F08D105E0002507E0022505E0E1
:1045A000042503E0082501E0102500BF1EE09B491B
:1045B0002068884219D19C48006800F4406048B1E6
:1045C000B0F5806F0AD0B0F5006F05D0B0F5406F40
:1045D00008D105E0002507E0022505E0042503E0F9
:1045E000082501E0102500BF00E0102500BF8B4921
:1045F0002068884272D1042D10D003DC3DB1022D19
:1046000013D108E0082D0DD0102D0ED10EE0FDF7CE
:10461000C3F882460DE0DFF824A20AE0FDF7E0F8D7
:10462000824606E04FF4004A03E000BF01200090FC
:1046300000BF00BFBAF1000F0AD0606800EB400075
:10464000504503D860680003504502D20120009015
:1046500025E1042D2ED003DC3DB1022D51D118E00F
:10466000082D3CD0102D4CD14CE0FDF795F84FF4BF
:104670008071A0FB0130616849085F1840F10001BA
:10468000D4F804C0624600233846FBF79BFD06467B
:104690003BE0D4F804C04FEA5C000021684BC71827
:1046A00041EB010862460B4638464146FBF78AFD5E
:1046B00006462AE0FDF794F84FF48071A0FB013024
:1046C000616849085F1840F10001D4F804C06246EF
:1046D00000233846FBF776FD064616E022E0D4F8C4
:1046E00004C04FEA5C0000214FF40003C71841EBFF
:1046F000010862460B4638464146FBF763FD064615
:1047000003E000BF0120009000BF00BFB6F5407F6E
:1047100005D3B6F5801F02D22068C660BFE0012035
:104720000090BCE0E069B0F5004F57D1042D28D0CF
:1047300005DC4DB1012D11D0022D36D118E0082D28
:1047400029D0102D31D131E0FDF726F84000616805
:1047500000EB5100B0FBF1F086B22AE0FDF72EF835
:104760004000616800EB5100B0FBF1F086B220E040
:104770003449606801EB50006168B0FBF1F086B22B
:1047800017E0FDF72DF84000616800EB5100B0FB29
:10479000F1F086B20DE04FF48031606801EB50001B
:1047A0006168B0FBF1F086B203E000BF0120009029
:1047B00000BF00BF102E0ED3B6F5803F0BD24FF6D0
:1047C000F07006EA000BC6F342004BEA000B2068CB
:1047D000C0F80CB063E00120009060E0042D3CD0F4
:1047E00005DC4DB1012D10D0022D49D12CE0082D52
:1047F0003CD0102D44D144E0FCF7CEFF616800EBC3
:104800005100B0FBF1F086B23EE0FCF7D7FF6168E3
:1048100000EB5100B0FBF1F086B235E000800040C3
:10482000F369FFEF00380140881002400044004067
:1048300000480040004C0040005000400024F400BC
:10484000000024F40048E8011849606801EB5000BA
:104850006168B0FBF1F086B216E0FCF7C1FF616859
:1048600000EB5100B0FBF1F086B20DE04FF40041D7
:10487000606801EB50006168B0FBF1F086B203E0C4
:1048800000BF0120009000BF00BF102E05D3B6F579
:10489000803F02D22068C66001E001200090002025
:1048A00020666066009800F003B800000024F40061
:1048B00018BCBDE8E08F2DE9F04104460D461746CF
:1048C0009846069E1FE0701CE8B1FCF78BFDA0EB3C
:1048D0000800B04200D8B6B92068006820F4D07053
:1048E000216808602068806820F0010021688860E5
:1048F00020206067A06700BF002084F8700000BF20
:104900000320BDE8F0812068C0692840A84201D199
:10491000012000E00020B842D5D00020F1E70000DF
:1049200010B500240C48FDF7FDFD00BF01E0641C3C
:1049300000BF0948FDF7F0FD2028F8D100BF002492
:1049400001E0641C00BF012204490348FDF732FF67
:104950000028F6D100BF10BD14040020A2000020E2
:1049600000BFFEE72DE9F04106460D46904668007F
:1049700000F098F8074669003846FBF770FC002401
:1049800011E0305D0C49095D484000F00F0007F868
:104990001400305D0849095D484001116000401C69
:1049A0003954601CC4B2AC42EBDB6804000CA8F8BC
:1049B00000003846BDE8F081495B00080FB4054BA4
:1049C00010B503A9044A029800F06CF910BC5DF818
:1049D00014FB0000295700089C0000207CB50C0047
:1049E0001D461646014601D0601E00E00020CDE9BC
:1049F0000010064B6A462946304600F053F9002C59
:104A000002D0009A002111707CBD0000B153000853
:104A100002480068C0F30220704700000CED00E07F
:104A200010B5002804DB0A07130E054A135406E0EC
:104A30000A07140E034A00F00F031B1FD45410BDC5
:104A400000E400E018ED00E030B528B1144C031F7D
:104A5000002021680A4605E0084630BD9A4203D886
:104A600010465268002AF9D1002800D041680BD0C6
:104A70000468A3EB0005A54204D11B681C4403464F
:104A8000046002E0436000E023603AB11C68D51A7C
:104A9000A54203D115682C441C6052685A6030BD91
:104AA000040100202DE9F04782460F4C10480D4EBE
:104AB0000E4F001B4FF0000820F007054FF00109D2
:104AC00000221146504600F03DFE002802D1306819
:104AD00010B10020BDE8F0873C60C4E90058C6F87A
:104AE0000090EDE708010020AC0500200401002043
:104AF000A8A5002002E008C8121F08C1002AFAD1A8
:104B000070477047002001E001C1121F002AFBD14D
:104B1000704780F3108870472DE9FF5F82B0002155
:104B2000DDE90430020DDDF840B0034318D044F64F
:104B30001050A2F2FF3242431514119801281FD0E1
:104B4000A5EB0B00401C5FEA000A4FF000064E4F39
:104B5000DFF83891B046504615D5CAF1000413E08D
:104B6000119801244AA3012801D16FEA0B01029890
:104B7000119AC0E90031C0E9024206B000F08EB8D7
:104B8000CBF10000DFE704460021404A491842EB20
:104B90000450CDE9001012E0E00707D032463B4652
:104BA00040464946FBF715FC8046894632463B465F
:104BB00010461946FBF70DFC06460F466410002C04
:104BC000EAD1DDE90401DDE90023BAF1000F06DADC
:104BD000FBF7FFFB42464B46FBF7FBFB05E0FBF711
:104BE0006DFC42464B46FBF769FC04460E4600222C
:104BF000284BFBF7CBFD03D84FF0FF30014607E011
:104C00000022254B20463146FBF734FBFBF7A6FD7F
:104C1000102409E0002C0ADB0A220023FBF7D2FA59
:104C2000039B30321A55641E50EA0102F2D1641C13
:104C3000039AC4F111031444119A012A03D00122EA
:104C400008430DD10AE0084304D000204FF0110BB7
:104C5000119072E7A3EB0B056D1E0DE05B4504DDC3
:104C60004FF0000205F1010504E003DA4FF0000205
:104C7000A5F10105002AECD002981199C0E9023192
:104C8000C0E9004579E70000000014400000F03F53
:104C9000300000000000F0430000E03F30BCBDE801
:104CA000C09F00002DE9FF4F95B09A468846064602
:104CB0000025EEE1252877D100242746F94A012175
:104CC000039400E0044316F8013F203B01FA03F08F
:104CD0001042F7D130782A2811D06FF02F033078A6
:104CE000A0F13002092A16D8039A44F0020402EB1C
:104CF000820203EB42021044761C0390EFE758F85F
:104D0000042B0392002A03DA504244F40054039027
:104D100044F00204761C30782E2816D116F8010FC4
:104D200044F004042A280DD06FF02F023078A0F14F
:104D30003003092B09D807EB870302EB4303C7189D
:104D4000761CF3E758F8047B761C30786C280FD07B
:104D500006DC4C2817D068280DD06A2814D104E04E
:104D6000742810D07A280FD10DE044F400140AE022
:104D700044F4801401E044F440147278824202D179
:104D800004F58014761C761C307866280BD013DC72
:104D9000582877D009DC002875D04528F6D0462859
:104DA000F4D047281AD193E118E0632835D064285D
:104DB00079D0652812D18BE1702873D008DC672880
:104DC000F1D069286FD06E280DD06F2806D1ACE0E5
:104DD00073282CD0752874D0782853D05246179950
:104DE00090476D1C54E1C4F30250022809D00328F7
:104DF0000DD0D8F8001004280DD00D6008F104087B
:104E000046E1D8F80010EA17C1E90052F6E7D8F8F1
:104E100000100D80F2E70D70F0E718F8041B8DF814
:104E2000001000208DF80100EB46012003E058F847
:104E300004BB4FF0FF3061074FF0000102D40DE0DA
:104E400009F101018946B9420FDA8145F8DB1BF807
:104E500009100029F4D108E009F1010189468142D5
:104E6000FADB1BF809100029F6D103985346A0EB92
:104E7000090721463846179A00F083FA284400EBC8
:104E8000090507E044E008E10DE01BF8010B52467C
:104E900017999047B9F10109F7D253462146384690
:104EA000179AF2E039E00A21C4F302524FF0000BE6
:104EB0000091022A06D058F8040BC117032A09D022
:104EC0000AE023E008F1070020F00702F2E80201FF
:104ED000904605E000B2C117042A01D140B2C117C3
:104EE000002906DA0A460021404261EB02012D2228
:104EF00002E0220504D52B228DF80420012203E0D4
:104F0000E20701D02022F7E7914657E00A2100E0AE
:104F100010214FF0000B00910BE010214FF0000B1F
:104F200044F004040827009103E008204FF0000B30
:104F30000090C4F30252022A05D058F8040B002155
:104F4000032A08D008E008F1070020F00702F2E881
:104F50000201904603E080B2042A00D1C0B24FF0B3
:104F6000000922072AD53278702A07D0DDF800C060
:104F70008CF0100C5CEA0B0C05D00EE040228DF892
:104F80000420012208E050EA010306D030238DF806
:104F900004308DF8052002229146009B83F008031F
:104FA00053EA0B030AD150EA010201D1620705D589
:104FB00030228DF804204FF001097F1E3278582AE4
:104FC00004D039A20C920CAA02920BE03BA2F9E7A2
:104FD0005B46009AFBF7F6F80C9B9B5C029A521E0C
:104FE0000292137050EA0102F2D1029804A9081A41
:104FF00000F1200B600702D524F4803400E0012783
:105000005F4502DDA7EB0B0000E0002000EB0B0189
:10501000009003984944401A0390E00306D4534695
:105020002146179A039800F0ACF90544002706E0E2
:1050300001A85246C05D179990476D1C7F1C4F45D3
:10504000F6DBE0030CD553462146179A039800F08F
:1050500098F9054404E030205246179990476D1C9A
:105060000099481E00900029F5DC08E0029802999A
:1050700052460078491C0291179990476D1CBBF16C
:105080000001ABF1010BF1DC5BE100F068F90544D4
:10509000761C307800287FF40DAE19B0284600F059
:1050A0005BB900000928010030313233343536371E
:1050B0003839616263646566000000003031323364
:1050C0003435363738394142434445460000000004
:1050D000600700D4062708F1070020F00700F0E879
:1050E0000223804603F0004C5FEA0C0001D097A039
:1050F00009E0200501D596A005E0E00701D095A0C4
:1051000001E0AFF24C001390307823F000436528A3
:105110000CD006DC452809D046281DD047287FD171
:105120003BE0662818D067287AD136E00021112F9D
:1051300001DB112000E0781CCDE9000104A90CA8D6
:10514000FFF7EAFCDDE90D010C9A4FF0000B07F1C7
:105150000109109200914EE04FF000400097CDE918
:10516000011004A90CA8FFF7D7FCDDE90D020C9B88
:105170000F994FF0000B91461093009211B9791CD2
:1051800000EB0109B7EB090003D4C0F1FF3B07F1C5
:105190000109A9EB0700019042E0012F00DA012785
:1051A0000021112F01DD112000E03846CDE900017A
:1051B00004A90CA8FFF7B0FCDDE90D010C9A0091E1
:1051C0004FF0000BB946109221070FD4009A4A45C0
:1051D00003DA914601E0A9F10109B9F1010F05DDFA
:1051E000109AA9F10101515C3029F4D0B84202DAD9
:1051F00010F1040F03DA0121CDE9011010E00028BD
:1052000003DC8344A9EB000102E0411C494500DDB9
:105210008946A0EB0B00401C01904FF0004002902B
:10522000200705D40198484502DB4FF0FF3001907C
:1052300000208DF84B0002980DF14B07B0F1004FA4
:1052400025D002200C902B200D90029800280CDA1B
:10525000404202902D200D9007E00A210298FBF7B2
:10526000D9F93031029007F8011D0C99481E0C90B5
:105270000029F2DC02980028EFD1791E0D98087001
:10528000307800F0200040F0450007F8020D11A82A
:10529000C01BC01D02901398007800B1012000EBE4
:1052A0000901019801EBE071029801440398401A4A
:1052B000401E0390E00306D453462146179A0398F4
:1052C00000F05FF805441398007818B1524617991A
:1052D00090476D1CE00323D553462146179A039847
:1052E00000F04FF805441BE0BBF1000F07DB00980E
:1052F000584504DD1098179910F80B0001E0179934
:1053000030205246904701980BF1010B401E05F1E9
:105310000105019004D12E205246179990476D1C2B
:10532000B9F10001A9F10109DEDC05E017F8010B74
:105330005246179990476D1C0299481E0290002909
:10534000F4DC53462146179A03989EE62D00000090
:105350002B0000002000000030BCBDE8C08F2DE90C
:10536000F041044600251E461746880404D405E093
:1053700039462020B0476D1C641EF9D52846BDE88B
:10538000F0812DE9F041044600251E469046C803F1
:1053900001D5302700E02027880404D505E04146E8
:1053A0003846B0476D1C641EF9D52846BDE8F0812B
:1053B0004A68002A06D00A68531C0B6010704868BF
:1053C000401E4860704710B50B124488621C428032
:1053D000826813554288C3889A4201D100224280D4
:1053E0004488621C4280826811554288C3889A4270
:1053F00001D10022428010BD2DE9F04104460E4645
:1054000015461F4606F10D003F49086007F10D00E3
:105410003E4908603C4909688800FFF743FB3C4966
:1054200008603A4909688800FFF73CFB3949086081
:1054300000202EE0082805DA3749354A126842F87C
:10544000201025E00A280ADAA0F1080154F82110FA
:10545000324A11442E4A126842F8201018E00D28F2
:1054600005DA2F492A4A126842F8201010E026492E
:10547000096888420ADAA0F10B0154F82110274A82
:105480001144234A126842F8201001E000BFFEE7F1
:10549000401C1D4909688842CCDB00202EE008280A
:1054A00005DA20491B4A126842F8201025E00A2834
:1054B0000ADAA0F1080155F821101B4A1144154AD7
:1054C000126842F8201018E00D2805DA1749114A31
:1054D000126842F8201010E00C49096888420ADA84
:1054E000A0F10B0155F821100F4A1144094A126826
:1054F00042F8201001E000BFFEE7401C03490968A4
:105500008842CCDBBDE8F081C4000020CC00002044
:10551000D4000020D80000203C65FB1C6059FC1C16
:10552000904BFD1CBC7F011DE073021D1066031D26
:105530002DE9F047044688461546204600F08DF8D0
:105540008146A81C484529DC60882844801CE188E5
:10555000884204DD6188E088801E81421EDB294686
:105560002046FFF730FF6288A16888182A46414626
:1055700000F0DCF96088284460806088E188884217
:1055800001D100206080A088401CA0806088218814
:10559000884201D101202073002632E0281D4845B1
:1055A0002DDCE1886088801C081A87B239462046C5
:1055B000FFF709FF6288A16888183A46414600F063
:1055C000B5F900206080E81B85B229462046FFF728
:1055D000FAFE6388A268D01808EB07012A4600F09B
:1055E000A5F9608828446080A088801CA08060881D
:1055F0002188884201D101202073002601E04FF06C
:10560000FF363046BDE8F087F0B503460C46988873
:1056100010B94FF0FF311EE018880646471CB8B29B
:10562000D3F808C01CF806603502DE88864200D137
:1056300000200646471CB8B2D3F808C01CF8066024
:105640003543DE88864200D100209E6806442660ED
:105650001580002100BF0846F0BD01464A880B882E
:105660009A4206DB4A880B88D21ACB889A1A10B263
:1056700003E00A884B88D21A10B20A7B012A00D1B3
:105680000020704710B5002210E001F0800300F404
:10569000004483EA142323B141F2210383EA40004A
:1056A00000E040004B06190E531CDAB2082AECDB6E
:1056B00010BD000010B504460420FCF755FD01485C
:1056C000046010BD9800002030B50446002504E0B9
:1056D0004FF47A7000F004F86D1CA542F8D330BD89
:1056E00070B5034600224FF0E02675690D4E36680E
:1056F00003FB06F44FF0E026B16910E04FF0E0261E
:10570000B06988420BD0884202D20E1A324402E0BD
:105710002E1A0E4432440146A24200D300E0EDE7C7
:1057200000BF70BD9800002000BF054A126802F05B
:105730004002002AF9D0C2B2014B0C331A807047E4
:105740001C4400402DE9F0410B3020F00706104DBD
:1057500019E02068B04215D3B0420AD9871B201D3A
:10576000D4F80480FAF762FDA019C0E90078286037
:1057700004E060682860201DFAF758FD201D2660AF
:10578000BDE8F081251D2C68002CE2D10020F7E750
:105790000401002070B588B0002400260020079086
:1057A00000250690FBF730FEFEF794FBFDF79AF913
:1057B000FEF702FB5020FFF77DFF4FF4E13000F0D1
:1057C00061F9FBF745FBFBF79BF92DA0FFF7F6F816
:1057D0002DA02EA32CA2052100902DA0FFF7EEF8FE
:1057E0000C20354B02463549009035A0FFF7E6F80E
:1057F000002003E031213B4A1154401C3A490988FA
:105800008842F7DB002433E0012007A90022CDE91C
:105810000102CDE903100C23344A402100903448A2
:10582000FDF766FD0646012006A90022CDE901022A
:10583000CDE903100C232D4A402100902C48FDF7A0
:1058400057FD05462A463046DDE90631FDF7D2FD13
:105850003046FFF7F9F82846FFF7F6F8611C25A057
:10586000FFF7ACF84FF47A70FFF72EFF601C84B29C
:10587000642CC9DB24A0FFF7A1F8002008B070BD9C
:1058800054780D0A000000004F4E00004F464600BD
:1058900043523D342F25642C204352433D25732C25
:1058A00020494D504C5F484541443D25732C204CC8
:1058B00044523D25730A0000E073021D6059FC1C30
:1058C00046524551313A25642C7366313A25642C91
:1058D0000D0A46524551323A25642C7366323A25F8
:1058E000640D0A000C0100206A00002048E8010055
:1058F0002A000020547820646F6E652C20436F7559
:105900006E743A25640D0A0066696E697368212118
:105910000D0A000010B5024692FBF1F301FB1323C0
:105920000B4493FBF1F401FB143010BD10B503E000
:1059300011F8013B00F8013B131EA2F10104A2B2D1
:10594000F6D110BD2DE9F04704008A4616D054F870
:10595000047CD4F800903E1F564500D95646204698
:10596000FFF772F805468846324621465046FFF753
:10597000E9FE40B1C0F80090BDE8F087BDE8F0470F
:105980000846FFF78FB844E9017955B129686A18CC
:10599000211F8A4202D9611B091F2960C5F80480B2
:1059A000EAE7024AC2F80080E6E7000004010020AE
:1059B00010B500242D4909688800FFF773F82C49B9
:1059C00008602A4909688800FFF76CF829490860CF
:1059D000002014E00D2806DA0119C903244A1268D0
:1059E00042F820100AE00119491E4FF4806202EBD0
:1059F0000131C9001E4A126842F82010401C1B49A0
:105A000009688842E6DB1A480068001D19490860E9
:105A1000194909688800FFF745F8184908601649D0
:105A200009688800FFF73EF815490860002012E079
:105A30000D2805DAC103114A126842F8201009E066
:105A4000411E4FF4806202EB0131C9000B4A12681B
:105A500042F82010401C084909688842E8DB0748E2
:105A60000068001D0649086010BD0000C400002049
:105A7000DC000020E0000020CC000020E40000203A
:105A8000E800002010B5044609480A4908600846A5
:105A9000446000218160C160016181610C2141612C
:105AA000FCF708FE012204490248FCF783FE10BD02
:105AB0000044004014040020A200002070B50446F9
:105AC0000D462A4621460248FCF72AFF70BD000019
:105AD000A4010020000000000000000001020304F7
