:020000040800F2
:10000000800D0020A10100086D3000087D2F000840
:100010006B300008990900086554000800000000D2
:10002000000000000000000000000000093400088B
:10003000790A0008000000006F30000857490008E6
:10004000BB010008BB010008454A00082131000837
:10005000BB010008BB010008BB010008BB01000890
:10006000BB010008BB010008BB010008BB01000880
:10007000BB010008BB010008BB010008BB01000870
:10008000BB010008BB010008BB010008BB01000860
:10009000BB010008BB010008BB010008BB01000850
:1000A000514A0008BB010008BB010008BB01000861
:1000B0005D4A0008794A0008BB010008BB0100083E
:1000C000BB010008BB010008BB010008BB01000820
:1000D000BB010008BB01000821540008BB01000857
:1000E000BB010008BB010008BB010008BB01000800
:1000F000BB010008BB010008BB010008BB010008F0
:10010000BB010008BB010008BB010008BB010008DF
:10011000BB010008BB010008BB010008BB010008CF
:10012000BB010008BB010008BB010008BB010008BF
:10013000BB010008BB010008BB010008BB010008AF
:10014000BB010008BB010008BB010008BB0100089F
:10015000BB010008BB010008BB010008BB0100088F
:10016000BB010008BB010008BB010008BB0100087F
:10017000BB010008BB010008BB0100080000000033
:10018000BB010008BB010008DFF810D000F07CFBC9
:100190000048004729630008AFF30080800D00206D
:1001A0000648804706480047FEE7FEE7FEE7FEE711
:1001B000FEE7FEE7FEE7FEE7FEE7FEE7FD49000893
:1001C000890100082DE9F05F0546002092469B4614
:1001D00088460646814640241BE02846414647465D
:1001E000224600F05EFA53465A46C01A914110D397
:1001F00011461846224600F045FA2D1A67EB010811
:100200004F4622460120002100F03CFA17EB00097E
:100210004E41201EA4F10104DFDC484631462A4647
:10022000434600F000B830BCBDE8C09F40EA01037F
:100230009B0703D009E008C9121F08C0042AFAD29C
:1002400003E011F8013B00F8013B521EF9D2704760
:10025000D2B201E000F8012B491EFBD27047002208
:10026000F6E710B513460A4604461946FFF7F0FFB5
:10027000204610BD421C10F8011B0029FBD1801A3A
:100280007047034611F8012B00F8012B002AF9D121
:10029000184670472DE9FE4F804681EA0300C00FE3
:1002A0000C46009021F0004123F00045B8EB02001D
:1002B000A94105D24046214690461C460B460246BF
:1002C00023F00040104347D0270DC7F30A00C3F3C3
:1002D0000A510290401A019040286BDAC3F31300D0
:1002E00040F4801B0098924620B10023D2EB030A11
:1002F00063EB0B0B01985946C0F14002504600F0E9
:10030000C1F906460D4650465946019A00F0D9F902
:1003100010EB08006141002487EA115284EAE77378
:100320001A4340D0009A62B3019A012A4FEA075259
:1003300015DC001B61EB02014FF0004202EA07529C
:10034000CDE90042001C41F5801132462B4600F0F9
:10035000D9F903B000F045B840462146F9E7001B43
:1003600061EB0201001C41F5801300185B4120186D
:10037000A2F5001747EB030140EAD570B6196D41AD
:1003800011E06D084FEA360645EAC0754FEA07529C
:10039000001B61EB0201001C41F5801149084FEA86
:1003A00030000019514132462B4603B000F01CB812
:1003B00000F099B90098012240000023D0EB02021E
:1003C00063EBE073009821464FEAE074B8EB00005D
:1003D00061EB0401E9E783F000435BE781F0004152
:1003E00058E730BCBDE8C08F30BCBDE8C04FFFF758
:1003F000DFBF2DE9FE4F81EA030404F0004421F041
:10040000004100944FF0000B23F0004350EA010438
:100410005ED052EA03045BD0C3F30A54C1F30A5519
:100420002C44A4F2F3340194A0FB0254C1F3130151
:1004300041F48011C3F3130343F4801301FB02441E
:1004400000FB034E840A970A44EA815447EA835723
:10045000A4FB076802958D0A05FB07854FEA932CDC
:1004600004FB0C542705029D4FEA065847EA16374D
:10047000B5EB08056EEB070C870E920E47EA811765
:1004800042EA8312A7FB0201B6EB0B0164EB000406
:100490002B0D43EA0C335E1844EB1C50DA465146F0
:1004A000E7FB0201C5F313044FEA0B3343EA14538D
:1004B0004FEA0432019C43EA0603A4F10C040294BF
:1004C000009CCDE900B400F01DF903B000F003B8C2
:1004D00000200146F9E730BCBDE8C08F2DE9F04DA2
:1004E00081EA030404F0004B21F0004514464FF06C
:1004F000000A23F0004150EA050220D054EA01022C
:100500001DD0C5F30A570246C5F31303C1F3130008
:10051000C1F30A5640F4801543F48013A7EB060894
:10052000101BD64608F2FD3873EB050002D308F124
:10053000010801E092185B41B8F1000F03DA0020D6
:100540000146BDE8F08D00204FF480110646844638
:100550000EE0171B73EB050705D3121B63EB0503B6
:1005600006434CEA010C49084FEA300092185B41FF
:1005700050EA0107EDD152EA030012D082EA0400EA
:1005800083EA0501084305D0101BAB4106D20122C6
:10059000002306E000224FF0004302E06FF001026A
:1005A00053101AEB06004CEB085110EB0A0041EB1C
:1005B0000B01BDE8F04D00F096B80EB5C10F80EA12
:1005C000E0700844CA07002140F233438DE80E0072
:1005D0000A460B4600F096F803B000BD0EB540F297
:1005E000334102910021CDE900110A460B4600F08B
:1005F00089F803B000BDC1F30A5210B5C1F313016D
:1006000040F2FF3341F480119A4201DA002010BD1C
:1006100040F233439A42A2F2334203DC524200F0EA
:1006200040F810BD904010BD30B5041E71F10004BB
:1006300004DB4FF00044404264EB0101141E73F1EF
:10064000000405DB1C464FF00043524263EB0403F9
:10065000994208BF904230BD30B50B46014600209C
:100660002022012409E021FA02F59D4205D303FA74
:1006700002F5491B04FA02F52844151EA2F10102F5
:10068000F1DC30BD202A04DB203A00FA02F1002020
:1006900070479140C2F1200320FA03F319439040C0
:1006A0007047202A04DB203A21FA02F0002170472B
:1006B00021FA02F3D040C2F12002914008431946CA
:1006C0007047202A06DBCB17203A41FA02F043EAB2
:1006D000E07306E041FA02F3D040C2F120029140FB
:1006E00008431946704710B5141E73F1000408DA68
:1006F000401C41F1000192185B411A4301D120F0E6
:10070000010010BD2DE9F04D92469B4611B1B1FAA2
:1007100081F202E0B0FA80F220329046FFF7B2FF99
:1007200004460F4640EA0A0041EA0B0153465A4686
:10073000084313D0114653EA010019D0C8F1400212
:100740005046FFF7AEFF05460E4650465946424614
:10075000FFF798FF084305D0012004E02046394602
:10076000BDE8F08D0020054346EAE0762C43374390
:100770000A986305E40AA0EB08000022FD0A44EA97
:1007800047540A3002D500200146E9E70105101957
:100790006941DDE9084500196941BDE8F04DA2E76E
:1007A0002DE9F041054621F000400C46284309D0D0
:1007B000C4F30A5040F23341884205DD2846214601
:1007C000BDE8F0812846FBE740F2FE31884210DCAC
:1007D0000CDB4FEA043040EA155050EA053105D0F1
:1007E000104804F0004101430020E9E700200146E1
:1007F000E6E7A0F233404642C6F1400228462146D1
:10080000FFF740FF07468846284621463246FFF755
:1008100048FF43463A46FFF766FF3246BDE8F041DF
:10082000FFF730BF0000F03FC1F30A52C1F31301DC
:1008300040F2FF3341F480119A4202DA002001466F
:10084000704740F233439A42A2F2334202DC5242F2
:10085000FFF727BFFFF716BF30B5041E71F1000484
:1008600004DB4FF00044404264EB0101141E73F1BD
:10087000000405DB1C464FF00043524263EB0403C7
:100880008B4208BF824230BD064C074D06E0E0684F
:1008900040F0010394E8070098471034AC42F6D3C7
:1008A000FFF776FC24680008446800082DE9F05F33
:1008B00080460E4617461C462046FFF7DBFC85B2F5
:1008C0002046FFF7D7FC052101EB400005F0E0FDD5
:1008D0000446B8F1000F05D06A0020460A99FFF7D8
:1008E000A5FC53E04FEA151C84F800C005F00F0387
:1008F000637046EA4700A070CCF3C001CCF38002DD
:1009000081EA0206CCF340077E400CF0010886EA3B
:1009100008064FEAD30B81EA0B01C3F3800981EA91
:100920000901C3F3400A81EA0A0C00F001018CEAD4
:10093000010C82EA0B0203F0010B82EA0B02C0F306
:10094000C00382EA030EC0F340028EEA020E87EA79
:10095000090787EA0B09C0F3800789EA07005040BE
:10096000484088EA0A0888EA03037B405A4051401D
:10097000E6704FEACC0242EA8E0242EA40000843A7
:1009800020716A00601D0A99FFF750FC204600F0B4
:1009900000B830BCBDE8C09FFEE70000F0B587B0EE
:1009A0000024049406942348C16C41F00201C16400
:1009B000C16C01F002010191C16C41F00101C164FF
:1009C000C16C01F001010191C16C41F00401C164ED
:1009D000C06C00F00400019041F624000290012553
:1009E000039503200590144F02A9384600F01EFA23
:1009F00002260296039502A9384600F017FA012252
:100A00002021384600F02DFB00220421384600F05A
:100A100028FB00222903384600F023FB68020290DD
:100A200003940494059602A94FF0904000F0FEF95B
:100A300007B0F0BD001002400004004810B490F868
:100A400044C001240CF01C0C04FA0CFC046CC4F827
:100A500004C0D0F800C0CCF804308368102B05D057
:100A6000036899600068C26010BC704703689A60B0
:100A70000068C16010BC70477047000001A004F01E
:100A80000BF9FEE74572726F725F48616E646C65C8
:100A9000720A0D002DE9F04FDDF82880099F4FF014
:100AA000000C4FF001094FF0030A09FA0CF501EAB6
:100AB0000504AC4236D1D0F800B04FEA4C040AFA33
:100AC00004F62BEA060BC0F800B0D0F800B002FA2A
:100AD00004FE4BEA0E0BC0F800B0012A01D0022A36
:100AE00018D1D0F808B02BEA060BC0F808B0D0F83F
:100AF00008B007FA04FE4BEA0E0BC0F808B0D0F8B5
:100B000004B02BEA05054560456803FA0CFB45EA8D
:100B10000B054560C568B543C560C56808FA04F4AF
:100B20002C43C4600CF1010CBCF1100FBDD300F0DC
:100B300000B830BCBDE8C08F0021094A52F83130FE
:100B4000834208D84B1C52F83330834203D902EB5E
:100B5000C10000797047491CC9B21529EED3FEE7E0
:100B6000E8650008F8B50446002500260096002C2C
:100B700002D0606D10B107E00120F8BD204600F002
:100B8000DBF8A66584F8506020688168C1F3407185
:100B900029B1816821F03F0121F020418160206866
:100BA0008168C1F30071A9B9816821F03F0121F08A
:100BB000004141F080518160584859490068B0FBBC
:100BC000F1F00090009828B10098401E0090009825
:100BD0000028F9D120688168C1F3007141B9616DC5
:100BE00041F010016165A16D41F00101A165012590
:100BF0008168C1F38001626D12F0100F00D131B134
:100C0000606D40F01000606501252846F8BD616DFB
:100C100021F4807141F002016165806800F00100FB
:100C2000A8B94048806800F001003F49896801F098
:100C3000010101433D48806800F00100084306D1EE
:100C400060683B498A6822F47C1210438860E1683E
:100C5000606B627E0843A16841EA4231084394F820
:100C6000201040EA0140012903D1A18C491E40EA2D
:100C70004140A16A21B101F47071E26A0843104356
:100C80002168CA682B4B1A401043C86020688168ED
:100C9000C1F380018268C2F3C002114315D1217EE5
:100CA00094F83020890341EA4201C26822F002022E
:100CB00022F480421143C16094F83800012813D017
:100CC0002068016921F001010161206901281CD01F
:100CD0002068016B21F00F010163606D20F00200BC
:100CE00040F00100606590E7216CE06BA26C084366
:100CF000616C114340EA0102206801696FF38A01C7
:100D0000114341F001010161DFE72068016BE269F5
:100D100021F00F01521E11430163DEE70C00002099
:100D2000400D030000000450000104500002045074
:100D30000003045007C0F0FF704710B5002490F87E
:100D40002510022903D00421C16301241AE001689F
:100D50000A6822F00E020A6001680A6822F00102A5
:100D60000A6090F84410036C01F01C02012101FAA2
:100D700002F25A6080F82510002180F82410816B5F
:100D800001B18847204610BD70B50446002594F88F
:100D9000240001280DD0012084F8240094F825C0F7
:100DA0000020BCF1010F06D084F82400022528465B
:100DB00070BD022070BD4FF0020C84F825C0E063C6
:100DC0002068D0F800C02CF0010CC0F800C020460C
:100DD000FFF734FE206B28B12068016841F00E0156
:100DE000016009E02068016821F0040101602068C9
:100DF000016841F00A0101602068016841F00101C9
:100E00000160D4E770B5044600F032F90546B4F14C
:100E1000FF3F02D004484068044400F029F9401B19
:100E2000A042FAD370BD0000000000202DE9F84F69
:100E300000220B68002B7DD0DFF80C92DFF80CB29B
:100E40004FF0010E03274FF00F080B680EFA02F463
:100E50002340002B6FD0D1F804C0BCF1020F02D0A8
:100E6000BCF1120F14D14FEAD20C00EB8C052E6AA4
:100E70004FEA427C4FEADC6C08FA0CFA26EA0A06D2
:100E8000D1F810A00AFA0CFC4CEA060CC5F820C0F8
:100E900006684FEA420C07FA0CF5AE4391F804A03D
:100EA0000AF0030A0AFA0CFA4AEA060606604E68D5
:100EB000012E05D0022E03D0112E01D0122E13D1F7
:100EC0008668AE43D1F80CA00AFA0CFA4AEA060684
:100ED00086604668A64391F804A0CAF3001A0AFA8D
:100EE00002FA4AEA060646604E6837EA060A08D160
:100EF000D0F82CA02AEA0404C6F3C0069640344376
:100F0000C462C468AC438D6805FA0CFC4CEA040C5E
:100F1000C0F80CC0D1F804C01CF0805F78D0D9F8BC
:100F200060C04CF0010CC9F860C0D9F860C00CF08A
:100F3000010C01E071E06BE0CDF800C022F0030C81
:100F40000CF1804404F58034D4F808C095072D0FC7
:100F500008FA05F62CEA0606B0F1904F62D0A0F12F
:100F6000904CBCF5806C5AD0A0F1904CBCF5006C54
:100F70005BD0A0F1904CBCF5406C59D0A0F1904CE6
:100F8000BCF5805C57D0A0F1904CBCF5A05C55D06E
:100F9000A0F1904CBCF5C05C53D04FF0070C0CFA9C
:100FA00005FC4CEA060CC4F808C0DBF800C02CEACB
:100FB000030C4C6814F4803F01D04CEA030CCBF8CE
:100FC00000C0234CD4F800C02CEA030C4D6815F483
:100FD000003F01D04CEA030CC4F800C01D4CD4F80B
:100FE00000C02CEA030C4D6815F4801F01D04CEAB8
:100FF000030CC4F800C0184CD4F800C02CEA030C51
:101000004D6815F4001F01D04CEA030CC4F800C071
:10101000521C0B68D3407FF418AF00F01FB84FF09C
:10102000010CBCE74FF0000CB9E74FF0020CB6E73B
:101030004FF0030CB3E74FF0040CB0E74FF0050C92
:10104000ADE74FF0060CAAE7001002400004014093
:1010500004040140080401400C04014018BCBDE830
:10106000E08F002A01D081617047816270470000E3
:101070000148806870470000000000200248816835
:1010800042681144816070470000002010B50024C0
:10109000032000F075F80F2000F008F808B10124D3
:1010A00001E000F029F8204610BD000070B50546AB
:1010B00000240F4E7068002817D04FF47A71B1FBEE
:1010C000F0F00C490968B1FBF0F001F0F1F808B15B
:1010D00001240BE0102D06D200222946501E00F0FC
:1010E0001BF8356002E0012400E00124204670BDB9
:1010F000000000200C000020704700280ADB00F0F0
:101100001F01012202FA01F14009800000F1E020F4
:10111000C0F800117047000010B4184B1B68C3F3EF
:101120000223C3F1070CBCF1040F01D94FF0040CEA
:101130001C1D072C01D2002300E0DB1E012404FA51
:101140000CFCACF1010C0CEA0101994004FA03F328
:101150005B1E1A401143002806DB00F1E020090164
:1011600080F8001410BC704700F00F0000F1E02080
:10117000090180F8141D10BC704700000CED00E060
:1011800000F00700064A11684FF6FF03194041EAD4
:10119000002040F0FD7040F080601060704700005B
:1011A0000CED00E01949B0F5007F0DD0086800F49F
:1011B000C060B0F5806F05D0086820F4C06040F4CE
:1011C0008060086000207047086800F4C060B0F5D7
:1011D000007FF7D0086820F4C06040F40070086019
:1011E0000B483222006842430A48B2FBF0F0401C30
:1011F00000E0401E4A6912F4806F01D00028F8D147
:10120000486910F4806FDDD0032070470070004003
:101210000C00002040420F000248006800F4C0604B
:1012200070470000007000400248016841F480717E
:1012300001607047007000400248016841F00401FD
:1012400001607047001002402DE9F04704460D464A
:10125000002C17D0DFF85081D8F8000000F007000C
:10126000A84212D2D8F8000020F007002843C8F89E
:101270000000D8F8000000F00700A84205D00120C7
:10128000BDE8F0870120BDE8F0872078474F10F0D7
:10129000010F42D06068032807D002280CD090B11B
:1012A000396811F4806F2ED011E0396811F0007F99
:1012B0000DD10120BDE8F087396811F4003F06D157
:1012C0000120BDE8F087396811F0020F18D0B96825
:1012D00021F003010843B860FFF7CAFE0646B8686C
:1012E000616800F00C00B0EB810F16D041F2883934
:1012F000FFF7BEFE801B484508D90320BDE8F087F4
:101300000120BDE8F0870120BDE8F087B86861687A
:1013100000F00C00B0EB810FEAD1207810F0020F42
:1013200005D0B868A16820F0F0000843B860D8F88C
:10133000000000F00700A8420FD9D8F8000020F004
:1013400007002843C8F80000D8F8000000F00700A4
:10135000A84202D00120BDE8F087207810F0040FE9
:1013600005D0B868E16820F4E0600843B8602078F0
:1013700010F0080F06D0B868216920F4605040EAE8
:10138000C100B86000F044F8B968094AC1F303111C
:10139000515C01F01F01C84006490860064800681A
:1013A000BDE8F047FFF782BE002002400010024077
:1013B000706500080C000020000000200148006853
:1013C000704700000C00002000B5FFF7F7FF05494B
:1013D0008968054AC1F30221515C01F01F01C84030
:1013E00000BD000000100240B065000800B5FFF726
:1013F000E5FF05498968054AC1F3C221515C01F046
:101400001F01C84000BD000000100240B065000888
:1014100030B400220020DFF8A8C0DCF8081001F08A
:101420000C01DCF80C3003F00303264C6510002996
:1014300008D00C2901D1012B04D0042917D0082988
:1014400017D017E0DCF8002012F0080F08D0DCF805
:101450000020C2F303121C4B53F8222029B109E0EB
:10146000DCF89420C2F30322F5E7104602E02046A0
:1014700000E028460C291CD1DCF80C0000F0030029
:10148000022818D0032818D01046DCF80C10C1F33D
:101490000211491CDCF80C20C2F306225043B0FBB9
:1014A000F1F0DCF80C10C1F34161491C4900B0FBBC
:1014B000F1F030BC70472046E7E72846E5E700003A
:1014C000001002400024F4008065000870B586B06A
:1014D0000D4616460F4CE06C40F00100E064E06CF5
:1014E00000F001000090A0150190022002900490ED
:1014F00000200390059001A94FF09040FFF796FC63
:10150000A06845EA060120F0EE400843A06006B05E
:1015100070BD0000001002402DE9F8430446002C85
:101520000ED0FC4EB06800F00C05F06800F0030728
:10153000207810F0100F72D0B5B10C2D03D004E05C
:101540000120BDE8F883012F0ED0A069002870D0DB
:10155000306840F001003060FFF78AFD8046306857
:1015600010F0020F5CD069E0306810F0020F01D07B
:10157000A06940B1206A316811F0080F06D03168C7
:1015800001F0F00107E00120BDE8F883D6F89410DF
:1015900001F470610909884217D901F069FD10B1A1
:1015A0000120BDE8F883306840F008003060306802
:1015B000216A20F0F000084330607068E16920F48F
:1015C0007F4040EA0120706017E0306840F008007A
:1015D00030603068216A20F0F000084330607068A5
:1015E000E16920F47F4040EA01207060206A01F048
:1015F0003FFD10B10120BDE8F883FFF709FFB16896
:10160000C54AC1F30311515C01F01F01C840C34931
:101610000860C3480068FFF749FD0028EBD137E0B8
:10162000FFF726FDA0EB0800022803D90320BDE840
:10163000F88315E0306810F0020FF1D0306840F008
:10164000080030603068216A20F0F0000843306004
:10165000706820F47F41E06941EA0020706017E083
:10166000306820F001003060FFF702FD80463068EE
:1016700010F0020F0CD0FFF7FBFCA0EB08000228D3
:1016800002D90320BDE8F883306810F0020FF2D1D0
:10169000207810F0010F57D0082D1CD00C2D01D14F
:1016A000032F18D06068B0F5803F1DD0B0F5A02F93
:1016B0001FD0306820F480303060306820F4802003
:1016C0003060606860B3FFF7D3FC8046306810F488
:1016D000003F17D038E0306810F4003F34D0606825
:1016E00090BB0120BDE8F883306840F48030306062
:1016F000E7E7306840F480203060306840F48030A4
:101700003060DEE7FFF7B4FCA0EB0800642802D9E4
:101710000320BDE8F883306810F4003FF2D013E0F6
:10172000FFF7A6FC8046306810F4003F0CD0FFF7AE
:101730009FFCA0EB0800642802D90320BDE8F883D1
:10174000306810F4003FF2D1207810F0020F50D032
:10175000042D11D00C2D01D1022F0DD0E06880B3E3
:10176000306840F480703060FFF782FC07463068D4
:1017700010F4806F11D01CE0306810F4806F01D03D
:10178000E06838B17068217C20F0F85040EA0160D0
:1017900070602EE00120BDE8F883FFF769FCC01BF4
:1017A000022802D90320BDE8F883306810F4806F66
:1017B000F3D07068217C20F0F85040EA016070603E
:1017C00017E0FFE7306820F480703060FFF750FCCE
:1017D0000746306810F4806F0BD0FFF749FCC01B40
:1017E000022802D90320BDE8F883306810F4806F26
:1017F000F3D1207810F0080F38D06069D8B1D6F84E
:10180000940040F00100C6F89400FFF731FC074651
:10181000D6F8940010F0020F28D1FFF729FCC01B66
:10182000022802D90320BDE8F883D6F8940010F00E
:10183000020FF2D01AE0D6F8940020F00100C6F8AA
:101840009400FFF715FC0746D6F8940010F0020F3D
:101850000CD0FFF70DFCC01B022802D90320BDE805
:10186000F883D6F8940010F0020FF2D1207810F02F
:10187000040F76D04FF00009B06D10F0805F09D1F1
:10188000B06D40F08050B065B06D00F080500090B9
:101890004FF00109DFF88C80D8F8000010F4807F49
:1018A0001AD1D8F8000040F48070C8F80000FFF7A3
:1018B000DFFB0746D8F8000010F4807F0CD1FFF75B
:1018C000D7FBC01B022802D90320BDE8F883D8F853
:1018D000000010F4807FF2D0A068012824D00528F1
:1018E00029D0D6F8900020F00100C6F89000D6F874
:1018F000900020F00400C6F89000A06841F28837FC
:1019000080B3FFF7B5FB8046D6F8900010F0020FC9
:101910001ED044E000100240706500080C0000205A
:101920000000002000700040D6F8900040F0010058
:10193000C6F89000E1E7D6F8900040F00400C6F841
:101940009000D6F8900040F00100C6F89000D4E76F
:10195000FFF78EFBA0EB0800B84204D90320BDE8D6
:10196000F88323E005E0D6F8900010F0020FEFD0E6
:1019700015E0FFF77DFB8046D6F8900010F0020FCF
:101980000DD0FFF775FBA0EB0800B84202D9032089
:10199000BDE8F883D6F8900010F0020FF1D1B9F14C
:1019A000010F03D1B06D20F08050B065A06AE8B39C
:1019B0004FF0FF370C2D7AD0022808D0306820F085
:1019C00080703060306810F0205F51D054E0306893
:1019D00020F080703060FFF74BFB0546306810F058
:1019E000007F0BD0FFF744FB401B022802D90320E5
:1019F000BDE8F883306810F0007FF3D1216BE06A16
:101A0000491E40EA0110616BA28F090207EB5202E6
:101A100041EA4251084394F8401007EB510140EA73
:101A20004160A16B090940EA414200E075E0F068BD
:101A30003B4908401043F060306840F080703060EF
:101A4000F06840F08070F060FFF712FB04463068E9
:101A500010F0007F61D1FFF70BFB001B022802D9B9
:101A60000320BDE8F883306810F0007FF3D054E025
:101A7000F06820F00300F060F06820F4881020F097
:101A80008070F060FFF7F4FA0446306810F0007FD1
:101A900043D0FFF7EDFA001B022803D90320BDE86D
:101AA000F88304E0306810F0007FF2D135E00128BF
:101AB00019D0F068E26A00F0030191422AD1216B4B
:101AC00000F07002491EB2EB011F23D1626B00F4DB
:101AD000FE41B1EB022F1DD1A16B00F400320729AA
:101AE00004D0012103E00120BDE8F88300218A42EF
:101AF00010D1A28F00F4C00107EB5202B1EB425F9C
:101B000008D194F8401000F0C06007EB5101B0EB31
:101B1000416F02D00120BDE8F8830020BDE8F883C2
:101B20008C809DF9704770477047000010B50446DF
:101B300028494FF4002008602068816811F4004FA4
:101B40000DD0C06810F4006F09D0204600F04AF8AC
:101B50002068C16801F0800161F40861C1602068FB
:101B6000016C1D4A11420CD0C16811F4005F08D00D
:101B7000C16801F0800161F40251C1602046FFF7A5
:101B8000D1FF2068016C154A11420CD0C16811F4D4
:101B9000804F08D0C16801F0800161F48141C160CB
:101BA0002046FFF7C0FF2068016C0D4A11420DD09E
:101BB000C16811F4004F09D0C16801F08001A1F59E
:101BC00000418139C1602046FFF7AEFF012084F853
:101BD000210010BD140401400400010004000800AD
:101BE0000400400070472DE9F047044694F82000B7
:101BF000012826D04FF0010884F82080022084F8C4
:101C000021002268CA2050622268532050620026B8
:101C1000FF274FF00309B1F5807F15D02068816858
:101C200021F4007181602068816821F40051816095
:101C3000FFF71EFA05462068C06810F0020F2AD090
:101C40003DE00220BDE8F0872068816821F48071C2
:101C500081602068816821F480518160FFF708FA73
:101C600005462068C06810F0010F28D1FFF700FA80
:101C7000401BB0F57A7F08D92068476284F821902C
:101C800084F820600320BDE8F0872068C06810F069
:101C9000010FEBD013E0FFF7EBF9401BB0F57A7FB3
:101CA00008D92068476284F8219084F820600320D6
:101CB000BDE8F0872068C06810F0020FEBD0206804
:101CC000476284F8218084F820600020BDE8F08716
:101CD00000B50B460068406820F0C00121F07F414C
:101CE000080CD870C1F3042C83F801C001F03F0C3C
:101CF00083F802C0C1F342311970002A0AD101F001
:101D0000F9F9D870587801F0F5F95870987801F021
:101D1000F1F99870002000BD00B50B460168896A92
:101D2000596001680969C1F30E0199600068006893
:101D30000E490140C1F305401870C1F3062C83F829
:101D400001C001F07F0C83F802C0890DD970002A10
:101D50000AD101F0CFF91870587801F0CBF958701A
:101D6000987801F0C7F99870002000BD7F7F7F0050
:101D70002DE9F05F04460B4694F8200001280ED0B0
:101D80004FF0010A84F820A0022084F821000027E7
:101D900042B12068806810F0400F26D124E0022074
:101DA00000F0D2B82068806810F0400F00D1DF70DA
:101DB000187801F0A8F90204587801F0A4F942EA71
:101DC0000022987801F09FF9D978104340EA8152B7
:101DD00093F8200001F097F9D96942EA00600843BE
:101DE000596940EA010513E0DF7098781978DA78CC
:101DF00040EA01405978090241EA8251084393F8C8
:101E0000201040EA0160D9690843596940EA010598
:101E10009969586840EA01062168CA204862216829
:101E200053204862586A4FF0FF094FF0030BB0F59A
:101E3000807F14D02068816821F40071816020685F
:101E4000C16801F0800161F42071C160FFF710F9F1
:101E500080462068C06810F0020F39D04EE020683C
:101E6000816821F4807181602068C16801F080017F
:101E700061F4C071C160FFF7FBF880462068C0685C
:101E800010F0010F15D1FFF7F3F8A0EB0800B0F543
:101E90007A7F09D92068C0F8249084F821B084F8AA
:101EA0002070032000F050B82068C06810F0010FC7
:101EB000E9D02068C561206846642068816841F4E3
:101EC000807181602068816841F48051816023E0E5
:101ED000FFF7CEF8A0EB0800B0F57A7F09D92068AB
:101EE000C0F8249084F821B084F82070032000F01A
:101EF0002BB82068C06810F0020FE9D02068056296
:101F0000206886642068816841F4007181602068DF
:101F1000816841F4005181600948016841F48021E1
:101F200001600848016841F4802101602068C0F820
:101F3000249084F821A084F82070002000F004B8D8
:101F4000000401400804014030BCBDE8C09F70B5EA
:101F50000446002C05D00025A56294F85D0010B160
:101F600006E0012070BD84F85C50204600F04CF87B
:101F7000022384F85D302068016821F0400101608F
:101F8000E068B0F5E06F01D9002101E04FF4805125
:101F9000B0F5706F03D0B0F5E06F00D0A562D4F853
:101FA00030C00122BCF1000F05D1B0F5E06F01D9BE
:101FB000236300E02263A3686068D4F814C0184368
:101FC000236943EA0C031843238B03F4007318437B
:101FD000E3691843236A1843A36A18432368186007
:101FE000636B606AD4F818C003430426E06806EA0D
:101FF0001C4C40EA0C0018430843216848602566E1
:1020000084F85D20002070BD70472DE9F05F044624
:102010000A9E8A4693461F4601254FF0000894F811
:102020005C0001280ED0012084F85C00FFF720F846
:10203000814694F85D00616801280ED0B1F5827F79
:1020400007D102E0022000F022B9A16809B90428F2
:1020500003D04FF0020800F00EB9BAF1000F25D0FE
:10206000BBF1000F22D0380020D094F85D00042886
:1020700002D0052084F85D0000202066C4F840B03E
:10208000A4F84670A4F84470C4F838A0E787A7877E
:10209000E0642065E068B0F5E06F01D8012F09D950
:1020A0002068416821F48051416008E04FF0010848
:1020B00000F0E1B82068416841F480514160206837
:1020C000016811F0400F03D1016841F04001016047
:1020D000E068B0F5E06F49D9606808B1012F3DD1E3
:1020E000A06B21680088C860A06B801CA063E08F93
:1020F000401EE08732E02068816811F0020F0DD0A9
:10210000E18F59B1012D09D1A16B0988C160A06B84
:10211000801CA063E08F401EE08700252068816856
:1021200011F0010F0ED0B4F8461059B1C068216CFF
:102130000880206C801C2064B4F84600401EA4F87F
:1021400046000125FEF794FFA0EB0900B04205D33D
:10215000B6F1FF3F02D04FF003088CE0E08F00287B
:10216000C9D1B4F846000028C5D17AE0606808B14A
:10217000012F6FD1E08F01280AD9A06B2168008858
:10218000C860A06B801CA063E08F801EE08761E0C8
:10219000A06B216800780873A06B401CA063E08FDF
:1021A000401EE08756E02068816811F0020F1AD0C7
:1021B000E18FC1B1012D16D1E18F012909D9A16BA0
:1021C0000988C160A06B801CA063E08F801EE0873F
:1021D00008E0A16B09780173A06B401CA063E08F3D
:1021E000401EE08700252068816811F0010F27D08C
:1021F000B4F8461021B3B4F84610012914D9C068C8
:10220000216C0880206C801C2064B4F84600801E7D
:10221000A4F84600B4F84600012810D820684168A8
:1022200041F4805141600AE0007B216C0870206C11
:10223000401C2064B4F84600401EA4F84600012566
:10224000FEF716FFA0EB0900B04202D3B6F1FF3F44
:102250001AD1CEB1E08F0028A5D1B4F846000028ED
:10226000A1D14A463146204600F0F8FF18B14FF0A0
:10227000010820202066012084F85D00002084F8F9
:102280005C00404600F003B84FF00308F3E730BCB1
:10229000BDE8C09F4FF0E021042804D0086920F079
:1022A000040008617047086940F004000861704745
:1022B000401EB0F1807F01D3012070474FF0E02134
:1022C0004861044AF02010700020886107200861EE
:1022D0000020704723ED00E0704770477047000012
:1022E00070B51B4C1B4E4FF00105207810F0800F8D
:1022F00021D0A068401CA060B0F5004F1AD1002189
:1023000006F1B00000F032F9618806EB011250606E
:10231000207800F07F009060481C80B2608000262A
:102320002670A660032805D300210B4800F016F89C
:102330006680657070BD0021074800F017F961885C
:1023400006EB0111086080202070A56070BD0000C0
:102350004000002014040020C404002010B50446EE
:102360000029226806D0042909D008290CD00C299C
:1023700013D10EE0D06820F00200D0600DE0D068EC
:1023800020F00400D06008E0D06820F00800D060A1
:1023900003E0D06820F01000D0600022206802F036
:1023A00081FB2068016A41F21112114207D1016AD2
:1023B0009210114203D1016821F001010160002057
:1023C00010BD70B50446206801694FF0000511F09A
:1023D000020F17D0C16811F0020F13D0E91E01617E
:1023E000012020772068806910F0030F03D0204679
:1023F000FFF776FF05E0204600F0ACF8204600F03D
:10240000AAF825772068016911F0040F18D0C16877
:1024100011F0040F14D06FF0040101610220207745
:102420002068806910F4407F03D02046FFF758FFF2
:1024300005E0204600F08EF8204600F08CF8257765
:102440002068016911F0080F18D0C16811F0080F59
:1024500014D06FF008010161042020772068C06962
:1024600010F0030F03D02046FFF73AFF05E02046A7
:1024700000F070F8204600F06EF8257720680169BA
:1024800011F0100F18D0C16811F0100F14D06FF0B8
:1024900010010161082020772068C06910F4407F96
:1024A00003D02046FFF71CFF05E0204600F052F85D
:1024B000204600F050F825772068016911F0010FDF
:1024C00009D0C16811F0010F05D06FF00101016161
:1024D000204600F041F82068016911F0800F09D012
:1024E000C16811F0800F05D06FF0800101612046B6
:1024F000FFF7F3FE2068016911F4807F09D0C168FD
:1025000011F0800F05D06FF4807101612046FFF754
:10251000E3FE2068016911F0400F09D0C16811F095
:10252000400F05D06FF040010161204600F034F803
:102530002068016911F0200F0BD0C16811F0200F45
:1025400007D06FF0200101612046BDE87040FFF721
:10255000C5BE70BD7047704703490878002801D098
:10256000401C087070470000400000200246002018
:10257000002908D0042909D008290AD00C2901D142
:102580001068006C70471068406B70471068806B73
:1025900070471068C06B7047704770477047416F55
:1025A000806F08437047000070B504462368D869FF
:1025B00019689A6800F00F0CBCF1000F0CD110F0F4
:1025C000200F09D011F0200F06D0216E002977D0FE
:1025D0002046BDE870400847BCF1000F7BD002F0F8
:1025E000010C01F490755CEA050574D010F0010F40
:1025F00008D011F4807F05D001251D62E36F43F000
:102600000103E36710F0020F09D012F0010F06D0AA
:10261000256802232B62E36F43F00403E36710F0A5
:10262000040F09D012F0010F06D0236804221A62A9
:10263000E26F42F00202E26710F0080F0BD001F0E7
:10264000200252EA0C0206D0236808221A62E26FC6
:1026500042F00802E267E26F002A31D010F0200F4A
:1026600006D011F0200F03D0216E09B12046884713
:10267000E06F2168896811F0400F02D110F0080F57
:1026800023D0204602F02CFC2068816811F0400F16
:1026900017D0816821F040018160E06E68B1214966
:1026A0008163E06EFEF749FB002809D0E06E816B84
:1026B000BDE87040084703E00DE02046FFF76EFFDD
:1026C00070BD2046FFF76AFF70BD2046FFF766FF2A
:1026D0000020E06770BD10F4801F0AD012F4800F54
:1026E00007D04FF4801018622046BDE87040FFF715
:1026F00054BF10F0800F09D011F0800F06D0616E2A
:102700000029E7D02046BDE87040084710F0400F90
:10271000E0D011F0400FDDD02046BDE8704002F05F
:10272000EEBB0000454E000810B50446002C02D058
:10273000606F10B107E0012010BD002084F8700028
:10274000204600F027F8242060672068016821F007
:1027500001010160204602F041FC012818D0606AA6
:1027600010B1204602F0D2FA2068416821F490416D
:1027700041602068816821F02A0181602068016839
:1027800041F0010101602046BDE8104002F02ABB83
:10279000012010BD00B587B00068A0F18041B1F5FF
:1027A00088412DD11748C16C41F00101C164C16C51
:1027B00001F001010191816D41F400318165806D6D
:1027C00000F40030019004200290022003900121C7
:1027D000049105900720069002A94FF09040FEF763
:1027E00025FB0820029002A94FF09040FEF71EFB47
:1027F0002620FEF782FC032200212620FEF78CFC17
:1028000007B000BD00100240836F202B01D00220D2
:10281000704741B33AB390F87030012B25D00123B3
:1028200080F870304165A0F85820A0F85A200022A6
:1028300002668168FF23B1F5805F18D04FF07F0CEE
:10284000F9B1B1F1805F24D0A0F85C20C2672221E9
:10285000816701688B6843F001038B608168B1F583
:10286000805F1FD020E0012070470220704701697F
:1028700011B1A0F85C30E9E740F2FF11A0F85C105C
:10288000E4E7016911B1A0F85CC0DFE7A0F85C30B3
:10289000DCE7016919B13F21A0F85C10D6E7A0F888
:1028A0005CC0D3E7016951B10649016680F8702028
:1028B0000068016841F4907101600020704702498E
:1028C0000166F3E7834F0008294F000810B4006841
:1028D000A0F18041B1F588410DD1144A508810F41F
:1028E000004F08D10B46114610F4804F097809D0EB
:1028F0000A2902D0538010BC704740F40040508039
:1029000010BC70470D290CD0094CC0F30D0C04F815
:102910000C10401C80B25080C728F1D9538010BCE5
:10292000704740F48040508010BC70475000002039
:102930002805002070B50446606F202801D00220D1
:1029400070BD00292FD0002A2DD094F870000128E6
:102950002BD0012084F87000E164A4F85020A4F882
:1029600052200025E56721206067A06EF8B1164966
:10297000C162A16E15480863A16E15484863A06E38
:1029800085632068134600F1280C6246E16CA06E56
:10299000FEF7FAF958B11020E06784F87050202053
:1029A0006067012070BD012070BD022070BD2168EC
:1029B0004020086284F870502068816841F08001EE
:1029C0008160002070BD0000A54E0008D74E0008B1
:1029D000594E0008014800680047000038000020F8
:1029E0007047000082B015480178002923D10121E9
:1029F0000170144812490160002180F838104FF42A
:102A000080324260017681600161C160417680F868
:102A10002010C1620422426180F830100A48C16C63
:102A200041F40051C164C06C00F4005001900548AD
:102A300002B0FEF797B802B07047000034000020E3
:102A40000000045024020020001002400146002033
:102A500011F47F4F00D0082021F00F0232F4706291
:102A600001D040F0040021F0330232F44C5201D086
:102A700040F0020021F0550131F4AA4101D040F0AC
:102A80000100704782B08C46204BB0F1904F18D0B7
:102A9000A0F19041B1F580611CD0B1F5806F22D0DA
:102AA000B1F5006F28D0D96C41F08001D964D96CA0
:102AB00001F080010191C2F800C0114602B0FEF79A
:102AC000B5B9D96C41F00101D964D96C01F00101AB
:102AD0000191F0E7D96C41F00201D964D96C01F0A1
:102AE00002010191E7E7D96C41F00401D964D96C86
:102AF00001F004010191DEE7D96C41F00801D964CD
:102B0000D96C01F008010191D5E7000000100240E6
:102B100070B50D4616461C462846FFF797FF0B4931
:102B20007CB141F82040284600F074FA04460022A7
:102B300031462046FEF7F0FA2046BDE87040FEF729
:102B4000DCBA002241F8202070BD000008030020FC
:102B5000D2B2FEF786BA000010B5074C60780028A4
:102B600008D1FFF73FFF05480068804700F0A4F94F
:102B70000120607010BD000034000020986600083D
:102B80002DE9F04107460C46002221462748FFF771
:102B9000C3F8274EB06A85B2002239462348FFF7B2
:102BA00097F8002221462148FFF7B6F8B06A80B2B4
:102BB000A842EFD1F87840F2B55110FB01F1C91CE1
:102BC0008B0810F0030F2FD01A487978491E01EBBB
:102BD0004102C2EB8112521C4900C84002EBD27282
:102BE00000F00300C0EB62001844B978401E0844AE
:102BF000114941436078C0EB001082002078C0EB9F
:102C00004013C3EB002002EB0010A27811440844EB
:102C1000820D8302606840F2FF3CACEB00001818A4
:102C200042F10001BDE8F0810448CEE748030020EE
:102C300000280040A0AA990080510100505544008E
:102C40000320704700B587B002A901A8FFF798FFDD
:102C50000249096807B0401A00BD00009403002033
:102C600000B587B002A901A8FFF78AFF07B000BD31
:102C700070B50446FFF7E6FF0D4D201AB5F90210B6
:102C8000C91C884204D90021042000F0ABF903E0FC
:102C90000121042000F0A6F900F090F9012802D1EA
:102CA000B5F90200241A2046BDE8704000F00EB8C5
:102CB0003C00002010B5044C211D04F11800FFF762
:102CC0005FFF206010BD00009403002070B586B047
:102CD00005465549D1F85CC00C6E8B6D0A6D486D88
:102CE000CDF810C00594039301920290486E0090B5
:102CF00000F0A4F8029840F2FF34201AC5F309014D
:102D000008441FFA80FCA80A9DF80230474988420F
:102D100007D3A0F58030A0F5A3405A1C93B2884297
:102D2000F7D29DF80420B0F5616F06D3A0F561607D
:102D3000511C8AB2B0F5616FF8D29DF805103C289D
:102D400004D33C38491C89B23C28FAD29DF806507D
:102D5000284480B2BCF5806F08D3ACF5806C1FFAB4
:102D60008CFC401C80B2BCF5806FF6D23C2805D3A9
:102D70003C3880B2491C89B23C28F9D23C2905D3A1
:102D80003C3989B2521C92B23C29F9D2182A05D397
:102D9000183A92B25B1C9BB2182AF9D29DF80350E4
:102DA00015F0030F35D09DF80150214EAD5D9D42C9
:102DB00003D2B3FBF5F605FB1633A4EB0C04DFF8E6
:102DC00074C0CCF804404FF02064CCF818408CF864
:102DD00002008CF801108CF800208CF820309DF84F
:102DE00007008CF803000020CCF81C00CCF814007D
:102DF0004FF48071CCF82410CCF80C00CCF8100003
:102E000006B06146BDE870400022A1F12400FEF743
:102E1000AFBF9DF80150084EAD5D9D42CDD2B3FBD2
:102E2000F5F605FB1633C8E7480300208051010082
:102E30000B6700086C0300201767000810B54FF4FB
:102E400080710848FEF7CFFE06480068C16801F0AF
:102E5000800161F4C071C16003494FF480200860B3
:102E600010BD00004803002014040140810AC0F393
:102E700009004FF47A72514310FB02F001EB9020ED
:102E8000704710B5410EC0017D220023FDF79AF96D
:102E900010BD000001B582B04FF0FF30009001235B
:102EA00001AA02A90348FFF7B0F8BDF8040003B077
:102EB00000BD0000B003002008B51648144A0260A7
:102EC0001821C161002181604FF482734360016168
:102ED00041614FF4E063C360816201625315836115
:102EE00041620D48016E41F480510166006E00F4AC
:102EF00080500090106840F0400010600548FFF7D7
:102F000026F808B1FDF7BAFDBDE8084000F006B8A4
:102F100000300140B00300200010024010B586B020
:102F200000240194039402200290032004900520C1
:102F3000059001AA20214FF09040FFF7A3FD01AAC0
:102F400040214FF09040FFF79DFD01AA80214FF0F6
:102F50009040FFF797FD012002900394064C01AAD0
:102F600040212046FFF78EFD012240212046FFF739
:102F7000EFFD06B010BD00000004004800BFFDE7F3
:102F80000149086070470000140401404269514043
:102F900041617047C16801F0800161F49061C160D6
:102FA0007047C068C0F3802070476FF00101016175
:102FB0007047006900F0010070470000EFF31081D6
:102FC00072B607480268002A01D0002004E0406879
:102FD00008B1012000E0022081F310887047000052
:102FE00060000020EFF3108372B6DFF824C00029E0
:102FF000DCF8002005D0012907D11043CCF80000EF
:1030000003E022EA0000CCF8000083F31088704748
:1030100060000020802826D010DC08281FD006DCA5
:10302000012816D0022816D0042810D115E0102847
:1030300017D0202817D0402809D114E0B0F5805FC0
:1030400005DAB0F5807F0ED0B0F5007F0BD02820D8
:1030500070470620704707207047082070470920F6
:1030600070470A20704717207047FEE77047704787
:10307000F8B5054600241D4EB06D10F0805F02D0FB
:10308000FEF7CAF80DE0B06D40F08050B065B06D4D
:1030900000F080500090FEF7BFF8B16D21F0805134
:1030A000B165B0F5007F04D0802D0AD94FF003043C
:1030B0000DE0802D0BD9A02D01D9022407E00124B9
:1030C00005E001D1022402E0702D00D1012408485E
:1030D000016821F0070121430160006800F007004A
:1030E000A04201D00120F8BD0020F8BD0010024030
:1030F00000200240010901EB8101490000F00F00AE
:103100000844C0B2704700210A2804D3491C0A3879
:10311000C0B20A28FAD2090740EA116070470000DD
:1031200010B509490846FFF73CFF30B10846FFF7E4
:1031300031FF04210548FFF729FFBDE810404FF497
:103140008020FFF71DBF0000002800400004004859
:1031500070B5092000F08DFC0446062000F089FCC3
:103160000504072000F085FC45EA0025082000F052
:1031700080FC45EA0002100AA2EB002243F6095146
:1031800048435143803100EB11250021092001F013
:10319000B3FB3B2000F06DFC00F0BF0040F04001AD
:1031A0003B2001F0A9FB3B2000F063FC10F0200F56
:1031B000F9D10E4800F06CFD3B2000F05AFC00F005
:1031C000BF0040F040013B2001F096FB3B2000F0A7
:1031D00050FC10F0200FF9D12146092001F08CFBA2
:1031E0002846BDE8704000F053BD000000A1BC338C
:1031F00000B583B01748816C41F001018164016E14
:1032000041F48051016601200321009101900023C7
:103210000222E0214FF09040FDF73CFC4FF4557145
:103220000D484FF4805242604FF4E062426001600A
:10323000016821F040010160016821F00201016094
:10324000016821F001010160016841F04001016065
:1032500003B000BD0010024000300140F8B5044644
:103260000E461546334600224FF4C05120460095C5
:1032700000F026F828B1206E40F0200020660320E0
:10328000F8BD3346002280212046009500F069F801
:1032900028B1206E40F0200020660320F8BD3346A0
:1032A00000224FF4C0612046009500F009F828B1D3
:1032B000206E40F0200020660320F8BD0020F8BDFD
:1032C0002DE9F0410446DDF818800E4617461D46EC
:1032D000206880683040B84214D0B6F5C06F02D183
:1032E0000FB92068007BB5F1FF3F06D0FDF7C0FEA7
:1032F000A0EB0800A84208D23DB1206880683040A9
:10330000B842EAD10020BDE8F0812068416821F090
:10331000E00141606068B0F5827F0BD1A068B0F534
:10332000004F02D0B0F5806F04D12068016821F011
:1033300040010160A06AB0F5005F09D12068016812
:1033400021F4005101602068016841F400510160DE
:10335000012084F85D00002084F85C000320BDE8B3
:10336000F0812DE9F0410446069E884617461D4629
:103370002068806838EA000016D00020B84210D0DB
:10338000B5F1FF3F05D0FDF773FE801BA8420DD2BB
:1033900065B12068806838EA000033D00020B84268
:1033A000EED10020BDE8F0810120E7E72068416808
:1033B00021F0E00141606068B0F5827F0BD1A06828
:1033C000B0F5004F02D0B0F5806F04D120680168DD
:1033D00021F040010160A06AB0F5005F09D12068CA
:1033E000016821F4005101602068016841F4005136
:1033F0000160012084F85D00002084F85C00032057
:10340000BDE8F0810120CAE77047000010B586B022
:103410000020019003900590012002900320049069
:10342000064C01AA02212046FFF72CFB00220221B4
:103430002046FFF78DFB06B010BD000000080048D5
:1034400010B586B0002001900390059001200290F5
:1034500003200490064C01AA02212046FFF712FB2C
:10346000002202212046FFF773FB06B010BD0000CA
:103470000008004801494860704700001000002023
:103480000120704700207047014800797047000014
:10349000740100200000000070B502462DED0E8B77
:1034A0000E4600209FED8EBB9FED8FCB9FED909B36
:1034B000914D9FED93AB002A0DD0012A6FD1B0EE54
:1034C0004A8AF0EE6A8A686C072865D0082868D0B6
:1034D00009286BD168E0E869FDF780F841EC180B2A
:1034E0003046FDF77BF841EC1E0B302000F0C1FAAE
:1034F00030F0F90004D0B0EE49DAF0EE69DA03E01A
:10350000B0EE4ADAF0EE6ADA272000F0B2FA20F0E4
:10351000F800298C401C0844FDF760F841EC100BC2
:1035200095F82200012803D1B0EE4A9AF0EE6A9A8B
:1035300053EC192B51EC100BFCF7ACFE53EC1D2B8C
:10354000FCF7A8FE53EC1E2BFCF7A4FE41EC100B7D
:1035500095F82400012801D19FED6BAB51EC100BC5
:1035600053EC1A2BFCF796FE53EC1B2BFCF741FF98
:1035700053EC182BFCF7B2FF53EC1C2BFCF739FF74
:1035800041EC100B02F0FCF800F0D6B851EC100B37
:10359000BDE87040FDF72FB89FED5D8B06E09CE025
:1035A000FFE79FED5D8B01E09FED5D8BAC6C012033
:1035B000A040FDF702F841EC100B51EC180B53EC56
:1035C000102BFCF78BFF41EC100B51EC190B53EC5B
:1035D000102BFCF783FF41EC190BB5F84E00FCF7FC
:1035E000FDFF9FED511B53EC112BFCF753FE53ECE9
:1035F000192BFCF7FEFE41EC1D0B95F84D00001D4C
:10360000FCF7ECFF41EC180B95F84C0008B10220D8
:1036100000E00020201A8000FCF7E0FF41EC1E0BC8
:10362000F000614200EB810095F8521000EB0111AF
:1036300095F8500008B1142000E00020081A1C3052
:10364000FCF7CCFF53EC1E2BFCF748FF41EC100BB2
:1036500001F07EFF53EC182B51EC100BFCF7C9FE68
:1036600041EC180B53EC1A2B51EC180BFCF7DCFF58
:1036700003D3B0EE4A8AF0EE6A8A53EC1B2B51EC6E
:10368000180BFCF707FE41EC100B53EC192B51EC17
:10369000100BFCF7AEFE41EC100B51EC1D0B53EC84
:1036A000102BFCF7F7FD41EC100B53EC1C2B51ECED
:1036B000100BFCF79EFE9FED1E1B53EC112BFCF72D
:1036C000E9FD41EC100B01F0CFFF00F03BB851ECED
:1036D000100BBDE87040FCF78EBF00F039B870BD2C
:1036E00000000000000020400000000000408F406B
:1036F000000000000000F03F740100200000000006
:103700000000000000000000000000000000004079
:10371000000000008084FE400000000080840E4114
:103720000000000080841E410000000000001140E5
:103730002B8716D9CEF7EF3FBDEC088BBDEC06CB3F
:10374000FFF724BFBDEC088BBDEC06CBFFF7BFBF76
:10375000BDEC088BBDEC06CBFFF7C1BF0020704766
:1037600010B50348406840688047801C10BD0000C9
:10377000100000202DE9F0411A4F38601A491B480B
:1037800001F0C8F918491A4801F0C4F91649194856
:1037900001F0C0F9786801680120884700F0B8F9A5
:1037A000FFF7D6FC002000F0F9FA0024124E04EBDB
:1037B0004405705D00F0AEFAA8198178407801F0F8
:1037C0009BF8601CC4B2102CF1D3002000F0A2FAC8
:1037D0000A4900200871786840688047801CBDE86D
:1037E000F08100001000002055390008DC010020A5
:1037F000F40100200C020020B865000874010020CC
:1038000010B586B000200190049005900D480290FC
:1038100002200390410201AA4FF09040FFF732F9D5
:10382000094C01AA08212046FFF72CF901AA202102
:103830002046FFF727F901AA10212046FFF722F9B9
:1038400006B010BD000011100004004810B586B08D
:103850000020019002900390049005901048FFF71B
:1038600009FE10480290022003900320049001AA50
:103870004FF480614FF09040FFF704F90A4C01AA21
:1038800008212046FFF7FEF801AA20212046FFF775
:10389000F9F801AA10212046FFF7F4F806B010BD90
:1038A0001C000020000011100004004870B5044600
:1038B00000224FF480614FF090402368FFF728F911
:1038C0000A4D0022082128466368FFF721F90022EB
:1038D00020212846A368FFF71BF92846E368BDE8C6
:1038E000704000221021FFF713B9000000040048C7
:1038F0002DE9F0410746884614461D460126FFF78C
:10390000C3FD10B10020BDE8F081384600F002FA96
:10391000404600F0BDF9052000F040FA0120FDF717
:1039200071FA01F0DFF88046404601F0E2F8A84263
:103930000BD2384600F0CAF8A04201DD002604E0B0
:10394000404601F0D6F8A842F3D300F0B1FD30466E
:10395000BDE8F0812DE9F047324E0027DFF8C8803E
:10396000307901282DD0022859D100F0D1F8FFF785
:10397000EFFB002000F012FA0024DFF8B09004EB17
:10398000440519F8050000F0C5F905EB0900817838
:10399000407800F0B1FF601CC4B2102CEFD30020BF
:1039A00000F0B8F996F85C0000F02AFA3771D8F800
:1039B0000000002833D04068002830D0BDE8F04730
:1039C00000477079A8B986F8307086F83170B787EB
:1039D00077870B213E2000F08FFF10213F2000F061
:1039E0008BFF96F8260001280DD03771104801F0A2
:1039F0001BF9D8F80000002811D0C06800280ED0AC
:103A0000BDE8F04700470D2000F033F840F04001DA
:103A10000D2000F071FF064801F0D4F8E9E7BDE899
:103A2000F08700007401002010000020B865000835
:103A30000C02002070B50025012000F06BF9FF2179
:103A4000112000F059FF052000F0A8F90024012002
:103A5000FDF7D8F92C2000F00CF800F00100A04090
:103A60000543601CC4B2202CF1D300F021FD284690
:103A700070BD08B50122694600F004F89DF8000009
:103A800008BD00002DE9F04104460D4616460E4FD4
:103A9000002240213846FFF75BF804F07F00FFF773
:103AA000F9F90024002E07D90020FFF7F3F9285573
:103AB000601CC4B2B442F7D33846BDE8F0410122DD
:103AC0004021FFF745B800000004004810B5002869
:103AD00004D0012808D04FF0FF3010BD1120FFF7AF
:103AE000C8FF4008404210BD074808498068884226
:103AF00004D91B20FFF7BDFF9D3810BD1B20FFF729
:103B0000B8FFA43810BD00007401002040DD4A1F3A
:103B100010B586B00024019403940594012002900E
:103B20000320049001AA01214FF09040FEF7AAFF64
:103B3000002201214FF09040FFF70AF80120FDF725
:103B400061F9029401AA01214FF09040FEF79AFF1B
:103B50000620FDF757F906B010BD000073B5054605
:103B600000203B4C6179002902D001296BD12AE069
:103B70000020A0879DF80410618794F8220050B1BE
:103B8000322000F0B9FE9DF80420501E3F2807D8CF
:103B900084F83F200BE0012101A800F0D7FEF2E7F6
:103BA00029462C4802F0AAFC202084F83F0094F813
:103BB0003F10284600F0CAFEA08F94F83F1008443A
:103BC000A087A06A3FE094F85500012823D0332055
:103BD000FFF74FFF00F0BE0040F00101332000F07E
:103BE0008BFE1D213B2000F087FE9DF8041084F819
:103BF0006410222000F080FE00210E2000F07CFEE8
:103C000000210D2000F078FE0120FFF732FF30F098
:103C1000F8000DD011E03320FFF72BFF00F0BE01BC
:103C2000332000F069FE19213B2000F065FEDCE73F
:103C300000F05EFC0120FDF7E5F89DF80410284631
:103C400000F084FEA06D00F06DFC02B070BD0000BD
:103C5000740100207400002001460548032903D0A8
:103C600000220221FEF774BF01220221FEF770BF7D
:103C70000008004805490A78824205D0087008B15A
:103C8000FFF7C4BBFFF7DCBB704700001800002043
:103C900010B51049886043F60952B0FBF2F1534267
:103CA00001FB0300531003EB0020B0FBF2F000EB2C
:103CB0000124C4F30741062000F01EFEC4F30721CF
:103CC000072000F019FEE1B2BDE81040082000F026
:103CD00013BE00007401002070B504460D46204656
:103CE00000F018F83CB1012C10D12946BDE8704015
:103CF000232000F001BE064890F82200002805D1DC
:103D00002946BDE87040322000F0F6BD70BD0000CD
:103D10007401002010B504460120FFF7AAFE10F040
:103D2000800F1D4802D00121417101E00021417145
:103D30004179A1422ED04471012C14D0002000F012
:103D40002DF80120FFF795FE00F07F01012000F023
:103D5000D3FD0021402000F0CFFD3021BDE8104010
:103D6000412000F0C9BD002000F018F80120FFF745
:103D700080FE00F07F0040F08001012000F0BCFDDB
:103D80000021402000F0B8FD0021BDE81040412096
:103D900000F0B2BD10BD00007401002070B50446F3
:103DA000164D002C17D068680168012088476868A4
:103DB00001690020884768684169204688470120DA
:103DC000FFF757FE00F0F80040EA0401BDE870403C
:103DD000012000F091BD0120FFF74BFE00F0F8013B
:103DE000012000F089FD6868016901208847686842
:103DF0000168BDE870400020084700001000002066
:103E000010B504460120FFF785FF084880F85C40A4
:103E10002CB13421BDE81040392000F06DBD1221D5
:103E2000BDE81040392000F067BD0000740100209B
:103E300070B504460920FFF71CFE06464D20FFF72B
:103E400018FE054628488068FFF71CFB06F07F0136
:103E5000084310F0800F27D0112C04DD05F0F80185
:103E600041F0070503E005F0F80141F004050721E2
:103E7000A9430CD0022C00DA0224112C00DD1124FD
:103E8000A11E00F0F00001F00F01014322E0052C1B
:103E900000DA0524142C00DD1424611F00F0F0006A
:103EA00001F00F01014315E0002C09DD0F2C00DDAE
:103EB0000F2400F080002043C0B240F0700109E000
:103EC00014F1040F01DA6FF0030400F08000211DEB
:103ED0000843C1B2092000F00FFD2946BDE870403B
:103EE0004D2000F009BD00007401002070B50646A9
:103EF00000248B4800F098FE8A4D6A7912B1012A9D
:103F000079D128E095F826404020FFF7B2FD00F077
:103F1000030040F00C01402000F0EEFC4120FFF7D0
:103F2000A8FD00F03E0040F0C101412000F0E4FC9B
:103F30003520FFF79EFD00F03F0085F83E001E2172
:103F40000D2000F0D9FC002285F8302085F83120C2
:103F5000AA876A87AEE095F85500012826D033205D
:103F6000FFF787FD00F0BE0040F00101332000F0B4
:103F7000C3FC1D213B2000F0BFFC686C092877D2F0
:103F80003120FFF776FD00F07F01312000F0B4FC16
:103F90000021302000F0B0FC686C092870D2DFE806
:103FA00000F0141F2B36414C575C62003320FFF7A2
:103FB00060FD00F0BE0040F04101332000F09CFCA9
:103FC00019213B2000F098FCD7E748212F2000F072
:103FD00093FCA86841F682610844FFF759FE4FE060
:103FE00044212F2000F088FCA86842F6B401084460
:103FF000FFF74EFE44E05DE044212F2000F07CFC02
:10400000A86843F604510844FFF742FE38E0442113
:104010002F2000F071FCA86845F25E110844FFF7FC
:1040200037FE2DE044212F2000F066FCA86847F6FB
:1040300012210844FFF72CFE22E044212F2000F03B
:104040005BFCA8684AF2C6210844FFF721FE17E08E
:1040500040212F2000F050FC12E040212F2000F0E2
:104060004BFC0DE004E040212F2000F045FC07E070
:104070003120FFF7FEFC40F08001312000F03CFCD5
:1040800095F8564095F8530001282AD01F21112099
:1040900000F032FC4020FFF7ECFC00F03F01402034
:1040A00000F02AFC00210F2000F026FC00210D204A
:1040B00000F022FC4FF480711B48FCF7D0F801207F
:1040C000287136B13146194800F06AFD174800F0F2
:1040D00079FD687990B1ECB1BDE870400520FFF73B
:1040E0005DBE1D21112000F007FC4020FFF7C1FC40
:1040F00000F03301402000F0FFFBD3E70520FFF77D
:104100004DFE0B48E96A00F04BFDBDE870400848E1
:1041100000F058BDBDE870400620FFF73FBE00002C
:10412000DC0100207401002074000020F401002054
:104130000C020020000000002DE9FF4F88462DED05
:10414000028B83B09346DDF858A0DDF85090179E9F
:10415000139D159C1F460598FFF7DCFDC04A290AF0
:104160000598029128B1012870D1B8F1020F6ED9DB
:10417000FEE71746C2F81480C7F81CB01298B86161
:1041800087F8224087F823A087F824601A9887F8D8
:1041900025001B9887F826003D845846FCF71EFA38
:1041A00041EC100B834653EC102B9FEDAF0B0191AC
:1041B00051EC100BFCF792F99FEDAD1B53EC112B5A
:1041C000FCF717F941EC180B4846FCF707FA53ECDB
:1041D000182BFCF70EF99FEDA81B53EC112BFCF7E5
:1041E00008F9FCF708FAF862019941EC10BB53ECAE
:1041F000102B9FEDA30B51EC100BFCF76FF9FCF7A4
:10420000FAF987B2390A022000F076FBF9B20320EE
:1042100000F072FB4046FCF78FFC0146122000F0D4
:104220006BFB1298FCF788FC0146132000F064FB3E
:104230002520029900F060FBE9B2262000F05CFB2B
:1042400034B15146322000F057FB05E0FFE020E09A
:10425000FF21322000F050FB3020FFF70AFC00F075
:104260006F010CB1002000E08020084340EA0611F5
:10427000302000F041FB3120FFF7FBFB03B040F0A2
:104280004001BDEC028B04B0312000F0FFB800F01B
:1042900033BB08F107087248C0F84480C0F848B042
:1042A00080F84D70A0F84E5080F8504080F851A032
:1042B00080F85260189980F85310199980F85410BA
:1042C0001A9980F855101B9980F85610BBF10C0F05
:1042D00002D94FF00C0B04E0BBF1060F01D24FF0F6
:1042E000060BB8F1070F05D1BBF10B0F50D0BBF196
:1042F0000C0F4DD0B8F1080F02D1BBF10C0F47D015
:104300005749002081F84C001D20FFF7B2FB002028
:1043100040EA081040EA47002043C1B21D2000F0E7
:10432000EBFA1E20FFF7A5FB00F0080040EA0B1097
:104330006FF0FC0140EA860001EA19210843C1B28E
:104340001E2000F0D9FA2620FFF793FB444E00F020
:10435000F70096F84C1040EAC100C1B2262000F0E8
:10436000CBFA09F0FF011F2000F0C6FA20200299C5
:1043700000F0C2FAE9B2212000F0BEFA1CB15146A9
:10438000222000F0B9FA96F85300012805D013E076
:104390003348012180F84C10B6E74420FFF769FB51
:1043A00000F07F0040F08001442000F0A5FA96F86C
:1043B0005410242000F0A0FAB8F1090F0CD13249B2
:1043C000B068884208D90221362000F095FA6421AD
:1043D0003A2000F091FA06E0B8F1090F1AD0032153
:1043E000362000F089FABBF1060F1CD03120FFF710
:1043F00040FB00F0F80040F00301312000F07CFAAF
:1044000003B00A21BDEC028B04B0372000F043B8A2
:1044100000F072BA0221362000F06EFA7F213A20B5
:1044200000F06AFADFE73120FFF723FB00F0F80025
:1044300040F00501312000F05FFA03B00C21BDEC23
:10444000028B04B0372000F02BB800F055BA03B04F
:10445000BDEC028B04B000F028B8000000000000A2
:104460007401002000000000000000000000F03F88
:1044700000000000000020400000000000408F40CD
:104480000000000080847E4140DD4A1F30BCBDE852
:10449000C04FFFF7FCBE30BCBDE8C04FFFF7B8BF50
:1044A00030BCBDE8C04FFFF7D0BF30BCBDE8C08F07
:1044B00010B50A4800F0B8FB094800F0B5FB094800
:1044C00000F0B2FB0020FFF769FC07484068016874
:1044D0000020884705490020087110BDF401002024
:1044E000DC0100200C0200201000002074010020DC
:1044F00010B5084800F098FB074800F095FB074806
:1045000000F092FB0120FFF749FC054900200871EB
:1045100010BD0000F4010020DC0100200C0200208E
:104520007401002010B50446284800F07DFB2146A8
:10453000274800F035FB274C607910B101282CD1B9
:1045400019E04020FFF795FA00F0030040F0100159
:10455000402000F0D1F94120FFF78BFA00F03E0136
:10456000412000F0C9F93520FFF783FA00F03F0041
:1045700084F83E0011E094F85300012817D0F72189
:10458000112000F0B9F94020FFF773FA00F03F0066
:1045900040F04001402000F0AFF9022020710C48AB
:1045A00000F010FBBDE810400320FFF7F7BBF5213A
:1045B000112000F0A1F94020FFF75BFA00F0330072
:1045C00040F04001402000F097F9E6E7F4010020B8
:1045D000DC010020740100202DE9FF4F81B01E4650
:1045E000DDF858B0DDF854A0DDF83C90DDF84880E7
:1045F000119F109D0E9C0198FFF78CFB0120FFF787
:1046000038FA00F09F0040F02001012000F074F91A
:1046100083484068C1680298884782482A0A0199FD
:10462000009239B101297BD1029980F84010022E05
:104630005DD9FEE702990173039901614661C46186
:10464000058480F8227080F8248080F825A0C0F8C6
:1046500028B00398FBF7C2FF9FED731B53EC112B9F
:10466000FBF73CFFFBF7C7FF86B2310A042000F0DE
:1046700043F9F1B2052000F03FF92046FBF7AEFF09
:1046800041EC100B53EC102B9FED690B51EC100B10
:10469000FBF724FFFBF7AFFF84B2210A022000F0F2
:1046A0002BF9E1B2032000F027F92520009900F052
:1046B00023F9E9B2262000F01FF93020FFF7D9F9DD
:1046C00000F06F010FB1002000E08020084340EAB5
:1046D0000811302000F010F93120FFF7CAF905B0B9
:1046E00040F0400100F0A8B8312000F005B9F61DF7
:1046F0004664846480F84D90A0F84E5080F8507065
:10470000139980F85310149A80F8542080F852803E
:1047100080F855A0C0F858B00C2C02D90C2403E046
:1047200079E0062C00D206244FF0000B072E03D1AF
:104730000B2C0BD00C2C09D0082E01D10C2C05D041
:1047400080F84CB08246012904D012E0012280F8A2
:104750004C20F7E74420FFF78CF900F07F0040F091
:104760008001442000F0C8F89AF85410242000F08A
:10477000C3F81D20FFF77DF94BEA061040EA490017
:104780003843C1B21D2000F0B7F81E20FFF771F9C1
:1047900000F00B0040EA041040EA8800C1B21E207D
:1047A00000F0AAF82620FFF764F99AF84C1000F000
:1047B000F70040EAC100C1B2262000F09DF8202099
:1047C000009900F099F8E9B2212000F095F8062C44
:1047D00010D03120FFF74DF900F0F80040F0030150
:1047E000312000F089F805B00A2100F02AB83720FE
:1047F00000F082B83120FFF73CF900F0F80040F0FB
:104800000501312000F078F805B00C2100F01EB849
:10481000372000F071B805B000F01DB800000000AE
:1048200010000020740100200000000080844E4031
:104830000000000080847E4130BCBDE8C04FFFF71F
:1048400053BF30BCBDE8C04FFFF7D1BF30BCBDE89F
:10485000C04FFFF7DDBF30BCBDE8C08F30B589B0B9
:104860000D464FF47A7102FB01F4FFF711FA0020B4
:1048700007900690039005900190049005214FF455
:10488000965000230291009008941A462946184633
:10489000FFF7A2FE3120FFF7ECF800F0BF01312056
:1048A00000F02AF8C021402000F026F809B060216D
:1048B000BDE83040412000F01FB8704710B50D4CE6
:1048C0006079002814D0012812D1FA21112000F0BB
:1048D00013F84020FFF7CDF800F0FC01402000F075
:1048E0000BF803202071BDE810400720FFF756BAEF
:1048F00010BD00007401002013B5012201A900F0D1
:1049000003F802B010BD00002DE9F04104460E4648
:1049100015460D4F002240213846FEF719F944F0A4
:104920008000FEF7B7FA0024002D06D9305DFEF7AF
:10493000B1FA601CC4B2AC42F8D33846BDE8F041CD
:1049400001224021FEF704B9000400480A4601464E
:104950000020FFF7D9BFFCF791BB000010B5B8B03D
:10496000442127A8FBF77BFC002422942394249461
:104970002594269488216846FBF771FCFCF754FCCB
:104980001D48016821F018010160142027900120C2
:1049900029902D902E9460212F91022131913290F7
:1049A000339028203490072035903691379127A8EE
:1049B000FCF7B2FD08B1FCF761F80F20229003204C
:1049C0002390249425942694042122A8FCF73CFCEF
:1049D00008B1FCF753F84FF0005211110020FCF71A
:1049E00075FD4FF40070FCF7DDFB08B1FCF746F8ED
:1049F000FCF722FC38B010BD901002400E48016850
:104A000041F4700101600D48016841F0010101604D
:104A100000218160026822F4102222F0A852026074
:104A20008214C260026822F480220260816104491B
:104A3000C00308607047000088ED00E000100240ED
:104A400008ED00E00148FDF771B800000405002002
:104A50000148FDF7B6BC0000C404002000B54FF0CB
:104A60008040FEF7A6FA012804D180075DF804EB28
:104A7000FEF79BBA00BD000000B5084A1046FEF7DD
:104A800098FA012808D106484168491C416010463F
:104A90005DF804EBFEF789BA00BD00000004004099
:104AA0004000002001F01F0101238B40D0F820C0FE
:104AB0002CEA03030362036A02FA01F1194301625B
:104AC0007047000006490968002906D0814201D1DB
:104AD0000120704749690029F8D100207047000083
:104AE0005C00002010B5FEF7BBF8BDE81040FEF7F3
:104AF000BDB970B50546002D0AD0FEF7B1F80446E1
:104B00002846FEF7BEF9201ABDE87040FEF7AEB9A0
:104B1000002070BD00220260426002724272C160D9
:104B20000261426170470000044A1168002901D007
:104B300000234B724161106000F01CB85C00002043
:104B40000B490A68516900290BD00368D1F800C0ED
:104B500063450AD90A464969D2F814C0BCF1000F6E
:104B6000F4D150610021416170475061416170474B
:104B70005C00002070B50446FEF762F8054601208F
:104B80006072FEF75FF821682844884203D9FEF777
:104B900059F8284420602068BDE87040FEF768B8E6
:104BA00070B505460846FEF76CF90446284600F045
:104BB0003BF8FEF745F8844200D204462C606C6056
:104BC00070BD000070B50446EFF3108572B6002C7E
:104BD00003D02046FFF776FF10B185F3108870BD33
:104BE0006068206001202072002060720D4E3068E5
:104BF00060B1FEF727F82168084420603168096831
:104C0000884209D22046FFF78FFF08E0FEF752F8EE
:104C10002046FFF789FF02E02046FFF791FF85F36A
:104C2000108870BD5C00002070B5EFF3108472B680
:104C3000184D29680A4600290BD050B1002606728B
:104C4000814216D1487A012806D0486978B1286097
:104C50001CE084F3108870BD4E72486918B128605A
:104C6000FFF788FF12E0FEF7E9F82E600EE02E60F5
:104C70000CE0814206D1486908B1506106E000208D
:104C8000506103E00A4649690029F2D184F3108893
:104C900070BD00005C0000200FB4F0B5C5B04BAB98
:104CA0004FF4807104A84A9A00F038FC82B2019255
:104CB00000250395EFF3108472B604A9114801F0A2
:104CC00054FA0646300003D10F4F3878012806D039
:104CD00084F3108845B03046F0BC5DF814FB01AA9F
:104CE00002A9084801F0ACFA3D7001212020FEF72E
:104CF00079F984F31088BDF80410029801F030FCB3
:104D0000E8E70000700600205800002090F824100A
:104D100011F0010F06D001684A68836A22F400325C
:104D20001A434A6090F8241011F0020F06D001686F
:104D30004A68C36A22F480321A434A6090F8241009
:104D400011F0040F06D001684A68036B22F4802238
:104D50001A434A6090F8241011F0080F06D0016839
:104D60004A68436B22F400421A434A6090F82410C8
:104D700011F0100F06D001688A68836B22F480520C
:104D80001A438A6090F8241011F0200F06D00168B1
:104D90008A68C36B22F400521A438A6090F8241088
:104DA00011F0400F11D001684A68036C22F48012A0
:104DB0001A434A60016CB1F5801F06D101684A6848
:104DC000436C22F4C0021A434A6090F8241011F098
:104DD000800F06D001684A68806C22F400221043DC
:104DE00048607047F8B504460026E667FCF740F9CE
:104DF0000746206800686FF07E4510F0080F0AD063
:104E00003B4600224FF400112046009500F0CEFAF8
:104E100008B10320F8BD2068006810F0040F0AD024
:104E20003B4600224FF480012046009500F0BEFA78
:104E300008B10320F8BD20206067A06784F8706087
:104E40000020F8BD10B5806A0021A0F85A10A0F823
:104E50005210FDF7A3FB10BD70B5846A606FA56F9B
:104E6000216889684FF0000611F0800F06D02128D4
:104E700004D1A4F85260204600F04EF82068806803
:104E800010F0400F06D0222D04D1A4F85A6020461D
:104E900000F026F8E06F40F01000E0672046FDF7D4
:104EA0007DFB70BD10B50146886A0968096811F07C
:104EB000200F02D0FDF78EFD10BD0021A0F852108A
:104EC00001688A6822F080028A600068016841F007
:104ED0004001016010BD10B5806AFDF781FD10BD75
:104EE00001680A6822F490720A6001688A6822F0F8
:104EF00001028A602021816700210166704710B598
:104F000001680A6822F040020A60202141670021FE
:104F10004166FDF75FFD10BD01680A6822F0C0021E
:104F20000A6020214167704710B5B0F85C20836F9C
:104F30000168222B04D0088B40F00800088310BDC4
:104F40008B8C416D1A400A80416D891C4165B0F817
:104F50005A10491EA0F85A10B0F85A100029EED184
:104F600001680A6822F490720A6001688A6822F077
:104F700001028A602021816700210166FDF7A6FCFD
:104F800010BD10B5B0F85C20836F0168222B04D0EF
:104F9000088B40F00800088310BD898C1140426DD9
:104FA0001170416D491C4165B0F85A10491EA0F8B6
:104FB0005A10B0F85A100029EED101680A6822F49C
:104FC00090720A6001688A6822F001028A602021DA
:104FD000816700210166FDF779FC10BD2DE9F047DE
:104FE0000546002600270021E94B2868D5F810C0A7
:104FF000AA68EC6942EA0C02D5F814C04CEA040C29
:1050000042EA0C02D0F800C0E24C0CEA040C4CEA74
:105010000202026028684268D5F80CC022F44052AF
:1050200042EA0C024260A8692A689A4203D0D5F885
:1050300020C04CEA0000D2F808C02CF4306C4CEAD6
:10504000000090602868D44AA0F1804CBCF59C3CDC
:1050500025D0A0F1804CBCF5884C35D0A0F1804C17
:10506000BCF5904C45D0A0F1804CBCF5984C55D087
:10507000A0F1804CBCF5A04C65D0984273D1D2F819
:10508000882012F440627BD0B2F5806F7CD0B2F5FC
:10509000006F77D0B2F5406F78D0102479E0D2F865
:1050A000882012F0030207D0012A09D0022A05D075
:1050B000032A07D010246CE001246AE0022468E08F
:1050C000042466E0082464E0D2F8882012F00C0280
:1050D00007D0042A09D0082A05D00C2A07D01024AA
:1050E00057E0002455E0022453E0042451E0082452
:1050F0004FE0D2F8882012F0300207D0102A09D0F1
:10510000202A05D0302A07D0102442E0002440E0B5
:1051100002243EE004243CE008243AE0D2F888204F
:1051200012F0C00207D0402A09D0802A05D0C02A38
:1051300007D010242DE000242BE0022429E00424D1
:1051400027E0082425E0D2F8882012F440720FD01E
:10515000B2F5807F10D0B2F5007F0BD0B2F5407F62
:105160000CD0102415E013E00AE00DE00AE00DE099
:1051700000240EE002240CE004240AE0082408E0E5
:10518000002406E0022404E0042402E0082400E0F5
:105190001024824A4FF00008984262D194B1022C48
:1051A00014D0042C14D0082C16D00127002957D075
:1051B0006A6802EB4200884202D8B1EB023F0ED986
:1051C0000127DDE0FCF700F90146EFE71146EDE7C6
:1051D000FCF71EF90146E9E74FF40041E6E774B138
:1051E000022C1AD0042C22D0082C2ED001276C4976
:1051F000A6F54070884232D82868C660C0E0FCF747
:10520000E3F86A68010E03025008181841EB080120
:105210000023FAF7D7FF0646E9E76249500840182D
:1052200048F100010023FAF7CDFF0646DFE7FCF75F
:10523000EFF86A68010E03025008181841EB0801E4
:105240000023FAF7BFFF0646D1E7500810F500002B
:1052500048F100010023FAF7B5FF0646C7E701272A
:105260008EE0E8694FF6EF79B0F5004F08D0092CD1
:105270007DD2DFE804F04D57617C687C7C7C730054
:10528000092C35D2DFE804F0050F19342134343409
:105290002B00FCF799F84100686801EB5001B1FB65
:1052A000F0F086B225E0FCF7A1F84100686801EB58
:1052B0005001B1FBF0F086B21BE03B49686801EB9E
:1052C0005001B1FBF0F086B213E0FCF7A1F8410009
:1052D000686801EB5001B1FBF0F086B209E0686844
:1052E0004FF4803101EB5001B1FBF0F086B200E0E9
:1052F0000127A6F11000484508D84FF6F07030405D
:10530000C6F3420108432968C86039E0012737E045
:10531000FCF75AF80146686801EB5001B1FBF0F068
:1053200086B225E0FCF762F80146686801EB50019F
:10533000B1FBF0F086B21BE0686802EB5001B1FBF4
:10534000F0F086B214E0FCF763F80146686801EB00
:105350005001B1FBF0F086B20AE008E068684FF453
:10536000004101EB5001B1FBF0F086B200E00127F3
:10537000A6F11000484502D82868C66000E0012761
:10538000C5F86080C5F864803846BDE8F087000045
:1053900000800040F369FFEF001002400024F40099
:1053A000FFFC0F00000024F40048E8012DE9F04163
:1053B0000446069D884617461E462068C06938EA9E
:1053C000000016D00020B84210D1B5F1FF3F05D043
:1053D000FBF74EFE801BA8420DD865B12068C0695E
:1053E00038EA00001AD00020B842EED00020BDE814
:1053F000F0810120E7E72068016821F4D0710160A5
:105400002068816821F00101816020206067A06729
:10541000002084F870000320BDE8F0810120E3E75C
:1054200010B50E48FDF7C0F80C48FDF7B8F8202875
:1054300004D00A48FDF7B3F82028FAD10122084920
:105440000648FDF7E1F9002806D001220449034887
:10545000FDF7DAF90028F8D110BD0000F0050020B2
:1054600050000020FEE700002DE9F04705462846E1
:10547000FAF700FF400001F00BF804462846FAF75F
:10548000F9FE01F005F880462846FAF7F3FE4000E1
:1054900000F0FEFF814629464046FAF7F2FE154E1F
:1054A000002030702846FAF7E5FE3178884217D997
:1054B000114F3078295C3A5C514001F00F0104F83B
:1054C0001010295C3A5C514004EB4002090951700C
:1054D000401C30702846FAF7CDFE31788842E8D873
:1054E000484600F0F9FE404600F0F6FE2046BDE8D2
:1054F000F087000068000020246700080FB4054B07
:1055000010B503A9044A029800F080FA10BC5DF8B7
:1055100014FB0000BD620008540000207CB50C00A4
:105520001D461646014601D0601E00E00020CDE970
:105530000010064B6A462946304600F067FA002CF8
:1055400002D0009A002111707CBD00001961000892
:105550002DE9F0412DED020B9FED3D0B2DED028B62
:105560009FED3D8BDDE90254C4F30A50A0F2FF36F3
:10557000142E37DA002E18DA53EC102B9DED020BA7
:1055800051EC100BFAF786FE53EC182BFBF74CF896
:1055900057D2002CBCBF4FF00044002551DB54EA29
:1055A000050018BF2E4C1BD14BE02E4820FA06F701
:1055B00004EA070028431FD053EC102B9DED020B8B
:1055C00051EC100BFAF766FE53EC182BFBF72CF896
:1055D00037D2002C03DD4FF48010F0400444BC436C
:1055E00000252EE0332E07DCA6F114004FF0FF312A
:1055F00021FA00F73D4206D19DED020BBDEC028B76
:1056000002B0BDE8F08153EC102B9DED020B51EC84
:10561000100BFAF7E3FE53EC182BFBF705F810D24A
:10562000002C0DDD142E08BF641C09D0C6F1340017
:10563000012101FA00F02844A84238BF641C054645
:10564000BD43CDE902549DED020BD7E700000000F9
:105650009C7500883CE4377E0000000000000000DC
:105660000000F03FFFFF0F002DE9F0412DED020B90
:105670009FED3D0B2DED028B9FED3D8BDDE902543F
:10568000C4F30A50A0F2FF36142E37DA002E18DACF
:1056900053EC102B9DED020B51EC100BFAF7FAFDB9
:1056A00053EC182BFAF7C0FF57D2002CA4BF0024EC
:1056B000254652DA24F00040284318BF2E4C4CD027
:1056C0001AE02E4820FA06F704EA070028431FD004
:1056D00053EC102B9DED020B51EC100BFAF7DAFD99
:1056E00053EC182BFAF7A0FF37D2002C03DA4FF453
:1056F0008010F0400444BC4300252EE0332E07DC2C
:10570000A6F114004FF0FF3121FA00F73D4206D117
:105710009DED020BBDEC028B02B0BDE8F08153ECB5
:10572000102B9DED020B51EC100BFAF757FE53ECCA
:10573000182BFAF779FF10D2002C0DDA142E08BFBF
:10574000641C09D0C6F13400012101FA00F028449C
:10575000A84238BF641C0546BD43CDE902549DED07
:10576000020BD7E7000000009C7500883CE4377E00
:1057700000000000000000000000F0BFFFFF0F006D
:1057800010B52DED020B2DED088B84B09DED0C0BAB
:1057900051EC100BFBF704F841EC180B9DED0C0BD2
:1057A00053EC182B51EC100BFAF715FE41EC190BCA
:1057B0000D989FED290B10F0004F53EC102B51EC7E
:1057C000190B9FED21AB9FED22BB0ED0FBF744F8E8
:1057D0000ED953EC1B2B51EC190BFAF725FF1CD2F9
:1057E00014E000BF41EC180B17E0FBF735F806D2C8
:1057F00053EC1A2B51EC180BFAF7EDFDF2E753ECD2
:105800001B2B51EC190BFAF70FFF06D853EC1A2B90
:1058100051EC180BFAF73EFDE4E78DED028B9DEDA0
:105820000C0B18EE901A10EE900A8DED000B61F340
:105830001E0003909DED020B04B0BDEC088B02B07E
:1058400010BD000000000000000000000000F03F5C
:10585000000000000000E03F000000000000E0BF8A
:1058600002E008C8121F08C1002AFAD17047704729
:10587000002001E001C1121F002AFBD17047000087
:105880002DE9FF5F82B00021DDE90430020DDDF873
:1058900040B0034318D044F61050A2F2FF32424306
:1058A0001514119801281FD0A5EB0B00401C5FEACE
:1058B000000A4FF000064E4FDFF83891B0465046D0
:1058C00015D5CAF1000413E0119801244AA3012858
:1058D00001D16FEA0B010298119AC0E90031C0E9C9
:1058E000024206B000F08EB8CBF10000DFE70446BC
:1058F0000021404A491842EB0450CDE9001012E063
:10590000E00707D032463B4640464946FAF771FD6C
:105910008046894632463B4610461946FAF769FDED
:1059200006460F466410002CEAD1DDE90401DDE9EA
:105930000023BAF1000F06DAFAF75BFD42464B4648
:10594000FAF757FD05E0FAF7C9FD42464B46FAF76C
:10595000C5FD04460E460022284BFAF765FE03D823
:105960004FF0FF30014607E00022254B204631462C
:10597000FAF790FCFAF758FF102409E0002C0ADB34
:105980000A220023FAF71EFC039B30321A55641ECC
:1059900050EA0102F2D1641C039AC4F111031444C9
:1059A000119A012A03D0012208430DD10AE00843CD
:1059B00004D000204FF0110B119072E7A3EB0B0500
:1059C0006D1E0DE05B4504DD4FF0000205F10105A1
:1059D00004E003DA4FF00002A5F10105002AECD043
:1059E00002981199C0E90231C0E9004579E7000049
:1059F000000014400000F03F300000000000F043C1
:105A00000000E03F30BCBDE8C09F00002DE9FF4F23
:105A100095B09A46884606460025EEE1252877D1BE
:105A200000242746F94A0121039400E0044316F8B4
:105A3000013F203B01FA03F01042F7D130782A28C9
:105A400011D06FF02F033078A0F13002092A16D858
:105A5000039A44F0020402EB820203EB4202104478
:105A6000761C0390EFE758F8042B0392002A03DA20
:105A7000504244F40054039044F00204761C307801
:105A80002E2816D116F8010F44F004042A280DD050
:105A90006FF02F023078A0F13003092B09D807EB03
:105AA000870302EB4303C718761CF3E758F8047B1F
:105AB000761C30786C280FD006DC4C2817D068286C
:105AC0000DD06A2814D104E0742810D07A280FD1A0
:105AD0000DE044F400140AE044F4801401E044F4BE
