:020000040800F2
:10000000080B00209D010008D1390008593800086C
:10001000CD39000831090008916E00080000000089
:10002000000000000000000000000000B7430008CE
:100030006509000800000000D33900088B61000842
:10004000B7010008B70100084D620008B7010008B9
:10005000B7010008B7010008B7010008B7010008A0
:10006000B7010008B7010008B7010008B701000890
:10007000B7010008B7010008B7010008B701000880
:10008000B7010008B7010008B7010008B701000870
:10009000B7010008B7010008B7010008B701000860
:1000A000B7010008B7010008B7010008B701000850
:1000B0005D620008B7010008B7010008B701000839
:1000C000B7010008B7010008B7010008B701000830
:1000D000B7010008B7010008516E0008B701000819
:1000E000B7010008B7010008B7010008B701000810
:1000F000B7010008B7010008B7010008B701000800
:10010000B7010008B7010008B7010008B7010008EF
:10011000B7010008B7010008B7010008B7010008DF
:10012000B7010008B7010008B7010008B7010008CF
:10013000B7010008B7010008B7010008B7010008BF
:10014000B7010008B7010008B7010008B7010008AF
:10015000B7010008B7010008B7010008B70100089F
:10016000B7010008B7010008B7010008B70100088F
:10017000B7010008B7010008B7010008000000003F
:10018000B7010008B7010008DFF80CD000F0BEFB93
:1001900000480047E17C0008080B00200648804723
:1001A00006480047FEE7FEE7FEE7FEE7FEE7FEE75C
:1001B000FEE7FEE7FEE7FEE7FD61000889010008B3
:1001C0002DE9F05F0546002092469B46884606468C
:1001D000814640241BE0284641464746224600F01F
:1001E0006AFA53465A46C01A914110D3114618462E
:1001F000224600F051FA2D1A67EB01084F462246BD
:100200000120002100F048FA17EB00094E41201EA2
:10021000A4F10104DFDC484631462A46434600F09B
:1002200000B830BCBDE8C09F40EA01039B0703D083
:1002300009E008C9121F08C0042AFAD203E011F825
:10024000013B00F8013B521EF9D27047D2B201E0E7
:1002500000F8012B491EFBD270470022F6E710B5CB
:1002600013460A4604461946FFF7F0FF204610BD24
:100270002DE9FE4F804681EA0300C00F0C46009036
:1002800021F0004123F00045B8EB0200A94105D25E
:100290004046214690461C460B46024623F000404D
:1002A000104347D0270DC7F30A00C3F30A51029049
:1002B000401A019040286BDAC3F3130040F4801B0E
:1002C0000098924620B10023D2EB030A63EB0B0B9C
:1002D00001985946C0F14002504600F0DDF906464B
:1002E0000D4650465946019A00F0F5F910EB08000A
:1002F0006141002487EA115284EAE7731A4340D02F
:10030000009A62B3019A012A4FEA075215DC001BDA
:1003100061EB02014FF0004202EA0752CDE90042D0
:10032000001C41F5801132462B4600F02CFA03B038
:1003300000F045B840462146F9E7001B61EB020199
:10034000001C41F5801300185B412018A2F500172E
:1003500047EB030140EAD570B6196D4111E06D0815
:100360004FEA360645EAC0754FEA0752001B61EBBB
:100370000201001C41F5801149084FEA30000019C4
:10038000514132462B4603B000F01CB800F0ECB9E6
:100390000098012240000023D0EB020263EBE073DF
:1003A000009821464FEAE074B8EB000061EB0401CD
:1003B000E9E783F000435BE781F0004158E730BC98
:1003C000BDE8C08F30BCBDE8C04FFFF7DFBF2DE9EF
:1003D000FE4F81EA030404F0004421F00041009440
:1003E0004FF0000B23F0004350EA01045ED052EAC4
:1003F00003045BD0C3F30A54C1F30A552C44A4F29E
:10040000F3340194A0FB0254C1F3130141F48011B1
:10041000C3F3130343F4801301FB024400FB034EB8
:10042000840A970A44EA815447EA8357A4FB076881
:1004300002958D0A05FB07854FEA932C04FB0C54AB
:100440002705029D4FEA065847EA1637B5EB08051F
:100450006EEB070C870E920E47EA811742EA831271
:10046000A7FB0201B6EB0B0164EB00042B0D43EA82
:100470000C335E1844EB1C50DA465146E7FB020190
:10048000C5F313044FEA0B3343EA14534FEA043223
:10049000019C43EA0603A4F10C040294009CCDE9FC
:1004A00000B400F070F903B000F003B8002001467A
:1004B000F9E730BCBDE8C08F2DE9F04D81EA0304B7
:1004C00004F0004B21F0004514464FF0000A23F0E1
:1004D000004150EA050220D054EA01021DD0C5F3C4
:1004E0000A570246C5F31303C1F31300C1F30A56BA
:1004F00040F4801543F48013A7EB0608101BD64682
:1005000008F2FD3873EB050002D308F1010801E0A1
:1005100092185B41B8F1000F03DA00200146BDE8F4
:10052000F08D00204FF48011064684460EE0171B24
:1005300073EB050705D3121B63EB050306434CEA77
:10054000010C49084FEA300092185B4150EA01075C
:10055000EDD152EA030012D082EA040083EA0501D9
:10056000084305D0101BAB4106D20122002306E050
:1005700000224FF0004302E06FF0010253101AEB2B
:1005800006004CEB085110EB0A0041EB0B01BDE8F3
:10059000F04D00F0E9B80EB5C10F80EAE0700844F4
:1005A000CA07002140F233438DE80E000A460B468D
:1005B00000F0E9F803B000BD0EB540F233410291FE
:1005C0000021CDE900110A460B4600F0DCF803B02B
:1005D00000BDC1F30A5210B5C1F3130140F2FF335D
:1005E00041F480119A4201DA002010BD40F23343F9
:1005F0009A42A2F2334203DC524200F05CF810BD92
:10060000904010BD30B5041E71F1000404DB4FF0C2
:100610000044404264EB0101141E73F1000405DB49
:100620001C464FF00043524263EB0403994208BF5B
:10063000904230BD01F0004330B421F0004150EA57
:10064000010206D00A0DA2F56072C1F31301002A5F
:1006500002DC30BC00207047440F44EAC104C100F2
:10066000E01830BC00EBC25000F047B830B50B4684
:10067000014600202022012409E021FA02F59D42D2
:1006800005D303FA02F5491B04FA02F52844151EA6
:10069000A2F10102F1DC30BD202A04DB203A00FA8D
:1006A00002F1002070479140C2F1200320FA03F3C9
:1006B000194390407047202A04DB203A21FA02F0C7
:1006C0000021704721FA02F3D040C2F1200291408C
:1006D000084319467047202A06DBCB17203A41FA17
:1006E00002F043EAE07306E041FA02F3D040C2F1BF
:1006F000200291400843194670470029A8BF70475F
:10070000401C490008BF20F00100704710B4B0FA47
:1007100080FC00FA0CF050EA010404BF10BC7047E2
:1007200049B1CCF1200421FA04F411FA0CF118BFFC
:10073000012121430843A3EB0C01CB1D4FEA0061CB
:100740004FEA102042BF002010BC704700EBC3509E
:1007500010440029A4BF10BC7047401C490008BFCA
:1007600020F0010010BC704710B5141E73F1000496
:1007700008DA401C41F1000192185B411A4301D193
:1007800020F0010010BD2DE9F04D92469B4611B1BD
:10079000B1FA81F202E0B0FA80F220329046FFF71F
:1007A0007BFF04460F4640EA0A0041EA0B0153462C
:1007B0005A46084313D0114653EA010019D0C8F134
:1007C00040025046FFF777FF05460E465046594611
:1007D0004246FFF761FF084305D0012004E02046B0
:1007E0003946BDE8F08D0020054346EAE0762C430B
:1007F00037430A986305E40AA0EB08000022FD0ACB
:1008000044EA47540A3002D500200146E9E70105D1
:1008100010196941DDE9084500196941BDE8F04D4D
:10082000A2E700002DE9F041054621F000400C460A
:10083000284309D0C4F30A5040F23341884205DD11
:1008400028462146BDE8F0812846FBE740F2FE310C
:10085000884210DC0CDB4FEA043040EA155050EAC5
:10086000053105D0104804F0004101430020E9E7BC
:1008700000200146E6E7A0F233404642C6F14002BE
:1008800028462146FFF708FF0746884628462146A6
:100890003246FFF710FF43463A46FFF765FF324600
:1008A000BDE8F041FFF7F8BE0000F03FC1F30A5287
:1008B000C1F3130140F2FF3341F480119A4202DA8E
:1008C00000200146704740F233439A42A2F233427D
:1008D00002DC5242FFF7EFBEFFF7DEBE30B5041E6A
:1008E00071F1000404DB4FF00044404264EB01016D
:1008F000141E73F1000405DB1C464FF00043524206
:1009000063EB04038B4208BF824230BD064C074DA7
:1009100006E0E06840F0010394E8070098471034CF
:10092000AC42F6D3FFF734FCB8800008D88000084A
:1009300000BFFEE730B590F8444004F01C050124E8
:10094000AC40056C6C60046863608468102C04D152
:100950000468A2600468E16003E00468A1600468C0
:10096000E26030BD7047000000BF03A005F012FE3A
:1009700000BF00BFFEE700004572726F725F486102
:100980006E646C65720A0D002DE9F0470C46DDE9D6
:100990000867002100258C4600BF60E04FF0010889
:1009A00008FA01F504EA050CAC4557D1D0F80080EF
:1009B0004FEA410A4FF0030909FA0AF928EA09083F
:1009C000C0F80080D0F800804FEA410902FA09F926
:1009D00048EA0908C0F80080012A01D0022A27D17C
:1009E000D0F808804FEA410A4FF0030909FA0AF9E2
:1009F00028EA0908C0F80880D0F808804FEA4109C1
:100A000006FA09F948EA0908C0F80880D0F8049005
:100A10004FF0010808FA01F829EA0809C0F8049023
:100A2000D0F8048003FA01F948EA0908C0F8048004
:100A3000D0F80C804FEA410A4FF0030909FA0AF98D
:100A400028EA0908C0F80C80D0F80C804FEA410968
:100A500007FA09F948EA0908C0F80C80491C10296E
:100A60009CD3BDE8F08700000246002111E00B484E
:100A700050F8310090420AD8084B481C53F8300017
:100A8000904204D9184600EBC10000797047481C19
:100A9000C1B21529EBD300BFFEE700007C7F000840
:100AA0002DE9F84F04464FF000090020009014B9DA
:100AB000012000F003B9206920B12020005D012849
:100AC00000D100BF606D30B9204600F0FAF8002078
:100AD000A06584F8500020688168C1F3407131B18D
:100AE000206881686C4A1140816000BF00BF2068A7
:100AF00002F0BFFEA0B920688168684A114041F049
:100B00008051816000BF664800686649B0FBF1F023
:100B1000009002E00098401E009000980028F9D153
:100B2000206802F0A6FE48B9606D40F010006065D4
:100B3000A06D40F00100A0654FF00109206802F0AF
:100B40009DFE0646606D00F0100000287BD1002E4F
:100B5000FCD1606D20F4807040F002006065206878
:100B600002F082FED0B9504802F07EFE82464F4825
:100B700002F07AFE4AEA000A4D4802F075FE4AEA9F
:100B8000000ABAF1000F09D160684A49896821F466
:100B90007C110143474A916000BF00BF607E616BDA
:100BA00041EA4030E1680843A16808432021095D1B
:100BB00040EA01452020005D012803D1A08C401EA1
:100BC00045EA4045A06A28B1208D00F47070E16AC2
:100BD000084305432068C068374908402843216816
:100BE000C860206802F04AFE8046206802F037FEA6
:100BF0000746B8F1000F2DD127BB207E002141EA26
:100C0000803194F8300041EA40052068C06844F221
:100C10000201884328432168C86094F838000128FD
:100C200012D1E06B40F00101206C0843616C084375
:100C3000A16C08432168096940F2FC7291430843A2
:100C40002168086106E01FE02068006920F00100CB
:100C5000216808612069012809D12068006B20F013
:100C60000F00E169491E08432168086305E0206818
:100C7000006B20F00F0021680863606D20F0020017
:100C800040F00100606505E0606D40F010006065B7
:100C90004FF0010948460CE7C0FFFF5FC0FFFF7F30
:100CA0000C000020400D030000000450000104501F
:100CB000000204500003045007C0F0FF18BCBDE858
:100CC000E08F704770B50446002594F8250002288F
:100CD00003D00420E063012520E02068006820F0B4
:100CE0000E00216808602068006820F0010021687B
:100CF000086094F8440000F01C0101208840216C39
:100D00004860012084F8250000BF002084F82400FA
:100D100000BFA06B10B12046A16B8847284670BD6C
:100D20002DE9F04104460D4616461F464FF00008D7
:100D300000BF94F82400012802D10220BDE8F08110
:100D4000012084F8240000BF94F8250001282CD14C
:100D5000022084F825000020E0632068006820F06D
:100D60000100216808603B46324629462046FFF7CD
:100D7000E1FD206B30B12068006840F00E00216872
:100D800008600BE02068006820F00400216808601B
:100D90002068006840F00A00216808602068006848
:100DA00040F001002168086006E000BF002084F8E0
:100DB000240000BF4FF002084046BFE770B504466C
:100DC00000F018F906462546681C10B10448006872
:100DD000054400BF00F00EF9801BA842FAD370BD95
:100DE0000800002078B503460022E5E00126964081
:100DF0000D6805EA0604002C7DD04D68022D02D056
:100E00004D68122D13D1D60803F1200555F82600A0
:100E10005507EE0E0F25B540A8435607F60E0D698F
:100E2000B5402843D60803F1200545F82600186888
:100E300056000325B540A8430D7905F0030556007B
:100E4000B540284318604D68012D08D04D68022D2B
:100E500005D04D68112D02D04D68122D13D1986820
:100E600056000325B540A8435600CD68B540284339
:100E70009860586801259540A8430D79C5F3001581
:100E80009540284358600D7905F00305032D09D1DD
:100E9000D86A01259540A8430D79C5F3C005954052
:100EA0002843D862D86856000325B540A8435600A9
:100EB0008D68B5402843D8604D6805F08055B5F180
:100EC000805F78D100BF3F4D2D6E45F001053D4E4E
:100ED000356635462D6E05F00105009500BF00BF53
:100EE0004FEAB635960855F8260095072E0F0F25C0
:100EF000B540A84300E05EE0B3F1904F01D100257A
:100F00001EE0314DAB4201D1012519E02F4DAB421E
:100F100001D1022514E02E4DAB4201D103250FE093
:100F20002C4DAB4201D104250AE02B4DAB4201D13F
:100F3000052505E0294DAB4201D1062500E0072536
:100F40009607360FB5402843254D960845F82600EC
:100F5000244D2868A0434D6805F48035B5F5803FE1
:100F600000D120431F4D28602D1D2868A0434D68E7
:100F700005F40035B5F5003F00D12043194D2D1D76
:100F800028602D1D2868A0434D6805F48015B5F52F
:100F9000801F00D12043134D083528602D1D28687F
:100FA000A0434D6805F40015B5F5001F00D120439E
:100FB0000C4D0C352860521C0D68D540002D7FF477
:100FC00015AF78BD0010024000040048000800483A
:100FD000000C0048001000480014004800180048A9
:100FE00008000140000401400AB1816100E0816213
:100FF00070470000014800687047000000000020B2
:1010000003480068034909680844014908607047BB
:10101000000000200800002010B50024032000F08C
:1010200089F80F2000F008F808B1012401E000F071
:101030002FF8204610BD000070B504460025114869
:101040000068D8B10F4800684FF47A71B1FBF0F036
:101050000D490968B1FBF0F6304601F0E1FD58B9E1
:10106000102C07D200222146501E00F022F807481B
:10107000046004E0012502E0012500E00125284686
:1010800070BD0000080000200C00002004000020BB
:10109000704701460846002809DB00F01F030122C3
:1010A0009A4043099B0003F1E023C3F8002100BFED
:1010B00070472DE9F05F80460D461646002705F083
:1010C0000FFF074639462A46334601F00700C0F1B4
:1010D000070ABAF1040F02D94FF0040A01E0C0F187
:1010E000070AD14600F1040ABAF1070F02D24FF005
:1010F000000A01E0A0F1030AD4464FF0010A0AFAFF
:1011000009FAAAF1010A0AEA020A0AFA0CFA4FF0ED
:10111000010B0BFA0CFBABF1010B0BEA030B4AEAD8
:101120000B042146404605F0E3FE00F000B830BC59
:10113000BDE8C09F00BF00F00702064B19684FF6DC
:10114000FF031940044B0B4343EA0221014B196092
:1011500000BF70470CED00E00000FA05024800688F
:1011600000F4C06070470000007000400348006851
:1011700040F4807001490860704700000070004032
:101180002DE9F84304460025A846208800F40060B5
:10119000B0F5006F30D1606E80B1B0F5800F13D024
:1011A000B0F5000F03D0B0F5400F15D113E0FB48A8
:1011B000C06840F48030F949C8600FE00021201D6C
:1011C00002F008FC054609E0002104F1200002F0CD
:1011D000C7FC054602E001E0012500BF00BF55B98C
:1011E000EE488830006820F44000616E0843EB4907
:1011F000C1F8880000E0A846208800F48050B0F5CF
:10120000805F30D1A06E80B1B0F1807F13D0B0F19B
:10121000007F03D0B0F1407F15D113E0DF48C068F4
:1012200040F48030DD49C8600FE00021201D02F04D
:10123000D1FB054609E0002104F1200002F090FCFA
:10124000054602E001E0012500BF00BF55B9D348C3
:101250008830006820F04070A16E0843CF49C1F883
:10126000880000E0A846206800F40030B0F5003F98
:1012700077D14FF00009C948806D012121EA107033
:1012800078B100BFC548806D40F08050C349886583
:101290000846806D00F08050009000BF00BF4FF006
:1012A0000109BF48006840F48070BD490860FFF73D
:1012B000A1FE074606E0FFF79DFEC01B022801D9EC
:1012C000032505E0B648006800F480700028F2D0DD
:1012D00000BF85BBB1489030006800F44076D6B1BD
:1012E000D4F88400B04216D0AC489030006820F4A6
:1012F0004076AA48D0F8900040F48030A749C1F861
:1013000090000846D0F8900020F48030C1F890009A
:101310000846C0F8906006F00100A8B1FFF76AFE29
:10132000074609E0FFF766FEC01B41F2883188429C
:1013300002D9032507E017E098489030006800F0D4
:1013400002000028EED000BF65B9944890300068D4
:1013500020F44070D4F8841008439049C1F89000FC
:1013600003E00CE0A84600E0A846B9F1010F05D162
:101370008A48806D20F080508849886500BF2078B9
:1013800000F0010048B185488830006820F0030073
:10139000A16B08438149C1F88800207800F0020061
:1013A000022809D17D488830006820F00C00E16BEC
:1013B00008437A49C1F88800207800F00400042826
:1013C00009D176488830006820F03000216C08434D
:1013D0007249C1F88800207800F00800082809D177
:1013E0006E488830006820F0C000616C08436B498B
:1013F000C1F88800207800F01000102809D1674853
:101400008830006820F44070A16C08436349C1F83B
:101410008800207800F02000202809D15F4888301B
:10142000006820F44060E16C08435C49C1F8880022
:10143000208800F40070B0F5007F09D1574888304B
:10144000006820F44020E16D08435449C1F8880049
:10145000208800F48060B0F5806F09D14F48883053
:10146000006820F44010216E08434C49C1F8880000
:10147000207800F04000402809D1484888300068B2
:1014800020F44050216D08434449C1F88800207879
:1014900000F08000802809D140488830006820F49E
:1014A0004040616D08433D49C1F88800208800F440
:1014B0008070B0F5807F09D138488830006820F40A
:1014C0004030A16D08433549C1F88800208800F4F8
:1014D0000050B0F5005F1FD130488830006820F020
:1014E0004060E16E08432D4988310860E06EB0F13C
:1014F000006F06D12948C06840F480102749C860B1
:101500000AE0E06EB0F1806F06D10121201D02F0EB
:1015100061FA054605B1A846206800F40020B0F540
:10152000002F1FD11D488830006820F04060216FD7
:1015300008431A4988310860206FB0F1006F06D166
:101540001648C06840F480101449C8600AE0206F53
:10155000B0F1806F06D10121201D02F03BFA054653
:1015600005B1A846206800F48020B0F5802F24D172
:101570000A488830006820F04060616F08430749DE
:1015800088310860606FB0F1006F0BD10348C0680C
:1015900040F480100149C8600FE0000000100240D4
:1015A00000700040606FB0F1806F06D10121201DF6
:1015B00002F010FA054605B1A846208800F48040E4
:1015C000B0F5804F1FD12248006820F04050A16F35
:1015D00008431F490860A06FB0F1805F07D1022166
:1015E000201D02F0F7F905466DB1A8460BE0A06F8B
:1015F000B0F1005F07D1022104F1200002F0B0FA3F
:10160000054605B1A846208800F40040B0F5004F1B
:1016100009D10F48006820F08040E16F08430C4971
:101620008839C1F88800206800F48030B0F5803F28
:101630000AD10748006820F00040D4F88010084321
:1016400003498839C1F888004046BDE8F8830000A6
:10165000881002402DE9F04104460D4614B90120DE
:10166000BDE8F0815548006800F00700A8420ED29E
:101670005248006820F00700284350490860084697
:10168000006800F00700A84201D00120E8E72078B8
:1016900000F00100002840D06068032806D14848C7
:1016A000006800F00070D8B90120D9E7606802280E
:1016B00006D14348006800F4003088B90120CFE724
:1016C000606830B93E48006800F0020040B901206F
:1016D000C6E73B48006800F4806008B90120BFE716
:1016E0003748806820F00300616808433449886007
:1016F000FFF780FC064608E0FFF77CFC801B41F208
:101700008831884201D90320AAE72D48806800F07B
:101710000C006168B0EB810FEED1207800F0020080
:10172000022807D12648806820F0F000A16808430D
:10173000234988602148006800F00700A8420ED9BC
:101740001E48006820F0070028431C49086008462E
:10175000006800F00700A84201D0012080E720784F
:1017600000F00400042807D11548806820F4E060E8
:10177000E168084312498860207800F008000828D2
:1017800008D10F48806820F46050216940EAC10008
:101790000B49886000F046F809498968C1F30311D4
:1017A000084A515C01F01F01C8400749086007481A
:1017B0000068FFF741FC0746384651E70020024029
:1017C00000100240047F00080C00002004000020EC
:1017D00001480068704700000C00002000B5FFF7CA
:1017E000F7FF05498968C1F30221044A515C01F001
:1017F0001F01C84000BD000000100240147F000817
:1018000000B5FFF7E5FF05498968C1F3C221044A25
:10181000515C01F01F01C84000BD000000100240F3
:10182000147F0008F0B500230020DFF8D4C0DCF8F6
:1018300008C00CF00C01DFF8C8C0DCF80CC00CF0DC
:10184000030719B10C291ED1012F1CD1DFF8B0C03C
:10185000DCF800C00CF0080CBCF1000F06D1DFF87A
:10186000A0C0DCF894C0CCF3032305E0DFF890C0FF
:10187000DCF800C0CCF30313DFF888C05CF8233039
:1018800041B9184606E0042901D11F4802E00829A1
:1018900000D11E480C2932D1DFF864C0DCF80CC03E
:1018A0000CF00304012C09D0022C02D0032C04D12B
:1018B00001E0154A04E0154A02E000BF1A4600BFE5
:1018C00000BFDFF83CC0DCF80CC0CCF3021C0CF10C
:1018D0000106DFF82CC0DCF80CC0CCF3062C0CFBA6
:1018E00002FCBCFBF6F2DFF818C0DCF80CC0CCF34D
:1018F000416C0CF1010C4FEA4C05B2FBF5F0F0BD68
:10190000001002401C7F00080024F40000127A003E
:101910002DE9F843044614B90120BDE8F883F948DD
:10192000806800F00C07F748C06800F003062078D4
:1019300000F01000102876D11FB10C2F75D1012EA8
:1019400073D1F048006800F0020018B1A06908B92E
:101950000120E2E7EB48216A006800F0080020B1AE
:10196000E848006800F0F00005E0E64894300068C0
:1019700000F47060000981421FD9206A02F0A2F9C8
:1019800008B10120C9E700BFDE48006840F0080048
:10199000DC4908600846006820F0F000216A08432E
:1019A000D849086000BF0846406820F47F40E169DC
:1019B00040EA0120D34948601EE000BFD1480068DA
:1019C00040F00800CF4908600846006820F0F000A9
:1019D000216A0843CB49086000BF0846406820F4EC
:1019E0007F40E16940EA0120C6494860206A02F070
:1019F00069F908B1012090E7FFF714FFC149896830
:101A0000C1F30311C04A515C01F01F01C840BF4936
:101A10000860BF480068FFF70FFB8046B8F1000F71
:101A20004ED0404679E74BE0FFE7A06980B3B54868
:101A3000006840F00100B3490860FFF7DBFA054693
:101A400006E0FFF7D7FA401B022801D9032064E71C
:101A5000AC48006800F002000028F2D000BFA9489E
:101A6000006840F00800A74908600846006820F0B8
:101A7000F000216A0843A349086000BF0846406897
:101A800020F47F40E16940EA01209E49486017E068
:101A9000FFE79C48006820F001009A490860FFF7C2
:101AA000A9FA054606E0FFF7A5FA401B022801D96E
:101AB000032032E79348006800F002000028F2D1CA
:101AC000207800F0010000285CD0082F03D00C2FF4
:101AD0000AD1032E08D18B48006800F4003088B387
:101AE000606878BB012018E700BF6068B0F5803FF0
:101AF00006D18448006840F48030824908601AE0CA
:101B00006068B0F5A02F0BD17E48006840F48020BB
:101B10007C4908600846006840F4803008600AE0AC
:101B20007848006820F480307649086008460068EC
:101B300020F48020086000BF606890B1FFF75AFA77
:101B4000054607E01EE0FFF755FA401B642801D95F
:101B50000320E2E66B48006800F400300028F2D071
:101B600010E0FFF747FA054606E0FFF743FA401B8F
:101B7000642801D90320D0E66248006800F40030F0
:101B80000028F2D1207800F00200022852D1042F60
:101B900003D00C2F14D1022E12D15A48006800F441
:101BA000806018B1E06808B90120B6E65548406881
:101BB00020F0F850217C40EA01605249486039E049
:101BC000E06800B34F48006840F480704D490860F9
:101BD000FFF710FA054606E0FFF70CFA401B022853
:101BE00001D9032099E64748006800F48060002886
:101BF000F2D04448406820F0F850217C40EA01606F
:101C00004049486016E03F48006820F480703D4934
:101C10000860FFF7EFF9054606E0FFF7EBF9401B18
:101C2000022801D9032078E63648006800F4806075
:101C30000028F2D1207800F00800082836D1606929
:101C4000D0B130489430006840F001002D49C1F80F
:101C50009400FFF7CFF9054606E0FFF7CBF9401BEC
:101C6000022801D9032058E626489430006800F085
:101C700002000028F1D019E022489430006820F0DA
:101C800001002049C1F89400FFF7B4F9054606E0C9
:101C9000FFF7B0F9401B022801D903203DE619489F
:101CA0009430006800F002000028F1D1207800F0A4
:101CB0000400042873D14FF000091248806D00F031
:101CC000805078B900BF0F48806D40F080500D49BA
:101CD00088650846806D00F08050009000BF00BF0E
:101CE0004FF001090B48006800F4807008BB0948F8
:101CF000006840F4807007490860FFF77BF90546EB
:101D000011E0000000100240047F00080C000020D9
:101D10000400002000700040FFF76CF9401B02280F
:101D200001D90320F9E59948006800F48070002883
:101D3000F2D000BFA068012808D19548006840F0A3
:101D4000010093499039C1F8900021E0A06805286E
:101D50000FD18F48006840F004008D499039C1F8D8
:101D600090000846D0F8900040F00100C1F89000C3
:101D70000EE08748006820F0010085499039C1F8DD
:101D800090000846D0F8900020F00400C1F89000C0
:101D900000BFA068A0B1FFF72DF9054609E02EE0CD
:101DA000FFF728F9401B41F28831884201D903200E
:101DB000B3E57748006800F002000028F0D012E098
:101DC000FFF718F9054608E0FFF714F9401B41F248
:101DD0008831884201D903209FE56D48006800F0F2
:101DE00002000028F0D1B9F1010F07D168489038FE
:101DF000806D20F0805066499039886500BFA06AE8
:101E000000285BD00C2F78D0A06A022857D16048F8
:101E10009038006820F080705D4990390860FFF7C5
:101E2000E9F8054606E0FFF7E5F8401B022801D96E
:101E3000032072E556489038006800F000700028D2
:101E4000F1D1D4E90B10401E41EA0011606B41EA68
:101E50000021A08F0122C2EB500041EA40514020F6
:101E6000005DC2EB500041EA4061A06B000941EA0D
:101E7000404047499039C968464A1140084344499F
:101E80009039C8600846006840F0807008600846D5
:101E9000C06840F08070C860FFF7ACF8054606E007
:101EA000FFF7A8F8401B022801D9032035E5384880
:101EB0009038006800F000700028F1D064E03448E9
:101EC0009038006820F080703149903908600846E9
:101ED000006800F0205020B90846C06820F00300D8
:101EE000C8602B489038C0682B4908402849903971
:101EF000C860FFF77FF8054607E00EE0FFF77AF8C5
:101F0000401B022801D9032007E5214890380068CA
:101F100000F000700028F1D136E0A06A012800D15D
:101F2000FBE41B489038C66806F00301E06A814272
:101F300028D106F07001206B401EB1EB001F21D1AB
:101F400006F4FE41606BB1EB002F1BD106F40031AB
:101F5000A06B072801D0012000E00020814211D1B0
:101F600006F4C001A08F0122C2EB5000B1EB405F2C
:101F700008D106F0C0614020005DC2EB5000B1EB1B
:101F8000406F01D00120C8E40020C6E4007000408A
:101F9000901002408C809DF9FFFFEEFE014600BFCD
:101FA00091F82000012801D102207047012081F81A
:101FB000200000BF022081F8210000BFCA200A686B
:101FC000506253200A68506200BF0868806840F081
:101FD00020000A68906000BFFF200A68506200BFBE
:101FE000012081F8210000BF002081F8200000BFFF
:101FF00000BFDAE730B50346144600BF93F820006F
:10200000012801D1022030BD012083F8200000BF4B
:10201000022083F821001868806840F6080520EA4D
:1020200005020A4300BFCA201D68686253201D686C
:10203000686200BF186882601868806840F40060B9
:102040001D68A8601868806840F400401D68A8609A
:102050000E48006840F400200C4D28600B48083002
:10206000006840F40020094D0835286000BFFF20BB
:102070001D68686200BF012083F8210000BF0020B6
:1020800083F8200000BF00BFBDE70000000401404E
:10209000704770477047000010B504464FF40020A9
:1020A0003249086020688068C0F3C03078B1206889
:1020B000C068C0F3C02050B1204600F061F820682D
:1020C000C06800F0800060F408602168C860206883
:1020D000006C2749084008B1012000E0002078B1D9
:1020E0002068C068C0F3403050B12068C06800F07C
:1020F000800060F402502168C8602046FFF7C8FFE6
:102100002068006C1B49084008B1012000E0002055
:1021100078B12068C068C0F3803050B12068C068D2
:1021200000F0800060F481402168C8602046FFF71D
:10213000B0FF2068006C1049084008B1012000E0A1
:10214000002078B12068C068C0F3C03050B120686A
:10215000C06800F08000094908432168C860204633
:10216000FFF798FF012084F8210010BD14040140FE
:102170000400010004000800040040007F7FFFFF0E
:10218000704770B504460D4600BF94F82000012842
:1021900001D1022070BD012084F8200000BF022080
:1021A00084F8210000BFCA202168486253202168BA
:1021B000486200BFB5F5807F2BD12068806820F48D
:1021C0008070216888602068806820F480502168D1
:1021D0008860FEF70FFF064614E0FEF70BFF801B3A
:1021E000B0F57A7F0ED900BFFF202168486200BF9A
:1021F000032084F8210000BF002084F8200000BFE5
:102200000320C7E72068C06800F001000028E4D080
:102210002BE02068806820F40070216888602068C6
:10222000806820F4005021688860FEF7E3FE0646CF
:1022300014E0FEF7DFFE801BB0F57A7F0ED900BFF9
:10224000FF202168486200BF032084F8210000BFFE
:10225000002084F8200000BF03209BE72068C068AE
:10226000C0F340000028E4D000BF00BFFF20216879
:10227000486200BF012084F8210000BF002084F8DC
:10228000200000BF00BF85E770B505460B46164627
:10229000286840680E4900EA0104200CD870C4F395
:1022A0000420587004F03F009870C4F34230187056
:1022B0005EB9D87801F054FDD870587801F050FD1F
:1022C0005870987801F04CFD9870002070BD0000A7
:1022D0003FFFFF0070B504460B4616462068806A33
:1022E000586020680069C0F30E009860206800689C
:1022F0000E4900EA0105C5F305401870C5F3062034
:10230000587005F07F009870A80DD8705EB91878E5
:1023100001F026FD1870587801F022FD5870987869
:1023200001F01EFD9870002070BD00007F7F7F00CF
:1023300070B504460125002C4FD094F8210028B92F
:10234000002084F82000204600F04CF8022084F899
:10235000210000BFCA2021684862532021684862DA
:1023600000BF204601F014FD0546002D35D1206840
:1023700080681B49084021688860216960680843BB
:10238000A169084321688968084321688860216839
:10239000E068086120680169208941EA00402168FD
:1023A0000861204601F016FD0546B5B92068C06CED
:1023B00020F003002168C8646169E069084321686E
:1023C000C96C08432168C86400BFFF2021684862C7
:1023D00000BF15B9012084F82100284670BD000017
:1023E000BFFF8FFF10B5B4B0044600BF1B48806D1F
:1023F00040F08050194988650846806D00F0805093
:10240000009000BF00BFFEF7B1FE04202390002023
:102410002D900120259023A8FFF77AFA08B100BF7C
:10242000FEE74FF4003001904012229001A8FEF721
:10243000A7FE08B100BFFEE708489030006840F4EE
:1024400000400649C1F8900000220F210220FEF74B
:1024500030FE0220FEF71DFE34B010BD0010024019
:102460002DE9F04704460D46904600BF94F8200041
:10247000012802D10220BDE8F087012084F8200065
:1024800000BF022084F82100B8F1000F2AD1206893
:10249000806800F0400000B102E00020E87000BF5A
:1024A000E86900B900E000BF287801F063FC4FEA5A
:1024B0000049687801F05EFC49EA0029A87801F03B
:1024C00059FC49EA0009E87849EA805995F8200062
:1024D00001F050FC49EA0060E9690843696940EA93
:1024E00001061BE02068806800F0400000B102E0B7
:1024F0000020E87000BF28780004697840EA0120D5
:10250000A9780843E97840EA815095F8201040EA1C
:102510000160E9690843696940EA0106A9696868D8
:1025200040EA010700BFCA202168486253202168A1
:10253000486200BF686AB0F5807F3ED1206880683D
:1025400020F48070216888602068C06800F08000F6
:1025500060F4C0702168C860FEF74CFD814615E04C
:10256000FEF748FDA0EB0900B0F57A7F0ED900BF59
:10257000FF202168486200BF032084F8210000BFCB
:10258000002084F8200000BF032074E72068C068A2
:1025900000F001000028E3D02068C661206847648D
:1025A0002068806840F480702168886020688068B6
:1025B00040F48050216888603EE02068806820F404
:1025C0000070216888602068C06800F0800060F4B6
:1025D00020702168C860FEF70DFD814615E0FEF70A
:1025E00009FDA0EB0900B0F57A7F0ED900BFFF20EE
:1025F0002168486200BF032084F8210000BF00204A
:1026000084F8200000BF032035E72068C068C0F3CD
:1026100040000028E3D020680662206887642068B4
:10262000806840F40070216888602068806840F409
:1026300000502168886000BF0E48006840F4802088
:102640000C4908600B480830006840F480200949B4
:102650000831086000BFFF202168486200BF0120E8
:1026600084F8210000BF002084F8200000BF00BFD4
:1026700001E70000000401402DE9F04705460C4643
:10268000174600BF95F82000012802D10220BDE8BE
:10269000F087012085F8200000BF022085F8210086
:1026A0004FB9607800F01000102804D1607800F075
:1026B000EF000A30607097B9E07801F05BFB4FEAF9
:1026C0000049607801F056FB49EA0029A07801F042
:1026D00051FB49EA0009207849EA403809E0E078EE
:1026E0000004617840EA0120A1780843217840EA9B
:1026F000413800BFCA2029684862532029684862CF
:1027000000BF284601F044FB064646B90C4808EADB
:10271000000029684860284601F05CFB064600BFBF
:10272000FF202968486200BF16B9012085F8210002
:1027300000BF002085F8200000BF3046A7E700005A
:102740003FFFFF002DE9F04704460D46904600BFCD
:1027500094F82000012802D10220BDE8F087012072
:1027600084F8200000BF022084F8210000BFCA20A6
:102770002168486253202168486200BF204601F06A
:1027800007FB0646002E47D1B8F1000F1BD1206889
:10279000806800F0400000B102E00020E87000BF57
:1027A000287801F0E7FA4FEA0049687801F0E2FA88
:1027B00049EA0029A87801F0DDFA49EA0009E87839
:1027C00049EA805712E02068806800F0400000B1BC
:1027D00002E00020E87000BF28780004697840EA31
:1027E0000120A9780843E97840EA81571248384027
:1027F000216808602068806820F480202168886053
:10280000D5E9030108432168896808432168886085
:10281000204601F0DFFA064600BFFF20216848622B
:1028200000BF16B9012084F8210000BF002084F801
:10283000200000BF304690E77F7F7F0070B50446E0
:102840002068C06820F0A0002168C860FEF7D2FBB5
:10285000054607E0FEF7CEFB401BB0F57A7F01D9B5
:10286000032070BD2068C06800F020000028F1D06F
:102870000020F6E770B504460CB9012070BD606A0F
:1028800000B900BF0021A16294F85D0028B90020C2
:1028900084F85C00204600F04DF8022084F85D00CA
:1028A0002068006820F0400021680860E068B0F50A
:1028B000E06F01D9002501E04FF48055E068B0F5E4
:1028C000706F05D0E068B0F5E06F01D00021A16223
:1028D000206B40B9E068B0F5E06F02D902212163B6
:1028E00001E001212163D4E9010108432169084382
:1028F00061690843218B01F400710843E1690843D1
:10290000216A0843A16A0843216808600421A0697C
:1029100001EA1040616A0843616B0843E1680843BB
:1029200028432168486000202066012084F85D006B
:102930000020A3E770472DE9FF5F044689469246D1
:102940001D460E9E012001900020009000BF94F8CB
:102950005C00012803D1022004B000F04AB9012034
:1029600084F85C0000BFFEF745FB074694F85D0065
:10297000029060680390A846AB46029801280BD0ED
:102980000398B0F5827F04D1A06810B9029804289A
:1029900002D00220009022E1B9F1000F03D0BAF179
:1029A000000F00D015B90120009018E194F85D00E7
:1029B000042802D0052084F85D0000202066C4F8B9
:1029C00040A0A4F84650A4F84450C4F83890E587D5
:1029D000A587E0642065E068B0F5E06F02D8BBF140
:1029E000010F06D92068406820F4805021684860B3
:1029F00005E02068406840F4805021684860206805
:102A0000006800F04000402805D02068006840F0D1
:102A1000400021680860E068B0F5E06F4ED960685A
:102A200010B1B8F1010F09D1A06B00882168C8600E
:102A3000A06B801CA063E08F401EE08736E020681A
:102A4000806800F00200022810D1E08F70B1019878
:102A500001280BD1A06B00882168C860A06B801C86
:102A6000A063E08F401EE08700200190206880680E
:102A700000F0010080B1B4F8460068B12068C06879
:102A8000216C0880206C801C2064B4F84600401E35
:102A9000A4F8460001200190FEF7ACFAC01BB0423A
:102AA00004D3701C10B10320009098E0E08F002840
:102AB000C5D1B4F846000028C1D185E0606810B1E6
:102AC000B8F1010F17D1E08F01280AD9A06B008857
:102AD0002168C860A06B801CA063E08F801EE08727
:102AE00009E0A06B007821680873A06B401CA0630C
:102AF000E08F401EE08760E02068806800F0020000
:102B000002281ED1E08FE0B10198012819D1E08F91
:102B100001280AD9A06B00882168C860A06B801CBE
:102B2000A063E08F801EE08709E0A06B0078216839
:102B30000873A06B401CA063E08F401EE08700205C
:102B400001902068806800F0010058B3B4F8460096
:102B500040B3B4F84600012816D92068C068216C3B
:102B60000880206C801C2064B4F84600801EA4F805
:102B70004600B4F84600012812D82068406840F4A6
:102B80008050216848600BE02068007B216C087051
:102B9000206C401C2064B4F84600401EA4F8460097
:102BA00001200190FEF726FAC01BB04201D3701C31
:102BB00000B916B90320009011E0E08F00289BD1E6
:102BC000B4F84600002897D13A463146204601F035
:102BD00017FB18B1012000902020206600BF0120C3
:102BE00084F85D0000BF002084F85C0000BF0098FE
:102BF000B2E630BCBDE8C09F042808D14FF0E02108
:102C0000096941F004014FF0E022116107E04FF043
:102C1000E021096921F004014FF0E02211617047C1
:102C200070B504462546681EB0F1807F01D30120AF
:102C30000FE0681E4FF0E02148610F214FF0FF3098
:102C400004F056F900204FF0E02188610720086168
:102C5000002070BD10B504460CB9012010BD94F8D9
:102C60003D0028B9002084F83C00204600F00CF814
:102C7000022084F83D00211D206803F007FB01209D
:102C800084F83D000020E9E738B504462068B0F13B
:102C9000804F15D100BF0B48806D40F001000949FD
:102CA00088650846806D00F00100009000BF00BFFD
:102CB000002211461C20FEF7FCF91C20FEF7E9F962
:102CC00038BD00000010024001460868C06820F0CE
:102CD00001000A68D06000BF0868006A41F2111262
:102CE000104050B90868006A9210104028B908686E
:102CF000006820F001000A68106000BF00207047E3
:102D00007047704701464B6F8A6F43EA0200704775
:102D10002DE9F04704462068C569206806682068E8
:102D2000876805F00F08B8F1000F0CD105F02000FE
:102D300048B106F0200030B1206E10B12046216E5F
:102D40008847BDE8F087B8F1000F71D007F00100A7
:102D500018B906F49070002879D005F0010048B148
:102D600006F4807030B1012021680862E06F40F005
:102D70000100E06705F0020048B107F0010030B142
:102D8000022021680862E06F40F00400E06705F06F
:102D9000040048B107F0010030B104202168086246
:102DA000E06F40F00200E06705F0080060B106F057
:102DB000200010B907F0010030B108202168086236
:102DC000E06F40F00800E067E06F80B305F020009E
:102DD00038B106F0200020B1206E10B12046216EDF
:102DE0008847D4F87C902068806800F04000402834
:102DF00002D009F0080020B3204603F01CFD206833
:102E0000806800F04000402817D12068806820F0DA
:102E1000400021688860E06E58B12048E16E886308
:102E2000E06EFDF74FFF10B1E06E816B88470DE05B
:102E30000DE02046FFF765FF08E02046FFF761FF41
:102E400004E02046FFF75DFF0020E06779E705F426
:102E5000801050B107F4800038B14FF48010216821
:102E600008622046FFF74CFF6BE705F0800040B199
:102E700006F0800028B1606E10B12046616E884770
:102E80005FE705F0400030B106F0400018B1204681
:102E900003F0E2FC55E700BF53E70000836700083A
:102EA00010B504460CB9012010BDA06900B100E0C6
:102EB00000BF606F28B9002084F87000204600F041
:102EC00029F8242060672068006820F0010021684C
:102ED0000860204603F042FD012800D1E4E7606A63
:102EE00010B1204603F09AFB2068406820F490401F
:102EF000216848602068806820F02A002168886086
:102F00002068006840F0010021680860204603F056
:102F100001FCC9E710B586B004461F492068884205
:102F200038D100BF1D48C06C40F001001B49C86487
:102F30000846C06C00F00100009000BF00BF00BF59
:102F40000846806D40F4003088650846806D00F4C6
:102F50000030009000BF00BF0420019002200290CA
:102F600001200390022004900720059001A94FF052
:102F70009040FDF737FF0820019001A94FF09040E5
:102F8000FDF730FF2620FEF784F8032200212620DB
:102F9000FEF78FF806B010BD00440040001002405C
:102FA00010B50346986F202865D101B10AB90120F8
:102FB00010BD00BF93F87000012801D10220F7E78F
:102FC000012083F8700000BF5965A3F85820A3F8CA
:102FD0005A200020186600BF9868B0F5805F0AD1BB
:102FE000186920B940F2FF10A3F85C0020E0FF2030
:102FF000A3F85C001CE0986848B9186918B9FF206C
:10300000A3F85C0014E07F20A3F85C0010E098684F
:10301000B0F1805F09D1186918B97F20A3F85C006E
:1030200006E03F20A3F85C0002E00020A3F85C006B
:1030300000BF0020D867222098671868806840F099
:1030400001001C68A0609868B0F5805F04D1186921
:1030500010B90A48186601E00948186600BF002048
:1030600083F8700000BF1868006840F490701C6816
:10307000206000209CE702209AE700008B6800088F
:10308000F56800081D4A0168914236D11C4909883B
:1030900001F4004189BB1A49098801F4804171B1EA
:1030A000184909780A2903D00021154A118024E023
:1030B0001349098841F40041114A11801DE011496A
:1030C00009780D2906D10E49098841F480410C4A3E
:1030D000118012E00B490978094A1288C2F30D02E7
:1030E000094B995406490988491C054A1180114623
:1030F0000988C72901DD0021118070470044004084
:10310000680000206A000020B004002070B504466A
:103110000E461546606F202849D106B10DB9012031
:1031200070BD00BF94F87000012801D10220F7E7BC
:10313000012084F8700000BFE664A4F85050A4F8A1
:1031400052500020E06721206067A06EF8B1194856
:10315000A16EC8621848A16E08631848A16E486342
:103160000020A16E8863236803F128022B46E16CDE
:10317000A06EFDF7D5FD50B11020E06700BF002024
:1031800084F8700000BF202060670120C8E740205D
:103190002168086200BF002084F8700000BF20682A
:1031A000806840F08000216888600020B8E7022035
:1031B000B6E70000F1670008296800089B6700086F
:1031C00010B5044601480068804710BD500000203B
:1031D0007047000008B51948007800282DD101205B
:1031E000164908701648174908600021154880F8EC
:1031F00038104FF48030134948600021114801769F
:1032000081600161C160417680F82010C1620421B3
:103210004161002180F8301000BF0B48C06C40F4C1
:1032200000500949C8640846C06C00F40050009082
:1032300000BF00BF0348FDF733FC08BD4C00002071
:103240000000045048020020001002400146002007
:1032500001F47F420AB140F008004FF2F0020A4048
:103260000AB140F004004CF6CC420A400AB140F0EA
:1032700002004AF6AA220A400AB140F00100704753
:10328000F8B505460E46144600BF3449681A8D420B
:103290002CD006DCB5F1904F0AD031482844A0BBB1
:1032A00015E0B0F5806F31D0B0F5A05F3DD13DE0C5
:1032B00000BF2C48C06C40F001002A49C864084691
:1032C000C06C00F00100009000BF00BF3DE000BFF7
:1032D0002448C06C40F002002249C8640846C06C13
:1032E00000F00200009000BF00BF2EE000BF1D48AC
:1032F000C06C40F004001B49C8640846C06C00F074
:103300000400009000BF00BF1FE00EE000BF1548A2
:10331000C06C40F008001349C8640846C06C00F057
:103320000800009000BF00BF0FE000BF00BF0D48C5
:10333000C06C40F080000B49C8640846C06C00F0C7
:103340008000009000BF00BF00BF00BF00BF26602C
:1033500021462846FDF746FDF8BD0000000800485C
:1033600000FCFFB7001002402DE9F04781460D46F2
:1033700016461C462846FFF769FF07467CB10B48F6
:1033800040F82740284600F0D9FA8046002231460E
:103390004046FDF78EFE4046FDF77BFE03E0002031
:1033A000024941F82700BDE8F08700002C03002007
:1033B00070B505460E461446E2B231462846FDF782
:1033C00013FE70BD10B50748007848B9FFF702FF3B
:1033D00005490868804700F0CBF9012001490870D1
:1033E00010BD00004D0000202C8000082DE9F047A2
:1033F00004460E4600BF002231463148FEF76AFF00
:1034000000BF00BF2F48806A1FFA80F900BF00226A
:1034100021462B48FEF738FF002231462848FEF7A8
:1034200059FF00BF2748806A80B24845E9D1E0785B
:1034300040F2B55110FB01F0C01C8508E078C117BF
:1034400000EB91718910A0EB810109B91E4900E0E0
:103450001E498A466178491E01EB4102C2EB811187
:10346000481C00EBD0714A106178491E49002AFAC5
:1034700001F101F00301511A0D44A078401E0544EA
:1034800013484543B0787178C1EB011100EB81001E
:103490003178C1EB4112C2EB012100EB0110054470
:1034A0000020800240EA9550AB0240F2FF32716882
:1034B000511A5F1840F1000841463846BDE8F087D0
:1034C0006C0300200028004050554400A0AA990039
:1034D000805101000320704710B586B001A96846ED
:1034E000FFF784FF044602480068201A06B010BDAA
:1034F000B803002010B586B001A96846FFF776FF33
:103500000446204606B010BD10B50446FFF7E4FFA0
:10351000211A0D48B0F90000C01C814204D90021D5
:10352000042000F0EBF903E00121042000F0E6F9AB
:1035300000F0AAF9012803D10348B0F90000241AC9
:10354000204600F011F810BD5600002010B50549C6
:1035500001F11400FFF74AFF0249091F08600846FD
:10356000006810BDBC0300202DE9F04387B004467D
:103570004FF00008C14600260027002514225449B8
:1035800002A8FCF751FE5248001F8069019000F02C
:10359000ABF840F2FF310398081A1FFA80F8C4F321
:1035A000090040441FFA80F8A40A9DF8065003E081
:1035B0004848241A681C85B246488442F8D29DF8CF
:1035C000087003E0A4F56164781C87B2B4F5616FFC
:1035D000F8D29DF8096002E03C3C701C86B23C2C9D
:1035E000FAD29DF80A0020441FFA80F907E0A8F5F6
:1035F00080601FFA80F809F101001FFA80F9B8F520
:10360000806FF4DA05E0A9F13C001FFA80F9701C24
:1036100086B2B9F13C0FF6D204E0A6F13C0086B2C6
:10362000781C87B23C2EF8D204E0A7F1180087B2CC
:10363000681C85B2182FF8D29DF80700C11700EB5F
:1036400091718910A0EB810181B99DF80500401EA0
:103650002149085CA84219DA9DF80500401E085C63
:1036600095FBF0F100FB115085B20FE09DF80500CD
:10367000401E1A49085CA84208DA9DF80500401E61
:10368000085C95FBF0F100FB115085B240F2FF3071
:10369000A0EB0800124948604FF02060886181F873
:1036A00002904E700F7081F820509DF80B00C8708A
:1036B0000020C86148614FF4807048620020C860F3
:1036C000086100220748FEF7CBFE07B0BDE8F08393
:1036D000BC03002080510100AC800008A0800008DD
:1036E000900300206C03002010B54FF4807109484E
:1036F000FEF747FD07480068C06800F0800060F4EE
:10370000C07004490968C8604FF48020024908600D
:1037100010BD00006C0300201404014001468A0A19
:10372000C1F309014FF47A7050434FF47A7311FBDF
:1037300003F300EB9320704770B504468020A4FB90
:10374000005001467D2200232846FCF739FD70BD5C
:1037500001B582B04FF0FF30012301AA02A9009009
:103760000248FFF7E8F8BDF804000EBDD4030020BE
:1037700008B51D481D49086018211C48C161002179
:1037800081604FF482701949486000211748016137
:1037900041614FF4E061C1600021816201624FF438
:1037A000007181610021416200BF1148006E40F448
:1037B00080500F4908660846006E00F48050009063
:1037C00000BF00BF09480068006840F0400007499A
:1037D000096808600548FFF74DF808B1FDF7C4F81F
:1037E00000F008F808BD000000300140D4030020BC
:1037F0000010024000B585B014216846FCF72DFD8D
:1038000002200190002002900320039005200490E4
:103810006A4620214FF09040FFF732FD6A46402172
:103820004FF09040FFF72CFD6A4680214FF090400A
:10383000FFF726FD01200190002002906A464021FA
:103840000448FFF71DFD012240210248FFF7B0FDAB
:1038500005B000BD0004004800E000BFFDE70146E0
:103860008868C0F3C00070470146886800F0010016
:10387000704701468868C0F3007070470146886849
:10388000C0F380007047000000BFEFF310821146C4
:1038900072B6084A12680AB1002005E0064A1268AA
:1038A0000AB1012000E0022000BF81F3108800BFB0
:1038B00070470000700000207400002010B50A4618
:1038C00000BFEFF31083194672B63AB1012A0BD14B
:1038D000094B1B680343084C236006E0064B1B683A
:1038E0008343054C236000E000BF00BF00BF81F3AD
:1038F000108800BF10BD00007400002010B50A46FB
:1039000000BFEFF31083194672B63AB1012A0BD10A
:10391000094B1B680343084C236006E0064B1B68F9
:103920008343054C236000E000BF00BF00BF81F36C
:10393000108800BF10BD0000700000200146B1F5E6
:10394000807F38D012DC102930D008DC012925D046
:10395000022925D0042925D008292FD124E02029A7
:1039600026D0402925D0802928D123E0B1F5805FD9
:1039700027D009DCB1F5007F1ED0B1F5806F1ED0D5
:10398000B1F5006F1AD11BE0B1F5005F1AD0B1F5A7
:10399000804F18D0B1F5004F10D115E006207047C8
:1039A0000720FCE70820FAE70920F8E70A20F6E7F5
:1039B00000BF00BF00BF00BF1720F0E700BF00BF7F
:1039C00000BF00BF00BF00BF2820E8E700BFFEE740
:1039D000704770472DE9F04104460F4600255C48CA
:1039E000C06800F0030090B15948C06800F00300BF
:1039F0002168884209D1206838B15548C068C0F3B1
:103A00000210401C6168884233D0012531E02068F3
:103A1000012804D0022809D003281AD10DE04C480F
:103A2000006800F0020000B9012514E04848006871
:103A300000F4806000B901250DE04548006800F4FD
:103A4000003028B94248006800F4802000B9012500
:103A500001E0012500BF00BF5DB9D4E90010401EA0
:103A600041EA00103A49C96821F073010843384916
:103A7000C860002D68D13648006820F08060344965
:103A80000860FDF7B7FA064606E0FDF7B3FA801BBB
:103A9000022801D9032505E02D48006800F00060E8
:103AA0000028F2D100BFCDBB6FB9A0680002E16869
:103AB000090940EA414026490969264A114008435C
:103AC0002349086120E0012F0FD1A0680002218A5C
:103AD0000122C2EB510140EA41501D4909691E4AC9
:103AE000114008431A4908610EE0A0680002217DD8
:103AF0000122C2EB510140EA416015490969174AA8
:103B000011400843124908611148006840F0806084
:103B10000F490860FDF76EFA064607E014E0FDF76E
:103B200069FA801B022801D9032505E008480068CE
:103B300000F000600028F2D000BF2DB904480069F1
:103B4000A1690843024908612846BDE8F0810000E8
:103B500000100240FF80FDFFFF809FFFFF80FFF904
:103B60002DE9F04104460F4600255348C06800F097
:103B7000030090B15048C06800F0030021688842FB
:103B800009D1206838B14C48C068C0F30210401C0D
:103B90006168884233D0012531E02068012804D0D3
:103BA000022809D003281AD10DE04348006800F02C
:103BB000020000B9012514E03F48006800F480606D
:103BC00000B901250DE03C48006800F4003028B938
:103BD0003948006800F4802000B9012501E0012582
:103BE00000BF00BF5DB9D4E90010401E41EA0010DB
:103BF0003149C96821F0730108432F49C860002D7D
:103C000056D12D48006820F080502B490860FDF700
:103C1000F1F9064606E0FDF7EDF9801B022801D90F
:103C2000032505E02448006800F000500028F2D188
:103C300000BF75BB6FB9A0680002E168090940EADE
:103C400041401D4949691D4A114008431A494861CC
:103C50000EE0A0680002217C0122C2EB510140EA83
:103C6000416015494969164A1140084312494861A3
:103C70001148006840F080500F490860FDF7BAF91C
:103C8000064607E0FDF7B6F9801B022802D9032596
:103C900006E00DE00848006800F000500028F1D070
:103CA00000BF2DB904484069616908430249486171
:103CB0002846BDE8F081000000100240FF80FDFFB3
:103CC000FF80FFF9F8B5044600262348806D00F018
:103CD000805018B1FDF742FA054616E000BF1E48B5
:103CE000806D40F080501C4988650846806D00F06A
:103CF0008050009000BF00BFFDF730FA054616481F
:103D0000806D20F0805014498865B5F5007F07D19B
:103D1000802C10D9A02C01D902260CE001260AE043
:103D2000802C01D9032606E0802C01D1022602E076
:103D3000702C00D101260948006820F007003043AC
:103D4000064908600846006800F00700B04201D04C
:103D50000120F8BD0020FCE70010024000200240D6
:103D60000146080900EB8000420001F00F001044FA
:103D7000C0B2704702460023114603E05B1CA1F16C
:103D80000A00C1B20A29F9D2180741EA1060704747
:103D900070B5044600262068C06800F04000B8B93D
:103DA000701E2168C860FDF725F9054609E0FDF79A
:103DB00021F9401BB0F57A7F03D90326032084F84C
:103DC00021002068C06800F0400008B9032EEED141
:103DD000304670BD70B5044600251748006820F0D5
:103DE000800015490860081F006800F0200040B9F5
:103DF0002046FEF723FDE0B1032084F821000325CF
:103E000017E00D48001F006820F020000A49091F34
:103E100008602046FEF712FD18B1032084F8210047
:103E200003250548001F006840F020000249091FD3
:103E30000860284670BD00000C28004010B5002026
:103E40000E4981F821000E4808604020486000219A
:103E50000A48816047F6FF71C160002101618161FC
:103E60000121C161FEF764FA08B100BFFEE7034813
:103E7000FEF794F800F006F810BD0000780400206A
:103E80000028004000B587B0002208211C48FEF73A
:103E9000B1F814208DF81B0004208DF819001420AF
:103EA0008DF81A0001208DF81800012206A9144887
:103EB000FEF7E2FB08B100BFFEE708208DF8040022
:103EC00010208DF8050000208DF8060002908DF876
:103ED000070004900590012201A90948FEF732FC71
:103EE00008B100BFFEE706480068C06800F0800027
:103EF00060F4086002490968C86007B000BD0000AE
:103F00007804002030B52DED0A8B97B09FED5F0A45
:103F1000F0EE409A0024B3EE040AB0EE408A00208E
:103F20000090019002904CF24F354FF080400068B5
:103F30004FF08041086000BF6CE000204FF08041EE
:103F4000486253480068806A009000BF504800688B
:103F5000806A0099401AF9D04FF08040006840F024
:103F600001004FF08041086049480068806A009075
:103F700000BF4FF08040406AA842FAD94448006828
:103F8000806A019000BF42480068806A0199401A27
:103F9000F9D04FF0804000684FF0804108603C4805
:103FA0000068806A01900846406A3A490860DDE985
:103FB0000001884203D2009800F500400090DDE93E
:103FC0000012881AFCF7F8FA41EC1C0B9FED320B3B
:103FD00053EC102BFCF770FA41EC1B0B9FED300BF0
:103FE00053EC102BFCF7F3F941EC1A0BFCF722FB16
:103FF00009EE900A27480068401C00EE100AB8EE4F
:10400000400AC9EE800A03A800EB8400C0ED000A54
:10401000601CC4B200EE104AB8EE400AB4EEC80A02
:10402000F1EE10FA89D300240AE003A800EB840023
:1040300090ED000A30EE280AF0EE408A601CC4B20F
:1040400000EE104AB8EE400AB4EEC80AF1EE10FADB
:10405000EBD388EE889ADFED140AB6EE000A00EE84
:10406000890ABDEEC00AB8EEC00ADFED0F0A30EED5
:10407000C00ADFED0D0A80EE801ABDEEC10A0B48C2
:1040800080ED000A17B000F013B830BD000000004A
:104090007804002058000020000000000000E040EC
:1040A0000000000080842E41002474497800002024
:1040B000BDEC088BBDEC02CBFFF7E7BF2DE9F0416B
:1040C000092001F087F80746062001F083F806046E
:1040D000072001F07FF846EA0026082001F07AF870
:1040E00046EA000500BF280AA5EB002143F6095265
:1040F00000FB02F34A43803203EB122400BF00218D
:10410000092002F011F83B2001F064F800F0BF0034
:1041100040F0400631463B2002F006F800BF3B204D
:1041200001F058F800F020002028F8D00F4801F0E6
:104130009BF93B2001F04EF800F0BF0040F0400634
:1041400031463B2001F0F0FF00BF3B2001F042F878
:1041500000F020002028F8D03946092001F0E4FFC3
:10416000204601F081F9BDE8F081000000A1BC33D8
:104170001CB500242048806C40F001001E49886472
:104180000846006E40F48050086601200321002399
:104190000222CDE90010E0214FF09040FCF7F4FB43
:1041A00000BF44F4007444F4807444F0040400BF7D
:1041B00000BF44F0100400BF44F040044FF48050AE
:1041C0000E4948604FF4E0604860084604600068AB
:1041D00020F0400008600846006820F002000860F7
:1041E0000846006820F0010008600846006840F0BA
:1041F000400008601CBD000000100240003001407B
:10420000F8B504460E461546334600224FF4C05119
:104210002046009500F026F828B1206E40F02000DE
:1042200020660320F8BD33460022802120460095F9
:1042300000F06DF828B1206E40F0200020660320C9
:10424000F0E7334600224FF4C0612046009500F0AD
:1042500009F828B1206E40F0200020660320E1E735
:104260000020DFE72DE9F04104460E4617461D46C3
:10427000DDF8188044E0B6F5C06F02D10FB92068B0
:10428000007B681CD8B3FCF7B5FEA0EB0800A84281
:1042900000D2A5BB2068406820F0E000216848609B
:1042A0006068B0F5827F0DD1A068B0F5004F03D0F3
:1042B000A068B0F5806F05D12068006820F040004C
:1042C00021680860A06AB0F5005F0DD100BF2068CA
:1042D000006820F40050216808602068006840F4FD
:1042E00000502168086000BF012084F85D0000BF15
:1042F000002084F85C0000BF0320BDE8F081FFE7E8
:10430000206880683040B842B5D10020F5E72DE93B
:10431000F04104460E4617461D46DDF818803EE083
:10432000681CD8B3FCF766FEA0EB0800A84200D2D8
:10433000A5BB2068406820F0E00021684860606804
:10434000B0F5827F0DD1A068B0F5004F03D0A06812
:10435000B0F5806F05D12068006820F0400021682A
:104360000860A06AB0F5005F0DD100BF206800684A
:1043700020F40050216808602068006840F4005074
:104380002168086000BF012084F85D0000BF0020A4
:1043900084F85C0000BF0320BDE8F081FFE72068DF
:1043A00080683040B04201D1012000E00020B842D6
:1043B000B6D10020F0E7704700B585B014216846FB
:1043C000FBF74BFF01200190002002900320039097
:1043D0006A4602210448FEF753FF002202210248E8
:1043E000FEF7E6FF05B000BD0008004800B585B047
:1043F00014216846FBF731FF012001900020029054
:10440000032003906A4602210448FEF739FF002288
:1044100002210248FEF7CCFF05B000BD00080048AD
:104420000149086070470000140000200146012087
:10443000704701460020704701480079704700002E
:1044400098010020F0B52DED108B8BB005460C4681
:10445000002615B1012D7DD18FE0C749C869FCF751
:10446000ABF8CDE906012046FCF7A6F8CDE904013A
:10447000302000F0AFFE20F0F90010B19FEDBF0B2F
:1044800001E09FEDC00B8DED020B272000F0A2FE96
:1044900020F0F801491CB848008C0F183846FCF78A
:1044A0007AF841EC1F0BB44890F82200012802D1A1
:1044B0009FEDB41B01E09FEDB11BB0EE410AF0EEA1
:1044C000610A53EC102B51EC1F0BFBF7D1FE41ECB2
:1044D0001E0B9DED020B53EC102BFBF7C9FE41ECBC
:1044E0001D0B9DED040B53EC102BFBF7C1FE41ECB3
:1044F000180BA14890F82400012802D19FEDA31BBE
:1045000001E09FEDA01BB0EE410AF0EE610A53EC12
:10451000102B51EC180BFBF7ABFE41EC1C0B9FED85
:104520009D0B53EC102BFBF752FF41EC1B0B9DED49
:10453000060B53EC102BFBF7BFFF9FED980B53ECD2
:10454000102BCDE908019DED080B51EC100BFBF78A
:104550003EFF00E009E141EC1A0BB0EE4A0AF0EE32
:104560006A0A02F0F1FDB0EE409AF0EE609A51EC6A
:10457000190BFCF72EF80646F7E09FED820BB0EE24
:1045800040AAF0EE60AA7C48406C072804D00828B6
:1045900009D0092815D10DE09FED820BB0EE40AA9D
:1045A000F0EE60AA0DE09FED810BB0EE40AAF0EEB8
:1045B00060AA06E09FED7F0BB0EE40AAF0EE60AA85
:1045C00000BF00BF6C4991F84820012101FA02F0B8
:1045D000FBF7E1FF41EC190B53EC192B51EC1A0BD3
:1045E000FBF76AFF41EC1B0B53EC1B2B9FED630B9E
:1045F00051EC100BFBF760FF41EC180B5E49B1F872
:104600004E00FBF7D9FF41EC1D0B9FED6C0B53ECFB
:10461000102BFBF72DFE41EC190B53EC182BFBF77D
:10462000D6FE41EC1C0B544991F84D10081DFBF7C8
:10463000B2FF41EC1D0B50498A6C91F84C100029D7
:1046400001DD022100E00021511A8800FBF7B4FFD0
:1046500041EC190BE2004849896C042303FB112249
:104660001C32454991F85210102313FB0122424994
:1046700091F8501009B1142100E00021501AFBF705
:104680009BFF53EC192BCDE900019DED000B51EC84
:10469000100BFBF711FF41EC1F0BB0EE4F0AF0EED1
:1046A0006F0A02F039FCB0EE40EAF0EE60EA53EC3B
:1046B0001D2B51EC1E0BFBF78AFECDE908019FED87
:1046C000310B53EC102B9DED080B51EC100BFBF74D
:1046D00099FF02D29DED080B01E09FED2A0BB0EE91
:1046E000409AF0EE609A53EC192B9FED2A0B51EC97
:1046F000100BFBF7BDFDCDE9060153EC182B9DED2A
:10470000060B51EC100BFBF762FECDE904019DEDA9
:10471000040B53EC102B51EC1C0BFBF7A9FDCDE95E
:1047200002019FED1E0B53EC102B9DED020B51EC83
:10473000100BFBF74CFE41EC1E0B9FED220B53ECD4
:10474000102BFBF795FD41EC1D0BB0EE4D0AF0EE82
:104750006D0A02F06DFCB0EE409AF0EE609A51ECFA
:10476000190BFBF736FF064600BF00BF30460BB003
:1047700000F02CB8F0BD00009801002000000000FF
:104780000000F03F000000000000000000000000FA
:104790000000004000000000000020400000000079
:1047A00000408F40000000008084FE4000000000B8
:1047B00080840E410000000080841E410000000043
:1047C000000011402B8716D9CEF7EF3FBDEC088BC8
:1047D000BDEC08CBFFF7CEBF0020704710B50349F2
:1047E000096848688047801C10BD00001400002044
:1047F00070B50546204805602049214801F0D4FDE8
:104800001E49204801F0D0FD1C491F4801F0CCFD95
:104810001E48006801680120884700F039FDFFF755
:104820004DFC002000F0AEFE184800688168184872
:104830008847002412E004EB4401164A505C00F063
:1048400055FE04EB4402134B1A44917804EB4402E6
:104850001A44507801F068FC601CC4B2102CEAD3F2
:10486000002000F043FE00200B4908710749096849
:1048700048688047801C70BD1000002095500008DB
:104880000002002018020020300200201400002046
:10489000180000204C7F00089801002000B585B06A
:1048A00014216846FBF7D9FC0D48019002200290C4
:1048B0006A4641024FF09040FEF7E2FC6A4608214A
:1048C0000848FEF7DDFC6A4620210648FEF7D8FCC2
:1048D0006A4610210348FEF7D3FC05B000BD000076
:1048E000000011100004004800B585B0142168468E
:1048F000FBF7B3FC1048FFF793FD1048019002202E
:104900000290032003906A464FF480614FF090407C
:10491000FEF7B6FC6A4608210948FEF7B1FC6A4674
:1049200020210748FEF7ACFC6A4610210448FEF738
:10493000A7FC05B000BD00003400002000001110ED
:104940000004004810B5044600224FF480614FF087
:1049500090402368FEF708FD00220821084863689C
:10496000FEF702FD002220210548A368FEF7FCFCAB
:10497000002210210248E368FEF7F6FC10BD00009B
:10498000000400482DE9F04707460C4615461E4630
:104990004FF001084FF000094FF0000AFFF74CFDFF
:1049A00010B10020BDE8F087384600F09FFD20469A
:1049B00000F05AFD052000F0E5FD0120FCF7FEF9AE
:1049C00001F0DAFC824608E0384600F039FC814606
:1049D000A94502DD4FF0000804E0504601F0D4FC88
:1049E000B042F1D300BF01F061F94046DAE70000C0
:1049F000F8B5064600200090CA480079012802D088
:104A0000022879D16BE1C748407910B1012874D1EF
:104A1000C0E0C44890F8240001283FD13F2000F0B6
:104A2000D9FB00909DF8000000F00200022835D06C
:104A30000B213E2001F078FB10213F2001F074FB98
:104A4000B94801F04BFDB74890F8260030B9B74897
:104A500001F044FD0020B34908710BE00D2000F087
:104A6000B9FB40F0400421460D2001F05DFBAF484A
:104A700001F0FAFCAE48006838B1AD480068006942
:104A800018B1AB490968086980470021A54880F83A
:104A9000301080F83110818741871EE1A148408F96
:104AA00060BBA048808F48BB9E4890F8220028B980
:104AB00001219C483A3000F0B9FB05E0322000F0BB
:104AC00089FB014697484187964A92F83A3092F816
:104AD0003C209A1AD1B2934A928F964BD01800F08C
:104AE000A5FB9048418F808F091A8E48808F08441B
:104AF00081B28C48818719E010E1EDE0FFE7894A37
:104B000092F83A3092F83C209A1AD1B2854A928FA4
:104B1000884BD01800F08AFB8248418F808F091A99
:104B20008048808F084481B27E4881877E4801F0AA
:104B3000D5FC7C4890F8260030B9002079490871EE
:104B40007A4801F0CBFC0BE00D2000F043FB40F075
:104B5000400421460D2001F0E7FA744801F084FC7E
:104B60007348006868B172480068806848B16D4851
:104B700090F93220418F6E480068002384686D48A8
:104B8000A0470021674880F8301080F831108187F5
:104B90004187A2E04021122001F0C6FA122000F065
:104BA00019FB00909DF8000000F02000202819D18A
:104BB0002021122001F0B8FA5A4890F8560010B996
:104BC000002058490871584801F088FC584800688E
:104BD00038B157480068006918B155490968086933
:104BE00080477AE0192000F0F5FA40B2801C81106D
:104BF0004C4880F860101A2000F0ECFA044649484E
:104C000090F9600000281EDA464880684A498842C8
:104C10000CD9A4F19D0000EB2411424890F96000EA
:104C2000084401B23F48A0F8621022E0A4F1A400B9
:104C300000EB24113B4890F96000084401B2394868
:104C4000A0F8621015E0374880683B49884208D9CF
:104C5000A4F19D0000EB241001B23248A0F86210CC
:104C600007E0A4F1A40000EB241001B22D48A0F845
:104C70006210132000F0AEFA01462A4880F8641052
:104C8000102000F0A7FA054629460D2001F04CFA45
:104C9000244890F86410274800F0C8FA214890F89A
:104CA000560010B900201F4908711F4801F016FC7A
:104CB0001F48006878B11E480068806858B11948DC
:104CC00090F96030B0F9622090F8641018480068DC
:104CD00085681848A84700E000BF00BF1FE01748DC
:104CE00001F0FCFB0F48407938B1012804D10821BC
:104CF000122001F019FA00BF00BF00200949087115
:104D00000B48006838B10A480068006818B10849C3
:104D100009680868804700BF00BF00E000BF00BF0F
:104D2000F8BD000098010020180200203002002089
:104D3000100000209800002040DD4A1F00020020E3
:104D400010B504465A480079012802D002286ED1D5
:104D50006EE05748407910B1012865D14EE05548C2
:104D600001F0BCFB5248408F90B95148808F78B910
:104D70004F4890F8220028B901214D483A3000F000
:104D800055FA05E0322000F025FA014648484187EF
:104D90004748418F808F091A454890F83E0081426C
:104DA00014DB434A92F83E20521ED1B2404A928F01
:104DB000414BD01800F03AFA3D48818F90F83E0000
:104DC000401E084481B23A48818716E0384A92F87A
:104DD0003A3092F83C209A1AD1B2354A928F364B2B
:104DE000D01800F023FA3248418F808F091A3048DA
:104DF000808F084481B22E48818716E02F4801F049
:104E00006DFB8021122001F08FF9002028490871E4
:104E10002B48006838B12A480068C06818B1284992
:104E20000968C868804700E000BF00BF3DE03BE084
:104E30001F48407910B1012833D131E01C48418F1F
:104E4000808F091A1A4890F83F00814210DD184AF5
:104E500092F83F10928F184BD01801F08DF914483A
:104E6000818F90F83F00084481B21148818716E095
:104E70000F4A92F83A3092F83C209A1AD1B20C4A72
:104E8000928F0D4BD01801F077F90948418F808F30
:104E9000091A0748808F084481B20548818701E0DC
:104EA00000E000BF00BF00E000BF00BF10BD000079
:104EB00098010020300200209800002018020020F5
:104EC0001000002070B506460024484800790128EB
:104ED00002D002287ED15FE04448407910B1012819
:104EE00057D13BE00121414880F8301090F8300064
:104EF000012832D13D4890F8310070BB3C4801F0A8
:104F0000EDFA0121394880F83110112000F062F9E2
:104F10004010404241B2354880F832101C2000F069
:104F200059F905461B2000F055F945EA002400BF59
:104F3000200AA4EB002143F6095200FB02F34A4386
:104F4000803203EB1223294A536300BF0C2000F088
:104F500041F94109254880F838101BE0234890F8B2
:104F60005300012814D10221122001F0DDF821485C
:104F7000006868B11F480068406948B11C2000F013
:104F800029F900F03F051B48006841692846884719
:104F900000E000BF00BF27E01448407910B10128AD
:104FA0001ED100E01DE0114890F85300012816D1F1
:104FB0000221122001F0B8F80E48006878B10D48BF
:104FC0000068406958B11C2000F004F900F03F056A
:104FD000084800E007E0006841692846884700E08B
:104FE00000BF00BF00E000BF00BF70BD98010020FF
:104FF000300200201000002010B504461848407907
:1050000010B1012829D100E028E0122000F0E2F8D8
:1050100000F0010080B10521122001F085F811484F
:105020000068C8B10F4800688069A8B10D480068E1
:105030008169012088470FE00421122001F074F8F3
:105040000848006840B107480068806920B10548F9
:10505000006881690020884700E000BF00BF10BDE4
:1050600098010020100000200949497911B1012957
:105070000AD108E0064991F8301019B90122044913
:1050800081F8302001E000E000BF00BF7047000061
:105090009801002070B505463A480079012802D0F1
:1050A00002286CD136E03748407900BB00213548F2
:1050B00080F8301080F83110818741870B213E2025
:1050C00001F032F810213F2001F02EF82D4890F821
:1050D000260001280CD10D2000F07CF840F040049F
:1050E00021460D2001F020F8274801F0BDF905E028
:1050F000002024490871244801F0F0F92348006891
:1051000038B122480068C06818B120490968C868E9
:10511000804735E000F0BCF8FEF7D0FF002000F03B
:1051200031FA002412E004EB4401194A505C00F00B
:10513000DDF904EB4402164B1A44917804EB440267
:105140001A44507800F0F0FF601CC4B2102CEAD36F
:10515000002000F0CBF90B4991F85C0000F048FA10
:105160000020084908710948006838B107480068FC
:10517000406818B1054909684868804700E000BFE9
:1051800000BF70BD980100203002002010000020F8
:105190004C7F000870B50025012000F0A7F9FF2121
:1051A000112000F0C1FF052000F0ECF900240BE015
:1051B0000120FBF703FE2C2000F00CF800F00100AA
:1051C000A0400543601CC4B2202CF1DB00F06EFD52
:1051D000284670BD38B5044601226946204600F0D5
:1051E00003F89DF8000038BD2DE9F04105460E4654
:1051F0001746002240210C48FEF7DAF805F07F0040
:10520000FEF7A6FA002405E00020FEF7A1FA3055CB
:10521000601CC4B2BC42F7DB012240210248FEF709
:10522000C7F8BDE8F08100000004004870B50446EE
:105230000D462A4621460020FFF7D6FF70BD00002C
:1052400070B50446002514B1012C17D105E01120DA
:10525000FFF7C0FF4010454213E00B4880680B4940
:10526000884205D91B20FFF7B5FFA0F19D0504E09A
:105270001B20FFF7AFFFA0F1A40502E04FF0FF35C0
:1052800000BF00BF284670BD9801002040DD4A1FC6
:1052900000B585B014216846FAF7DFFF01200190C0
:1052A00000200290032003906A4601214FF09040B5
:1052B000FDF7E6FF002201214FF09040FEF778F85D
:1052C0000120FBF77BFD002001906A4601214FF091
:1052D0009040FDF7D5FF0620FBF770FD05B000BD3F
:1052E00073B5044600254648407910B101283AD1EB
:1052F0003AE00021424881879DF80410418790F8E8
:10530000220020B9012101A800F036FF04E09DF839
:105310000410322000F008FF9DF80400002809DD89
:105320009DF80400402805DC9DF80410344880F8FE
:105330003F1009E09DF804202146324802F0A2FD0A
:1053400020212F4880F83F102D4890F83F1020462C
:1053500000F012FF2A48818F90F83F00084481B284
:1053600027488187856A45E0254890F8550001283F
:105370000DD13320FFF72EFF00F0BE06314633205B
:1053800000F0D2FE19213B2000F0CEFE0DE03320CC
:10539000FFF720FF00F0BE00461C3146332000F02E
:1053A000C3FE1D213B2000F0BFFE9DF804101448F1
:1053B00080F864109DF80410222000F0B5FE002152
:1053C0000E2000F0B1FE00210D2000F0ADFE012006
:1053D000FFF700FF20F0F80020B900F087FC012063
:1053E000FBF7ECFC9DF80410204600F0C5FE0448D5
:1053F000856D00BF00BF284600F092FC7CBD000018
:10540000980100209800002010B50446032C06D017
:10541000052C0BD0062C0AD0072C06D108E001225F
:1054200002210748FDF7C4FF08E000BF00BF00BF2E
:10543000002202210248FDF7BBFF00BF00BF10BDE4
:105440000008004810B5044606480078A04207D07E
:105450000448047014B9FEF7C9FF01E0FEF7ACFF81
:1054600010BD00003000002070B504461048846074
:1054700000BF43F60952B4FBF2F000FB1241521098
:1054800002EB012243F60953B2FBF3F202EB0025D3
:1054900000BFC5F30741062000F046FEC5F3072113
:1054A000072000F041FEE9B2082000F03DFE70BD8B
:1054B0009801002070B504460D46204600F016F80D
:1054C00014B1012C0ED108E0074890F8220018B959
:1054D0002946322000F028FE04E02946232000F06F
:1054E00023FE00BF00BF70BD9801002070B50446C8
:1054F0000120FFF76FFE00F0800018B10121204865
:10550000417102E000211E4841711D484079A042CE
:1055100000D170BD1A484471407910B1012815D0EE
:1055200000BF002000F02EF80120FFF753FE00F02E
:105530007F052946012000F0F7FD0021402000F002
:10554000F3FD3021412000F0EFFD16E0002000F0D7
:1055500019F80120FFF73EFE00F07F0040F08005C3
:105560002946012000F0E0FD0021402000F0DCFD94
:105570000021412000F0D8FD00BF00BF00BFC8E7F8
:105580009801002070B50446ACB90120FFF722FE57
:1055900000F0F80040EA04052946012000F0C4FDAF
:1055A00012480068016901208847104800680168B6
:1055B0000020884719E00D480068016801208847ED
:1055C0000A48006801690020884708480068416966
:1055D000204688470120FFF7FDFD00F0F80040EA73
:1055E00004052946012000F09FFD70BD1400002035
:1055F00010B504460120FFF779FF074880F85C40AA
:10560000012C04D13421392000F08EFD03E0122159
:10561000392000F089FD10BD9801002070B50446C6
:10562000002500260920FFF7D5FD05464D20FFF790
:10563000D1FD064629498868FEF7FBFE05F07F018B
:1056400040EA010505F08000802828D1112C03DDF7
:1056500006F0F800C61D02E006F0F800061D06F090
:10566000070007280DD1052C00DA0524142C00DDD5
:10567000142405F0F000611F01F00F0140EA01055C
:1056800023E0022C00DA0224112C00DD112405F0A5
:10569000F000A11E01F00F0140EA010515E0002C09
:1056A00009DD0F2C00DD0F2405F0800040F07000B4
:1056B0002043C5B209E014F1040F01DA6FF00304CE
:1056C00005F08000211D0843C5B22946092000F0DD
:1056D0002BFD31464D2000F027FD70BD98010020C4
:1056E00070B504460025974800F0F8FE96484079CA
:1056F00010B101282ED12EE0934890F8265040207A
:10570000FFF768FD00F0030040F00C063146402032
:1057100000F00AFD4120FFF75DFD00F03E0040F083
:10572000C000461C3146412000F0FEFC3520FFF74A
:1057300051FD00F03F01844880F83E101E210D20ED
:1057400000F0F2FC0021804880F8301080F8311021
:1057500081874187CCE07C4890F85500012810D122
:105760003320FFF737FD00F0BE0040F04000461C3C
:105770003146332000F0D8FC19213B2000F0D4FC46
:105780000DE03320FFF726FD00F0BE00461C314639
:10579000332000F0C9FC1D213B2000F0C5FC6A4805
:1057A000406C092870D23120FFF714FD00F07F060D
:1057B0003146312000F0B8FC0021302000F0B4FC6C
:1057C0006148406C09285DD2DFE800F005111D2911
:1057D00035414D52570048212F2000F0A5FC5A4971
:1057E000896841F682628818FFF73EFE4AE044214C
:1057F0002F2000F099FC5449896842F6B4028818B9
:10580000FFF732FE3EE044212F2000F08DFC4E4990
:10581000896843F604528818FFF726FE32E04421D7
:105820002F2000F081FC4849896845F25E128818F3
:10583000FFF71AFE26E044212F2000F075FC4249B4
:10584000896847F612228818FFF70EFE1AE04421F5
:105850002F2000F069FC3C4989684AF2C62288186A
:10586000FFF702FE0EE040212F2000F05DFC09E072
:1058700040212F2000F058FC04E040212F2000F0B0
:1058800053FC00BF09E0FFE73120FFF7A3FC40F025
:1058900080063146312000F047FC2B4890F85650E6
:1058A00090F8530001280DD11D21112000F03CFC7F
:1058B0004020FFF78FFC00F033063146402000F017
:1058C00033FC0CE01F21112000F02EFC4020FFF7DC
:1058D00081FC00F03F063146402000F025FC00210D
:1058E0000F2000F021FC00210D2000F01DFC00BF66
:1058F00000BF4FF480711548FAF7AFFC0120124940
:10590000087134B12146124800F097FD104800F0AC
:10591000ABFD0D48407958B90520FFF733FE0A4822
:10592000C16A0C4800F089FD0A4800F09DFD08E0BE
:10593000012D03D10520FFF725FE02E00620FFF729
:1059400021FE70BD00020020980100209800002078
:1059500018020020300200202DE9FF4F2DED0C8BA6
:1059600081B00D4614469946DDE91EB8DDE91CA755
:105970001B9E0D98FFF7BAFD0D9810B101287AD142
:105980009BE0BB484561C4611A99816180F822702F
:1059900080F823B080F82480229980F8251023997C
:1059A00080F8261006842046FAF706FE41EC1D0B0F
:1059B00053EC1D2B9FEDAF0B51EC100BFAF77CFD58
:1059C00041EC1C0B9FEDAD0B53EC102BFAF7FFFCD9
:1059D00041EC1A0B5046FAF7EFFD41EC1B0B53EC70
:1059E0001A2BFAF7F4FC41EC190B9FEDA60B53ECC4
:1059F000102BFAF7ECFC41EC180BFAF7EAFD014624
:105A00009B48C1622046FAF7D7FD41EC190B53ECD5
:105A1000192B9FED9E0B51EC100BFAF74DFD41EC4D
:105A2000180BFAF7D6FD84B2210A022000F07CFBA5
:105A3000E1B2032000F078FB2846FBF715F8014699
:105A40000090122000F070FB1A98FBF70DF8014649
:105A50000090132000F068FB310A252000F064FB61
:105A6000F1B2262000F060FB012F05D1594632200B
:105A700000F05AFB04E0F5E0FF21322000F054FB77
:105A80003020FFF7A7FB00F06F00012F01D10021AC
:105A900000E08021084340EA0810014600903020D1
:105AA00000F042FB3120FFF795FB40F0400001463B
:105AB0000090312000F038FBD4E0022D01D900BF66
:105AC000FEE7ED1D6A484564846480F84D90A0F8B7
:105AD0004E6080F8507080F851B080F85280209964
