:020000040800F2
:1000000048AB0020A10100081B490008B9390008CD
:1000100075470008130B0008617800080000000015
:10002000000000000000000000000000774D000804
:100030001D0C0008000000001D490008B96B0008F5
:10004000BB010008BB010008956C0008ED490008E1
:10005000BB010008BB010008BB010008BB01000890
:10006000BB010008BB010008BB010008BB01000880
:10007000BB010008BB010008BB010008BB01000870
:10008000BB010008BB010008BB010008BB01000860
:10009000BB010008BB010008BB010008BB01000850
:1000A000A56C0008BB010008BB010008BB010008EB
:1000B000B56C0008D56C0008BB010008BB01000846
:1000C000BB010008BB010008BB010008BB01000820
:1000D000BB010008BB01000821780008BB01000833
:1000E000BB010008BB010008BB010008BB01000800
:1000F000BB010008BB010008BB010008BB010008F0
:10010000BB010008BB010008BB010008BB010008DF
:10011000BB010008BB010008BB010008BB010008CF
:10012000BB010008BB010008BB010008BB010008BF
:10013000BB010008BB010008BB010008BB010008AF
:10014000BB010008BB010008BB010008BB0100089F
:10015000BB010008BB010008BB010008BB0100088F
:10016000BB010008BB010008BB010008BB0100087F
:10017000BB010008BB010008BB0100080000000033
:10018000BB010008BB010008DFF810D000F08CFBB9
:10019000004800471D890008AFF3008048AB0020ED
:1001A0000648804706480047FEE7FEE7FEE7FEE711
:1001B000FEE7FEE7FEE7FEE7FEE7FEE7456C000828
:1001C000890100082DE9F05F0546002092469B4614
:1001D00088460646814640241BE02846414647465D
:1001E000224600F06EFA53465A46C01A914110D387
:1001F00011461846224600F055FA2D1A67EB010801
:100200004F4622460120002100F04CFA17EB00096E
:100210004E41201EA4F10104DFDC484631462A4647
:10022000434600F000B830BCBDE8C09F40EA01037F
:100230009B0703D009E008C9121F08C0042AFAD29C
:1002400003E011F8013B00F8013B521EF9D2704760
:10025000D2B201E000F8012B491EFBD27047002208
:10026000F6E710B513460A4604461946FFF7F0FFB5
:10027000204610BD2DE9FE4F804681EA0300C00FE5
:100280000C46009021F0004123F00045B8EB02003D
:10029000A94105D24046214690461C460B460246DF
:1002A00023F00040104347D0270DC7F30A00C3F3E3
:1002B0000A510290401A019040286BDAC3F31300F0
:1002C00040F4801B0098924620B10023D2EB030A31
:1002D00063EB0B0B01985946C0F14002504600F009
:1002E000E1F906460D4650465946019A00F0F9F9E3
:1002F00010EB08006141002487EA115284EAE77399
:100300001A4340D0009A62B3019A012A4FEA075279
:1003100015DC001B61EB02014FF0004202EA0752BC
:10032000CDE90042001C41F5801132462B4600F019
:10033000F9F903B000F045B840462146F9E7001B43
:1003400061EB0201001C41F5801300185B4120188D
:10035000A2F5001747EB030140EAD570B6196D41CD
:1003600011E06D084FEA360645EAC0754FEA0752BC
:10037000001B61EB0201001C41F5801149084FEAA6
:1003800030000019514132462B4603B000F01CB832
:1003900000F0B9B90098012240000023D0EB02021E
:1003A00063EBE073009821464FEAE074B8EB00007D
:1003B00061EB0401E9E783F000435BE781F0004172
:1003C00058E730BCBDE8C08F30BCBDE8C04FFFF778
:1003D000DFBF2DE9FE4F81EA030404F0004421F061
:1003E000004100944FF0000B23F0004350EA010459
:1003F0005ED052EA03045BD0C3F30A54C1F30A553A
:100400002C44A4F2F3340194A0FB0254C1F3130171
:1004100041F48011C3F3130343F4801301FB02443E
:1004200000FB034E840A970A44EA815447EA835743
:10043000A4FB076802958D0A05FB07854FEA932CFC
:1004400004FB0C542705029D4FEA065847EA16376D
:10045000B5EB08056EEB070C870E920E47EA811785
:1004600042EA8312A7FB0201B6EB0B0164EB000426
:100470002B0D43EA0C335E1844EB1C50DA46514610
:10048000E7FB0201C5F313044FEA0B3343EA1453AD
:100490004FEA0432019C43EA0603A4F10C040294DF
:1004A000009CCDE900B400F03DF903B000F003B8C2
:1004B00000200146F9E730BCBDE8C08F2DE9F04DC2
:1004C00081EA030404F0004B21F0004514464FF08C
:1004D000000A23F0004150EA050220D054EA01024C
:1004E0001DD0C5F30A570246C5F31303C1F3130029
:1004F000C1F30A5640F4801543F48013A7EB0608B5
:10050000101BD64608F2FD3873EB050002D308F144
:10051000010801E092185B41B8F1000F03DA0020F6
:100520000146BDE8F08D00204FF480110646844658
:100530000EE0171B73EB050705D3121B63EB0503D6
:1005400006434CEA010C49084FEA300092185B411F
:1005500050EA0107EDD152EA030012D082EA04000A
:1005600083EA0501084305D0101BAB4106D20122E6
:10057000002306E000224FF0004302E06FF001028A
:1005800053101AEB06004CEB085110EB0A0041EB3C
:100590000B01BDE8F04D00F0B6B80EB5C10F80EA12
:1005A000E0700844CA07002140F233438DE80E0092
:1005B0000A460B4600F0B6F803B000BD0EB540F297
:1005C000334102910021CDE900110A460B4600F0AB
:1005D000A9F803B000BD70B5C1F30A5201F000459F
:1005E0000024C1F3130140F2FF3341F480119A4219
:1005F00001DA002070BD40F233439A42A2F2334246
:1006000003DC524200F05DF800E090402C43F1D052
:10061000404270BDC1F30A5210B5C1F3130140F25C
:10062000FF3341F480119A4201DA002010BD40F2FC
:1006300033439A42A2F2334203DC524200F041F8C3
:1006400010BD904010BD000030B5041E71F10004D3
:1006500004DB4FF00044404264EB0101141E73F1CF
:10066000000405DB1C464FF00043524263EB0403D9
:10067000994208BF904230BD30B50B46014600207C
:100680002022012409E021FA02F59D4205D303FA54
:1006900002F5491B04FA02F52844151EA2F10102D5
:1006A000F1DC30BD202A04DB203A00FA02F1002000
:1006B00070479140C2F1200320FA03F319439040A0
:1006C0007047202A04DB203A21FA02F0002170470B
:1006D00021FA02F3D040C2F12002914008431946AA
:1006E0007047202A06DBCB17203A41FA02F043EA92
:1006F000E07306E041FA02F3D040C2F120029140DB
:1007000008431946704710B5141E73F1000408DA47
:10071000401C41F1000192185B411A4301D120F0C5
:10072000010010BD2DE9F04D92469B4611B1B1FA82
:1007300081F202E0B0FA80F220329046FFF7B2FF79
:1007400004460F4640EA0A0041EA0B0153465A4666
:10075000084313D0114653EA010019D0C8F14002F2
:100760005046FFF7AEFF05460E46504659464246F4
:10077000FFF798FF084305D0012004E020463946E2
:10078000BDE8F08D0020054346EAE0762C43374370
:100790000A986305E40AA0EB08000022FD0A44EA77
:1007A00047540A3002D500200146E9E70105101937
:1007B0006941DDE9084500196941BDE8F04DA2E74E
:1007C0002DE9F041054621F000400C46284309D0B0
:1007D000C4F30A5040F23341884205DD28462146E1
:1007E000BDE8F0812846FBE740F2FE31884210DC8C
:1007F0000CDB4FEA043040EA155050EA053105D0D1
:10080000104804F0004101430020E9E700200146C0
:10081000E6E7A0F233404642C6F1400228462146B0
:10082000FFF740FF07468846284621463246FFF735
:1008300048FF43463A46FFF766FF3246BDE8F041BF
:10084000FFF730BF0000F03FC1F30A52C1F31301BC
:1008500040F2FF3341F480119A4202DA002001464F
:10086000704740F233439A42A2F2334202DC5242D2
:10087000FFF727BFFFF716BF30B5041E71F1000464
:1008800004DB4FF00044404264EB0101141E73F19D
:10089000000405DB1C464FF00043524263EB0403A7
:1008A0008B4208BF824230BD064C074D06E0E0682F
:1008B00040F0010394E8070098471034AC42F6D3A7
:1008C000FFF766FC808F0008A08F000870B58C18B9
:1008D00010F8015B15F0070301D110F8013B2A1154
:1008E00006D110F8012B03E010F8016B01F8016B41
:1008F0005B1EF9D12B0705D40023521E0DD401F83D
:10090000013BFAE710F8013BCB1A921C03E013F805
:10091000015B01F8015B521EF9D5A142D8D300203A
:1009200070BD2DE9FF5F82460F46DDE90E4BBAF13F
:10093000000F3CD0201D07F0BFF9054600262246D7
:1009400028460399FFF772FC029800F0FF08B146B1
:1009500007E017F80910304607F058FF86B209F192
:100960000109A8F102004845F3DCB8F1020F03DAEF
:10097000401C385C464008E0A8F10100385C70403B
:10098000A8F10201795C80EA012606F00F002855E3
:10099000C6F30311601C2954C6F30321A01C29547B
:1009A000310BE01C2954201DABF800000AE0204662
:1009B00007F082F90546224628460399FFF736FCE0
:1009C000ABF80040284604B000F000B830BCBDE8E9
:1009D000C09F2DE9FE4F0746884691461E460D9D55
:1009E000681D07F069F904463FB12A4620460C9974
:1009F000FFF71CFC0E98058085E0C6F307102070F9
:100A000006F00F00607048EA4900A0702078C0F33B
:100A1000C0002178C1F3800148402178C1F3400132
:100A20004840217801F00101484000902078C0F34F
:100A3000C0006178C1F3C00148406178C1F3800112
:100A400048406178C1F340014840A17801F00101BC
:100A5000484001902078C0F380006178C1F3C00164
:100A60004840617801F001014840A178C1F3C0011C
:100A70004840A178C1F34001484002902078C0F37B
:100A800040006178C1F380014840617801F00101C4
:100A90004840A178C1F380014840A178C1F34001EA
:100AA0004840A17801F0010180EA010B207800F0B4
:100AB00001006178C1F340014840A178C1F3C00151
:100AC0004840A178C1F380014840A178C1F34001BA
:100AD0004840A17801F0010180EA010A0098E07025
:100AE0000198C100029841EA800040EA4B0040EAC8
:100AF0000A0020712A46601D0C99FFF797FB681DBC
:100B000081B20E980180204600F000B81EBCBDE8FE
:100B1000E08F00BFFEE7000000B587B0142102A8F7
:100B2000FFF79DFB00BF2F48C06C40F002002D492D
:100B3000C8640846C06C00F00200019000BF00BF0E
:100B400000BF0846C06C40F00100C8640846C06C95
:100B500000F00100019000BF00BF00BF0846C06C5C
:100B600040F00400C8640846C06C00F00400019026
:100B700000BF00BF41F62600029001200390002034
:100B800004900320059002A9174800F055FB0022AD
:100B90000221154800F052FC00220421124800F006
:100BA0004DFC00222021104800F048FC00224FF4A8
:100BB00000610D4800F042FC00224FF480510A48C9
:100BC00000F03CFC4FF40070029000200390049071
:100BD0000220059002A94FF0904000F02DFB07B0D5
:100BE00000BD0000001002400004004830B590F83D
:100BF000444004F01C050124AC40056C6C600468A2
:100C000063608468102C04D10468A2600468E16009
:100C100003E00468A1600468E26030BD7047000032
:100C200000BF03A006F09EF900BF00BFFEE7000072
:100C30004572726F725F48616E646C65720A0D0076
:100C400070B5054600BF43F60952B5FBF2F000FB54
:100C50001251521002EB012243F60953B2FBF3F298
:100C600002EB0022304B1A6000BF18460068000CEF
:100C70002E49087018460088000A48701846007807
:100C80008870084600782A49097888420FD00320E6
:100C9000284908702548007825490870234840787D
:100CA0002549087021488078244908701EE01F48B3
:100CB00040782149097888420BD002201D490870EC
:100CC0001A4840781C490870184880781B490870F9
:100CD0000CE01648807819490978884206D001202E
:100CE0001449087011488078144908701148007838
:100CF000012804D0022804D0032806D103E00824E8
:100D000005E0072403E0062401E0062400BF00BF3D
:100D10000648C01C074A1278811A06480278204605
:100D200005F00AFF70BD0000F4010020F80100206A
:100D3000EC010020FB010020ED010020EE0100206D
:100D40002DE9F0470C46DDE90867002100258C46B7
:100D500000BF60E04FF0010808FA01F504EA050C55
:100D6000AC4557D1D0F800804FEA410A4FF0030953
:100D700009FA0AF928EA0908C0F80080D0F80080CA
:100D80004FEA410902FA09F948EA0908C0F8008067
:100D9000012A01D0022A27D1D0F808804FEA410A5F
:100DA0004FF0030909FA0AF928EA0908C0F808808F
:100DB000D0F808804FEA410906FA09F948EA09081B
:100DC000C0F80880D0F804904FF0010808FA01F844
:100DD00029EA0809C0F80490D0F8048003FA01F960
:100DE00048EA0908C0F80480D0F80C804FEA410AAC
:100DF0004FF0030909FA0AF928EA0908C0F80C803B
:100E0000D0F80C804FEA410907FA09F948EA0908C5
:100E1000C0F80C80491C10299CD3BDE8F087000065
:100E20000246002111E00B4850F8310090420AD8E8
:100E3000084B481C53F83000904204D9184600EB88
:100E4000C10000797047481CC1B21529EBD300BF1F
:100E5000FEE70000188D00082DE9F05F83460E467E
:100E600091469846DDE90A7A780006F025FF0446A7
:100E700000251BE038F8150024F81500012008E0D3
:100E800034F8151038F815200241514024F8151097
:100E9000401CB042F4DB012202FA06F134F81520BE
:100EA000501C07F052FE24F815006D1CBD42E1DB1A
:100EB000B9F1000F16D0082512E034F8150000EB48
:100EC000D0714910A0EB410149B9012202FA06F1A3
:100ED00034F81520D01E07F038FE24F815006D1CDC
:100EE000BD42EADBAAF80070204600F000B830BC32
:100EF000BDE8C09F2DE9F84F04464FF000090020DF
:100F0000009014B9012000F003B9206920B120201D
:100F1000005D012800D100BF606D30B9204600F0AF
:100F2000FAF80020A06584F8500020688168C1F3B9
:100F3000407131B1206881686C4A1140816000BF06
:100F400000BF206802F047FEA0B920688168684AA7
:100F5000114041F08051816000BF664800686649D9
:100F6000B0FBF1F0009002E00098401E0090009865
:100F70000028F9D1206802F02EFE48B9606D40F0DB
:100F800010006065A06D40F00100A0654FF0010900
:100F9000206802F025FE0646606D00F01000002873
:100FA0007BD1002EFCD1606D20F4807040F00200F7
:100FB0006065206802F00AFED0B9504802F006FED3
:100FC00082464F4802F002FE4AEA000A4D4802F00B
:100FD000FDFD4AEA000ABAF1000F09D160684A49EA
:100FE000896821F47C110143474A916000BF00BF2A
:100FF000607E616B41EA4030E1680843A1680843C4
:101000002021095D40EA01452020005D012803D12F
:10101000A08C401E45EA4045A06A28B1208D00F40E
:101020007070E16A084305432068C068374908408A
:1010300028432168C860206802F0D2FD80462068FD
:1010400002F0BFFD0746B8F1000F2DD127BB207E6F
:10105000002141EA803194F8300041EA40052068DF
:10106000C06844F20201884328432168C86094F8AC
:101070003800012812D1E06B40F00101206C0843D8
:10108000616C0843A16C08432168096940F2FC7255
:10109000914308432168086106E01FE02068006969
:1010A00020F00100216808612069012809D1206829
:1010B000006B20F00F00E169491E084321680863B6
:1010C00005E02068006B20F00F0021680863606D68
:1010D00020F0020040F00100606505E0606D40F026
:1010E000100060654FF0010948460CE7C0FFFF5F44
:1010F000C0FFFF7F38010020400D030000000450B6
:1011000000010450000204500003045007C0F0FF27
:1011100018BCBDE8E08F704770B50446002594F810
:101120002500022803D00420E063012520E0206888
:10113000006820F00E00216808602068006820F038
:1011400001002168086094F8440000F01C010120AF
:101150008840216C4860012084F8250000BF0020F1
:1011600084F8240000BFA06B10B12046A16B884713
:10117000284670BD2DE9F04104460D4616461F462F
:101180004FF0000800BF94F82400012802D102208B
:10119000BDE8F081012084F8240000BF94F8250008
:1011A00001282CD1022084F825000020E06320686B
:1011B000006820F00100216808603B46324629465D
:1011C0002046FFF713FD206B30B12068006840F027
:1011D0000E00216808600BE02068006820F0040021
:1011E000216808602068006840F00A0021680860F3
:1011F0002068006840F001002168086006E000BF38
:10120000002084F8240000BF4FF002084046BFE7EA
:1012100070B5044600F018F906462546681C10B162
:1012200004480068054400BF00F00EF9801BA84286
:10123000FAD370BD3401002078B503460022E5E002
:10124000012696400D6805EA0604002C7DD04D6805
:10125000022D02D04D68122D13D1D60803F12005BE
:1012600055F826005507EE0E0F25B540A843560742
:10127000F60E0D69B5402843D60803F1200545F860
:101280002600186856000325B540A8430D7905F0DF
:1012900003055600B540284318604D68012D08D05D
:1012A0004D68022D05D04D68112D02D04D68122DCC
:1012B00013D1986856000325B540A8435600CD6861
:1012C000B54028439860586801259540A8430D799A
:1012D000C5F300159540284358600D7905F00305C6
:1012E000032D09D1D86A01259540A8430D79C5F38E
:1012F000C00595402843D862D86856000325B540FC
:10130000A84356008D68B5402843D8604D6805F065
:101310008055B5F1805F78D100BF3F4D2D6E45F00F
:1013200001053D4E356635462D6E05F001050095EB
:1013300000BF00BF4FEAB635960855F8260095075E
:101340002E0F0F25B540A84300E05EE0B3F1904FAB
:1013500001D100251EE0314DAB4201D1012519E03C
:101360002F4DAB4201D1022514E02E4DAB4201D1ED
:1013700003250FE02C4DAB4201D104250AE02B4D93
:10138000AB4201D1052505E0294DAB4201D106252F
:1013900000E007259607360FB5402843254D9608EF
:1013A00045F82600244D2868A0434D6805F4803593
:1013B000B5F5803F00D120431F4D28602D1D2868C2
:1013C000A0434D6805F40035B5F5003F00D120433A
:1013D000194D2D1D28602D1D2868A0434D6805F46A
:1013E0008015B5F5801F00D12043134D08352860C6
:1013F0002D1D2868A0434D6805F40015B5F5001FA4
:1014000000D120430C4D0C352860521C0D68D5408E
:10141000002D7FF415AF78BD001002400004004895
:1014200000080048000C0048001000480014004864
:101430000018004808000140000401400AB1816121
:1014400000E08162704700000148006870470000BA
:101450002C01002003480068034909680844014939
:10146000086070472C0100203401002010B50024D2
:10147000032000F08DF80F2000F008F808B10124D7
:1014800001E000F02FF8204610BD000070B50446C2
:10149000002511480068D8B10F4800684FF47A71F0
:1014A000B1FBF0F00D490968B1FBF0F6304601F0F0
:1014B000B1F958B9102C07D200222146501E00F075
:1014C00025F80748046004E0012502E0012500E05A
:1014D0000125284670BD000034010020380100209D
:1014E0003001002010B501F0B9FE10BD01460846DC
:1014F000002809DB00F01F0301229A4043099B00EA
:1015000003F1E023C3F8002100BF70472DE9F05F2D
:1015100080460D461646002706F0FAF9074639467A
:101520002A46334601F00700C0F1070ABAF1040F5A
:1015300002D94FF0040A01E0C0F1070AD14600F1D8
:10154000040ABAF1070F02D24FF0000A01E0A0F13D
:10155000030AD4464FF0010A0AFA09FAAAF1010A6D
:101560000AEA020A0AFA0CFA4FF0010B0BFA0CFB1A
:10157000ABF1010B0BEA030B4AEA0B042146404690
:1015800006F0CEF900F000B830BCBDE8C09F000006
:1015900000BF00F00702064B19684FF6FF03194021
:1015A000044B0B4343EA0221014B196000BF704713
:1015B0000CED00E00000FA050246B2F5007F2AD1EA
:1015C0001D48006800F4C060B0F5007F32D01A48B2
:1015D000006820F4C06040F40070174B1860174892
:1015E000006832235843164BB0FBF3F0411C00E077
:1015F000491E1148406900F48060B0F5806F01D148
:101600000029F5D10C48406900F48060B0F5806F86
:1016100010D1032070470848006800F4C060B0F59E
:10162000806F07D00448006820F4C06040F48060F8
:10163000014B18600020EDE70070004038010020E9
:1016400040420F000248006800F4C060704700008C
:10165000007000400348006840F004000149086041
:1016600070470000001002402DE9F04104460D468D
:1016700014B90120BDE8F0815548006800F007006A
:10168000A8420ED25248006820F007002843504973
:1016900008600846006800F00700A84201D0012059
:1016A000E8E7207800F00100002840D060680328B7
:1016B00006D14848006800F00070D8B90120D9E789
:1016C0006068022806D14348006800F4003088B9F9
:1016D0000120CFE7606830B93E48006800F00200A2
:1016E00040B90120C6E73B48006800F4806008B9B3
:1016F0000120BFE73748806820F003006168084395
:1017000034498860FFF7A0FE064608E0FFF79CFE1C
:10171000801B41F28831884201D90320AAE72D4875
:10172000806800F00C006168B0EB810FEED120788A
:1017300000F00200022807D12648806820F0F0005F
:10174000A1680843234988602148006800F0070029
:10175000A8420ED91E48006820F0070028431C4903
:1017600008600846006800F00700A84201D0012088
:1017700080E7207800F00400042807D1154880682D
:1017800020F4E060E168084312498860207800F0A6
:101790000800082808D10F48806820F460502169AB
:1017A00040EAC1000B49886000F046F809498968A1
:1017B000C1F30311084A515C01F01F01C8400749F9
:1017C000086007480068FFF761FE0746384651E7A2
:1017D0000020024000100240A08C000838010020C8
:1017E00030010020014800687047000038010020E7
:1017F00000B5FFF7F7FF05498968C1F30221044AE4
:10180000515C01F01F01C84000BD00000010024003
:10181000B08C000800B5FFF7E5FF05498968C1F302
:10182000C221044A515C01F01F01C84000BD000004
:1018300000100240B08C0008F0B500230020DFF853
:10184000D4C0DCF808C00CF00C01DFF8C8C0DCF82C
:101850000CC00CF0030719B10C291ED1012F1CD1AB
:10186000DFF8B0C0DCF800C00CF0080CBCF1000FD1
:1018700006D1DFF8A0C0DCF894C0CCF3032305E068
:10188000DFF890C0DCF800C0CCF30313DFF888C0A9
:101890005CF8233041B9184606E0042901D11F48FD
:1018A00002E0082900D11E480C2932D1DFF864C0BB
:1018B000DCF80CC00CF00304012C09D0022C02D07F
:1018C000032C04D101E0154A04E0154A02E000BFF0
:1018D0001A4600BF00BFDFF83CC0DCF80CC0CCF3F8
:1018E000021C0CF10106DFF82CC0DCF80CC0CCF3B4
:1018F000062C0CFB02FCBCFBF6F2DFF818C0DCF88F
:101900000CC0CCF3416C0CF1010C4FEA4C05B2FB5E
:10191000F5F0F0BD00100240B88C00080024F4007F
:1019200000127A002DE9F843044614B90120BDE8FD
:10193000F883F948806800F00C07F748C06800F0A9
:101940000306207800F01000102876D11FB10C2F6C
:1019500075D1012E73D1F048006800F0020018B173
:10196000A06908B90120E2E7EB48216A006800F0AD
:10197000080020B1E848006800F0F00005E0E64803
:101980009430006800F47060000981421FD9206A19
:1019900002F0C6FF08B10120C9E700BFDE480068B9
:1019A00040F00800DC4908600846006820F0F000BC
:1019B000216A0843D849086000BF0846406820F4FF
:1019C0007F40E16940EA0120D34948601EE000BF42
:1019D000D148006840F00800CF4908600846006818
:1019E00020F0F000216A0843CB49086000BF084698
:1019F000406820F47F40E16940EA0120C649486020
:101A0000206A02F08DFF08B1012090E7FFF714FF74
:101A1000C1498968C1F30311C04A515C01F01F013B
:101A2000C840BF490860BF480068FFF72FFD8046E7
:101A3000B8F1000F4ED0404679E74BE0FFE7A069D0
:101A400080B3B548006840F00100B3490860FFF773
:101A5000FBFC054606E0FFF7F7FC401B022801D916
:101A6000032064E7AC48006800F002000028F2D0D0
:101A700000BFA948006840F00800A7490860084670
:101A8000006820F0F000216A0843A349086000BF05
:101A90000846406820F47F40E16940EA01209E4901
:101AA000486017E0FFE79C48006820F001009A4971
:101AB0000860FFF7C9FC054606E0FFF7C5FC401BC0
:101AC000022801D9032032E79348006800F00200A1
:101AD0000028F2D1207800F0010000285CD0082F07
:101AE00003D00C2F0AD1032E08D18B48006800F4D4
:101AF000003088B3606878BB012018E700BF6068D9
:101B0000B0F5803F06D18448006840F480308249B7
:101B100008601AE06068B0F5A02F0BD17E4800681D
:101B200040F480207C4908600846006840F480301A
:101B300008600AE07848006820F480307649086040
:101B40000846006820F48020086000BF606890B1FB
:101B5000FFF77AFC054607E01EE0FFF775FC401B27
:101B6000642801D90320E2E66B48006800F40030E5
:101B70000028F2D010E0FFF767FC054606E0FFF70B
:101B800063FC401B642801D90320D0E6624800684A
:101B900000F400300028F2D1207800F00200022882
:101BA00052D1042F03D00C2F14D1022E12D15A4837
:101BB000006800F4806018B1E06808B90120B6E65A
:101BC0005548406820F0F850217C40EA01605249B5
:101BD000486039E0E06800B34F48006840F4807026
:101BE0004D490860FFF730FC054606E0FFF72CFC86
:101BF000401B022801D9032099E64748006800F4F9
:101C000080600028F2D04448406820F0F850217CE1
:101C100040EA01604049486016E03F48006820F40F
:101C200080703D490860FFF70FFC054606E0FFF7AE
:101C30000BFC401B022801D9032078E636480068D7
:101C400000F480600028F2D1207800F00800082815
:101C500036D16069D0B130489430006840F001005E
:101C60002D49C1F89400FFF7EFFB054606E0FFF7AA
:101C7000EBFB401B022801D9032058E6264894308C
:101C8000006800F002000028F1D019E022489430EA
:101C9000006820F001002049C1F89400FFF7D4FB50
:101CA000054606E0FFF7D0FB401B022801D90320C0
:101CB0003DE619489430006800F002000028F1D198
:101CC000207800F00400042873D14FF00009124876
:101CD000806D00F0805078B900BF0F48806D40F0F3
:101CE00080500D4988650846806D00F08050009056
:101CF00000BF00BF4FF001090B48006800F480707E
:101D000008BB0948006840F4807007490860FFF785
:101D10009BFB054611E0000000100240A08C00086B
:101D2000380100203001002000700040FFF78CFBDC
:101D3000401B022801D90320F9E59948006800F406
:101D400080700028F2D000BFA068012808D1954813
:101D5000006840F0010093499039C1F8900021E0FB
:101D6000A06805280FD18F48006840F004008D4915
:101D70009039C1F890000846D0F8900040F001007A
:101D8000C1F890000EE08748006820F00100854906
:101D90009039C1F890000846D0F8900020F0040077
:101DA000C1F8900000BFA068A0B1FFF74DFB054649
:101DB00009E02EE0FFF748FB401B41F288318842E2
:101DC00001D90320B3E57748006800F0020000283D
:101DD000F0D012E0FFF738FB054608E0FFF734FBD0
:101DE000401B41F28831884201D903209FE56D48AC
:101DF000006800F002000028F0D1B9F1010F07D10E
:101E000068489038806D20F0805066499039886528
:101E100000BFA06A00285BD00C2F78D0A06A0228EF
:101E200057D160489038006820F080705D49903943
:101E30000860FFF709FB054606E0FFF705FB401BBE
:101E4000022801D9032072E556489038006800F056
:101E500000700028F1D1D4E90B10401E41EA0011B6
:101E6000606B41EA0021A08F0122C2EB500041EAE1
:101E700040514020005DC2EB500041EA4061A06B40
:101E8000000941EA404047499039C968464A114033
:101E9000084344499039C8600846006840F08070A3
:101EA00008600846C06840F08070C860FFF7CCFA50
:101EB000054606E0FFF7C8FA401B022801D90320B7
:101EC00035E538489038006800F000700028F1D0FF
:101ED00064E034489038006820F0807031499039CF
:101EE00008600846006800F0205020B90846C06825
:101EF00020F00300C8602B489038C0682B49084088
:101F000028499039C860FFF79FFA054607E00EE0C0
:101F1000FFF79AFA401B022801D9032007E5214860
:101F20009038006800F000700028F1D136E0A06A17
:101F3000012800D1FBE41B489038C66806F0030175
:101F4000E06A814228D106F07001206B401EB1EB9F
:101F5000001F21D106F4FE41606BB1EB002F1BD1B5
:101F600006F40031A06B072801D0012000E000201A
:101F7000814211D106F4C001A08F0122C2EB5000B2
:101F8000B1EB405F08D106F0C0614020005DC2EBBC
:101F90005000B1EB406F01D00120C8E40020C6E43E
:101FA00000700040901002408C809DF9FFFFEEFE13
:101FB000704770477047000010B504464FF400208A
:101FC0003249086020688068C0F3C03078B120686A
:101FD000C068C0F3C02050B1204600F061F820680E
:101FE000C06800F0800060F408602168C860206864
:101FF000006C2749084008B1012000E0002078B1BA
:102000002068C068C0F3403050B12068C06800F05C
:10201000800060F402502168C8602046FFF7C8FFC6
:102020002068006C1B49084008B1012000E0002036
:1020300078B12068C068C0F3803050B12068C068B3
:1020400000F0800060F481402168C8602046FFF7FE
:10205000B0FF2068006C1049084008B1012000E082
:10206000002078B12068C068C0F3C03050B120684B
:10207000C06800F08000094908432168C860204614
:10208000FFF798FF012084F8210010BD14040140DF
:102090000400010004000800040040007F7FFFFFEF
:1020A000704770B504460D4600BF94F82000012823
:1020B00001D1022070BD012084F8200000BF022061
:1020C00084F8210000BFCA2021684862532021689B
:1020D000486200BFB5F5807F2BD12068806820F46E
:1020E0008070216888602068806820F480502168B2
:1020F0008860FFF7A9F9064614E0FFF7A5F9801BF1
:10210000B0F57A7F0ED900BFFF202168486200BF7A
:10211000032084F8210000BF002084F8200000BFC5
:102120000320C7E72068C06800F001000028E4D061
:102130002BE02068806820F40070216888602068A7
:10214000806820F4005021688860FFF77DF906461A
:1021500014E0FFF779F9801BB0F57A7F0ED900BF44
:10216000FF202168486200BF032084F8210000BFDF
:10217000002084F8200000BF03209BE72068C0688F
:10218000C0F340000028E4D000BF00BFFF2021685A
:10219000486200BF012084F8210000BF002084F8BD
:1021A000200000BF00BF85E770B505460B46164608
:1021B000286840680E4900EA0104200CD870C4F376
:1021C0000420587004F03F009870C4F34230187037
:1021D0005EB9D87802F0F2FBD870587802F0EEFBC6
:1021E0005870987802F0EAFB9870002070BD0000EB
:1021F0003FFFFF0070B504460B4616462068806A14
:10220000586020680069C0F30E009860206800687C
:102210000E4900EA0105C5F305401870C5F3062014
:10222000587005F07F009870A80DD8705EB91878C6
:1022300002F0C4FB1870587802F0C0FB5870987810
:1022400002F0BCFB9870002070BD00007F7F7F0013
:102250002DE9F04704460D46904600BF94F8200053
:10226000012802D10220BDE8F087012084F8200077
:1022700000BF022084F82100B8F1000F2AD12068A5
:10228000806800F0400000B102E00020E87000BF6C
:10229000E86900B900E000BF287802F099FB4FEA36
:1022A0000049687802F094FB49EA0029A87802F016
:1022B0008FFB49EA0009E87849EA805995F820003F
:1022C00002F086FB49EA0060E9690843696940EA6F
:1022D00001061BE02068806800F0400000B102E0C9
:1022E0000020E87000BF28780004697840EA0120E7
:1022F000A9780843E97840EA815095F8201040EA2F
:102300000160E9690843696940EA0106A9696868EA
:1023100040EA010700BFCA202168486253202168B3
:10232000486200BF686AB0F5807F3ED1206880684F
:1023300020F48070216888602068C06800F0800008
:1023400060F4C0702168C860FFF77EF8814615E030
:10235000FFF77AF8A0EB0900B0F57A7F0ED900BF3D
:10236000FF202168486200BF032084F8210000BFDD
:10237000002084F8200000BF032074E72068C068B4
:1023800000F001000028E3D02068C661206847649F
:102390002068806840F480702168886020688068C8
:1023A00040F48050216888603EE02068806820F416
:1023B0000070216888602068C06800F0800060F4C8
:1023C00020702168C860FFF73FF8814615E0FFF7ED
:1023D0003BF8A0EB0900B0F57A7F0ED900BFFF20D3
:1023E0002168486200BF032084F8210000BF00205C
:1023F00084F8200000BF032035E72068C068C0F3E0
:1024000040000028E3D020680662206887642068C6
:10241000806840F40070216888602068806840F41B
:1024200000502168886000BF0E48006840F480209A
:102430000C4908600B480830006840F480200949C6
:102440000831086000BFFF202168486200BF0120FA
:1024500084F8210000BF002084F8200000BF00BFE6
:1024600001E700000004014070B504460CB90120EA
:1024700070BD606A00B900BF0021A16294F85D00E0
:1024800028B9002084F85C00204600F04DF80220B6
:1024900084F85D002068006820F040002168086032
:1024A000E068B0F5E06F01D9002501E04FF48055F8
:1024B000E068B0F5706F05D0E068B0F5E06F01D06E
:1024C0000021A162206B40B9E068B0F5E06F02D94D
:1024D0000221216301E001212163D4E901010843C4
:1024E0002169084361690843218B01F400710843A5
:1024F000E1690843216A0843A16A0843216808602A
:102500000421A06901EA1040616A0843616B084335
:10251000E1680843284321684860002020660120C4
:1025200084F85D000020A3E770472DE9FF5F0446B3
:10253000894692461D460E9E012001900020009083
:1025400000BF94F85C00012803D1022004B000F021
:102550004AB9012084F85C0000BFFEF775FF07460A
:1025600094F85D00029060680390A846AB4602981C
:1025700001280BD00398B0F5827F04D1A06810B970
:102580000298042802D00220009022E1B9F1000F45
:1025900003D0BAF1000F00D015B90120009018E166
:1025A00094F85D00042802D0052084F85D00002026
:1025B0002066C4F840A0A4F84650A4F84450C4F8DB
:1025C0003890E587A587E0642065E068B0F5E06FA6
:1025D00002D8BBF1010F06D92068406820F4805072
:1025E0002168486005E02068406840F48050216818
:1025F00048602068006800F04000402805D020684E
:10260000006840F0400021680860E068B0F5E06FC5
:102610004ED9606810B1B8F1010F09D1A06B0088E4
:102620002168C860A06B801CA063E08F401EE0871B
:1026300036E02068806800F00200022810D1E08FA8
:1026400070B1019801280BD1A06B00882168C86087
:10265000A06B801CA063E08F401EE08700200190EB
:102660002068806800F0010080B1B4F8460068B1CD
:102670002068C068216C0880206C801C2064B4F83D
:102680004600401EA4F8460001200190FEF7DCFE43
:10269000C01BB04204D3701C10B10320009098E01E
:1026A000E08F0028C5D1B4F846000028C1D185E0EC
:1026B000606810B1B8F1010F17D1E08F01280AD975
:1026C000A06B00882168C860A06B801CA063E08FAD
:1026D000801EE08709E0A06B007821680873A06B7A
:1026E000401CA063E08F401EE08760E020688068A7
:1026F00000F0020002281ED1E08FE0B1019801280D
:1027000019D1E08F01280AD9A06B00882168C86020
:10271000A06B801CA063E08F801EE08709E0A06BA7
:10272000007821680873A06B401CA063E08F401EF6
:10273000E087002001902068806800F0010058B315
:10274000B4F8460040B3B4F84600012816D9206812
:10275000C068216C0880206C801C2064B4F846009E
:10276000801EA4F84600B4F84600012812D820685C
:10277000406840F48050216848600BE02068007B8E
:10278000216C0870206C401C2064B4F84600401E88
:10279000A4F8460001200190FEF756FEC01BB0428F
:1027A00001D3701C00B916B90320009011E0E08F2E
:1027B00000289BD1B4F84600002897D13A4631460C
:1027C000204602F0FDF918B101200090202020667B
:1027D00000BF012084F85D0000BF002084F85C0089
:1027E00000BF0098B2E630BCBDE8C09F042808D105
:1027F0004FF0E021096941F004014FF0E02211613E
:1028000007E04FF0E021096921F004014FF0E022D8
:102810001161704770B504462546681EB0F1807F8F
:1028200001D301200FE0681E4FF0E02148610F2125
:102830004FF0FF3005F074F800204FF0E021886180
:1028400007200861002070BD704770477047000086
:1028500010B504462648007800F0800080B90021B9
:10286000244800F07FF92449244A128801EB021120
:10287000086080201E49087001202149086036E068
:102880001F480068401C1E4908600846006847F65B
:10289000FF7188422BD10021164800F063F91649D8
:1028A000164A128801EB021148601148007800F0C6
:1028B0007F001149114A128801EB021188600F480C
:1028C0000088401C0D4908800020094908700C4907
:1028D00008600A480088032809DB0021054800F049
:1028E00013F800200549088001200649087010BD32
:1028F0008C0100204806002088060020940100205A
:10290000900100209601002030B504460D4635B1F7
:10291000042D0BD0082D10D00C2D1CD114E02068F4
:10292000C06820F002002168C86015E02068C06817
:1029300020F004002168C8600EE02068C06820F024
:1029400008002168C86007E02068C06820F0100017
:102950002168C86000E000BF00BF0022294620684F
:1029600004F0D0F900BF2068006A41F2111108405C
:1029700050B92068006A8910084028B920680068AA
:1029800020F001002168086000BF002030BD10B5B4
:10299000044620680069C0F34000D8B12068C068D0
:1029A000C0F34000B0B16FF002002168086101205F
:1029B00020772068806900F0030018B12046FFF7F7
:1029C00047FF05E0204600F0BEF8204600F0BCF8C6
:1029D0000020207720680069C0F38000D8B120680B
:1029E000C068C0F38000B0B16FF0040021680861D6
:1029F000022020772068806900F4407018B12046DA
:102A0000FFF726FF05E0204600F09DF8204600F085
:102A10009BF80020207720680069C0F3C000D8B17F
:102A20002068C068C0F3C000B0B16FF00800216832
:102A30000861042020772068C06900F0030018B105
:102A40002046FFF705FF05E0204600F07CF8204611
:102A500000F07AF80020207720680069C0F30010A9
:102A6000D8B12068C068C0F30010B0B16FF010009A
:102A700021680861082020772068C06900F4407050
:102A800018B12046FFF7E4FE05E0204600F05BF8B1
:102A9000204600F059F8002020772068006900F0F7
:102AA000010058B12068C06800F0010030B16FF03B
:102AB000010021680861204600F048F8206800699C
:102AC000C0F3C01058B12068C068C0F3C01030B166
:102AD0006FF08000216808612046FFF7B6FE20688D
:102AE0000069C0F3002058B12068C068C0F3C0106E
:102AF00030B16FF48070216808612046FFF7A4FEB2
:102B000020680069C0F3801058B12068C068C0F325
:102B1000801030B16FF0400021680861204600F05D
:102B20003AF820680069C0F3401058B12068C068C6
:102B3000C0F3401030B16FF02000216808612046DA
:102B4000FFF784FE10BD7047704700000449097804
:102B500021B103490978491C014A117070470000EE
:102B60008C0100200246002031B1042907D0082939
:102B700008D00C290CD108E01368586B09E01368E1
:102B8000986B06E01368D86B03E01368186C00E0DC
:102B900000BF00BF704770477047704701464B6FDA
:102BA0008A6F43EA020070472DE9F0470446206827
:102BB000C569206806682068876805F00F08B8F1C5
:102BC000000F0CD105F0200048B106F0200030B114
:102BD000206E10B12046216E8847BDE8F087B8F11D
:102BE000000F71D007F0010018B906F490700028AA
:102BF00079D005F0010048B106F4807030B10120B1
:102C000021680862E06F40F00100E06705F0020013
:102C100048B107F0010030B1022021680862E06F7E
:102C200040F00400E06705F0040048B107F001003F
:102C300030B1042021680862E06F40F00200E067D4
:102C400005F0080060B106F0200010B907F001009F
:102C500030B1082021680862E06F40F00800E067AA
:102C6000E06F80B305F0200038B106F0200020B1FD
:102C7000206E10B12046216E8847D4F87C902068E1
:102C8000806800F04000402802D009F0080020B31E
:102C9000204604F0B8FA2068806800F04000402820
:102CA00017D12068806820F0400021688860E06EBD
:102CB00058B12048E16E8863E06EFEF72DFA10B13E
:102CC000E06E816B88470DE00DE02046FFF765FF61
:102CD00008E02046FFF761FF04E02046FFF75DFFB4
:102CE0000020E06779E705F4801050B107F4800018
:102CF00038B14FF48010216808622046FFF74CFF7E
:102D00006BE705F0800040B106F0800028B1606EEE
:102D100010B12046616E88475FE705F0400030B192
:102D200006F0400018B1204604F07EFA55E700BFD7
:102D300053E700005371000810B504460CB9012098
:102D400010BDA06900B100E000BF606F28B900208D
:102D500084F87000204600F029F82420606720687D
:102D6000006820F0010021680860204604F0DEFAC7
:102D7000012800D1E4E7606A10B1204604F036F97A
:102D80002068406820F4904021684860206880688E
:102D900020F02A00216888602068006840F0010067
:102DA00021680860204604F09DF9C9E710B586B097
:102DB00004461F492068884238D100BF1D48C06CB6
:102DC00040F001001B49C8640846C06C00F00100D7
:102DD000009000BF00BF00BF0846806D40F4003087
:102DE00088650846806D00F40030009000BF00BF89
:102DF0000420019002200290012003900220049000
:102E00000720059001A94FF09040FEF715FA082021
:102E1000019001A94FF09040FEF70EFA2620FEF730
:102E200065FB032200212620FEF770FB06B010BDD3
:102E3000004400400010024010B50346986F20285F
:102E400065D101B10AB9012010BD00BF93F870002F
:102E5000012801D10220F7E7012083F8700000BFAC
:102E60005965A3F85820A3F85A200020186600BF1F
:102E70009868B0F5805F0AD1186920B940F2FF1058
:102E8000A3F85C0020E0FF20A3F85C001CE0986839
:102E900048B9186918B9FF20A3F85C0014E07F2036
:102EA000A3F85C0010E09868B0F1805F09D1186960
:102EB00018B97F20A3F85C0006E03F20A3F85C006F
:102EC00002E00020A3F85C0000BF0020D8672220A9
:102ED00098671868806840F001001C68A0609868D6
:102EE000B0F5805F04D1186910B90A48186601E08E
:102EF0000948186600BF002083F8700000BF1868FA
:102F0000006840F490701C68206000209CE702205C
:102F10009AE700005B720008C57200081D4A01684C
:102F2000914236D11C49098801F4004189BB1A49F4
:102F3000098801F4804171B1184909780A2903D040
:102F40000021154A118024E01349098841F4004109
:102F5000114A11801DE0114909780D2906D10E4949
:102F6000098841F480410C4A118012E00B4909782C
:102F7000094A1288C2F30D02094B9954064909887F
:102F8000491C054A118011460988C72901DD002125
:102F90001180704700440040A0010020A2010020E1
:102FA000F006002070B504460E461546606F2028D6
:102FB00049D106B10DB9012070BD00BF94F8700071
:102FC000012801D10220F7E7012084F8700000BF3A
:102FD000E664A4F85050A4F852500020E067212085
:102FE0006067A06EF8B11948A16EC8621848A16E5A
:102FF00008631848A16E48630020A16E88632368A7
:1030000003F128022B46E16CA06EFEF7B3F850B135
:103010001020E06700BF002084F8700000BF20206F
:1030200060670120C8E740202168086200BF0020D7
:1030300084F8700000BF2068806840F0800021683C
:1030400088600020B8E70220B6E70000C1710008E0
:10305000F97100086B71000810B50446014800685A
:10306000804710BD7C0100207047000008B519485A
:10307000007800282DD101201649087016481749FC
:1030800008600021154880F838104FF4803013494B
:10309000486000211148017681600161C16041767C
:1030A00080F82010C16204214161002180F83010B5
:1030B00000BF0B48C06C40F400500949C864084682
:1030C000C06C00F40050009000BF00BF0348FDF743
:1030D00011FF08BD7801002000000450D803002033
:1030E000001002400146002001F47F420AB140F086
:1030F00008004FF2F0020A400AB140F004004CF61A
:10310000CC420A400AB140F002004AF6AA220A4024
:103110000AB140F001007047F8B505460E46144666
:1031200000BF3449681A8D422CD006DCB5F1904FAF
:103130000AD031482844A0BB15E0B0F5806F31D0EB
:10314000B0F5A05F3DD13DE000BF2C48C06C40F021
:1031500001002A49C8640846C06C00F001000090D4
:1031600000BF00BF3DE000BF2448C06C40F002003B
:103170002249C8640846C06C00F00200009000BFFD
:1031800000BF2EE000BF1D48C06C40F004001B498A
:10319000C8640846C06C00F00400009000BF00BF87
:1031A0001FE00EE000BF1548C06C40F00800134956
:1031B000C8640846C06C00F00800009000BF00BF63
:1031C0000FE000BF00BF0D48C06C40F080000B490D
:1031D000C8640846C06C00F08000009000BF00BFCB
:1031E00000BF00BF00BF266021462846FEF724F836
:1031F000F8BD00000008004800FCFFB700100240C6
:103200002DE9F04781460D4616461C462846FFF735
:1032100069FF07467CB10B4840F82740284601F07B
:10322000B8F98046002231464046FEF76FF9404625
:10323000FEF75CF903E00020024941F82700BDE8F1
:10324000F0870000BC04002070B505460E46144609
:10325000E2B231462846FEF7F1F870BD00B587B0FE
:10326000142102A8FCF7FBFF00BF5F48C06C40F0D0
:1032700001005D49C8640846C06C00F0010001907F
:1032800000BF00BF00BF0846C06C40F00200C86429
:103290000846C06C00F00200019000BF00BF00BFF4
:1032A0000846C06C40F00400C8640846C06C00F0DA
:1032B0000400019000BF00BF00BF0846C06C40F092
:1032C0000800C8640846C06C00F00800019000BF08
:1032D00000BF00BF0846C06C40F01000C86408463C
:1032E000C06C00F01000019000BF00BF00BF084696
:1032F000C06C40F02000C8640846C06C00F020009C
:10330000019000BF00BF00BF0846C06C40F0400005
:10331000C8640846C06C00F04000019000BF00BFC8
:1033200000BF0846C06C40F08000C8640846C06C0E
:1033300000F08000019000BF00BF03200390002038
:10334000049049F6FF70029002A94FF09040FDF7FB
:1033500073FF4FF6FF70029002A92448FDF76CFF3F
:1033600002A92348FDF768FF02A92248FDF764FF80
:1033700002A92148FDF760FF02A92048FDF75CFF84
:1033800002A91F48FDF758FF02A91E48FDF754FF88
:103390001548C06C20F001001349C8640846C06C91
:1033A00020F00200C8640846C06C20F00400C86425
:1033B0000846C06C20F00800C8640846C06C20F0C5
:1033C0001000C8640846C06C20F02000C86408469D
:1033D000C06C20F04000C8640846C06C20F080003B
:1033E000C86407B000BD000000100240000400489F
:1033F00000080048000C0048001000480014004875
:1034000000180048001C004810B50748007848B96B
:10341000FFF72CFE05490868804700F0CBF9012032
:103420000149087010BD000079010020C88D000816
:103430002DE9F04704460E4600BF002231463148D0
:10344000FEF7D8FE00BF00BF2F48806A1FFA80F940
:1034500000BF002221462B48FEF7A6FE002231467F
:103460002848FEF7C7FE00BF2748806A80B248455B
:10347000E9D1E07840F2B55110FB01F0C01C85089D
:10348000E078C11700EB91718910A0EB810109B9B7
:103490001E4900E01E498A466178491E01EB41023F
:1034A000C2EB8111481C00EBD0714A106178491EB3
:1034B00049002AFA01F101F00301511A0D44A078E4
:1034C000401E054413484543B0787178C1EB0111A3
:1034D00000EB81003178C1EB4112C2EB012100EB1E
:1034E000011005440020800240EA9550AB0240F2F2
:1034F000FF327168511A5F1840F1000841463846A2
:10350000BDE8F087FC04002000280040505544002E
:10351000A0AA9900805101000320704710B586B021
:1035200001A96846FFF784FF044602480068201A94
:1035300006B010BD4805002010B586B001A9684648
:10354000FFF776FF0446204606B010BD10B50446CE
:10355000FFF7E4FF211A0D48B0F90000C01C8142BA
:1035600004D90021042000F059FD03E001210420CA
:1035700000F054FD00F018FD012803D10348B0F914
:103580000000241A204600F011F810BD820100202E
:1035900010B5054901F11400FFF74AFF0249091F60
:1035A00008600846006810BD4C0500202DE9F04376
:1035B00087B004464FF00008C146002600270025CA
:1035C0001422544902A8FCF731FE5248001F8069BA
:1035D000019000F0ABF840F2FF310398081A1FFA8F
:1035E00080F8C4F3090040441FFA80F8A40A9DF84B
:1035F000065003E04848241A681C85B246488442B5
:10360000F8D29DF8087003E0A4F56164781C87B2D5
:10361000B4F5616FF8D29DF8096002E03C3C701C83
:1036200086B23C2CFAD29DF80A0020441FFA80F999
:1036300007E0A8F580601FFA80F809F101001FFA81
:1036400080F9B8F5806FF4DA05E0A9F13C001FFAC3
:1036500080F9701C86B2B9F13C0FF6D204E0A6F1F5
:103660003C0086B2781C87B23C2EF8D204E0A7F169
:10367000180087B2681C85B2182FF8D29DF8070091
:10368000C11700EB91718910A0EB810181B99DF800
:103690000500401E2149085CA84219DA9DF8050082
:1036A000401E085C95FBF0F100FB115085B20FE065
:1036B0009DF80500401E1A49085CA84208DA9DF8EA
:1036C0000500401E085C95FBF0F100FB115085B22F
:1036D00040F2FF30A0EB0800124948604FF0206034
:1036E000886181F802904E700F7081F820509DF82B
:1036F0000B00C8700020C86148614FF480704862B8
:103700000020C860086100220748FEF7A1FD07B04D
:10371000BDE8F0834C05002080510100488E000870
:103720003C8E000820050020FC04002010B54FF45A
:1037300080710948FEF7B5FC07480068C06800F0D2
:10374000800060F4C07004490968C8604FF48020AC
:103750000249086010BD0000FC0400201404014070
:1037600001468A0AC1F309014FF47A7050434FF4BD
:103770007A7311FB03F300EB9320704770B5044696
:103780008020A4FB005001467D2200232846FCF740
:1037900019FD70BD01B582B04FF0FF30012301AAC1
:1037A00002A900900248FEF7C0FEBDF804000EBD5D
:1037B0006405002008B51D481D49086018211C48F3
:1037C000C161002181604FF4827019494860002175
:1037D0001748016141614FF4E061C16000218162DD
:1037E00001624FF4007181610021416200BF114804
:1037F000006E40F480500F4908660846006E00F4E1
:103800008050009000BF00BF09480068006840F089
:1038100040000749096808600548FEF725FE08B121
:10382000FDF7FEF900F008F808BD00000030014087
:10383000640500200010024000B585B014216846E0
:10384000FCF70DFD02200190002002900320039060
:10385000052004906A4620214FF09040FFF75CFC61
:103860006A4640214FF09040FFF756FC6A4680219F
:103870004FF09040FFF750FC012001900020029093
:103880006A4640210448FFF747FC012240210248D4
:10389000FFF7DAFC05B000BD000400482DE9FF4F3A
:1038A00085B0884691461E46DDF848B00020049059
:1038B000039002900190009082460024304604F06C
:1038C000FBF90746ABF8006000256CE0A8F10200A8
:1038D000A84201DD042000E00598824619F8054061
:1038E000BAF1010F41D004F00100C4F34001484097
:1038F000C4F3800148400490C4F34000C4F3800145
:103900004840C4F3C0014840039004F00100C4F3F0
:1039100040014840C4F3C0014840029004F0010057
:10392000C4F380014840C4F3C00148400190E0075F
:10393000000EC4F3400140EA8110C4F3800140EA64
:103940004110C4F3C00140EA0111049841EAC001EA
:10395000039841EA8001029841EA40000199084336
:10396000CAF10401084178551CE0C4F3C000C4F357
:1039700080014840C4F34001484004F00101484040
:103980000090E007C00EC4F3400140EAC100C4F358
:10399000800140EA8100C4F3C00140EA410000997F
:1039A000084378556D1CB54290DB384609B000F0ED
:1039B00000B830BCBDE8C08F00E000BFFDE710B527
:1039C00000F030FE00F09CFE10BD00002DE9FF4F1E
:1039D00085B00D469B4600260027002412980490CF
:1039E000002003908046029082460190CEE0A81EFF
:1039F000B04201DD042000E00598001DC7B2079821
:103A000010B1A81EC4B205E0A81EB04200DD00E05F
:103A10002846C4B22146039805F0B0F80390214629
:103A20000398FCF71CFC31191298814206DA2246F1
:103A30000BEB06010398FCF7F9FB06E01298821BDA
:103A40000BEB06010398FCF7F1FB7900404605F00B
:103A500095F8804679004046FCF701FC0020544967
:103A6000088006E0701C86B251480088401C50490E
:103A700008804F480088A042F4DB00204C490880B1
:103A800066E000204B49088029E049490988494AF5
:103A90001288891A481E214605F057F80399085CD8
:103AA00043490978791A491E01228A401040404949
:103AB0000978791A491E08413E490978691A491E50
:103AC00088403B49098838F811100843384909886B
:103AD00028F8110037480088401C364908803548CE
:103AE0000088A042D1DBA81EB0422CD14FF00009C3
:103AF00000203149088010E02D48008838F8100077
:103B00002D490978084100F0010048441FFA80F966
:103B100029480088401C2849088027480088A84276
:103B2000EADB484609EBD0714910A9EB41012A1B99
:103B3000521E91401E4A128838F8122011431C4A26
:103B4000128828F812101A480088401C184908806A
:103B500017480088B84294DBBA444FEA4A010298F9
:103B600005F00CF80290029901EB4A01A1EB470025
:103B70007A004146FCF75AFB0498A04201DD214639
:103B800000E004990498401A80B204900498002838
:103B90007FF42DAF1398A0F800A0039803F0D4FE93
:103BA000404603F0D1FE029809B000F007B80000CB
:103BB000FC010020FE0100200002002030BCBDE816
:103BC000C08F01468868C0F3C0007047014688680E
:103BD00000F00100704701468868C0F3007070472C
:103BE00001468868C0F380007047000008B50549A9
:103BF000896D0143034A91651146896D0140009129
:103C000000BF08BD00100240014908607047000075
:103C100014040140F0B503460A46106890FAA0F07B
:103C2000B0FA80F47BE00125A540106800EA0501A8
:103C3000002973D050681D6891FAA1F6B6FA86F68D
:103C400077000326BE40B54391FAA1F6B6FA86F690
:103C5000760000FA06F635431D6000BF5068012863
:103C600002D05068022814D190689D6891FAA1F69C
:103C7000B6FA86F677000326BE40B54391FAA1F660
:103C8000B6FA86F6760000FA06F635439D6000BF68
:103C900000BF1069DD6891FAA1F6B6FA86F67700E2
:103CA0000326BE40B54391FAA1F6B6FA86F6760031
:103CB00000FA06F63543DD6000BF506802282DD1BA
:103CC000FF2914D850691D6A91FAA1F6B6FA86F652
:103CD000B7000F26BE40B54391FAA1F6B6FA86F6B4
:103CE000B60000FA06F635431D6200BF16E05069C3
:103CF0005D6A0E0A96FAA6F6B6FA86F6B7000F26A1
:103D0000BE40B5430E0A96FAA6F6B6FA86F6B60097
:103D100000FA06F635435D6200BF00BF641C106800
:103D2000E04000287FF47FAF5068012802D050683F
:103D3000022809D1D56810685E68864300FB05F744
:103D40003E435E6000BF00BF0020F0BD816270474F
:103D50008161704742694A4042617047C16801F021
:103D6000800161F49061C16070470146C868C0F38A
:103D700080207047016821F0800101607047016870
:103D800021F0010101607047C16821F48041C160E8
:103D90007047C16821F04001C1607047016841F07F
:103DA000010101607047C16841F00201C1607047C4
:103DB000F0B503461446012901D1002520E004296D
:103DC00001D101251CE0102901D1022518E040296C
:103DD00001D1032514E0B1F5807F01D104250FE066
:103DE000B1F5806F01D105250AE0B1F5805F01D101
:103DF000062505E0B1F5803F01D1072500E0082543
:103E00002846094D2E5C03F1180572191568074EF6
:103E1000375CF026BE40B543260C044F3F5CBE40E5
:103E200035431560F0BD0000548E0008668E000812
:103E300070B5012901D1002420E0042901D1012419
:103E40001CE0102901D1022418E0402901D10324EB
:103E500014E0B1F5807F01D104240FE0B1F5806F4B
:103E600001D105240AE0B1F5805F01D1062405E007
:103E7000B1F5803F01D1072400E008242346046AFD
:103E8000054DEE5C0A25B540AC43034DED5C02FAEE
:103E900005F52C43046270BD6F8E000810B5024614
:103EA00013682C4882420ED0B2F1804F0BD02A48C2
:103EB000824208D02948824205D02948824202D055
:103EC0002848824204D123F070004C6840EA040381
:103ED0002048824217D0B2F1804F14D01E4882424F
:103EE00011D01E4882420ED01D4882420BD01D4880
:103EF000824208D01C48824205D01C48824202D02F
:103F00001B48824204D123F44070CC6840EA040389
:103F100013608868D06200BF0888906200BF0D48B7
:103F200082420BD00F48824208D00F48824205D00F
:103F30000E48824202D00E48824203D108691063C3
:103F400000BF00BF00BF506940F00100506100BFDA
:103F5000002010BD002C014000040040000800407B
:103F6000000C00400034014000400140004401408A
:103F7000004801400146086900F001007047000058
:103F80008268024B1A400A4382607047F8BFFEFF06
:103F9000826822F070020A4382607047426822F011
:103FA00070020A434260704700BFEFF3108211466F
:103FB00072B6084A12680AB1002005E0064A126883
:103FC0000AB1012000E0022000BF81F3108800BF89
:103FD00070470000A8010020AC01002010B50A467F
:103FE00000BFEFF31083194672B63AB1012A0BD124
:103FF000094B1B680343084C236006E0064B1B6813
:104000008343054C236000E000BF00BF00BF81F385
:10401000108800BF10BD0000AC01002010B50A469A
:1040200000BFEFF31083194672B63AB1012A0BD1E3
:10403000094B1B680343084C236006E0064B1B68D2
:104040008343054C236000E000BF00BF00BF81F345
:10405000108800BF10BD0000A80100202DE9FF4F0F
:104060008FB005460C461E46DDE91C784FF000096E
:10407000CA46CB4600200E900D900C900B900A90F3
:104080000990089007900690059004900AAA21468E
:10409000284603F0E7FB814609A8BDF8281023460F
:1040A0003A46CDE90091029041461E98FCF791FCFA
:1040B0008246484603F048FC08A8BDF82410534641
:1040C0002246CDE9001029464046FCF72AFC8346EB
:1040D000504603F039FC07A80090BDF820305A463E
:1040E00031463846FFF7DAFB0E90584603F02CFCB9
:1040F00006A8BDF81C10CDE90010314638460E9BCD
:10410000209AFFF763FC0D900E9803F01DFC05A8A4
:10411000BDF81810CDE90010314638460D9B209AA5
:10412000FCF79AFE0C900D9803F00EFC04A8BDF865
:104130001410CDE90010314638460C9B119A00F05E
:104140001BFB0B900C9803F0FFFBBDF810101F98A1
:1041500001600B9813B000F000B830BCBDE8C08F10
:104160002DE9F04F2DED028B83B080468946B0EEED
:10417000408A01200290B7EE000A30EE480AF0EEC5
:10418000408A860200EE106AB8EEC00A20EE280AC5
:10419000BCEEC00A10EE107A00EE106AB8EEC00A4B
:1041A00020EE080ABCEEC00A8DED010A49464046E1
:1041B00004F030FA04F018FD00250024A246A346BE
:1041C000FFF7FDFBE348FCF73BFD2021E248FFF74A
:1041D000BFFD022001F0B0FE012004F039FB0320F6
:1041E00001F0AAFEDD48FFF7D9FDDD48FFF7D6FD57
:1041F0000020DA4924310860D9492431086079E186
:1042000060E1082C25D20020D6490870D44824301B
:104210000168D2482430006861F31F40D249096820
:1042200051F82410401AC508D048006850F82400FE
:1042300000EE100AF8EEC00A00EE105AB8EEC00AFE
:10424000CB4890ED001A40EE010ACA48C0ED000AC2
:10425000C5E00A2C36D20120C2490870C04824307B
:104260000168BE482430006861F31F40BE490968F8
:1042700051F82410401AC508BC48006850F82400C2
:1042800000EE100AF8EEC00A00EE105AB8EEC00AAE
:10429000B74890ED001A40EE010AB648C0ED000A9A
:1042A00090ED000ADFEDB40AB4EEE00AF1EE10FA88
:1042B00007DD90ED000ADFEDB10A30EE600A80ED17
:1042C000000A8CE00C2C25D20220A6490870A448D4
:1042D00024300168A1482430006861F31F40A249DE
:1042E000096851F82410401AC508A048006850F821
:1042F000240000EE100AF8EEC00A00EE105AB8EEE4
:10430000C00A9B4890ED001A40EE410A9948C0ED62
:10431000000A64E00D2C25D20320924908709048D1
:10432000243001688D482430006861F31F408E49B5
:10433000096851F82410401AC5088C48006850F8E4
:10434000240000EE100AF8EEC00A00EE105AB8EE93
:10435000C00A874890ED001A40EE410A8548C0ED3A
:10436000000A3CE086480068844237D204207D4938
:1043700008707B482430016878482430006861F375
:104380001F407949096851F82410401AC508774838
:10439000006850F8240000EE100AB8EEC00A681C4D
:1043A00000EE900AF8EEE00A714890ED001A00EE77
:1043B000810A704880ED000A90ED000ADFED6E0A78
:1043C000B4EEE00AF1EE10FA09DD90ED000ADFED3F
:1043D0006B0A30EE600A80ED000A00E081E065487B
:1043E00090ED000ABCEEC00A10EE100AFCF728FCA3
:1043F00000BF5B482430016858482430006861F3EE
:104400001F4000F007000028F3D10C2C53D954486A
:104410002430016851482430006861F31F4052493C
:10442000096851F8241001EB6601A1EB570188429D
:1044300041D94B482430016848482430006861F372
:104440001F404949096851F8241001EB660101EB4E
:10445000570188422FD220213F48FFF777FC0120E7
:1044600001F06AFD00BF3E48243001683B4824301B
:10447000006861F31F403C49096851F82410394431
:1044800078398842EFD320213348FFF761FC0320BD
:1044900001F052FD00BF3248243001682F4824301B
:1044A000006861F31F403049096851F8241039440D
:1044B00008398842EFD30AF1010A0BF1010B012000
:1044C00030490870264824300168244824300068A8
:1044D00061F31F402C49096851F8241088427FF687
:1044E00090AE00BF20211C48FFF732FC4FF0000BBC
:1044F000641C0025224800688442FFF481AE01203C
:1045000001F01AFD20211448FFF720FC174800682D
:1045100003F01AFA1448006803F016FA1A48006803
:1045200003F012FA4FF0000A002400200D49087031
:104530000A49243108600A49243108600748FFF716
:104540001EFC0748FFF71BFC03B0BDEC028B00F01C
:104550001DB8000080C5F71C00040048000400409E
:1045600000080040D0010020DC010020D401002020
:10457000B0010020F0010020CDC5E74D0024F44734
:10458000C4010020FB010020E001002030BCBDE898
:10459000C08F0146B1F5807F38D012DC102930D0B1
:1045A00008DC012925D0022925D0042925D0082995
:1045B0002FD124E0202926D0402925D0802928D1B8
:1045C00023E0B1F5805F27D009DCB1F5007F1ED074
:1045D000B1F5806F1ED0B1F5006F1AD11BE0B1F5B7
:1045E000005F1AD0B1F5804F18D0B1F5004F10D14F
:1045F00015E0062070470720FCE70820FAE70920AD
:10460000F8E70A20F6E700BF00BF00BF00BF172091
:10461000F0E700BF00BF00BF00BF00BF00BF282001
:10462000E8E7000000B58DB0142108A8FBF717FEDD
:10463000182102A8FBF713FE0220FFF7D7FA042087
:104640002C49C96C01432B4AD1641146C96C014005
:10465000019100BF00BF8020029002200390002043
:104660000490059006900220079002A92248FFF7C7
:10467000D1FA0020ADF8200009904FF6FF700A90A3
:1046800000200B9008A91D48FFF708FC1B48FFF706
:1046900071FB60211948FFF77BFC07211748FFF7E2
:1046A0006FFC10201549096A8143144A116200BF4A
:1046B000002210211148FFF77BFB002210210F4838
:1046C000FFF7B6FB0D48FFF764FB0C48FFF75CFBF8
:1046D00020210A48FFF762FC00BF0848806840F0CC
:1046E00080000649886000BF0846FFF75CFB0DB0FC
:1046F00000BD000000100240000800480004004017
:1047000000B585B014216846FBF7A9FD0420FFF72A
:104710006DFA0020ADF8000001904FF6FF70029096
:104720000020039069461248FFF7B8FB1048FFF7D6
:1047300021FB20210E48FFF72BFC07210C48FFF737
:104740001FFC0B48FFF725FB0948FFF71DFB002165
:104750000748FFF723FC00BF0548806820F0800071
:104760000349886000BF0846FFF71DFB05B000BD88
:104770000008004000BFFEE72DE9F04F2DED0E8B45
:1047800081B00D4690469946DDE9187A4FF0080B46
:1047900010200090B91C880003F08EFA044624B95A
:1047A0004EA003F08BF800BFFEE75846FBF7F5FE7E
:1047B00041EC1A0B012101FA05F0FBF7EEFE41EC8A
:1047C0001E0B9FED4D0B53EC102BFBF7F4FD41EC52
:1047D0001C0B4046FBF7F2FE41EC1D0B53EC1C2B6F
:1047E000FBF76CFE41EC1B0B53EC1A2BFBF7F1FDB6
:1047F00041EC190B9FED420B53EC102BFBF7DBFD4B
:1048000041EC180BFBF7E7FE20600098FBF7C5FEB4
:1048100041EC1A0B012101FA05F0FBF7BEFE41EC59
:104820001E0B9FED350B53EC102BFBF7C4FD41EC39
:104830001C0B4046FBF7C2FE41EC1D0B53EC1C2B3E
:10484000FBF73CFE41EC1B0B53EC1A2BFBF7C1FDB5
:1048500041EC190B9FED2A0B53EC102BFBF7ABFD32
:1048600041EC180BFBF7B7FE606002262BE0B11E8F
:1048700039F81100FBF7A2FE41EC1A0B012101FAF5
:1048800005F0FBF78AFE41EC1C0B4046FBF796FE59
:1048900041EC1D0B53EC1C2BFBF710FE41EC1B0BEA
:1048A00053EC1A2BFBF795FD41EC190B9FED140B04
:1048B00053EC102BFBF77FFD41EC180BFBF78BFE45
:1048C00044F82600761CB81C8642D0DBAAF800000B
:1048D000204601B000F018B800F01CB80A206D6541
:1048E0006D657279206973206E6F7420616C6967E1
:1048F0006E21210A00000000000000000000F03FCF
:10490000000000008084EE40BDEC088BBDEC06CBBF
:10491000FFF7E2BF30BCBDE8C08F704770470000B2
:10492000F8B5044600262348806D00F0805018B189
:10493000FCF788FE054616E000BF1E48806D40F07B
:1049400080501C4988650846806D00F080500090BA
:1049500000BF00BFFCF776FE05461648806D20F0CC
:10496000805014498865B5F5007F07D1802C10D997
:10497000A02C01D902260CE001260AE0802C01D9E6
:10498000032606E0802C01D1022602E0702C00D123
:1049900001260948006820F00700304306490860F6
:1049A0000846006800F00700B04201D00120F8BDC1
:1049B0000020FCE7001002400020024001460809E8
:1049C00000EB8000420001F00F001044C0B27047BD
:1049D00002460023114603E05B1CA1F10A00C1B2AC
:1049E0000A29F9D2180741EA1060704710B5084843
:1049F000FFF7BBF930B10648FFF7B0F904210548CD
:104A0000FFF7A8F94FF48020FFF7FEF810BD000073
:104A100000280040000400482DE9F041092001F081
:104A2000B3F80746062001F0AFF80604072001F0AE
:104A3000ABF846EA0026082001F0A6F846EA000591
:104A400000BF280AA5EB002143F6095200FB02F340
:104A50004A43803203EB122400BF0021092002F0F8
:104A600039F83B2001F090F800F0BF0040F040061C
:104A700031463B2002F02EF800BF3B2001F084F8C5
:104A800000F020002028F8D00F4801F0C7F93B20A3
:104A900001F07AF800F0BF0040F0400631463B20BC
:104AA00002F018F800BF3B2001F06EF800F0200083
:104AB0002028F8D03946092002F00CF8204601F0F1
:104AC000ADF9BDE8F081000000A1BC331CB50024A5
:104AD0002048806C40F001001E4988640846006E42
:104AE00040F4805008660120032100230222CDE912
:104AF0000010E0214FF09040FCF722F900BF44F491
:104B0000007444F4807444F0040400BF00BF44F017
:104B1000100400BF44F040044FF480500E49486038
:104B20004FF4E060486008460460006820F04000F0
:104B300008600846006820F0020008600846006827
:104B400020F0010008600846006840F0400008605E
:104B50001CBD0000001002400030014001460B481F
:104B6000C16000BF0948806800F001000028F9D04A
:104B70000648C068C2B200BF0448806800F0010067
:104B80000028F9D00148C068C0B270470030014029
:104B9000014600BF0948806800F002000028F9D0F3
:104BA0000648017300BF0548806800F00100002836
:104BB000F9D00248C068C0B2704700000030014020
:104BC000F8B504460E461546334600224FF4C05150
:104BD0002046009500F026F828B1206E40F0200015
:104BE00020660320F8BD3346002280212046009530
:104BF00000F06DF828B1206E40F020002066032000
:104C0000F0E7334600224FF4C0612046009500F0E3
:104C100009F828B1206E40F0200020660320E1E76B
:104C20000020DFE72DE9F04104460E4617461D46F9
:104C3000DDF8188044E0B6F5C06F02D10FB92068E6
:104C4000007B681CD8B3FCF7FFFBA0EB0800A84270
:104C500000D2A5BB2068406820F0E00021684860D1
:104C60006068B0F5827F0DD1A068B0F5004F03D029
:104C7000A068B0F5806F05D12068006820F0400082
:104C800021680860A06AB0F5005F0DD100BF206800
:104C9000006820F40050216808602068006840F433
:104CA00000502168086000BF012084F85D0000BF4B
:104CB000002084F85C0000BF0320BDE8F081FFE71E
:104CC000206880683040B842B5D10020F5E72DE972
:104CD000F04104460E4617461D46DDF818803EE0BA
:104CE000681CD8B3FCF7B0FBA0EB0800A84200D2C8
:104CF000A5BB2068406820F0E0002168486060683B
:104D0000B0F5827F0DD1A068B0F5004F03D0A06848
:104D1000B0F5806F05D12068006820F04000216860
:104D20000860A06AB0F5005F0DD100BF2068006880
:104D300020F40050216808602068006840F40050AA
:104D40002168086000BF012084F85D0000BF0020DA
:104D500084F85C0000BF0320BDE8F081FFE7206815
:104D600080683040B04201D1012000E00020B8420C
:104D7000B6D10020F0E7704700B585B01421684631
:104D8000FBF76DFA012001900020029003200390B0
:104D90006A4602210448FEF7BFF9002202210248B8
:104DA000FEF752FA05B000BD0008004800B585B016
:104DB00014216846FBF753FA01200190002002906D
:104DC000032003906A4602210448FEF7A5F9002259
:104DD00002210248FEF738FA05B000BD000800487D
:104DE0000149086070470000400100200146012091
:104DF0007047014600207047014800797047000065
:104E000028030020F0B52DED108B8BB005460C4625
:104E1000002615B1012D7DD18FE0C749C869FBF788
:104E2000CDFBCDE906012046FBF7C8FBCDE9040127
:104E3000302000F0A9FE20F0F90010B19FEDBF0B6B
:104E400001E09FEDC00B8DED020B272000F09CFED2
:104E500020F0F801491CB848008C0F183846FBF7C1
:104E60009CFB41EC1F0BB44890F82200012802D1B2
:104E70009FEDB41B01E09FEDB11BB0EE410AF0EED7
:104E8000610A53EC102B51EC1F0BFBF7F3F941ECCB
:104E90001E0B9DED020B53EC102BFBF7EBF941ECD5
:104EA0001D0B9DED040B53EC102BFBF7E3F941ECCC
:104EB000180BA14890F82400012802D19FEDA31BF4
:104EC00001E09FEDA01BB0EE410AF0EE610A53EC49
:104ED000102B51EC180BFBF7CDF941EC1C0B9FED9F
:104EE0009D0B53EC102BFBF774FA41EC1B0B9DED63
:104EF000060B53EC102BFBF7E1FA9FED980B53ECEC
:104F0000102BCDE908019DED080B51EC100BFBF7C0
:104F100060FA00E009E141EC1A0BB0EE4A0AF0EE4B
:104F20006A0A02F059FEB0EE409AF0EE609A51EC37
:104F3000190BFBF76FFB0646F7E09FED820BB0EE17
:104F400040AAF0EE60AA7C48406C072804D00828EC
:104F500009D0092815D10DE09FED820BB0EE40AAD3
:104F6000F0EE60AA0DE09FED810BB0EE40AAF0EEEE
:104F700060AA06E09FED7F0BB0EE40AAF0EE60AABB
:104F800000BF00BF6C4991F84820012101FA02F0EE
:104F9000FBF703FB41EC190B53EC192B51EC1A0BEB
:104FA000FBF78CFA41EC1B0B53EC1B2B9FED630BB7
:104FB00051EC100BFBF782FA41EC180B5E49B1F88B
:104FC0004E00FBF7FBFA41EC1D0B9FED6C0B53EC15
:104FD000102BFBF74FF941EC190B53EC182BFBF797
:104FE000F8F941EC1C0B544991F84D10081DFBF7E2
:104FF000D4FA41EC1D0B50498A6C91F84C100029F1
:1050000001DD022100E00021511A8800FBF7D6FAE9
:1050100041EC190BE2004849896C042303FB11227F
:105020001C32454991F85210102313FB01224249CA
:1050300091F8501009B1142100E00021501AFBF73B
:10504000BDFA53EC192BCDE900019DED000B51EC9D
:10505000100BFBF733FA41EC1F0BB0EE4F0AF0EEEA
:105060006F0A02F0A1FCB0EE40EAF0EE60EA53EC09
:105070001D2B51EC1E0BFBF7ACF9CDE908019FEDA0
:10508000310B53EC102B9DED080B51EC100BFBF783
:10509000DBFA02D29DED080B01E09FED2A0BB0EE8A
:1050A000409AF0EE609A53EC192B9FED2A0B51ECCD
:1050B000100BFBF7DFF8CDE9060153EC182B9DED43
:1050C000060B51EC100BFBF784F9CDE904019DEDC3
:1050D000040B53EC102B51EC1C0BFBF7CBF8CDE978
:1050E00002019FED1E0B53EC102B9DED020B51ECBA
:1050F000100BFBF76EF941EC1E0B9FED220B53ECEE
:10510000102BFBF7B7F841EC1D0BB0EE4D0AF0EE9B
:105110006D0A02F0D5FCB0EE409AF0EE609A51ECC8
:10512000190BFBF777FA064600BF00BF30460BB0FD
:1051300000F02CB8F0BD00002803002000000000A3
:105140000000F03F00000000000000000000000030
:1051500000000040000000000000204000000000AF
:1051600000408F40000000008084FE4000000000EE
:1051700080840E410000000080841E410000000079
:10518000000011402B8716D9CEF7EF3FBDEC088BFE
:10519000BDEC08CBFFF7CEBF0020704710B5034928
:1051A000096848688047801C10BD0000400100204D
:1051B00070B505461E4805601E491F4801F0DCFD1C
:1051C0001C491E4801F0D8FD1A491D4801F0D4FDC4
:1051D0001C48006801680120884700F033FDFFF794
:1051E0001BFC002000F0A8FE002412E004EB4401A8
:1051F000154A505C00F054FE04EB4402124B1A4472
:10520000917804EB44021A44507801F063FC601C6E
:10521000C4B2102CEAD3002000F042FE00200B495B
:1052200008710849096848688047801C70BD000003
:105230003C010020495A000890030020A8030020E8
:10524000C003002040010020E88C00082803002053
:1052500000B585B014216846FBF701F80D480190B0
:10526000022002906A4641024FF09040FDF754FF41
:105270006A4608210848FDF74FFF6A462021064884
:10528000FDF74AFF6A4610210348FDF745FF05B0C8
:1052900000BD0000000011100004004800B585B0FA
:1052A00014216846FAF7DBFF1048FFF799FD104814
:1052B000019002200290032003906A464FF480611F
:1052C0004FF09040FDF728FF6A4608210948FDF796
:1052D00023FF6A4620210748FDF71EFF6A4610217A
:1052E0000448FDF719FF05B000BD00006001002073
:1052F000000011100004004810B5044600224FF4CD
:1053000080614FF090402368FDF77AFF002208216A
:1053100008486368FDF774FF002220210548A36850
:10532000FDF76EFF002210210248E368FDF768FFD9
:1053300010BD0000000400482DE9F04707460C4668
:1053400015461E464FF001084FF000094FF0000AC5
:10535000FFF752FD10B10020BDE8F087384600F09D
:105360009FFD204600F05AFD052000F0E5FD0120DC
:10537000FBF74EFF01F0E8FC824608E0384600F0FB
:1053800039FC8146A94502DD4FF0000804E0504693
:1053900001F0E2FCB042F1D300BF01F061F94046F8
:1053A000DAE70000F8B5064600200090CA48007908
:1053B000012802D0022879D16BE1C748407910B1A9
:1053C000012874D1C0E0C44890F8240001283FD1DE
:1053D0003F2000F0D9FB00909DF8000000F0020093
:1053E000022835D00B213E2001F074FB10213F2014
:1053F00001F070FBB94801F059FDB74890F826005C
:1054000030B9B74801F052FD0020B34908710BE0F4
:105410000D2000F0B9FB40F0400421460D2001F0C2
:1054200059FBAF4801F008FDAE48006838B1AD48FF
:105430000068006918B1AB49096808698047002114
:10544000A54880F8301080F83110818741871EE12F
:10545000A148408F60BBA048808F48BB9E4890F811
:10546000220028B901219C483A3000F0B9FB05E040
:10547000322000F089FB014697484187964A92F80E
:105480003A3092F83C209A1AD1B2934A928F964BB6
:10549000D01800F0A5FB9048418F808F091A8E48E4
:1054A000808F084481B28C48818719E010E1EDE0DB
:1054B000FFE7894A92F83A3092F83C209A1AD1B222
:1054C000854A928F884BD01800F08AFB8248418F22
:1054D000808F091A8048808F084481B27E48818776
:1054E0007E4801F0E3FC7C4890F8260030B90020AB
:1054F000794908717A4801F0D9FC0BE00D2000F0E1
:1055000043FB40F0400421460D2001F0E3FA7448CB
:1055100001F092FC7348006868B1724800688068C6
:1055200048B16D4890F93220418F6E4800680023E1
:1055300084686D48A0470021674880F8301080F8E3
:10554000311081874187A2E04021122001F0C2FA88
:10555000122000F019FB00909DF8000000F02000E0
:10556000202819D12021122001F0B4FA5A4890F8CD
:10557000560010B9002058490871584801F096FCAF
:105580005848006838B157480068006918B1554953
:105590000968086980477AE0192000F0F5FA40B2FE
:1055A000801C81104C4880F860101A2000F0ECFA42
:1055B0000446494890F9600000281EDA4648806891
:1055C0004A4988420CD9A4F19D0000EB24114248BD
:1055D00090F96000084401B23F48A0F8621022E050
:1055E000A4F1A40000EB24113B4890F960000844AA
:1055F00001B23948A0F8621015E0374880683B498D
:10560000884208D9A4F19D0000EB241001B2324871
:10561000A0F8621007E0A4F1A40000EB241001B28E
:105620002D48A0F86210132000F0AEFA01462A4877
:1056300080F86410102000F0A7FA054629460D20D6
:1056400001F048FA244890F86410274800F0C8FA9E
:10565000214890F8560010B900201F4908711F48D2
:1056600001F024FC1F48006878B11E48006880687B
:1056700058B1194890F96030B0F9622090F8641080
:105680001848006885681848A84700E000BF00BFB8
:105690001FE0174801F00AFC0F48407938B1012893
:1056A00004D10821122001F015FA00BF00BF00202C
:1056B000094908710B48006838B10A480068006859
:1056C00018B1084909680868804700BF00BF00E0BA
:1056D00000BF00BFF8BD000028030020A803002081
:1056E000C00300203C0100202802002040DD4A1FAA
:1056F0009003002010B504465A480079012802D0D2
:1057000002286ED16EE05748407910B1012865D16A
:105710004EE0554801F0CAFB5248408F90B95148BD
:10572000808F78B94F4890F8220028B901214D4860
:105730003A3000F055FA05E0322000F025FA014633
:10574000484841874748418F808F091A454890F85B
:105750003E00814214DB434A92F83E20521ED1B2F1
:10576000404A928F414BD01800F03AFA3D48818F61
:1057700090F83E00401E084481B23A48818716E006
:10578000384A92F83A3092F83C209A1AD1B2354A07
:10579000928F364BD01800F023FA3248418F808F19
:1057A000091A3048808F084481B22E48818716E05C
:1057B0002F4801F07BFB8021122001F08BF90020A3
:1057C000284908712B48006838B12A480068C06829
:1057D00018B128490968C868804700E000BF00BFC9
:1057E0003DE03BE01F48407910B1012833D131E062
:1057F0001C48418F808F091A1A4890F83F00814257
:1058000010DD184A92F83F10928F184BD01801F013
:1058100089F91448818F90F83F00084481B21148FB
:10582000818716E00F4A92F83A3092F83C209A1A93
:10583000D1B20C4A928F0D4BD01801F073F9094880
:10584000418F808F091A0748808F084481B205482C
:10585000818701E000E000BF00BF00E000BF00BFA3
:1058600010BD000028030020C003002028020020F3
:10587000A80300203C01002070B5064600244848DB
:105880000079012802D002287ED15FE044484079A7
:1058900010B1012857D13BE00121414880F8301078
:1058A00090F83000012832D13D4890F8310070BBAB
:1058B0003C4801F0FBFA0121394880F831101120F1
:1058C00000F062F94010404241B2354880F8321091
:1058D0001C2000F059F905461B2000F055F945EA57
:1058E000002400BF200AA4EB002143F6095200FB6C
:1058F00002F34A43803203EB1223294A536300BF69
:105900000C2000F041F94109254880F838101BE0CF
:10591000234890F85300012814D10221122001F0ED
:10592000D9F82148006868B11F480068406948B14B
:105930001C2000F029F900F03F051B480068416970
:105940002846884700E000BF00BF27E014484079A0
:1059500010B101281ED100E01DE0114890F853005D
:10596000012816D10221122001F0B4F80E48006877
:1059700078B10D480068406958B11C2000F004F966
:1059800000F03F05084800E007E00068416928464C
:10599000884700E000BF00BF00E000BF00BF70BD4F
:1059A00028030020C00300203C01002010B504465D
:1059B0001848407910B1012829D100E028E01220D0
:1059C00000F0E2F800F0010080B10521122001F0A2
:1059D00081F811480068C8B10F4800688069A8B113
:1059E0000D4800688169012088470FE004211220DA
:1059F00001F070F80848006840B107480068806905
:105A000020B10548006881690020884700E000BF98
:105A100000BF10BD280300203C010020094949793E
:105A200011B101290AD108E0064991F8301019B9DD
:105A30000122044981F8302001E000E000BF00BFEE
:105A4000704700002803002070B505463A480079E9
:105A5000012802D002286CD136E03748407900BBDB
:105A60000021354880F8301080F831108187418757
:105A70000B213E2001F02EF810213F2001F02AF8E2
:105A80002D4890F8260001280CD10D2000F07CF85C
:105A900040F0400421460D2001F01CF8274801F099
:105AA000CBF905E0002024490871244801F0FEF9F3
:105AB0002348006838B122480068C06818B12049FE
:105AC0000968C868804735E000F0BCF8FEF7A4FF1D
:105AD000002000F031FA002412E004EB4401194ADE
