:020000040800F2
:10000000A01A0020A1010008A35000086D420008BA
:10001000194F00089F0B0008A5870008000000008A
:10002000000000000000000000000000B3590008BC
:10003000A10C000800000000A5500008F57700089A
:10004000BB010008BB010008F97800082956000828
:10005000BB010008BB010008BB010008BB01000890
:10006000BB010008BB010008BB010008BB01000880
:10007000BB010008BB010008BB010008BB01000870
:10008000BB010008BB010008BB010008BB01000860
:10009000BB010008BB010008BB010008BB01000850
:1000A00095790008BB010008BB010008BB010008EE
:1000B000A5790008E9790008BB010008BB01000828
:1000C000BB010008BB010008BB010008BB01000820
:1000D000BB010008BB01000865870008BB010008E0
:1000E000BB010008BB010008BB010008BB01000800
:1000F000BB010008BB010008BB010008BB010008F0
:10010000BB010008BB010008BB010008BB010008DF
:10011000BB010008BB010008BB010008BB010008CF
:10012000BB010008BB010008BB010008BB010008BF
:10013000BB010008BB010008BB010008BB010008AF
:10014000BB010008BB010008BB010008BB0100089F
:10015000BB010008BB010008BB010008BB0100088F
:10016000BB010008BB010008BB010008BB0100087F
:10017000BB010008BB010008BB0100080000000033
:10018000BB010008BB010008DFF810D000F0E0FB65
:1001900000480047AD990008AFF30080A01A002086
:1001A0000648804706480047FEE7FEE7FEE7FEE711
:1001B000FEE7FEE7FEE7FEE7FEE7FEE7A9780008B8
:1001C000890100082DE9F05F0546002092469B4614
:1001D00088460646814640241BE02846414647465D
:1001E000224600F08AFA53465A46C01A914110D36B
:1001F00011461846224600F071FA2D1A67EB0108E5
:100200004F4622460120002100F068FA17EB000952
:100210004E41201EA4F10104DFDC484631462A4647
:10022000434600F000B830BCBDE8C09F40EA01037F
:100230009B0703D009E008C9121F08C0042AFAD29C
:1002400003E011F8013B00F8013B521EF9D2704760
:10025000D2B201E000F8012B491EFBD27047002208
:10026000F6E710B513460A4604461946FFF7F0FFB5
:10027000204610BD2DE9FE4F804681EA0300C00FE5
:100280000C46009021F0004123F00045B8EB02003D
:10029000A94105D24046214690461C460B460246DF
:1002A00023F00040104347D0270DC7F30A00C3F3E3
:1002B0000A510290401A019040286BDAC3F31300F0
:1002C00040F4801B0098924620B10023D2EB030A31
:1002D00063EB0B0B01985946C0F14002504600F009
:1002E000FDF906460D4650465946019A00F015FAAA
:1002F00010EB08006141002487EA115284EAE77399
:100300001A4340D0009A62B3019A012A4FEA075279
:1003100015DC001B61EB02014FF0004202EA0752BC
:10032000CDE90042001C41F5801132462B4600F019
:100330004CFA03B000F045B840462146F9E7001BEF
:1003400061EB0201001C41F5801300185B4120188D
:10035000A2F5001747EB030140EAD570B6196D41CD
:1003600011E06D084FEA360645EAC0754FEA0752BC
:10037000001B61EB0201001C41F5801149084FEAA6
:1003800030000019514132462B4603B000F01CB832
:1003900000F00CBA0098012240000023D0EB0202CA
:1003A00063EBE073009821464FEAE074B8EB00007D
:1003B00061EB0401E9E783F000435BE781F0004172
:1003C00058E730BCBDE8C08F30BCBDE8C04FFFF778
:1003D000DFBF2DE9FE4F81EA030404F0004421F061
:1003E000004100944FF0000B23F0004350EA010459
:1003F0005ED052EA03045BD0C3F30A54C1F30A553A
:100400002C44A4F2F3340194A0FB0254C1F3130171
:1004100041F48011C3F3130343F4801301FB02443E
:1004200000FB034E840A970A44EA815447EA835743
:10043000A4FB076802958D0A05FB07854FEA932CFC
:1004400004FB0C542705029D4FEA065847EA16376D
:10045000B5EB08056EEB070C870E920E47EA811785
:1004600042EA8312A7FB0201B6EB0B0164EB000426
:100470002B0D43EA0C335E1844EB1C50DA46514610
:10048000E7FB0201C5F313044FEA0B3343EA1453AD
:100490004FEA0432019C43EA0603A4F10C040294DF
:1004A000009CCDE900B400F090F903B000F003B86F
:1004B00000200146F9E730BCBDE8C08F2DE9F04DC2
:1004C00081EA030404F0004B21F0004514464FF08C
:1004D000000A23F0004150EA050220D054EA01024C
:1004E0001DD0C5F30A570246C5F31303C1F3130029
:1004F000C1F30A5640F4801543F48013A7EB0608B5
:10050000101BD64608F2FD3873EB050002D308F144
:10051000010801E092185B41B8F1000F03DA0020F6
:100520000146BDE8F08D00204FF480110646844658
:100530000EE0171B73EB050705D3121B63EB0503D6
:1005400006434CEA010C49084FEA300092185B411F
:1005500050EA0107EDD152EA030012D082EA04000A
:1005600083EA0501084305D0101BAB4106D20122E6
:10057000002306E000224FF0004302E06FF001028A
:1005800053101AEB06004CEB085110EB0A0041EB3C
:100590000B01BDE8F04D00F009B90EB5C10F80EABE
:1005A000E0700844CA07002140F233438DE80E0092
:1005B0000A460B4600F009F903B000BD0EB540F243
:1005C000334102910021CDE900110A460B4600F0AB
:1005D000FCF803B000BD70B5C1F30A5201F000454C
:1005E0000024C1F3130140F2FF3341F480119A4219
:1005F00001DA002070BD40F233439A42A2F2334246
:1006000003DC524200F079F800E090402C43F1D036
:10061000404270BDC1F30A5210B5C1F3130140F25C
:10062000FF3341F480119A4201DA002010BD40F2FC
:1006300033439A42A2F2334203DC524200F05DF8A7
:1006400010BD904010BD000030B5041E71F10004D3
:1006500004DB4FF00044404264EB0101141E73F1CF
:10066000000405DB1C464FF00043524263EB0403D9
:10067000994208BF904230BD01F0004330B421F0F0
:10068000004150EA010206D00A0DA2F56072C1F3E2
:100690001301002A02DC30BC00207047440F44EAFA
:1006A000C104C100E01830BC00EBC25000F047B8F4
:1006B00030B50B46014600202022012409E021FA32
:1006C00002F59D4205D303FA02F5491B04FA02F52F
:1006D0002844151EA2F10102F1DC30BD202A04DB02
:1006E000203A00FA02F1002070479140C2F1200345
:1006F00020FA03F3194390407047202A04DB203A84
:1007000021FA02F00021704721FA02F3D040C2F131
:1007100020029140084319467047202A06DBCB1778
:10072000203A41FA02F043EAE07306E041FA02F3AC
:10073000D040C2F120029140084319467047002979
:10074000A8BF7047401C490008BF20F00100704757
:1007500010B4B0FA80FC00FA0CF050EA010404BFB7
:1007600010BC704749B1CCF1200421FA04F411FA0D
:100770000CF118BF012121430843A3EB0C01CB1D51
:100780004FEA00614FEA102042BF002010BC7047C2
:1007900000EBC35010440029A4BF10BC7047401C9C
:1007A000490008BF20F0010010BC704710B5141EAE
:1007B00073F1000408DA401C41F1000192185B411A
:1007C0001A4301D120F0010010BD2DE9F04D9246F1
:1007D0009B4611B1B1FA81F202E0B0FA80F2203208
:1007E0009046FFF77BFF04460F4640EA0A0041EAC5
:1007F0000B0153465A46084313D0114653EA0100F1
:1008000019D0C8F140025046FFF777FF05460E4663
:10081000504659464246FFF761FF084305D0012084
:1008200004E020463946BDE8F08D0020054346EA45
:10083000E0762C4337430A986305E40AA0EB0800EE
:100840000022FD0A44EA47540A3002D5002001463E
:10085000E9E7010510196941DDE908450019694119
:10086000BDE8F04DA2E700002DE9F041054621F07A
:1008700000400C46284309D0C4F30A5040F23341EB
:10088000884205DD28462146BDE8F0812846FBE781
:1008900040F2FE31884210DC0CDB4FEA043040EAC3
:1008A000155050EA053105D0104804F000410143CD
:1008B0000020E9E700200146E6E7A0F23340464287
:1008C000C6F1400228462146FFF708FF0746884642
:1008D000284621463246FFF710FF43463A46FFF7C7
:1008E00065FF3246BDE8F041FFF7F8BE0000F03F7B
:1008F000C1F30A52C1F3130140F2FF3341F48011F6
:100900009A4202DA00200146704740F233439A428D
:10091000A2F2334202DC5242FFF7EFBEFFF7DEBE27
:1009200030B5041E71F1000404DB4FF00044404276
:1009300064EB0101141E73F1000405DB1C464FF04B
:100940000043524263EB04038B4208BF824230BD36
:10095000064C074D06E0E06840F0010394E807000C
:1009600098471034AC42F6D3FFF712FC089F0008FA
:10097000289F000830B58C1810F8012B12F00F03D7
:1009800001D110F8013B120906D110F8012B03E048
:1009900010F8015B01F8015B5B1EF9D101E001F881
:1009A000013B521EFBD1A142E6D3002030BD2DE910
:1009B000FF5F82460F46DDE90E4BBAF1000F3CD0D7
:1009C000201D08F019F905460026224628460399FD
:1009D000FFF72CFC029800F0FF08B14607E017F87B
:1009E0000910304608F05AFF86B209F10109A8F152
:1009F00002004845F3DCB8F1020F03DA401C385C12
:100A0000464008E0A8F10100385C7040A8F10201FE
:100A1000795C80EA012606F00F002855C6F3031121
:100A2000601C2954C6F30321A01C2954310BE01C7F
:100A30002954201DABF800000AE0204608F0DCF83D
:100A40000546224628460399FFF7F0FBABF8004025
:100A5000284604B000F000B830BCBDE8C09F2DE9C6
:100A6000FE4F0746884691461E460D9D681D08F0BC
:100A7000C3F804463FB12A4620460C99FFF7D6FB3F
:100A80000E98058085E0C6F30710207006F00F0071
:100A9000607048EA4900A0702078C0F3C000217857
:100AA000C1F3800148402178C1F3400148402178DA
:100AB00001F00101484000902078C0F3C000617847
:100AC000C1F3C00148406178C1F3800148406178BA
:100AD000C1F340014840A17801F001014840019074
:100AE0002078C0F380006178C1F3C001484061788C
:100AF00001F001014840A178C1F3C0014840A1784C
:100B0000C1F34001484002902078C0F34000617872
:100B1000C1F380014840617801F001014840A178AB
:100B2000C1F380014840A178C1F340014840A17859
:100B300001F0010180EA010B207800F001006178EA
:100B4000C1F340014840A178C1F3C0014840A178F9
:100B5000C1F380014840A178C1F340014840A17829
:100B600001F0010180EA010A0098E0700198C100DB
:100B7000029841EA800040EA4B0040EA0A002071F6
:100B80002A46601D0C99FFF751FB681D81B20E9833
:100B90000180204600F000B81EBCBDE8E08F00BF19
:100BA000FEE7000000B587B0142102A8FFF757FB4D
:100BB00000BF2D48C06C40F002002B49C8640846B5
:100BC000C06C00F00200019000BF00BF00BF0846EB
:100BD000C06C40F00100C8640846C06C00F0010021
:100BE000019000BF00BF00BF0846C06C40F0040089
:100BF000C8640846C06C00F00400019000BF00BF4C
:100C000041F624000290012003900020049003206C
:100C1000059002A9154800F0CFFA022002900120A9
:100C2000039002A9114800F0C7FA012220210F48C1
:100C300000F0C4FB002204210C4800F0BFFB00229E
:100C40004FF48051094800F0B9FB4FF40070029056
:100C50000020039004900220059002A94FF09040DC
:100C600000F0AAFA07B000BD0010024000040048DE
:100C700030B590F8444004F01C050124AC40056CEC
:100C80006C60046863608468102C04D10468A260FE
:100C90000468E16003E00468A1600468E26030BDBC
:100CA0007047000000BF03A007F0FEF800BF00BFC0
:100CB000FEE700004572726F725F48616E646C659A
:100CC000720A0D0070B506460D46012D04D0022DA6
:100CD00004D0032D06D103E0082405E0072403E037
:100CE000062401E0062400BF00BFF01C411B2A4679
:100CF000204606F03FFD70BD2DE9F0470C46DDE9CA
:100D00000867002100258C4600BF60E04FF0010815
:100D100008FA01F504EA050CAC4557D1D0F800807B
:100D20004FEA410A4FF0030909FA0AF928EA0908CB
:100D3000C0F80080D0F800804FEA410902FA09F9B2
:100D400048EA0908C0F80080012A01D0022A27D108
:100D5000D0F808804FEA410A4FF0030909FA0AF96E
:100D600028EA0908C0F80880D0F808804FEA41094D
:100D700006FA09F948EA0908C0F80880D0F8049092
:100D80004FF0010808FA01F829EA0809C0F80490B0
:100D9000D0F8048003FA01F948EA0908C0F8048091
:100DA000D0F80C804FEA410A4FF0030909FA0AF91A
:100DB00028EA0908C0F80C80D0F80C804FEA4109F5
:100DC00007FA09F948EA0908C0F80C80491C1029FB
:100DD0009CD3BDE8F08700000246002111E00B48DB
:100DE00050F8310090420AD8084B481C53F83000A4
:100DF000904204D9184600EBC10000797047481CA6
:100E0000C1B21529EBD300BFFEE70000CC9C00085F
:100E10002DE9F04782460F4690461E46DDF82090A9
:100E2000700007F0E9FE054600241BE038F81400C6
:100E300025F81400012008E035F8141038F81420C3
:100E40000241514025F81410401CB842F4DB012245
:100E500002FA07F135F81420501C08F084FE25F83A
:100E60001400641CB442E1DBA9F800602846BDE828
:100E7000F08700002DE9F84F04464FF000090020EC
:100E8000009014B9012000F003B9206920B120209E
:100E9000005D012800D100BF606D30B9204600F030
:100EA000FAF80020A06584F8500020688168C1F33A
:100EB000407131B1206881686C4A1140816000BF87
:100EC00000BF206803F0D3FAA0B920688168684A9F
:100ED000114041F08051816000BF6648006866495A
:100EE000B0FBF1F0009002E00098401E00900098E6
:100EF0000028F9D1206803F0BAFA48B9606D40F0D3
:100F000010006065A06D40F00100A0654FF0010980
:100F1000206803F0B1FA0646606D00F0100000286A
:100F20007BD1002EFCD1606D20F4807040F0020077
:100F30006065206803F096FAD0B9504803F092FA41
:100F400082464F4803F08EFA4AEA000A4D4803F001
:100F500089FA4AEA000ABAF1000F09D160684A49E1
:100F6000896821F47C110143474A916000BF00BFAA
:100F7000607E616B41EA4030E1680843A168084344
:100F80002021095D40EA01452020005D012803D1B0
:100F9000A08C401E45EA4045A06A28B1208D00F48F
:100FA0007070E16A084305432068C068374908400B
:100FB00028432168C860206803F05EFA80462068F4
:100FC00003F04BFA0746B8F1000F2DD127BB207E66
:100FD000002141EA803194F8300041EA4005206860
:100FE000C06844F20201884328432168C86094F82D
:100FF0003800012812D1E06B40F00101206C084359
:10100000616C0843A16C08432168096940F2FC72D5
:10101000914308432168086106E01FE020680069E9
:1010200020F00100216808612069012809D12068A9
:10103000006B20F00F00E169491E08432168086336
:1010400005E02068006B20F00F0021680863606DE8
:1010500020F0020040F00100606505E0606D40F0A6
:10106000100060654FF0010948460CE7C0FFFF5FC4
:10107000C0FFFF7F10000020400D0300000004505F
:1010800000010450000204500003045007C0F0FFA8
:1010900018BCBDE8E08F704770B50446002594F891
:1010A0002500022803D00420E063012520E0206809
:1010B000006820F00E00216808602068006820F0B9
:1010C00001002168086094F8440000F01C01012030
:1010D0008840216C4860012084F8250000BF002072
:1010E00084F8240000BFA06B10B12046A16B884794
:1010F000284670BD2DE9F04104460D4616461F46B0
:101100004FF0000800BF94F82400012802D102200B
:10111000BDE8F081012084F8240000BF94F8250088
:1011200001282CD1022084F825000020E0632068EB
:10113000006820F00100216808603B4632462946DD
:101140002046FFF795FD206B30B12068006840F025
:101150000E00216808600BE02068006820F00400A1
:10116000216808602068006840F00A002168086073
:101170002068006840F001002168086006E000BFB8
:10118000002084F8240000BF4FF002084046BFE76B
:1011900070B5044600F018F906462546681C10B1E3
:1011A00004480068054400BF00F00EF9801BA84207
:1011B000FAD370BD0C00002078B503460022E5E0AC
:1011C000012696400D6805EA0604002C7DD04D6886
:1011D000022D02D04D68122D13D1D60803F120053F
:1011E00055F826005507EE0E0F25B540A8435607C3
:1011F000F60E0D69B5402843D60803F1200545F8E1
:101200002600186856000325B540A8430D7905F05F
:1012100003055600B540284318604D68012D08D0DD
:101220004D68022D05D04D68112D02D04D68122D4C
:1012300013D1986856000325B540A8435600CD68E1
:10124000B54028439860586801259540A8430D791A
:10125000C5F300159540284358600D7905F0030546
:10126000032D09D1D86A01259540A8430D79C5F30E
:10127000C00595402843D862D86856000325B5407C
:10128000A84356008D68B5402843D8604D6805F0E6
:101290008055B5F1805F78D100BF3F4D2D6E45F090
:1012A00001053D4E356635462D6E05F0010500956C
:1012B00000BF00BF4FEAB635960855F826009507DF
:1012C0002E0F0F25B540A84300E05EE0B3F1904F2C
:1012D00001D100251EE0314DAB4201D1012519E0BD
:1012E0002F4DAB4201D1022514E02E4DAB4201D16E
:1012F00003250FE02C4DAB4201D104250AE02B4D14
:10130000AB4201D1052505E0294DAB4201D10625AF
:1013100000E007259607360FB5402843254D96086F
:1013200045F82600244D2868A0434D6805F4803513
:10133000B5F5803F00D120431F4D28602D1D286842
:10134000A0434D6805F40035B5F5003F00D12043BA
:10135000194D2D1D28602D1D2868A0434D6805F4EA
:101360008015B5F5801F00D12043134D0835286046
:101370002D1D2868A0434D6805F40015B5F5001F24
:1013800000D120430C4D0C352860521C0D68D5400F
:10139000002D7FF415AF78BD001002400004004816
:1013A00000080048000C00480010004800140048E5
:1013B0000018004808000140000401400AB18161A2
:1013C00000E081627047000001480068704700003B
:1013D00004000020034800680349096808440149E3
:1013E00008607047040000200C00002010B50024A5
:1013F000032000F089F80F2000F008F808B101245C
:1014000001E000F02FF8204610BD000070B5044642
:10141000002511480068D8B10F4800684FF47A7170
:10142000B1FBF0F00D490968B1FBF0F6304601F070
:101430002FFD58B9102C07D200222146501E00F073
:1014400022F80748046004E0012502E0012500E0DD
:101450000125284670BD00000C000020100000206F
:1014600008000020704701460846002809DB00F00C
:101470001F0301229A4043099B0003F1E023C3F8B4
:10148000002100BF70472DE9F05F80460D461646EB
:10149000002707F0DFF9074639462A46334601F0B0
:1014A0000700C0F1070ABAF1040F02D94FF0040A8D
:1014B00001E0C0F1070AD14600F1040ABAF1070FB2
:1014C00002D24FF0000A01E0A0F1030AD4464FF027
:1014D000010A0AFA09FAAAF1010A0AEA020A0AFA50
:1014E0000CFA4FF0010B0BFA0CFBABF1010B0BEA02
:1014F000030B4AEA0B042146404607F0B3F900F01B
:1015000000B830BCBDE8C09F00BF00F00702064B2A
:1015100019684FF6FF031940044B0B4343EA0221BD
:10152000014B196000BF70470CED00E00000FA05A8
:101530000246B2F5007F2AD11D48006800F4C06061
:10154000B0F5007F32D01A48006820F4C06040F443
:101550000070174B18601748006832235843164B29
:10156000B0FBF3F0411C00E0491E1148406900F453
:101570008060B0F5806F01D10029F5D10C48406939
:1015800000F48060B0F5806F10D1032070470848E8
:10159000006800F4C060B0F5806F07D004480068B0
:1015A00020F4C06040F48060014B18600020EDE73B
:1015B000007000401000002040420F000248006808
:1015C00000F4C060704700000070004003480068ED
:1015D00040F48070014908607047000000700040CE
:1015E0000348006840F004000149086070470000AB
:1015F000001002402DE9F84304460025A846208843
:1016000000F40060B0F5006F30D1606E80B1B0F5CD
:10161000800F13D0B0F5000F03D0B0F5400F15D1F7
:1016200013E0FB48C06840F48030F949C8600FE01F
:101630000021201D03F038FD054609E0002104F1DA
:10164000200003F0F7FD054602E001E0012500BFA0
:1016500000BF55B9EE488830006820F44000616E44
:101660000843EB49C1F8880000E0A846208800F450
:101670008050B0F5805F30D1A06E80B1B0F1807F36
:1016800013D0B0F1007F03D0B0F1407F15D113E04B
:10169000DF48C06840F48030DD49C8600FE00021B9
:1016A000201D03F001FD054609E0002104F12000A2
:1016B00003F0C0FD054602E001E0012500BF00BFC8
:1016C00055B9D3488830006820F04070A16E0843B7
:1016D000CF49C1F8880000E0A846206800F4003037
:1016E000B0F5003F77D14FF00009C948806D012166
:1016F00021EA107078B100BFC548806D40F080507D
:10170000C34988650846806D00F08050009000BF96
:1017100000BF4FF00109BF48006840F48070BD4928
:101720000860FFF751FE074606E0FFF74DFEC01BBD
:10173000022801D9032505E0B648006800F480704E
:101740000028F2D000BF85BBB1489030006800F49B
:101750004076D6B1D4F88400B04216D0AC48903070
:10176000006820F44076AA48D0F8900040F4803019
:10177000A749C1F890000846D0F8900020F48030C6
:10178000C1F890000846C0F8906006F00100A8B1CA
:10179000FFF71AFE074609E0FFF716FEC01B41F2ED
:1017A0008831884202D9032507E017E09848903035
:1017B000006800F002000028EED000BF65B9944830
:1017C0009030006820F44070D4F8841008439049A9
:1017D000C1F8900003E00CE0A84600E0A846B9F18B
:1017E000010F05D18A48806D20F0805088498865B6
:1017F00000BF207800F0010048B1854888300068BB
:1018000020F00300A16B08438149C1F888002078CB
:1018100000F00200022809D17D488830006820F0DD
:101820000C00E16B08437A49C1F88800207800F089
:101830000400042809D176488830006820F0300080
:10184000216C08437249C1F88800207800F0080034
:10185000082809D16E488830006820F0C000616C0B
:1018600008436B49C1F88800207800F01000102868
:1018700009D167488830006820F44070A16C0843A3
:101880006349C1F88800207800F02000202809D1A1
:101890005F488830006820F44060E16C08435C4990
:1018A000C1F88800208800F40070B0F5007F09D1ED
:1018B00057488830006820F44020E16D08435449BF
:1018C000C1F88800208800F48060B0F5806F09D1ED
:1018D0004F488830006820F44010216E08434C497E
:1018E000C1F88800207800F04000402809D148481D
:1018F0008830006820F44050216D08434449C1F805
:101900008800207800F08000802809D14048883085
:10191000006820F44040616D08433D49C1F88800EB
:10192000208800F48070B0F5807F09D13848883075
:10193000006820F44030A16D08433549C1F88800A3
:10194000208800F40050B0F5005F1FD13048883087
:10195000006820F04060E16E08432D49883108603E
:10196000E06EB0F1006F06D12948C06840F48010E5
:101970002749C8600AE0E06EB0F1806F06D101210E
:10198000201D03F091FB054605B1A846206800F430
:101990000020B0F5002F1FD11D488830006820F0CE
:1019A0004060216F08431A4988310860206FB0F108
:1019B000006F06D11648C06840F480101449C86012
:1019C0000AE0206FB0F1806F06D10121201D03F0E5
:1019D0006BFB054605B1A846206800F48020B0F5F1
:1019E000802F24D10A488830006820F04060616F61
:1019F0000843074988310860606FB0F1006F0BD170
:101A00000348C06840F480100149C8600FE000003E
:101A10000010024000700040606FB0F1806F06D18E
:101A20000121201D03F040FB054605B1A846208892
:101A300000F48040B0F5804F1FD12248006820F0AC
:101A40004050A16F08431F490860A06FB0F1805F4C
:101A500007D10221201D03F027FB05466DB1A846E2
:101A60000BE0A06FB0F1005F07D1022104F120006C
:101A700003F0E0FB054605B1A846208800F40040CD
:101A8000B0F5004F09D10F48006820F08040E16FA9
:101A900008430C498839C1F88800206800F4803078
:101AA000B0F5803F0AD10748006820F00040D4F824
:101AB0008010084303498839C1F888004046BDE8D2
:101AC000F8830000881002402DE9F04104460D46DD
:101AD00014B90120BDE8F0815548006800F0070006
:101AE000A8420ED25248006820F00700284350490F
:101AF00008600846006800F00700A84201D00120F5
:101B0000E8E7207800F00100002840D06068032852
:101B100006D14848006800F00070D8B90120D9E724
:101B20006068022806D14348006800F4003088B994
:101B30000120CFE7606830B93E48006800F002003D
:101B400040B90120C6E73B48006800F4806008B94E
:101B50000120BFE73748806820F003006168084330
:101B600034498860FFF730FC064608E0FFF72CFC9C
:101B7000801B41F28831884201D90320AAE72D4811
:101B8000806800F00C006168B0EB810FEED1207826
:101B900000F00200022807D12648806820F0F000FB
:101BA000A1680843234988602148006800F00700C5
:101BB000A8420ED91E48006820F0070028431C499F
:101BC00008600846006800F00700A84201D0012024
:101BD00080E7207800F00400042807D115488068C9
:101BE00020F4E060E168084312498860207800F042
:101BF0000800082808D10F48806820F46050216947
:101C000040EAC1000B49886000F046F8094989683C
:101C1000C1F30311084A515C01F01F01C840074994
:101C2000086007480068FFF7F1FB0746384651E7B0
:101C30000020024000100240549C000810000020C8
:101C400008000020014800687047000010000020D4
:101C500000B5FFF7F7FF05498968C1F30221044A7F
:101C6000515C01F01F01C84000BD0000001002409F
:101C7000649C000800B5FFF7E5FF05498968C1F3DA
:101C8000C221044A515C01F01F01C84000BD0000A0
:101C900000100240649C0008F0B500230020DFF82B
:101CA000D4C0DCF808C00CF00C01DFF8C8C0DCF8C8
:101CB0000CC00CF0030719B10C291ED1012F1CD147
:101CC000DFF8B0C0DCF800C00CF0080CBCF1000F6D
:101CD00006D1DFF8A0C0DCF894C0CCF3032305E004
:101CE000DFF890C0DCF800C0CCF30313DFF888C045
:101CF0005CF8233041B9184606E0042901D11F4899
:101D000002E0082900D11E480C2932D1DFF864C056
:101D1000DCF80CC00CF00304012C09D0022C02D01A
:101D2000032C04D101E0154A04E0154A02E000BF8B
:101D30001A4600BF00BFDFF83CC0DCF80CC0CCF393
:101D4000021C0CF10106DFF82CC0DCF80CC0CCF34F
:101D5000062C0CFB02FCBCFBF6F2DFF818C0DCF82A
:101D60000CC0CCF3416C0CF1010C4FEA4C05B2FBFA
:101D7000F5F0F0BD001002406C9C00080024F40057
:101D800000127A0070B586B006460D46144600BFB4
:101D90001248C06C40F001001049C8640846C06C8D
:101DA00000F00100009000BF00BF881501900220E4
:101DB0000290049000200390059001A94FF09040FC
:101DC000FFF7FAF90548806820F0EE4045EA040183
:101DD00008430249886006B070BD00000010024050
:101DE0002DE9F843044614B90120BDE8F883F94809
:101DF000806800F00C07F748C06800F00306207800
:101E000000F01000102876D11FB10C2F75D1012ED3
:101E100073D1F048006800F0020018B1A06908B959
:101E20000120E2E7EB48216A006800F0080020B1D9
:101E3000E848006800F0F00005E0E64894300068EB
:101E400000F47060000981421FD9206A03F0A4FAEF
:101E500008B10120C9E700BFDE48006840F0080073
:101E6000DC4908600846006820F0F000216A084359
:101E7000D849086000BF0846406820F47F40E16907
:101E800040EA0120D34948601EE000BFD148006805
:101E900040F00800CF4908600846006820F0F000D4
:101EA000216A0843CB49086000BF0846406820F417
:101EB0007F40E16940EA0120C6494860206A03F09A
:101EC0006BFA08B1012090E7FFF7E6FEC149896887
:101ED000C1F30311C04A515C01F01F01C840BF4962
:101EE0000860BF480068FFF791FA8046B8F1000F1C
:101EF0004ED0404679E74BE0FFE7A06980B3B54894
:101F0000006840F00100B3490860FFF75DFA05463C
:101F100006E0FFF759FA401B022801D9032064E7C5
:101F2000AC48006800F002000028F2D000BFA948C9
:101F3000006840F00800A74908600846006820F0E3
:101F4000F000216A0843A349086000BF08464068C2
:101F500020F47F40E16940EA01209E49486017E093
:101F6000FFE79C48006820F001009A490860FFF7ED
:101F70002BFA054606E0FFF727FA401B022801D995
:101F8000032032E79348006800F002000028F2D1F5
:101F9000207800F0010000285CD0082F03D00C2F1F
:101FA0000AD1032E08D18B48006800F4003088B3B2
:101FB000606878BB012018E700BF6068B0F5803F1B
:101FC00006D18448006840F48030824908601AE0F5
:101FD0006068B0F5A02F0BD17E48006840F48020E7
:101FE0007C4908600846006840F4803008600AE0D8
:101FF0007848006820F48030764908600846006818
:1020000020F48020086000BF606890B1FFF7DCF921
:10201000054607E01EE0FFF7D7F9401B642801D909
:102020000320E2E66B48006800F400300028F2D09C
:1020300010E0FFF7C9F9054606E0FFF7C5F9401BB8
:10204000642801D90320D0E66248006800F400301B
:102050000028F2D1207800F00200022852D1042F8B
:1020600003D00C2F14D1022E12D15A48006800F46C
:10207000806018B1E06808B90120B6E655484068AC
:1020800020F0F850217C40EA01605249486039E074
:10209000E06800B34F48006840F480704D49086024
:1020A000FFF792F9054606E0FFF78EF9401B02287C
:1020B00001D9032099E64748006800F480600028B1
:1020C000F2D04448406820F0F850217C40EA01609A
:1020D0004049486016E03F48006820F480703D4960
:1020E0000860FFF771F9054606E0FFF76DF9401B40
:1020F000022801D9032078E63648006800F48060A1
:102100000028F2D1207800F00800082836D1606954
:10211000D0B130489430006840F001002D49C1F83A
:102120009400FFF751F9054606E0FFF74DF9401B13
:10213000022801D9032058E626489430006800F0B0
:1021400002000028F1D019E022489430006820F005
:1021500001002049C1F89400FFF736F9054606E072
:10216000FFF732F9401B022801D903203DE6194848
:102170009430006800F002000028F1D1207800F0CF
:102180000400042873D14FF000091248806D00F05C
:10219000805078B900BF0F48806D40F080500D49E5
:1021A00088650846806D00F08050009000BF00BF39
:1021B0004FF001090B48006800F4807008BB094823
:1021C000006840F4807007490860FFF7FDF8054695
:1021D00011E0000000100240549C00081000002094
:1021E0000800002000700040FFF7EEF8401B0228B6
:1021F00001D90320F9E59948006800F480700028AF
:10220000F2D000BFA068012808D19548006840F0CE
:10221000010093499039C1F8900021E0A068052899
:102220000FD18F48006840F004008D499039C1F803
:1022300090000846D0F8900040F00100C1F89000EE
:102240000EE08748006820F0010085499039C1F808
:1022500090000846D0F8900020F00400C1F89000EB
:1022600000BFA068A0B1FFF7AFF8054609E02EE077
:10227000FFF7AAF8401B41F28831884201D90320B8
:10228000B3E57748006800F002000028F0D012E0C3
:10229000FFF79AF8054608E0FFF796F8401B41F271
:1022A0008831884201D903209FE56D48006800F01D
:1022B00002000028F0D1B9F1010F07D16848903829
:1022C000806D20F0805066499039886500BFA06A13
:1022D00000285BD00C2F78D0A06A022857D1604824
:1022E0009038006820F080705D4990390860FFF7F1
:1022F0006BF8054606E0FFF767F8401B022801D996
:10230000032072E556489038006800F000700028FD
:10231000F1D1D4E90B10401E41EA0011606B41EA93
:102320000021A08F0122C2EB500041EA4051402021
:10233000005DC2EB500041EA4061A06B000941EA38
:10234000404047499039C968464A114008434449CA
:102350009039C8600846006840F080700860084600
:10236000C06840F08070C860FFF72EF8054606E0B0
:10237000FFF72AF8401B022801D9032035E5384829
:102380009038006800F000700028F1D064E0344814
:102390009038006820F08070314990390860084614
:1023A000006800F0205020B90846C06820F0030003
:1023B000C8602B489038C0682B490840284990399C
:1023C000C860FFF701F8054607E00EE0FEF7FCFFE6
:1023D000401B022801D9032007E5214890380068F6
:1023E00000F000700028F1D136E0A06A012800D189
:1023F000FBE41B489038C66806F00301E06A81429E
:1024000028D106F07001206B401EB1EB001F21D1D6
:1024100006F4FE41606BB1EB002F1BD106F40031D6
:10242000A06B072801D0012000E00020814211D1DB
:1024300006F4C001A08F0122C2EB5000B1EB405F57
:1024400008D106F0C0614020005DC2EB5000B1EB46
:10245000406F01D00120C8E40020C6E400700040B5
:10246000901002408C809DF9FFFFEEFE014600BFF8
:1024700091F82000012801D102207047012081F845
:10248000200000BF022081F8210000BFCA200A6896
:10249000506253200A68506200BF0868806840F0AC
:1024A00020000A68906000BFFF200A68506200BFE9
:1024B000012081F8210000BF002081F8200000BF2A
:1024C00000BFDAE7704770477047000010B5044658
:1024D0004FF400203249086020688068C0F3C030A3
:1024E00078B12068C068C0F3C02050B1204600F029
:1024F00061F82068C06800F0800060F4086021681E
:10250000C8602068006C2749084008B1012000E03D
:10251000002078B12068C068C0F3403050B1206816
:10252000C06800F0800060F402502168C860204656
:10253000FFF7C8FF2068006C1B49084008B1012064
:1025400000E0002078B12068C068C0F3803050B14E
:102550002068C06800F0800060F481402168C86095
:102560002046FFF7B0FF2068006C1049084008B112
:10257000012000E0002078B12068C068C0F3C030BE
:1025800050B12068C06800F0800009490843216804
:10259000C8602046FFF798FF012084F8210010BD95
:1025A000140401400400010004000800040040007D
:1025B0007F7FFFFF704770B504460D4600BF94F85B
:1025C0002000012801D1022070BD012084F82000E4
:1025D00000BF022084F8210000BFCA2021684862A1
:1025E00053202168486200BFB5F5807F2BD1206859
:1025F000806820F48070216888602068806820F4FA
:10260000805021688860FEF7DFFE064614E0FEF782
:10261000DBFE801BB0F57A7F0ED900BFFF2021685A
:10262000486200BF032084F8210000BF002084F826
:10263000200000BF0320C7E72068C06800F0010049
:102640000028E4D02BE02068806820F40070216826
:1026500088602068806820F4005021688860FEF758
:10266000B3FE064614E0FEF7AFFE801BB0F57A7F9E
:102670000ED900BFFF202168486200BF032084F804
:10268000210000BF002084F8200000BF03209BE74A
:102690002068C068C0F340000028E4D000BF00BF3D
:1026A000FF202168486200BF012084F8210000BF9C
:1026B000002084F8200000BF00BF85E770B5054604
:1026C0000B461646286840680E4900EA0104200CB3
:1026D000D870C4F30420587004F03F009870C4F31D
:1026E000423018705EB9D87802F0A4FED8705878DD
:1026F00002F0A0FE5870987802F09CFE98700020BE
:1027000070BD00003FFFFF0070B504460B46164643
:102710002068806A586020680069C0F30E009860E5
:10272000206800680E4900EA0105C5F305401870ED
:10273000C5F30620587005F07F009870A80DD8707A
:102740005EB9187802F076FE1870587802F072FEC2
:102750005870987802F06EFE9870002070BD0000EE
:102760007F7F7F0070B504460125002C4FD094F880
:10277000210028B9002084F82000204600F04CF801
:10278000022084F8210000BFCA202168486253203B
:102790002168486200BF204602F064FE0546002D15
:1027A00035D1206880681B4908402168886021690C
:1027B00060680843A1690843216889680843216863
:1027C00088602168E068086120680169208941EA21
:1027D000004021680861204602F066FE0546B5B952
:1027E0002068C06C20F003002168C8646169E0695A
:1027F00008432168C96C08432168C86400BFFF20F2
:102800002168486200BF15B9012084F821002846DC
:1028100070BD0000BFFF8FFF10B5B4B0044600BF0D
:102820001B48806D40F08050194988650846806DCE
:1028300000F08050009000BF00BFFEF7C7FE0420EC
:10284000239000202D900120259023A8FFF7C8FA9F
:1028500008B100BFFEE74FF4003001904012229013
:1028600001A8FEF7C7FE08B100BFFEE70848903098
:10287000006840F400400649C1F8900000220F2192
:102880000220FEF700FE0220FEF7EDFD34B010BD81
:10289000001002402DE9F04704460D46904600BF67
:1028A00094F82000012802D10220BDE8F087012021
:1028B00084F8200000BF022084F82100B8F1000F46
:1028C0002AD12068806800F0400000B102E00020BA
:1028D000E87000BFE86900B900E000BF287802F0A6
:1028E000B3FD4FEA0049687802F0AEFD49EA0029DD
:1028F000A87802F0A9FD49EA0009E87849EA805978
:1029000095F8200002F0A0FD49EA0060E96908435B
:10291000696940EA01061BE02068806800F0400019
:1029200000B102E00020E87000BF28780004697858
:1029300040EA0120A9780843E97840EA815095F8F7
:10294000201040EA0160E9690843696940EA01062C
:10295000A969686840EA010700BFCA202168486287
:1029600053202168486200BF686AB0F5807F3ED17D
:102970002068806820F48070216888602068C068C2
:1029800000F0800060F4C0702168C860FEF71CFD94
:10299000814615E0FEF718FDA0EB0900B0F57A7F3F
:1029A0000ED900BFFF202168486200BF032084F8D1
:1029B000210000BF002084F8200000BF032074E73E
:1029C0002068C06800F001000028E3D02068C661DC
:1029D000206847642068806840F4807021688860BF
:1029E0002068806840F48050216888603EE020685C
:1029F000806820F40070216888602068C06800F05A
:102A0000800060F420702168C860FEF7DDFC81461C
:102A100015E0FEF7D9FCA0EB0900B0F57A7F0ED9DE
:102A200000BFFF202168486200BF032084F8210016
:102A300000BF002084F8200000BF032035E7206895
:102A4000C068C0F340000028E3D020680662206818
:102A500087642068806840F400702168886020687E
:102A6000806840F400502168886000BF0E4800680C
:102A700040F480200C4908600B480830006840F49E
:102A8000802009490831086000BFFF2021684862A2
:102A900000BF012084F8210000BF002084F820003E
:102AA00000BF00BF01E700000004014070B504460C
:102AB0002068C06820F0A0002168C860FEF784FC90
:102AC000054607E0FEF780FC401BB0F57A7F01D990
:102AD000032070BD2068C06800F020000028F1D0FD
:102AE0000020F6E770B504460CB9012070BD606A9D
:102AF00000B900BF0021A16294F85D0028B9002050
:102B000084F85C00204600F04DF8022084F85D0057
:102B10002068006820F0400021680860E068B0F597
:102B2000E06F01D9002501E04FF48055E068B0F571
:102B3000706F05D0E068B0F5E06F01D00021A162B0
:102B4000206B40B9E068B0F5E06F02D90221216343
:102B500001E001212163D4E901010843216908430F
:102B600061690843218B01F400710843E16908435E
:102B7000216A0843A16A0843216808600421A0690A
:102B800001EA1040616A0843616B0843E168084349
:102B900028432168486000202066012084F85D00F9
:102BA0000020A3E770472DE9FF5F0446894692465F
:102BB0001D460E9E012001900020009000BF94F859
:102BC0005C00012803D1022004B000F04AB90120C2
:102BD00084F85C0000BFFEF7F7FB074694F85D0041
:102BE000029060680390A846AB46029801280BD07B
:102BF0000398B0F5827F04D1A06810B90298042828
:102C000002D00220009022E1B9F1000F03D0BAF106
:102C1000000F00D015B90120009018E194F85D0074
:102C2000042802D0052084F85D0000202066C4F846
:102C300040A0A4F84650A4F84450C4F83890E58762
:102C4000A587E0642065E068B0F5E06F02D8BBF1CD
:102C5000010F06D92068406820F480502168486040
:102C600005E02068406840F4805021684860206892
:102C7000006800F04000402805D02068006840F05F
:102C8000400021680860E068B0F5E06F4ED96068E8
:102C900010B1B8F1010F09D1A06B00882168C8609C
:102CA000A06B801CA063E08F401EE08736E02068A8
:102CB000806800F00200022810D1E08F70B1019806
:102CC00001280BD1A06B00882168C860A06B801C14
:102CD000A063E08F401EE08700200190206880689C
:102CE00000F0010080B1B4F8460068B12068C06807
:102CF000216C0880206C801C2064B4F84600401EC3
:102D0000A4F8460001200190FEF75EFBC01BB04214
:102D100004D3701C10B10320009098E0E08F0028CD
:102D2000C5D1B4F846000028C1D185E0606810B173
:102D3000B8F1010F17D1E08F01280AD9A06B0088E4
:102D40002168C860A06B801CA063E08F801EE087B4
:102D500009E0A06B007821680873A06B401CA06399
:102D6000E08F401EE08760E02068806800F002008D
:102D700002281ED1E08FE0B10198012819D1E08F1F
:102D800001280AD9A06B00882168C860A06B801C4C
:102D9000A063E08F801EE08709E0A06B00782168C7
:102DA0000873A06B401CA063E08F401EE0870020EA
:102DB00001902068806800F0010058B3B4F8460024
:102DC00040B3B4F84600012816D92068C068216CC9
:102DD0000880206C801C2064B4F84600801EA4F893
:102DE0004600B4F84600012812D82068406840F434
:102DF0008050216848600BE02068007B216C0870DF
:102E0000206C401C2064B4F84600401EA4F8460024
:102E100001200190FEF7D8FAC01BB04201D3701C0C
:102E200000B916B90320009011E0E08F00289BD173
:102E3000B4F84600002897D13A463146204602F0C1
:102E4000DDFC18B1012000902020206600BF012089
:102E500084F85D0000BF002084F85C0000BF00988B
:102E6000B2E630BCBDE8C09F042808D14FF0E02195
:102E7000096941F004014FF0E022116107E04FF0D1
:102E8000E021096921F004014FF0E022116170474F
:102E900070B504462546681EB0F1807F01D301203D
:102EA0000FE0681E4FF0E02148610F214FF0FF3026
:102EB00005F0D8FC00204FF0E02188610720086170
:102EC000002070BD704770477047000030B5024663
:102ED0000B4600BF92F83C00012801D1022030BD12
:102EE000012082F83C0000BF022082F83D001068FB
:102EF000416810688468114D1068A84203D0104DD5
:102F00001068A84203D121F470015868014321F0F0
:102F100070011868014324F0800498680443106825
:102F2000416010688460012082F83D0000BF0020ED
:102F300082F83C0000BF00BFD1E70000002C014038
:102F40000034014030B502460024002300BF92F84F
:102F50003C00012801D1022030BD012082F83C0054
:102F600000BF124D1068A8420BD01068B0F1804F1E
:102F700007D00F4D1068A84203D00E4D1068A8422C
:102F800008D11068036E23F4E03301F4E03003430A
:102F9000106803660C4624F4E0341068046500BF32
:102FA000002082F83C0000BF00BFD5E7002C0140A4
:102FB000000400400034014010B504460CB9012063
:102FC00010BD94F83D0028B9002084F83C0020464C
:102FD00000F00CF8022084F83D00211D206804F068
:102FE00033FD012084F83D000020E9E738B50446B0
:102FF0002068B0F1804F15D100BF1848806D40F0B7
:103000000100164988650846806D00F001000090B7
:1030100000BF00BF002211461C20FEF734FA1C201E
:10302000FEF721FA0E492068884215D100BF0B48EF
:10303000806D40F00200094988650846806D00F007
:103040000200009000BF00BF012200211D20FEF7FA
:103050001AFA1D20FEF707FA38BD000000100240E2
:103060000004004001460868C06840F001000B6899
:10307000D86008688068084B00EA0302062A08D076
:10308000B2F5803F05D00868006840F001000B6889
:103090001860002070470000070001000146086822
:1030A000C06820F001000A68D06000BF0868006AAC
:1030B00041F21112104050B90868006A9210104095
:1030C00028B90868006820F001000A68106000BF95
:1030D0000020704710B504462648007800F08000B4
:1030E00080B90021244800F06DFA2449244A12884E
:1030F00001EB0211086080201E490870012021495F
:10310000086035E01F480068401C1E4908600846FA
:103110000068B0F5004F2BD10021174800F052FA9B
:103120001649174A128801EB0211486011480078CD
:1031300000F07F001149124A128801EB02118860E9
:103140000F480088401C0E4908800020094908707B
:103150000C4908600A480088032809DB002106485A
:1031600000F002F900200649088001200649087095
:1031700010BD0000680000209C050020DC05002038
:10318000700000206C000020720000202DE9F0414A
:1031900004460D46164600BF94F83C00012802D1B3
:1031A0000220BDE8F081012084F83C0000BF02202D
:1031B00084F83D0096B9EB68D5E90012206804F068
:1031C000BBFC2068806920F00C00216888612068C1
:1031D0008069A9680843216888613DE0042E13D105
:1031E000EB68D5E90012206804F0E8FC20688069EB
:1031F00020F440602168886120688069A96840EAFD
:1032000001202168886127E0082E12D1EB68D5E9FA
:103210000012206804F0EFFC2068C06920F00C0068
:103220002168C8612068C069A96808432168C8612D
:1032300012E0EB68D5E90012206804F0F8FC206881
:10324000C06920F440602168C8612068C069A9682D
:1032500040EA01202168C861012084F83D0000BFD8
:10326000002084F83C0000BF00BF9AE710B5044678
:103270000CB9012010BD94F83D0028B9002084F855
:103280003C00204600F00CF8022084F83D00211D8F
:10329000206804F0D9FB012084F83D000020E9E714
:1032A00038B504460D492068884215D100BF0C4846
:1032B000006E40F480300A4908660846006E00F44B
:1032C0008030009000BF00BF002211461820FEF79A
:1032D000DAF81820FEF7C7F838BD000000400140BA
:1032E0000010024070B504460E4636B1042E0BD0D5
:1032F000082E10D00C2E1CD114E02068C06840F0BD
:1033000002002168C86015E02068C06840F0040031
:103310002168C8600EE02068C06840F0080021689D
:10332000C86007E02068C06840F010002168C860ED
:1033300000E000BF00BF01223146206804F0EAFB34
:1033400020688068074900EA0105062D08D0B5F518
:10335000803F05D02068006840F0010021680860C7
:10336000002070BD0700010030B504460D4635B1A0
:10337000042D0BD0082D10D00C2D1CD114E020688A
:10338000C06820F002002168C86015E02068C068AD
:1033900020F004002168C8600EE02068C06820F0BA
:1033A00008002168C86007E02068C06820F01000AD
:1033B0002168C86000E000BF00BF002229462068E5
:1033C00004F0A8FB00BF2068006A41F21111084018
:1033D00050B92068006A8910084028B92068006840
:1033E00020F001002168086000BF002030BD10B54A
:1033F000044620680069C0F34000D8B12068C06866
:10340000C0F34000B0B16FF00200216808610120F4
:1034100020772068806900F0030018B12046FFF78C
:1034200059FE05E0204600F0BEF8204600F0BCF84A
:103430000020207720680069C0F38000D8B12068A0
:10344000C068C0F38000B0B16FF00400216808616B
:10345000022020772068806900F4407018B120466F
:10346000FFF738FE05E0204600F09DF8204600F00A
:103470009BF80020207720680069C0F3C000D8B115
:103480002068C068C0F3C000B0B16FF008002168C8
:103490000861042020772068C06900F0030018B19B
:1034A0002046FFF717FE05E0204600F07CF8204696
:1034B00000F07AF80020207720680069C0F300103F
:1034C000D8B12068C068C0F30010B0B16FF0100030
:1034D00021680861082020772068C06900F44070E6
:1034E00018B12046FFF7F6FD05E0204600F05BF836
:1034F000204600F059F8002020772068006900F08D
:10350000010058B12068C06800F0010030B16FF0D0
:10351000010021680861204600F048F82068006931
:10352000C0F3C01058B12068C068C0F3C01030B1FB
:103530006FF08000216808612046FFF7C4FC206816
:103540000069C0F3002058B12068C068C0F3C01003
:1035500030B16FF48070216808612046FFF7B2FC3B
:1035600020680069C0F3801058B12068C068C0F3BB
:10357000801030B16FF0400021680861204600F0F3
:103580003AF820680069C0F3401058B12068C0685C
:10359000C0F3401030B16FF0200021680861204670
:1035A000FFF792FC10BD704770470000044909788E
:1035B00021B103490978491C014A11707047000084
:1035C000680000200246002031B1042907D00829F4
:1035D00008D00C290CD108E01368586B09E0136877
:1035E000986B06E01368D86B03E01368186C00E072
:1035F00000BF00BF704770477047704701464B6F70
:103600008A6F43EA020070472DE9F04704462068BC
:10361000C569206806682068876805F00F08B8F15A
:10362000000F0CD105F0200048B106F0200030B1A9
:10363000206E10B12046216E8847BDE8F087B8F1B2
:10364000000F71D007F0010018B906F4907000283F
:1036500079D005F0010048B106F4807030B1012046
:1036600021680862E06F40F00100E06705F00200A9
:1036700048B107F0010030B1022021680862E06F14
:1036800040F00400E06705F0040048B107F00100D5
:1036900030B1042021680862E06F40F00200E0676A
:1036A00005F0080060B106F0200010B907F0010035
:1036B00030B1082021680862E06F40F00800E06740
:1036C000E06F80B305F0200038B106F0200020B193
:1036D000206E10B12046216E8847D4F87C90206877
:1036E000806800F04000402802D009F0080020B3B4
:1036F000204604F02AFD2068806800F04000402841
:1037000017D12068806820F0400021688860E06E52
:1037100058B12048E16E8863E06EFDF7BDFC10B142
:10372000E06E816B88470DE00DE02046FFF765FFF6
:1037300008E02046FFF761FF04E02046FFF75DFF49
:103740000020E06779E705F4801050B107F48000AD
:1037500038B14FF48010216808622046FFF74CFF13
:103760006BE705F0800040B106F0800028B1606E84
:1037700010B12046616E88475FE705F0400030B128
:1037800006F0400018B1204604F0F0FC55E700BFF9
:1037900053E700009780000810B504460CB90120DB
:1037A00010BDA06900B100E000BF606F28B9002023
:1037B00084F87000204600F029F824206067206813
:1037C000006820F0010021680860204604F050FDE8
:1037D000012800D1E4E7606A10B1204604F0A8FB9C
:1037E0002068406820F49040216848602068806824
:1037F00020F02A00216888602068006840F00100FD
:1038000021680860204604F00FFCC9E710B586B0B7
:1038100004461F492068884238D100BF1D48C06C4B
:1038200040F001001B49C8640846C06C00F001006C
:10383000009000BF00BF00BF0846806D40F400301C
:1038400088650846806D00F40030009000BF00BF1E
:103850000420019002200290012003900220049095
:103860000720059001A94FF09040FDF7A5FC082026
:10387000019001A94FF09040FDF79EFC2620FDF736
:10388000F2FD032200212620FDF7FDFD06B010BD4C
:10389000004400400010024010B50346986F2028F5
:1038A00065D101B10AB9012010BD00BF93F87000C5
:1038B000012801D10220F7E7012083F8700000BF42
:1038C0005965A3F85820A3F85A200020186600BFB5
:1038D0009868B0F5805F0AD1186920B940F2FF10EE
:1038E000A3F85C0020E0FF20A3F85C001CE09868CF
:1038F00048B9186918B9FF20A3F85C0014E07F20CC
:10390000A3F85C0010E09868B0F1805F09D11869F5
:1039100018B97F20A3F85C0006E03F20A3F85C0004
:1039200002E00020A3F85C0000BF0020D86722203E
:1039300098671868806840F001001C68A06098686B
:10394000B0F5805F04D1186910B90A48186601E023
:103950000948186600BF002083F8700000BF18688F
:10396000006840F490701C68206000209CE70220F2
:103970009AE700009F810008098200081D4A01683B
:10398000914236D11C49098801F4004189BB1A498A
:10399000098801F4804171B1184909780A2903D0D6
:1039A0000021154A118024E01349098841F400419F
:1039B000114A11801DE0114909780D2906D10E49DF
:1039C000098841F480410C4A118012E00B490978C2
:1039D000094A1288C2F30D02094B99540649098815
:1039E000491C054A118011460988C72901DD0021BB
:1039F00011807047004400407C0000207E000020C1
:103A00004406002070B504460E461546606F202817
:103A100049D106B10DB9012070BD00BF94F8700006
:103A2000012801D10220F7E7012084F8700000BFCF
:103A3000E664A4F85050A4F852500020E06721201A
:103A40006067A06EF8B11948A16EC8621848A16EEF
:103A500008631848A16E48630020A16E886323683C
:103A600003F128022B46E16CA06EFDF743FB50B139
:103A70001020E06700BF002084F8700000BF202005
:103A800060670120C8E740202168086200BF00206D
:103A900084F8700000BF2068806840F080002168D2
:103AA00088600020B8E70220B6E700000581000822
:103AB0003D810008AF80000810B504460148006849
:103AC000804710BD540000207047000008B5194819
:103AD000007800282DD10120164908701648174992
:103AE00008600021154880F838104FF480301349E1
:103AF000486000211148017681600161C160417612
:103B000080F82010C16204214161002180F830104A
:103B100000BF0B48C06C40F400500949C864084617
:103B2000C06C00F40050009000BF00BF0348FDF7D8
:103B3000A1F908BD50000020000004502C03002013
:103B4000001002400146002001F47F420AB140F01B
:103B500008004FF2F0020A400AB140F004004CF6AF
:103B6000CC420A400AB140F002004AF6AA220A40BA
:103B70000AB140F001007047F8B505460E461446FC
:103B800000BF3449681A8D422CD006DCB5F1904F45
:103B90000AD031482844A0BB15E0B0F5806F31D081
:103BA000B0F5A05F3DD13DE000BF2C48C06C40F0B7
:103BB00001002A49C8640846C06C00F0010000906A
:103BC00000BF00BF3DE000BF2448C06C40F00200D1
:103BD0002249C8640846C06C00F00200009000BF93
:103BE00000BF2EE000BF1D48C06C40F004001B4920
:103BF000C8640846C06C00F00400009000BF00BF1D
:103C00001FE00EE000BF1548C06C40F008001349EB
:103C1000C8640846C06C00F00800009000BF00BFF8
:103C20000FE000BF00BF0D48C06C40F080000B49A2
:103C3000C8640846C06C00F08000009000BF00BF60
:103C400000BF00BF00BF266021462846FDF7B4FA3A
:103C5000F8BD00000008004800FCFFB7001002405B
:103C60002DE9F04781460D4616461C462846FFF7CB
:103C700069FF07467CB10B4840F82740284601F011
:103C8000FCF88046002231464046FDF7FCFB4046EA
:103C9000FDF7E9FB03E00020024941F82700BDE8F9
:103CA000F08700001004002070B505460E4614464B
:103CB000E2B231462846FDF781FB70BD10B50748DA
:103CC000007848B9FFF702FF05490868804700F00F
:103CD000CBF901200149087010BD000051000020FF
:103CE0007C9D00082DE9F04704460E4600BF0022E7
:103CF00031463148FEF708FD00BF00BF2F48806AFB
:103D00001FFA80F900BF002221462B48FEF7D6FC9F
:103D1000002231462848FEF7F7FC00BF2748806A9A
:103D200080B24845E9D1E07840F2B55110FB01F08E
:103D3000C01C8508E078C11700EB91718910A0EBD9
:103D4000810109B91E4900E01E498A466178491E71
:103D500001EB4102C2EB8111481C00EBD0714A100B
:103D60006178491E49002AFA01F101F00301511A54
:103D70000D44A078401E054413484543B07871783F
:103D8000C1EB011100EB81003178C1EB4112C2EBB4
:103D9000012100EB011005440020800240EA95500B
:103DA000AB0240F2FF327168511A5F1840F100080F
:103DB00041463846BDE8F087500400200028004006
:103DC00050554400A0AA990080510100032070477B
:103DD00010B586B001A96846FFF784FF0446024883
:103DE0000068201A06B010BD9C04002010B586B0F3
:103DF00001A96846FFF776FF0446204606B010BDCD
:103E000010B50446FFF7E4FF211A0D48B0F9000091
:103E1000C01C814204D90021042000F08DFB03E086
:103E20000121042000F088FB00F04CFB012803D1A5
:103E30000348B0F90000241A204600F011F810BD24
:103E40005A00002010B5054901F11400FFF74AFFA0
:103E50000249091F08600846006810BDA004002040
:103E60002DE9F04387B004464FF00008C146002614
:103E7000002700251422544902A8FCF7D7F952481C
:103E8000001F8069019000F0ABF840F2FF31039809
:103E9000081A1FFA80F8C4F3090040441FFA80F89A
:103EA000A40A9DF8065003E04848241A681C85B20D
:103EB00046488442F8D29DF8087003E0A4F5616496
:103EC000781C87B2B4F5616FF8D29DF8096002E002
:103ED0003C3C701C86B23C2CFAD29DF80A0020446F
:103EE0001FFA80F907E0A8F580601FFA80F809F151
:103EF00001001FFA80F9B8F5806FF4DA05E0A9F146
:103F00003C001FFA80F9701C86B2B9F13C0FF6D262
:103F100004E0A6F13C0086B2781C87B23C2EF8D2B1
:103F200004E0A7F1180087B2681C85B2182FF8D2F8
:103F30009DF80700C11700EB91718910A0EB81017A
:103F400081B99DF80500401E2149085CA84219DA94
:103F50009DF80500401E085C95FBF0F100FB115038
:103F600085B20FE09DF80500401E1A49085CA84282
:103F700008DA9DF80500401E085C95FBF0F100FB97
:103F8000115085B240F2FF30A0EB080012494860A2
:103F90004FF02060886181F802904E700F7081F8B8
:103FA00020509DF80B00C8700020C86148614FF494
:103FB000807048620020C860086100220748FEF750
:103FC00069FC07B0BDE8F083A00400208051010027
:103FD000FC9D0008F09D000874040020500400209F
:103FE00010B54FF480710948FEF7E5FA07480068FC
:103FF000C06800F0800060F4C07004490968C860BF
:104000004FF480200249086010BD000050040020D9
:104010001404014001468A0AC1F309014FF47A7081
:1040200050434FF47A7311FB03F300EB9320704776
:1040300070B504468020A4FB005001467D22002379
:104040002846FCF7BFF870BD01B582B04FF0FF30D5
:10405000012301AA02A900900248FEF7A4FDBDF8C1
:1040600004000EBDB804002008B51D481D490860B5
:1040700018211C48C161002181604FF482701949E8
:10408000486000211748016141614FF4E061C1605F
:104090000021816201624FF400718161002141625F
:1040A00000BF1148006E40F480500F490866084672
:1040B000006E00F48050009000BF00BF0948006807
:1040C000006840F040000749096808600548FEF7AD
:1040D00009FD08B1FCF7E6FD00F008F808BD000096
:1040E00000300140B80400200010024000B585B047
:1040F00014216846FCF7B3F80220019000200290DA
:1041000003200390052004906A4620214FF0904040
:10411000FFF732FD6A4640214FF09040FFF72CFD3B
:104120006A4680214FF09040FFF726FD0120019064
:10413000002002906A4640210448FFF71DFD01223D
:1041400040210248FFF7B0FD05B000BD0004004863
:104150002DE9FF4F85B0884691461E46DDF848B0F0
:104160000020049003900290019000908246002469
:10417000304604F041FD0746ABF8006000256CE0D6
:10418000A8F10200A84201DD042000E00598824663
:1041900019F80540BAF1010F41D004F00100C4F351
:1041A00040014840C4F3800148400490C4F34000FB
:1041B000C4F380014840C4F3C0014840039004F0B8
:1041C0000100C4F340014840C4F3C00148400290DC
:1041D00004F00100C4F380014840C4F3C00148402A
:1041E0000190E007000EC4F3400140EA8110C4F3DF
:1041F000800140EA4110C4F3C00140EA0111049873
:1042000041EAC001039841EA8001029841EA400076
:1042100001990843CAF10401084178551CE0C4F330
:10422000C000C4F380014840C4F34001484004F09A
:10423000010148400090E007C00EC4F3400140EA8D
:10424000C100C4F3800140EA8100C4F3C00140EA28
:1042500041000099084378556D1CB54290DB384603
:1042600009B000F000B830BCBDE8C08F00E000BF6E
:10427000FDE700002DE9FF4F83B00D46994600266B
:1042800000270024CDF8089000200190804600907F
:104290008346C8E0A81EB04201DD042000E0039878
:1042A000001DC7B2A81EB04200DD00E02846C4B21F
:1042B0002146019805F070FC019021460198FBF71A
:1042C000CEFF3019484506DA224605988119019833
:1042D000FBF7ACFF06E0A9EB0602059881190198EF
:1042E000FBF7A4FF7900404605F056FC80467900B4
:1042F0004046FBF7B4FF00205349088006E0701CDD
:1043000086B251480088401C4F4908804E480088BA
:10431000A042F4DB00204C49088066E000204B49B5
:10432000088029E048490988484A1288891A481EA5
:10433000214605F018FC0199085C43490978791A6F
:10434000491E01228A4010403F490978791A491EC6
:1043500008413E490978691A491E88403A49098846
:1043600038F8111008433849098828F811003748EF
:104370000088401C3549088034480088A042D1DBC1
:10438000A81EB0422CD14FF0000A0020304908800E
:1043900010E02D48008838F810002D4909780841B0
:1043A00000F0010050441FFA80FA29480088401CA0
:1043B0002749088026480088A842EADB50460AEBD5
:1043C000D0714910AAEB41012A1B521E91401E4A8E
:1043D000128838F8122011431B4A128828F812104C
:1043E00019480088401C1849088017480088B842BE
:1043F00094DBBB444FEA4B01009805F0CDFB0090E5
:10440000009901EB4B01A1EB47007A004146FBF715
:104410000DFF0298A04201DD214600E002990298BA
:10442000401A80B20290029800287FF433AF1098AF
:10443000A0F800B0019804F029FA404604F026FAEA
:10444000009807B000F006B850010020520100208B
:104450005401002030BCBDE8C08F01468868C0F31D
:10446000C00070470146886800F0010070470146AF
:104470008868C0F30070704701468868C0F3800008
:1044800070470000014908607047000014040140B3
:1044900042694A4042617047C16801F0800161F49D
:1044A0009061C16070470146C868C0F380207047C2
:1044B0006FF00101016170470146086900F00100D9
:1044C0007047000000BFEFF31082114672B6084A31
:1044D00012680AB1002005E0064A12680AB10120FC
:1044E00000E0022000BF81F3108800BF7047000089
:1044F000840000208800002010B50A4600BFEFF3BA
:104500001083194672B63AB1012A0BD1094B1B68C8
:104510000343084C236006E0064B1B688343054CAD
:10452000236000E000BF00BF00BF81F3108800BF20
:1045300010BD00008800002010B50A4600BFEFF350
:104540001083194672B63AB1012A0BD1094B1B6888
:104550000343084C236006E0064B1B688343054C6D
:10456000236000E000BF00BF00BF81F3108800BFE0
:1045700010BD0000840000202DE9FF4F8BB00D46D8
:1045800000260027B046B146B246B34600200A9046
:1045900009900890079006900590049003907AA0E7
:1045A00004F02EF909AA29460B9804F0FDF80646F6
:1045B000BDF8241082A004F023F9002405E0325D48
:1045C000214684A004F01CF9641CBDF82400844238
:1045D000F5DB85A004F014F908A8BDF824102B46DB
:1045E000CDE900610290DDE918211A98FCF737FA4D
:1045F0000746304604F04AF9BDF8201070A004F0D8
:10460000FFF8002405E03A5D214672A004F0F8F8B6
:10461000641CBDF820008442F5DB81A004F0F0F8B2
:1046200007A8BDF820103B462A46CDE900100B999B
:104630001998FCF7BCF98046384604F027F9BDF814
:104640001C105FA004F0DCF8002406E018F8042039
:10465000214660A004F0D4F8641CBDF81C0084421C
:10466000F4DB7CA004F0CCF806A80090BDF81C3068
:1046700042460E991898FFF76BFD8146404604F0BC
:1046800005F9BDF818104EA004F0BAF8002406E0B1
:1046900019F8042021464FA004F0B2F8641CBDF8BC
:1046A00018008442F4DB7AA004F0AAF805A8009070
:1046B000BDF818304A460E991898FFF7DBFD824680
:1046C000484604F0E3F8BDF814103DA004F098F853
:1046D000002406E03AF8142021463EA004F090F8A9
:1046E000641CBDF814008442F4DB77A004F088F861
:1046F00004A80090BDF8143052460E991898FCF7A3
:1047000087FB8346504604F0C1F8BDF810102CA07A
:1047100004F076F8002406E03BF8142021462DA092
:1047200004F06EF8641CBDF814008442F4DB74A03D
:1047300004F066F803A8BDF810105B46CDE9001040
:10474000DDE90D21189800F0F1FB0A90584604F0BD
:104750009DF8BDF80C101AA004F052F8002407E0F0
:104760000A9850F82420214673A004F049F8641CEC
:10477000BDF80C008442F3DBBDF80C101B980160FF
:104780000A980FB000F0E4B80A2D2D2D2D2D2D2DF7
:104790002D2D2D2D2D2D2D2D2D2D2D576869746529
:1047A0006E696E672D2D2D2D2D2D2D2D2D2D2D2D41
:1047B0002D2D2D2D2D2D2D2D2D2D2D0A0000000000
:1047C0004C656E206F66204F75747075743A256461
:1047D0000A0000004F75745B25645D3A2578202837
:1047E000686578290A0000000A2D2D2D2D2D2D2D0C
:1047F0002D2D2D2D2D2D2D2D2D2D2D416464206839
:1048000065616465722D2D2D2D2D2D2D2D2D2D2DB8
:104810002D2D2D2D2D2D2D2D2D2D2D2D0A00000072
:104820000A2D2D2D2D2D2D2D2D2D2D2D2D2D2D2DDB
:104830002D2D2D416464204352432D2D2D2D2D2DE2
:104840002D2D2D2D2D2D2D2D2D2D2D2D2D2D2D2D98
:104850002D0A00000A2D2D2D2D2D2D2D2D2D2D2D28
:104860002D2D2D2D2D2D2D48616E6D6D696E6720BE
:10487000636F64696E672D2D2D2D2D2D2D2D2D2D02
:104880002D2D2D2D2D2D2D2D2D2D2D2D2D0A0000D5
:104890000A2D2D2D2D2D2D2D2D2D2D2D2D2D2D2D6B
:1048A0002D2D2D496E7465726C65617665722D2DA6
:1048B0002D2D2D2D2D2D2D2D2D2D2D2D2D2D2D2D28
:1048C0002D2D2D2D2D0A00000A2D2D2D2D2D2D2DB8
:1048D0002D2D2D2D2D2D2D2D2D2D2D477261792036
:1048E000636F6465722D2D2D2D2D2D2D2D2D2D2DCC
:1048F0002D2D2D2D2D2D2D2D2D2D2D2D0A00000092
:104900000A2D2D2D2D2D2D2D2D2D2D2D2D2D2D2DFA
:104910002D2D2D4D6F6475616C74696F6E2D2D2D6D
:104920002D2D2D2D2D2D2D2D2D2D2D2D2D2D2D2DB7
:104930002D2D2D2D0A0000004F75745B25645D3A06
:104940000925642C092028696E74290A00000000DA
:1049500030BCBDE8C08F00002DE9F04F87B0804625
:1049600089464946404604F0D5FE00250024F74E0E
:10497000DFF8DCB30027A24600F0EAFDF549086045
:104980000968481E03F044F800BF46F6404043F66D
:10499000095210FB02F2F04B991A41F6846202EBC5
:1049A000012243F60953B2FBF3F202EB0022EB4B78
:1049B0001A6000BF18460068000CE94908701846E4
:1049C0000088000A48701846007888700846007809
:1049D000E449097888420FD00320E3490870E04891
:1049E0000078E0490870DE484078E0490870DC480B
:1049F0008078DF4908701EE0D9484078DB490978A3
:104A000088420BD00220D8490870D5484078D74951
:104A10000870D3488078D64908700CE0D048807878
:104A2000D2490978884206D00120CF490870CC4885
:104A30008078CF490870032002F09CF80A2004F027
:104A40004FFF00204FF080414862CA490860CA48C1
:104A5000FEF708FBC948FEF705FB0421C848FFF72D
:104A600017FD4FF40061C648FFF712FD4FF4805167
:104A7000C348FFF70DFDE1E1082C02D20027B34E39
:104A80003BE0082C0AD30A2C08D20127A4F1080025
:104A9000BC4951F82000B04946182EE00A2C04D336
:104AA0000C2C02D20227AA4E27E00C2C04D30D2C8A
:104AB00002D20327A64E20E00D2C1ED3B248006878
:104AC0000D30A04219D90427A4F10D00AF4909689F
:104AD00051F82000A049461803A804A905AACDE969
:104AE00000210290A4F10D00A84A126852F820108B
:104AF00006ABA74A072004F02DFD9EE1052F7CD2CE
:104B0000DFE807F00315334557004FF08040406A57
:104B1000A04909680844A049096804FB1100C508B8
:104B20009E48006805FB00609D49086066E04FF004
:104B30008040406A9749096808449749096804FB1E
:104B40001100C5089548006805FB0060944908609D
:104B5000084600687E49884206D991480068A0F559
:104B6000F43048388E49086048E04FF08040406A91
:104B70008849096808448849096804FB1100C50888
:104B80008648006805FB10608549086036E04FF0F4
:104B90008040406A7F49096808447F49096804FBEE
:104BA0001100C5087D48006805FB10607C4908605D
:104BB00024E04FF08040406A76490968084476490D
:104BC0000968A0EB9101601E734A126800FB121085
:104BD000C5087248006805FB006071490860084616
:104BE00000685B49884206D96D480068A0F5F4303A
:104BF00048386B49086001E0FFE700BF00BF00BF15
:104C0000674A126843F60953B2FBF3F01A4642436F
:104C1000634B1B68991A41F6846202EB012243F64A
:104C20000953B2FBF3F202EB00224C4B1A6000BFB7
:104C300018460068000C4A49087018460088000AA7
:104C40004870184600788870084600784549097809
:104C500088420FD0032044490870414800784149F8
:104C600008703F484078414908703D488078404985
:104C700008701EE03A4840783C49097888420BD0D9
:104C8000022039490870364840783849087034485D
:104C90008078374908700CE03148807833490978CA
:104CA000884206D00120304908702D48807830496C
:104CB000087000BF4FF08040406A364909780844C8
:104CC00000F007000028F5D1274801782448FBF7B9
:104CD000F9FF0AF1010A012023490870010328485D
:104CE000FFF7D6FB052F72D2DFE807F003195C73DC
:104CF0008A004FF08040406A2649096808442649E6
:104D0000096801FB140024490968884206D3641C21
:104D1000002504211A48FFF7BBFB8FE08CE04FF021
:104D20008040406A1B49096808441B49096801FB27
:104D3000140019490968884206D3641C002504211F
:104D40000F48FFF7A5FB79E076E000001C1ACE19AA
:104D50006402D0193C010020400ECF19340100201C
:104D6000380100202C0100203B0100202D010020F3
:104D70002E010020240400401C0500205C050020BA
:104D800000040048A8000020A0000020B00000207F
:104D900048E80100640000209400002090000020FA
:104DA000300100204FF08040406A2D4909680844D6
:104DB0002C49096801FB14002A490968884207D375
:104DC000641C002504212848FFF762FB36E032E02E
:104DD00032E04FF08040406A214909680844214987
:104DE000096801FB14001F490968B0EB910F06D355
:104DF000641C002504211C48FFF74AFB1EE01BE051
:104E0000601E1849096848431649096800EB91017A
:104E10004FF08040406A124A12681044401A11490B
:104E20000968884206D3641C002504210E48FFF758
:104E30002FFB03E000E000BF00BF5FE60B48006807
:104E40008442FFF419AE022001F094FE0848FEF7F8
:104E500025F94FF0000A002407B000F00BB800005D
:104E6000640000209400002000040048A4000020FA
:104E70001C05002030BCBDE8C08F0146B1F5807F25
:104E800038D012DC102930D008DC012925D00229C5
:104E900025D0042925D008292FD124E0202926D087
:104EA000402925D0802928D123E0B1F5805F27D083
:104EB00009DCB1F5007F1ED0B1F5806F1ED0B1F5D1
:104EC000006F1AD11BE0B1F5005F1AD0B1F5804F29
:104ED00018D0B1F5004F10D115E00620704707201B
:104EE000FCE70820FAE70920F8E70A20F6E700BF08
:104EF00000BF00BF00BF1720F0E700BF00BF00BF2A
:104F000000BF00BF00BF2820E8E702468A4201DD5B
:104F1000104600E00846704700BFFEE702468A429E
:104F200001DA104600E00846704700002DE9F04F16
:104F30002DED0C8B81B00D4690469946DDE9167A31
:104F40004FF0080B10200090B91C880003F054FEAD
:104F5000044614B945A003F053FC5846FBF71DFB6B
:104F600041EC1A0B012101FA05F0FBF716FB41ECAD
:104F70001C0B4046FBF722FB41EC1D0B53EC1C2B9A
:104F8000FBF79CFA41EC1B0B53EC1A2BFBF721FAB5
:104F900041EC190B9FED3C0B53EC102BFBF70BFA7C
:104FA00041EC180BFBF717FB20600098FBF7F5FAB4
:104FB00041EC1A0B012101FA05F0FBF7EEFA41EC86
:104FC0001C0B4046FBF7FAFA41EC1D0B53EC1C2B73
:104FD000FBF774FA41EC1B0B53EC1A2BFBF7F9F9B6
:104FE00041EC190B9FED280B53EC102BFBF7E3F969
:104FF00041EC180BFBF7EFFA606002262BE0B11EC4
:1050000039F81100FBF7DAFA41EC1A0B012101FA29
:1050100005F0FBF7C2FA41EC1C0B4046FBF7CEFA59
:1050200041EC1D0B53EC1C2BFBF748FA41EC1B0B1E
:1050300053EC1A2BFBF7CDF941EC190B9FED120B3A
:1050400053EC102BFBF7B7F941EC180BFBF7C3FA45
:1050500044F82600761CB81C8642D0DBAAF8000073
:10506000204601B000F014B800F018B80A206D65B1
:105070006D657279206973206E6F7420616C696749
:105080006E21210A00000000000000008084EE4034
:10509000BDEC088BBDEC04CBFFF7E6BF30BCBDE830
:1050A000C08F7047704700002DE9F04104460F465D
:1050B00000255C48C06800F0030090B15948C06802
:1050C00000F003002168884209D1206838B15548B2
:1050D000C068C0F30210401C6168884233D00125CB
:1050E00031E02068012804D0022809D003281AD111
:1050F0000DE04C48006800F0020000B9012514E002
:105100004848006800F4806000B901250DE045487A
:10511000006800F4003028B94248006800F480209C
:1051200000B9012501E0012500BF00BF5DB9D4E948
:105130000010401E41EA00103A49C96821F073018D
:1051400008433849C860002D68D13648006820F00F
:10515000806034490860FCF737F9064606E0FCF742
:1051600033F9801B022801D9032505E02D4800688A
:1051700000F000600028F2D100BFCDBB6FB9A0687D
:105180000002E168090940EA414026490969264AC6
:10519000114008432349086120E0012F0FD1A06886
:1051A0000002218A0122C2EB510140EA41501D490F
:1051B00009691E4A114008431A4908610EE0A068B7
:1051C0000002217D0122C2EB510140EA41601549F4
:1051D0000969174A114008431249086111480068DB
:1051E00040F080600F490860FCF7EEF8064607E0E3
:1051F00014E0FCF7E9F8801B022801D9032505E03B
:105200000848006800F000600028F2D000BF2DB907
:1052100004480069A1690843024908612846BDE8BD
:10522000F081000000100240FF80FDFFFF809FFF23
:10523000FF80FFF92DE9F04104460F460025534851
:10524000C06800F0030090B15048C06800F003004F
:105250002168884209D1206838B14C48C068C0F341
:105260000210401C6168884233D0012531E020687B
:10527000012804D0022809D003281AD10DE04348A0
:10528000006800F0020000B9012514E03F48006802
:1052900000F4806000B901250DE03C48006800F48E
:1052A000003028B93948006800F4802000B9012591
:1052B00001E0012500BF00BF5DB9D4E90010401E28
:1052C00041EA00103149C96821F0730108432F49B0
:1052D000C860002D56D12D48006820F080502B4921
:1052E0000860FCF771F8064606E0FCF76DF8801BD5
:1052F000022801D9032505E02448006800F0005089
:105300000028F2D100BF75BB6FB9A0680002E16848
:10531000090940EA41401D4949691D4A11400843B5
:105320001A4948610EE0A0680002217C0122C2EB0C
:10533000510140EA416015494969164A1140084344
:10534000124948611148006840F080500F490860D8
:10535000FCF73AF8064607E0FCF736F8801B02280F
:1053600002D9032506E00DE00848006800F000506F
:105370000028F1D000BF2DB9044840696169084395
:10538000024948612846BDE8F08100000010024053
:10539000FF80FDFFFF80FFF9F8B504460026234893
:1053A000806D00F0805018B1FCF708F9054616E052
:1053B00000BF1E48806D40F080501C49886508463B
:1053C000806D00F08050009000BF00BFFCF7F6F841
:1053D00005461648806D20F0805014498865B5F563
:1053E000007F07D1802C10D9A02C01D902260CE017
:1053F00001260AE0802C01D9032606E0802C01D189
:10540000022602E0702C00D101260948006820F035
:1054100007003043064908600846006800F00700AE
:10542000B04201D00120F8BD0020FCE7001002408E
:10543000002002400146080900EB8000420001F014
:105440000F001044C0B2704702460023114603E02B
:105450005B1CA1F10A00C1B20A29F9D2180741EA7E
:105460001060704770B5044600262068C06800F0E0
:105470004000B8B9701E2168C860FBF7A5FF05465B
:1054800009E0FBF7A1FF401BB0F57A7F03D90326A3
:10549000032084F821002068C06800F0400008B9AB
:1054A000032EEED1304670BD70B504460025174876
:1054B000006820F0800015490860081F006800F0AF
:1054C000200040B92046FDF7F1FAE0B1032084F84E
:1054D0002100032517E00D48001F006820F0200080
:1054E0000A49091F08602046FDF7E0FA18B10320B9
:1054F00084F8210003250548001F006840F02000C3
:105500000249091F0860284670BD00000C280040B1
:1055100010B500200C4981F821000C4808600020DB
:1055200048607F2108488160FF21C160002101613E
:1055300081610121C161FDF715F908B100BFFEE7E6
:105540000148FCF793FF10BD0C0600200028004026
:105550002DE9F041002500260027A846FFF7D8FFD7
:10556000642004F0BDF902F0CFF903E04FF47A7043
:1055700004F0B6F9294800780028F7D00020274920
:105580000870002420E0264800EB041040682449FD
:1055900001EB041189684FF4803202FB01002049BD
:1055A00001EB04110968401A1D4901EB0411C860A0
:1055B0001B4800EB0410C0681A49081A184901EB8F
:1055C0000411C860601CC4B2032CDCDB1448C7683B
:1055D000D0F80C80002416E0114800EB0410C168DC
:1055E0003846FFF792FC07460D4800EB0410C168EF
:1055F0004046FFF793FC8046094800EB0410C06862
:105600000544601CC4B2032CE6DB032095FBF0F6D6
:10561000044890FBF6F0BDE8F08100007200002025
:10562000DC05002040420F0010B50848FEF73BFFA4
:1056300030B10648FEF730FF04210548FEF728FF89
:105640004FF48020FEF71EFF10BD00000028004030
:10565000000400482DE9F041092001F0B3F80746A5
:10566000062001F0AFF80604072001F0ABF846EA87
:105670000026082001F0A6F846EA000500BF280A27
:10568000A5EB002143F6095200FB02F34A438032A6
:1056900003EB122400BF0021092002F039F83B205F
:1056A00001F090F800F0BF0040F0400631463B208A
:1056B00002F02EF800BF3B2001F084F800F020003B
:1056C0002028F8D00F4801F0C7F93B2001F07AF804
:1056D00000F0BF0040F0400631463B2002F018F8D1
:1056E00000BF3B2001F06EF800F020002028F8D029
:1056F0003946092002F00CF8204601F0ADF9BDE86A
:10570000F081000000A1BC331CB500242048806C4F
:1057100040F001001E4988640846006E40F4805045
:1057200008660120032100230222CDE90010E021B8
:105730004FF09040FBF7E0FA00BF44F4007444F4EB
:10574000807444F0040400BF00BF44F0100400BFA4
:1057500044F040044FF480500E4948604FF4E0603C
:10576000486008460460006820F040000860084671
:10577000006820F0020008600846006820F0010080
:1057800008600846006840F0400008601CBD00004A
:10579000001002400030014001460B48C16000BFCC
:1057A0000948806800F001000028F9D00648C06868
:1057B000C2B200BF0448806800F001000028F9D0A0
:1057C0000148C068C0B2704700300140014600BFC8
:1057D0000948806800F002000028F9D006480173EB
:1057E00000BF0548806800F001000028F9D0024899
:1057F000C068C0B27047000000300140F8B50446F0
:105800000E461546334600224FF4C05120460095FF
:1058100000F026F828B1206E40F02000206603201A
:10582000F8BD3346002280212046009500F06DF837
:1058300028B1206E40F0200020660320F0E73346B8
:1058400000224FF4C0612046009500F009F828B10D
:10585000206E40F0200020660320E1E70020DFE713
:105860002DE9F04104460E4617461D46DDF8188026
:1058700044E0B6F5C06F02D10FB92068007B681C08
:10588000D8B3FBF7A1FDA0EB0800A84200D2A5BB4E
:105890002068406820F0E000216848606068B0F54A
:1058A000827F0DD1A068B0F5004F03D0A068B0F59D
:1058B000806F05D12068006820F0400021680860F2
:1058C000A06AB0F5005F0DD100BF2068006820F429
:1058D0000050216808602068006840F4005021688A
:1058E000086000BF012084F85D0000BF002084F83C
:1058F0005C0000BF0320BDE8F081FFE720688068FE
:105900003040B842B5D10020F5E72DE9F04104461A
:105910000E4617461D46DDF818803EE0681CD8B3D9
:10592000FBF752FDA0EB0800A84200D2A5BB2068FF
:10593000406820F0E000216848606068B0F5827F30
:105940000DD1A068B0F5004F03D0A068B0F5806F0E
:1059500005D12068006820F0400021680860A06A36
:10596000B0F5005F0DD100BF2068006820F4005042
:10597000216808602068006840F4005021680860D1
:1059800000BF012084F85D0000BF002084F85C00A7
:1059900000BF0320BDE8F081FFE720688068304049
:1059A000B04201D1012000E00020B842B6D1002071
:1059B000F0E7704700B585B014216846FAF74FFC50
:1059C0000120019000200290032003906A460221EA
:1059D0000448FEF7D1F8002202210248FEF764F9DC
:1059E00005B000BD0008004800B585B01421684628
:1059F000FAF735FC0120019000200290032003906B
:105A00006A4602210448FEF7B7F800220221024844
:105A1000FEF74AF905B000BD0008004801490860DA
:105A20007047000018000020014601207047014621
:105A30000020704701480079704700007C02002078
:105A4000F0B52DED108B8BB005460C46002615B138
:105A5000012D7DD18FE0C749C869FAF7AFFDCDE9C7
:105A600006012046FAF7AAFDCDE90401302000F036
:105A7000A9FE20F0F90010B19FEDBF0B01E09FEDF2
:105A8000C00B8DED020B272000F09CFE20F0F801EA
:105A9000491CB848008C0F183846FAF77EFD41ECD7
:105AA0001F0BB44890F82200012802D19FEDB41BCF
:105AB00001E09FEDB11BB0EE410AF0EE610A53EC3C
:105AC000102B51EC1F0BFAF7D5FB41EC1E0B9DED93
:105AD000020B53EC102BFAF7CDFB41EC1D0B9DEDA7
