:020000040800F2
:10000000E8040020A1010008A9010008FD2800085B
:10001000AD010008AF010008B101000800000000B8
:10002000000000000000000000000000B301000814
:10003000B501000800000000B70100083D360008C7
:10004000BB010008BB010008BB010008BB010008A0
:10005000BB010008BB010008BB010008BB01000890
:10006000BB010008BB010008BD020008BB0100087D
:10007000BB010008BB010008BB010008BB01000870
:10008000BB010008BB010008BB010008BB01000860
:10009000BB010008BB010008BB010008BB01000850
:1000A000BB010008BB010008BB010008BB01000840
:1000B000BB010008BB010008BB010008BB01000830
:1000C000BB010008BB010008BB010008BB01000820
:1000D000BB010008BB010008BB010008BB01000810
:1000E000BB010008BB010008BB010008BB01000800
:1000F000BB010008BB010008BB010008BB010008F0
:10010000BB010008BB010008BB010008BB010008DF
:10011000BB010008BB010008BB010008BB010008CF
:10012000BB010008BB010008BB010008BB010008BF
:10013000BB010008BB010008BB010008BB010008AF
:10014000BB010008BB010008BB010008BB0100089F
:10015000BB010008BB010008BB010008BB0100088F
:10016000BB010008BB010008BB010008BB0100087F
:10017000BB010008BB010008BB0100080000000033
:10018000BB010008BB010008DFF810D000F084F8C4
:1001900000480047BD3F0008AFF30080E80400209E
:1001A0000648804706480047FEE7FEE7FEE7FEE711
:1001B000FEE7FEE7FEE7FEE7FEE7FEE7D9360008CA
:1001C000890100082DE9F05F0546002092469B4614
:1001D00088460646814640241BE02846414647465D
:1001E000224600F048F853465A46C01A914110D3AF
:1001F00011461846224600F02FF82D1A67EB010829
:100200004F4622460120002100F026F817EB000996
:100210004E41201EA4F10104DFDC484631462A4647
:10022000434600F000B830BCBDE8C09F30B50B4677
:10023000014600202022012409E021FA02F59D4216
:1002400005D303FA02F5491B04FA02F52844151EEA
:10025000A2F10102F1DC30BD202A04DB203A00FAD1
:1002600002F1002070479140C2F1200320FA03F30D
:10027000194390407047202A04DB203A21FA02F00B
:100280000021704721FA02F3D040C2F120029140D0
:100290000843194670470000064C074D06E0E06829
:1002A00040F0010394E8070098471034AC42F6D3BD
:1002B000FFF76EFF7C4100089C410008102000F011
:1002C0000DB870B5044600F0D1F9054600F0CEF93E
:1002D000401BA042FAD370BD70470000044910B51E
:1002E0000A68024202D00860FFF7F6FF10BD000066
:1002F000140401402DE9F84F0026DFF884B20D46C2
:100300000446B0F1904F17D05C4515D09D4884420B
:1003100012D09D4884420FD09C4884420CD09C4807
:10032000844209D09B48844206D09B48844203D033
:10033000C6219AA003F035FE28880004000C03D1E2
:10034000C72196A003F02DFE686808B301281FD0CE
:1003500011281DD002281BD0122819D09E4988428E
:1003600016D09E49884213D09D49884210D09D499D
:1003700088420DD09C4988420AD09C49884207D0C7
:10038000032805D00B2803D0C82184A003F009FE60
:10039000A868002807D00128FCD00228FAD0C9217B
:1003A0007EA003F0FEFDE4E0012000FA06F817EA63
:1003B00008077DD06868022801D012282ED1B4F138
:1003C000904F17D05C4515D06E48844212D06E48CD
:1003D00084420FD06D4884420CD06D48844209D0CD
:1003E0006C48844206D06C48844203D0D8216BA06C
:1003F00003F0D7FD28690F2803D9D92167A003F09E
:10040000D0FDF00804EB8000026A7107C90E0F23CB
:100410008B409A432B698B40134303622268700020
:10042000032101FA00FA2979814601F0030122EA49
:100430000A0201FA09F1114321606868012805D018
:10044000022803D0112801D012281CD1E86848B135
:10045000012807D0022805D0032803D0ED214FA0A2
:1004600003F09FFDA068E96820EA0A0001FA09F19B
:100470000143A1606068297920EA0800C1F30011F6
:10048000B140014361606868C143890707D1E16AEF
:10049000C0F3C00021EA0801B0400843E062E06810
:1004A000A96820EA0A0001FA09F10143E16000E0CD
:1004B0005EE06868C0005BD54D48016E41F0010107
:1004C0000166006E26F0030100F00100009049482B
:1004D00001448B68B007020F0F2090408343B4F1B2
:1004E000904F03D05C4503D101201BE0002019E0B0
:1004F0002448844201D1022014E02348844201D1DF
:1005000003200FE02148844201D104200AE0204862
:10051000844201D1052005E01E48844201D1062015
:1005200000E00720904018438860334908686A68F3
:10053000B843D20300D5384308602F49091D086825
:100540006A68B843920300D5384308602A490831E5
:1005500008686A68B843D20200D538430860264963
:100560000C3108686A68B843920200D538430860C5
:10057000761C2F6837FA06F07FF416AF00F03EB80D
:100580000004004800080048000C00480010004823
:100590000014004800180048001C00482E2E2F446C
:1005A0007269766572732F53544D33324C347878B8
:1005B0005F48414C5F4472697665722F5372632FB6
:1005C00073746D33326C3478785F68616C5F677018
:1005D000696F2E6300000000000011100000211060
:1005E0000000311000001210000022100000321034
:1005F00000100240000001400004014018BCBDE8AA
:10060000E08F000070B515460C00064604D140F29C
:10061000BF1107A003F0C5FC45B1012D04D04FF474
:10062000E07103A003F0BDFCB46170BDB46270BDA5
:100630002E2E2F447269766572732F53544D3332C8
:100640004C3478785F48414C5F4472697665722F0C
:100650005372632F73746D33326C3478785F6861D2
:100660006C5F6770696F2E630000000001480068CE
:10067000704700000800002038B50446C00310D4BD
:10068000A0030ED460030CD420030AD4E00208D4E3
:10069000A00206D4600204D44FF4937108A003F0C2
:1006A00080FC1648016E41F001010166006E00F009
:1006B00001000090124841682143416038BD0000AC
:1006C0002E2E2F447269766572732F53544D333238
:1006D0004C3478785F48414C5F4472697665722F7C
:1006E0005372632F73746D33326C3478785F686142
:1006F0006C5F6932635F65782E6300000010024012
:100700000000014002480168491C01607047000078
:100710000800002010B5032000F0C4F8002000F00D
:1007200004F800F013F8002010BD10B5044600F0E6
:10073000E1FE4FF47A71B0FBF1F001F0B8FF002256
:100740002146501E00F060F8002010BD154808B585
:10075000016E41F001010166006E00F001000090A1
:10076000052000F09FF8002211466FF00B0000F00A
:100770004BF8002211466FF00A0000F045F8002205
:1007800011466FF0090000F03FF800221146101FDB
:1007900000F03AF80022BDE808401146501E00F073
:1007A00033B800000010024010B5040003D5E22168
:1007B00006A003F0F6FB04F01F0101208840610948
:1007C000890001F1E021C1F8000110BD2E2E2F4457
:1007D0007269766572732F53544D33324C34787886
:1007E0005F48414C5F4472697665722F5372632F84
:1007F00073746D33326C3478785F68616C5F636FEB
:10080000727465782E63000070B514460D46064676
:10081000102A03D3CE2113A003F0C3FB102D03D362
:10082000CF2110A003F0BDFB1D480068C0F30223D8
:10083000C3F10700042800D90420191D072901D29B
:10084000002300E0DB1E012202FA00F1491E2940CC
:1008500099409A40521E22403046BDE870401143F4
:1008600002F0E2B82E2E2F447269766572732F5310
:10087000544D33324C3478785F48414C5F44726950
:100880007665722F5372632F73746D33326C3478C4
:10089000785F68616C5F636F727465782E630000C7
:1008A0000CED00E010B5044607280BD0062C09D04B
:1008B000052C07D0042C05D0032C03D0B62108A0AA
:1008C00003F06FFB154A04F0070110684FF6FF03B1
:1008D000184040EA012012490843106010BD000092
:1008E0002E2E2F447269766572732F53544D333216
:1008F0004C3478785F48414C5F4472697665722F5A
:100900005372632F73746D33326C3478785F68611F
:100910006C5F636F727465782E6300000CED00E00D
:100920000000FA0510B51A4CB0F5007F13D0B0F5F1
:10093000806F03D0972117A003F033FB2068C0F32A
:100940004120022805D0206820F4C06040F4806077
:100950002060002010BD2068C0F341200128F8D09D
:10096000206820F4C06040F40070206018481949E5
:100970000068B0FBF1F03221484300E0401E10B1A6
:1009800061694905FAD460694005E2D5032010BDCC
:10099000007000402E2E2F447269766572732F53BB
:1009A000544D33324C3478785F48414C5F4472691F
:1009B0007665722F5372632F73746D33326C347893
:1009C000785F68616C5F7077725F65782E63000096
:1009D0000C00002040420F000248006800F4C06094
:1009E00070470000007000402DE9FC5F04464FF0A6
:1009F0000008006845464746C20704F118014FF059
:100A000080694FF0006AFE4E009129D1810727D4FA
:100A1000410725D4010723D4C10621D481061FD460
:100A200041061DD401061BD4C10519D4810517D474
:100A3000410515D4010516D4C10442D4810476D4ED
:100A4000410474D4010472D4C10370D4810371D4FD
:100A500041037DD400037CD49721EAA003F0A1FADE
:100A6000208800052AD5606D4FF4800B58B1584599
:100A700009D0B0F5000F06D0B0F5400F03D09D218E
:100A8000E0A003F08EFA606D70B1584510D0B0F55B
:100A9000000F04D0B0F5400F2FD001250DE0F06815
:100AA00040F48030F06028E0201D01F0CDFF02E02E
:100AB000009802F001FA05001FD02F462088C004DC
:100AC00035D5A06D4FF0807B58B1584509D0B0F1B5
:100AD000007F06D0B0F1407F03D0CC21C9A003F045
:100AE00060FAA06DB8B158451BD0B0F1007F0DD0B1
:100AF000B0F1407F19D0012518E0D6F88800616D6B
:100B000020F440000843C6F88800D7E7F06840F4B6
:100B10008030F06009E0201D01F096FF04E006E05F
:100B200008E0009802F0C8F905465DB32F4620683A
:100B3000800375D500200190606FB0F5807F0CD0E8
:100B4000B0F5007F09D0B0F5407F06D0FD2101E06F
:100B5000F2E105E2ABA003F024FAB06DC00008D4C6
:100B6000B06D40F08050B065B06D00F08050012055
:100B70000190B348016841F480710160FFF776FD90
:100B8000834610E0D6F88800A16D20F0407008433D
:100B9000C6F88800CBE7FFF769FDA0EB0B006428DF
:100BA00001D9032562E0A6480068C005F3D5B5BBAE
:100BB000D6F89000616F00F44070884211D0D6F8EA
:100BC000900020F44078D6F8900040F48030C6F8C9
:100BD0009000D6F8900020F48030C6F89000C6F857
:100BE00090805FEA88707DD5FFF740FD80464FF02A
:100BF000020B07E0FFF73AFDA0EB080141F2883055
:100C00008142CED89BFAABF1B1FA81F141F04001BB
:100C100001225846B2EB511F03D131681BE025E099
:100C20002BE090FAA0F1B1FA81F141F04001B0EB74
:100C3000511F02D1D6F890100DE090FAA0F1B1FA50
:100C400081F141F040030321B1EB531F02D1D6F8EB
:100C5000941000E0F1699BFAABF0B0FA80F000F07C
:100C60001F0082401142C5D0002D3BD02F46019875
:100C700018B1B06D20F08050B0652078C00714D056
:100C8000A06A50B1012808D0032806D0022804D059
:100C90004FF4A8715BA003F084F9D6F88800A16A2C
:100CA00020F003000843C6F888002078800714D598
:100CB000E06A50B1042808D00C2806D0082804D0D7
:100CC0004FF4AD714FA003F06CF9D6F88800E16ADB
:100CD00020F00C000843C6F888002078400716D59D
:100CE000206B00E029E150B1102808D0302806D050
:100CF000202804D04FF4B27142A003F052F9D6F884
:100D00008800216B20F030000843C6F88800207866
:100D1000000714D5606B50B1402808D0C02806D019
:100D2000802804D04FF4B77136A003F03AF9D6F812
:100D30008800616B20F0C0000843C6F88800207866
:100D4000C00617D5A06B68B1B0F5807F0AD0B0F5AA
:100D5000407F07D0B0F5007F04D04FF4BC7129A0CC
:100D600003F01FF9D6F88800A16B20F44070084307
:100D7000C6F888002078800617D5E06B68B1B0F51A
:100D8000806F0AD0B0F5406F07D0B0F5006F04D087
:100D90004FF4C1711BA003F004F9D6F88800E16B91
:100DA00020F440600843C6F888002088800517D5E5
:100DB000E06C68B1B0F5802F0AD0B0F5002F07D0F5
:100DC000B0F5402F04D040F28B110EA003F0E9F8EB
:100DD000D6F88800E16C20F440200843C6F888006B
:100DE000208840053CD5206D48B1B0F5801F2FD03C
:100DF000B0F5001F2CD0B0F5401F29D022E027E02D
:100E0000001002402E2E2F447269766572732F53A4
:100E1000544D33324C3478785F48414C5F447269AA
:100E20007665722F5372632F73746D33326C34781E
:100E3000785F68616C5F7263635F65782E63000042
:100E4000007000404FF4C971AFF2480003F0A9F8F8
:100E5000D6F88800216D20F440100843C6F88800B9
:100E60002078400615D5206C58B1B0F5805F08D0C9
:100E7000B0F5005F05D04FF4CD71AFF2780003F00C
:100E800090F8D6F88800216C20F440500843C6F84A
:100E900088002078000615D5606C58B1B0F5804FF9
:100EA00008D0B0F5004F05D04FF4D271AFF2AC00CE
:100EB00003F077F8D6F88800616C20F440400843CE
:100EC000C6F888002088C00515D5A06C58B1B0F5CB
:100ED000803F08D0B0F5003F05D04FF4D771AFF296
:100EE000DC0003F05EF8D6F88800A16C20F44030F6
:100EF0000843C6F88800208880042ED5E06D60B1D4
:100F000048450AD0504508D0B0F1406F05D04FF4A5
:100F1000DC71AFF2101003F044F8D6F88800E16DF0
:100F200020F040600843C6F88800E06D50450DD1C0
:100F3000F06840F48010F0600FE0D6F89000616F28
:100F400020F440700843C6F8900090E6484504D16C
:100F5000201D01F031FE00B107462068000325D5B1
:100F6000206E60B148450AD0504508D0B0F1406FBE
:100F700005D040F2D111AFF2741003F012F8D6F898
:100F80008800216E20F040600843C6F88800206E7B
:100F9000504504D1F06840F48010F06006E0484508
:100FA00004D1201D01F008FE00B10746206840036F
:100FB00025D5606E60B148450AD0504508D0B0F1E3
:100FC000406F05D040F2E911AFF2C81002F0E9FF1E
:100FD000D6F88800616E20F040600843C6F88800AB
:100FE000606E504504D1F06840F48010F06006E077
:100FF000484504D1201D01F0DFFD00B107462088DF
:10100000400428D5A06E4FF080554FF0005860B1D5
:10101000A8420AD0404508D0B0F1405F05D040F268
:101020000221AFF2202002F0BCFFD6F88800A16EAA
:1010300020F040500843C6F88800A06EA84203D1B3
:10104000201D01F079FE04E0404504D1009801F034
:10105000E9FF00B107462088000412D5E06E40B1D8
:10106000B0F1804F05D040F22321AFF2682002F0AA
:1010700098FFD6F88800E16E20F080400843C6F85B
:1010800088002068C00311D5206F40B1B0F1004F37
:1010900005D040F22D21AFF2942002F082FF56F8E5
:1010A000880F216F20F0004008433060384600F080
:1010B00000B83CBCBDE8C09F2DE9F05F0E460400BF
:1010C00004D140F22631F9A002F06BFF2068401EE7
:1010D0000E2804D940F22731F4A002F062FF66B175
:1010E000012E0AD0022E08D0032E06D0042E04D0E2
:1010F0004FF44A71EDA002F054FFDFF8E893D9F8FD
:101100000000012700F00700F74D4FF4003B41F2CB
:1011100088384FF4806AB04268D2002E51D0012E38
:101120004FD0022E4DD0032E4BD0042E49D0D9F8EB
:101130000000C9F80000D9F8000000F00700B04234
:101140007ED1207880071CD5A068A0B1802812D05D
:10115000902810D0A0280ED0B0280CD0C0280AD0DB
:10116000D02808D0E02806D0F02804D040F23E3144
:10117000CEA002F016FFA868A16820F0F000084396
:10118000A8602078C0076ED0606870B301280ED0C8
:1011900002281CD003282AD040F24531C3A002F017
:1011A00000FF6068022812D0032820D0E8B19AFA24
:1011B000AAF0B0FA80F040F0200040092AD0286858
:1011C00029E0D9F8000020F007003043B1E79BFA8E
:1011D000ABF0B0FA80F040F02000400901D0286860
:1011E00000E0E8699BFAABF117E006E05EE04FF043
:1011F000007103E091FAA1F10FE0022191FAA1F050
:10120000B0FA80F040F02000400901D02868F1E7F2
:10121000E869EFE7E8699AFAAAF1B1FA81F101F019
:101220001F018F4038420BD0A868616820F003008E
:101230000843A860FFF71AFA06466068022800E033
:10124000F0E00AD0032815D04746F8B128E0FFF7B0
:101250000DFA801BB84201D9C9E04746A868C0F31F
:1012600081000228F3D1E5E0FFF700FA801BB842C5
:1012700001D9BCE04746A868C0F381000328F3D138
:10128000D8E0FFF7F3F9801BB8426ED8A86810F0D9
:101290000C0FF6D1CEE0FFF7E9F9801BB84264D815
:1012A000A868C0F381000128F5D1C3E02078800749
:1012B0001CD5A068A0B1802812D0902810D0A028FA
:1012C0000ED0B0280CD0C0280AD0D02808D0E028F2
:1012D00006D0F02804D04FF4687174A002F061FECB
:1012E000A868A16820F0F0000843A8602078C00733
:1012F00062D0606840B301280ED0022816D00328BF
:1013000027D040F2A73169A002F04BFE60680228A6
:101310000CD0C8B103281CD09AFAAAF0B0FA80F019
:1013200040F02000400923D0286822E09BFAABF06F
:10133000B0FA80F040F02000400901D0286800E0B9
:10134000E8699BFAABF116E0022104E091FAA1F101
:1013500011E04FF0007191FAA1F0B0FA80F040F086
:101360002000400902D02868F0E740E0E869EDE796
:10137000E8699AFAAAF1B1FA81F101F01F018F40F0
:1013800038424FD0A868616820F003000843A86085
:10139000FFF76CF907466068022808D0032811D0CF
:1013A000D8B127E0FFF762F9C11B41451FD8A868F3
:1013B000C0F381000228F5D121E0FFF757F9C11BE6
:1013C000414514D8A868C0F381000328F5D116E080
:1013D000FFF74CF9C11B414509D2A86810F00C0F6A
:1013E000F6D10CE0FFF742F9C11B414502D90320B9
:1013F00000F07CB8A868C0F381000128F2D19EB14A
:10140000012E11D0022E0FD0032E0DD0042E0BD0A2
:10141000D9F80000C9F80000D9F8000000F0070072
:10142000B04207D00120E3E7D9F8000020F0070020
:101430003043EFE720784FF4A06640074FF4C067D1
:101440004FF4E06814D5E06860B150450AD0B0426E
:1014500008D0B84206D0404504D040F20A4113A05B
:1014600002F09FFDA868E16820F4E0600843A860EE
:101470002078000715D5206960B150450AD0B042E8
:1014800008D0B84206D0404504D040F2114107A030
:1014900002F087FDA868216920F4605040EAC1008D
:1014A000A8600020FFF741F90020A1E72E2E2F446D
:1014B0007269766572732F53544D33324C34787899
:1014C0005F48414C5F4472697665722F5372632F97
:1014D00073746D33326C3478785F68616C5F7263FB
:1014E000632E6300002002400010024030BCBDE8C3
:1014F000C09F000000B500F043F808498968F02259
:1015000092FAA2F201F0F001B2FA82F2D140044A5A
:10151000515CC8400349086000BD00000010024053
:101520003C4100080C00002000B5FFF7E3FF07492D
:1015300089684FF4E06292FAA2F201F4E061B2FA33
:1015400082F2D140024A515CC84000BD0010024006
:101550003241000800B5FFF7CDFF074989684FF415
:10156000605292FAA2F201F46051B2FA82F2D140D2
:10157000024A515CC84000BD0010024032410008E0
:1015800030B52C4A0021084693682B4CC3F38103E5
:101590006510012B0ED09368C3F38103022B0BD08F
:1015A000936813F00C0F0ED09368C3F38103032BE1
:1015B00004D01BE0204619E0284617E0D36803F06A
:1015C0000303012B12D11168090704D4D2F8941037
:1015D000C1F3032102E01168C1F30311174B53F863
:1015E0002110936813F00C0F00D108469368C3F3E1
:1015F0008103032B1DD1D06800F00303D068C0F332
:101600000210401C022B04D0032B05D0B1FBF0F0DC
:1016100004E0B4FBF0F001E0B5FBF0F0D168C1F3F9
:1016200006214843D168C1F34161491C4900B0FB20
:10163000F1F030BD001002400024F4004C410008DD
:101640002DE9F84F040004D140F23911F3A002F063
:10165000A8FC41F2883B4FF00209FE4D20680126AC
:1016600070B1C1070CD181070AD4C1060BD40107A0
:101670007ED440077DD44FF49D71E8A002F091FC28
:101680002078C00676D5A06930B1012804D04FF487
:10169000A071E2A002F085FCE069FF2804D940F2C5
:1016A0004111DEA002F07DFC206AD0B1102818D0D4
:1016B000202816D0302814D0402812D0502810D01E
:1016C00060280ED070280CD080280AD0902808D02E
:1016D000A02806D0B02804D04FF4A171CFA002F00A
:1016E00060FCA86810F00C0F0AD0A06900282868D8
:1016F00071D040F001002860FEF7B8FF074660E0B7
:1017000099FAA9F0B0FA80F040F02000400901D029
:10171000286800E0E86999FAA9F1B1FA81F101F0CD
:101720001F0106FA01F1084202D0A069002870D01A
:10173000216A2868000703D5286800F0F00004E05B
:10174000D5F89400F02202EA101081421AD9084616
:1017500001F026FD00285CD1286840F008002860D0
:101760002868216A20F0F00008432860686802E0D9
:10177000EDE17FE26FE0E16920F47F4040EA012083
:10178000686015E0286840F0080028602868216A31
:1017900020F0F000084328606868E16920F47F4089
:1017A00040EA01206860206A01F0FAFC0028D2D1EA
:1017B0000020FEF7BAFF4EE0FEF758FFC01B64287A
:1017C00076D899FAA9F0B0FA80F040F020004009EC
:1017D00002D0286801E01DE0E86999FAA9F1B1FAA0
:1017E00081F101F01F0106FA01F10842E4D02868F6
:1017F00040F0080028602868216A20F0F0000843C3
:1018000028606868E16920F47F4040EA0120686050
:1018100021E0E5E020F001002860FEF727FF074601
:1018200004E0FEF723FFC01B6428C9D899FAA9F089
:10183000B0FA80F040F02000400901D0286800E0B4
:10184000E86999FAA9F1B1FA81F101F01F0206FAEB
:1018500002F10842E5D12078C00742D060684FF419
:10186000803A48B1504507D0B0F5A02F04D04FF4CE
:10187000D1716AA002F095FBA8684FF40037C0F35D
:101880008100022815D0A868C0F38100032803D185
:10189000E868C04380070CD0286820F480302860B6
:1018A000286820F480202860FEF7E0FE80461FE0D4
:1018B00077E197FAA7F0B0FA80F040F020004009F5
:1018C00001D0286800E0E86997FAA7F1B1FA81F140
:1018D00001F01F0106FA01F1084276D06068002885
:1018E0007ED072E0FEF7C2FEA0EB080159459CD8FD
:1018F00097FAA7F0B0FA80F040F02000400901D03C
:10190000286800E0E86997FAA7F1B1FA81F101F0DF
:101910001F0106FA01F10842E4D16068504503D185
:10192000286840F4803009E0B0F5A02F286820F442
:1019300080302860286809D020F480202860606802
:1019400020B3FEF793FE8246B04609E040F48020C3
:101950002860E5E7FEF78AFEA0EB0A015945C6D8E4
:1019600097FAA7F0B0FA80F040F02000400901D0CB
:10197000286800E0E86997FAA7F1B1FA81F101F06F
:101980001F0208FA02F10842E4D01EE0FEF76EFEE4
:10199000804605E0FEF76AFEA0EB08015945A6D88F
:1019A00097FAA7F0B0FA80F040F02000400901D08B
:1019B000286800E0E86997FAA7F1B1FA81F101F02F
:1019C0001F0106FA01F10842E4D12078800773D59F
:1019D000E06848B1B0F5807F06D04FF4F27100E0C6
:1019E000DEE00EA002F0DDFA20691F2804D940F2E3
:1019F000E5110AA002F0D5FAA8684FF0F85AC0F332
:101A000081004FF48068012833D0A868C0F38100BA
:101A1000032823D1E86800F003001DE02E2E2F4498
:101A20007269766572732F53544D33324C34787823
:101A30005F48414C5F4472697665722F5372632F21
:101A400073746D33326C3478785F68616C5F726385
:101A5000632E63000010024002280AD0E0680028CC
:101A6000286850D040F480702860FEF7FFFD0746DC
:101A700028E098FAA8F0B0FA80F040F02000400981
:101A800001D0286800E0E86998FAA8F1B1FA81F17C
:101A900001F01F0206FA02F1084202D0E0680028B5
:101AA0007ED068689AFAAAF22169B2FA82F220F02E
:101AB000F85091400843686046E0FEF7D7FDC01B30
:101AC00064286ED898FAA8F0B0FA80F040F02000B0
:101AD000400901D0286800E0E86998FAA8F1B1FA55
:101AE00081F101F01F0106FA01F10842E5D06868B2
:101AF000226920F0F8519AFAAAF0B0FA80F08240F8
:101B00001143696020E020F480702860FEF7AEFD8C
:101B1000074604E0FEF7AAFDC01B6428D1D898FA56
:101B2000A8F0B0FA80F040F02000400901D0286809
:101B300000E0E86998FAA8F1B1FA81F101F01F011B
:101B400006FA01F10842E5D1207800074ED5606918
:101B500040B3012807D040F22521AFF2401002F037
:101B600020FA6069F0B1D5F8940040F00100C5F8A2
:101B70009400FEF77BFD07464FF0030804E0FEF7F4
:101B800075FDC01B64289CD899FAA9F1B1FA81F1BE
:101B900041F060014846B6EB511F04D129681BE0B3
:101BA00001E262E223E090FAA0F1B1FA81F141F0A2
:101BB0006001B0EB511F02D1D5F890100CE090FA03
:101BC000A0F1B1FA81F141F06002B8EB521F02D1ED
:101BD000D5F8941000E0E96999FAA9F0B0FA80F01C
:101BE00000F01F0206FA02F00142C8D03FE0D5F82B
:101BF000940020F00100C5F89400FEF737FD074679
:101C00004FF0030804E0FEF731FDC01B642885D8BF
:101C100099FAA9F1B1FA81F141F060014846B6EBB9
:101C2000511F01D1296818E090FAA0F1B1FA81F1B1
:101C300041F06001B0EB511F02D1D5F890100CE0DB
:101C400090FAA0F1B1FA81F141F06002B8EB521FB5
:101C500002D1D5F8941000E0E96999FAA9F0B0FA38
:101C600080F000F01F0206FA02F00142CBD120788A
:101C700040077DD5A0684FF0000A48B1012807D081
:101C8000052805D040F25121AFF2702002F089F909
:101C9000A86DC00009D4A86D40F08050A865A86D5B
:101CA0004FF0010A00F080500090FD480168C9051E
:101CB00011D40168804641F480710160FEF7D6FCC2
:101CC000074604E0FEF7D2FCC01B64289FD8D8F872
:101CD0000000C005F6D5D5F8900020F00100C5F849
:101CE0009000D5F8900020F00400C5F89000FEF7B1
:101CF000BDFC80464F4605E0FEF7B8FCA0EB0801AE
:101D0000594584D897FAA7F0B0FA80F040F0400027
:101D1000B6EB501F01D1286819E097FAA7F0B0FA86
:101D200080F040F04000B7EB501F02D1D5F8900092
:101D30000DE097FAA7F0B0FA80F040F040010320E0
:101D4000B0EB511F02D1D5F8940000E0E86997FA92
:101D5000A7F1B1FA81F101F01F0106FA01F1084281
:101D6000CAD1A06801280FD008B105281AD000E018
:101D70009CE0D5F8900020F00100C5F89000D5F85F
:101D8000900020F0040003E0D5F8900040F001003E
:101D9000C5F89000A06878B3FEF768FC80464FF065
:101DA000030912E0D5F8900020F00100C5F890007A
:101DB000D5F8900040F00400C5F89000E4E7FEF785
:101DC00055FCA0EB080159459BD897FAA7F0B0FA4B
:101DD00080F040F04000B6EB501F01D1286819E0B8
:101DE00097FAA7F0B0FA80F040F04000B7EB501F30
:101DF00003D1D5F890000DE017E097FAA7F0B0FAFC
:101E000080F040F04001B9EB511F02D1D5F89400A9
:101E100000E0E86997FAA7F1B1FA81F101F01F013A
:101E200006FA01F21042CAD039E0FEF71FFC8046E4
:101E30004FF0030905E0FEF719FCA0EB0801594536
:101E4000C2D897FAA7F0B0FA80F040F04000B6EBA5
:101E5000501F01D1286818E097FAA7F0B0FA80F077
:101E600040F04000B7EB501F02D1D5F890000CE0D5
:101E700097FAA7F0B0FA80F040F04001B9EB511F9B
:101E800002D1D5F8940000E0E86997FAA7F1B1FA19
:101E900081F101F01F0106FA01F21042CBD1BAF133
:101EA000000F03D0A86D20F08050A865606A00285C
:101EB00078D001280AD0022808D04FF42971AFF257
:101EC000A44002F06EF8606A0028F1D0A868C0F360
:101ED0008100032867D0606A4FF0007702280FD096
:101EE000286820F080702860E86820F00300E8602F
:101EF000E8686C490840E860FEF7B8FB0446B7E0C4
:101F0000A06A58B1012809D0022807D0032805D0BB
:101F100040F2AE21AFF2FC4002F043F8E06A08283C
:101F200005D940F2AF21AFF20C5002F03AF8206B25
:101F300008384E2805D94FF42C71AFF2205002F02A
:101F400030F8606B072807D0112805D040F2B12186
:101F5000AFF2385002F025F8A06B02280BD004280D
:101F600009D0062807D0082805D040F2B221AFF2E8
:101F7000545002F016F8E06B02280BD0042809D068
:101F8000062807D0082805D040F2B321AFF27450DC
:101F900002F007F8286820F080702860FEF766FBE2
:101FA000804607E079E081E0FEF760FBA0EB0800E7
:101FB00064285AD897FAA7F0B0FA80F040F02000D1
:101FC000400901D0286800E0E86997FAA7F1B1FA62
:101FD00081F101F01F0206FA02F10842E4D1E06A41
:101FE000A16A000110380843216B626B09021209D3
:101FF00041EA42410843218F2B4A490802EB4151F3
:10200000084394F83C104908120102EB416108436F
:10201000E860286840F080702860E86840F08070D0
:10202000E860FEF723FB044604E0FEF71FFB001BFD
:1020300064281AD897FAA7F0B0FA80F040F0200090
:10204000400901D0286800E0E86997FAA7F1B1FAE1
:1020500081F101F01F0106FA01F10842E5D01CE010
:10206000FEF704FB001B642802D9032000F020B80F
:1020700097FAA7F0B0FA80F040F02000400901D0B4
:10208000286800E0E86997FAA7F1B1FA81F101F058
:102090001F0106FA01F10842E2D10020E6E7000044
:1020A00000700040FFFFEEFE0000E0FF0120DDE7D2
:1020B00018BCBDE8E08F00002DE9F04104007DD0A0
:1020C00088492068884209D08749884206D08749D4
:1020D000884203D0CD2186A001F063FF606830B153
:1020E000B0F5827F03D0CE2181A001F05AFFA06815
:1020F0004FF4806640B1B04206D0B0F5004F03D037
:10210000CF217BA001F04DFFE0684FF470674FF4E2
:10211000E065B84225D0B0F5606F22D0B0F5506FC1
:102120001FD0B0F5406F1CD0B0F5306F19D0B0F5AE
:10213000206F16D0B0F5106F13D0B0F5006F10D02F
:10214000A8420ED0B0F5C06F0BD0B0F5A06F08D08C
:10215000B04206D0B0F5407F03D0D02164A001F09A
:1021600020FF206928B1022803D0D12160A001F00E
:1021700018FF606928B1012803D0D2215CA001F0CA
:1021800010FFA069B0F5007F07D030B1B0F5802F07
:1021900003D0D32156A001F004FF606B082804D0BF
:1021A00018B1D42152A001F0FCFEE06998B10828D2
:1021B00011D010280FD018280DD000E03DE02028C5
:1021C00009D0282807D0302805D0382803D0D521B9
:1021D00047A001F0E6FE206A28B1802803D0D6216E
:1021E00043A001F0DEFE606A28B1102803D0D72199
:1021F0003FA001F0D6FEA06A30B1B0F5005F03D079
:10220000D8213BA001F0CDFEE06A4FF6FE71401EE2
:10221000884203D9D92136A001F0C3FE206B38B122
:10222000012805D0022803D0DA2131A001F0B9FE3F
:1022300094F85D00002618B107E00120BDE8F081A8
:1022400084F85C60204600F06FF8022284F85D207C
:102250002068016821F040010160E068A84203D9CC
:102260000021B84202D104E04FF48051A84200D0CE
:10227000A662276B012327B9A84201D9226300E097
:102280002363D4E901021043D4E904252A4310430F
:10229000228B02F400721043E2691043226A104359
:1022A000A26A104322681060206B022804D12068C3
:1022B000026842F400620260626B606AA5691043C2
:1022C0000427E26807EA15452A43104308432168BA
:1022D00048602168E06A0861266684F85D30002065
:1022E000ACE700000030014000380040003C0040F6
:1022F0002E2E2F447269766572732F53544D3332EC
:102300004C3478785F48414C5F4472697665722F2F
:102310005372632F73746D33326C3478785F6861F5
:102320006C5F7370692E630000B500680E4987B05A
:10233000884217D10D48016E41F480510166006E4C
:10234000694600F480500590E02000900220019042
:102350000120029003200390052004904FF090404C
:10236000FDF7C8FF07B000BD00300140001002407B
:102370002DE9F84F1F4691468A4604460A9EFEF70D
:1023800075F98046A068002520B14FF43E719EA0EB
:1023900001F007FE94F85C0001280AD0012084F8BF
:1023A0005C0094F85D004FF0000B012804D002257A
:1023B00022E1022000F044B9BAF1000F7DD0B9F15A
:1023C000000FFBD0002FF9D0052084F85D00C4F881
:1023D00060B0C4F84090A4F84670A4F84470C4F803
:1023E00038A0E787A787A06A4FF40057B8420AD100
:1023F000206801684DF6FF72114001602068016895
:1024000041F400510160E0684FF4E061884203D874
:10241000B4F84600012804D92068426822F48052AA
:1024200003E02068426842F48052426020680268FB
:10243000520603D4026842F040020260E06888421B
:1024400033D88EE0B8B120688168890713D5A16BB5
:102450000988C160A06B801CA063E08F401E00044F
:10246000000CE08707D1A06AB84204D12068016857
:1024700041F480510160B4F8460070B12068816871
:10248000C9070AD0C068216C0880206C801C2064B9
:10249000B4F84600401EA4F84600701C05D0FEF7B4
:1024A000E5F8A0EB0800B04259D2E08F0028C9D16E
:1024B000B4F846100029C5D15AE09CE001B3206869
:1024C000826892071CD50129A16B07D90988C160D0
:1024D000A06B801CA063E08F801E05E04A1CA263F5
:1024E00009780173E08F401EE0870004000C07D1DB
:1024F000A06AB84204D12068016841F480510160AB
:10250000B4F8461019B320688268D2071FD0012999
:1025100013D9C068216C0880206C801C2064B4F83A
:102520004600801E80B2A4F8460001280FD820681B
:10253000416841F48051416009E0027B206C411CFC
:1025400021640270B4F84600401EA4F84600701CD6
:1025500007D0FEF78BF8A0EB0800B04201D30325AB
:102560004AE0E18F0029A9D1B4F846000028A5D19E
:10257000A06AB84228D1012233461146204601F014
:1025800016F8B0B9E068B0F5706F206808D0007B2D
:10259000ADF80000BDF80000206B022802D013E067
:1025A000C0680DE0012233461146204600F0FFFFCF
:1025B00020B1206E40F002002066D0E72068007B4A
:1025C000ADF80000BDF8000020688168C943C90665
:1025D00007D4216E41F0020121664FF6EF71816050
:1025E00001253146204600F065FF10B1202020660D
:1025F00001E0206E00B10125012084F85D0084F81F
:102600005CB02846D6E600002E2E2F44726976650F
:1026100072732F53544D33324C3478785F48414CA9
:102620005F4472697665722F5372632F73746D33D2
:10263000326C3478785F68616C5F7370692E630008
:1026400018BCBDE8E08F000010B54FF0E02404286E
:102650000AD020B14FF4C57105A001F0A2FC206999
:1026600020F00400206110BD206940F00400F9E76B
:102670002E2E2F447269766572732F53544D333268
:102680004C3478785F48414C5F4472697665722FAC
:102690005372632F73746D33326C3478785F686172
:1026A0006C5F636F727465782E630000704710B5BD
:1026B000401EB0F1807F01D3012010BD4FF0E02417
:1026C00060610F21601700F0AFF90020A0610720C2
:1026D0002061002010BD10B5FFF7E8FF10BD00001D
:1026E0002DE9F041040017D0A0692C4900282C4A9C
:1026F0002C4B2D4D2D4E2E4F206810D088421ED0D1
:1027000090421CD098421AD0A84218D0B04216D09D
:10271000B84214D0E4210FE00120BDE8F0818842E6
:102720000DD090420BD0984209D0A84207D0B042B9
:1027300005D0B84203D0E9211EA001F032FC94F884
:10274000690028B9002084F86800204600F050F89D
:10275000022084F869002068016821F0010101600D
:10276000204601F00FF90128D7D0606A10B1204649
:1027700000F0D4FF2068416821F490414160206856
:10278000816821F02A0181602068016841F001011F
:1027900001602046BDE8F04101F0CCB800380140AE
:1027A0000044004000480040004C00400050004001
:1027B000008000402E2E2F447269766572732F536D
:1027C000544D33324C3478785F48414C5F447269E1
:1027D0007665722F5372632F73746D33326C347855
:1027E000785F68616C5F756172742E630000000031
:1027F00000B500680E4987B0884217D10D48816D39
:1028000041F400318165806D694600F40030059027
:102810000C200090022001900120029003200390E0
:10282000072004904FF09040FDF764FD07B000BD15
:1028300000440040001002402DE9F047044690F8A3
:10284000690099460D46012803D094F869002228B2
:1028500052D11DB312B394F8680001284CD0012660
:1028600084F868600027E76694F86900222818D089
:10287000122084F86900A4F85020A4F852204FF4E4
:102880008058B4F852004B46401EA4F85200002273
:102890008021204601F03DFAC8B904E00120BDE8DE
:1028A000F0873220E5E7A068404501D1206980B17A
:1028B00015F8010B21680885B4F852000028E0D112
:1028C0004B4600224021204601F023FA30B103207C
:1028D000E5E735F8020BC0F30800EBE794F8690070
:1028E000322805D084F8696084F868700020D6E743
:1028F000222084F86900F7E70220D0E77047000043
:10290000F0B52A4887B0C16C41F00401C164C16CC4
:1029100001F004010591C16C41F08001C164C16CFA
:1029200001F080010591C16C41F00101C164C16CED
:1029300001F001010591C16C41F00201C164C06C5C
:10294000032500F002000095059000200124CDE948
:1029500001044FF0904769463846FDF7CBFC10263E
:10296000CDE9006469463846CDE90245FDF7C2FC71
:102970000F480096CDE9010469460E48FDF7BAFC00
:102980005020CDE9000469460B48CDE90245FDF72A
:10299000B1FC2004FDF770FE012211460A20FDF76C
:1029A00033FF0A20FDF700FF07B0F0BD0010024022
:1029B0000000211000080048000400480E480D499E
:1029C0004FF4E06201604FF4827141600021C0E980
:1029D00002124FF400720161C0E905120822C0E939
:1029E000072107224162C0E90A1201634163FFF730
:1029F00063BB000000300140140000200948084972
:102A000001604FF4E1314160002181600C22C1601E
:102A1000C0E904128161C16101624162FFF760BED9
:102A200000440040780000200907090E002806DA5B
:102A300000F00F0000F1E02080F8141D704700F155
:102A4000E02080F8001470472DE9F0470446006844
:102A5000002508384E2804D940F27D6145A001F0D8
:102A6000A0FA6068072806D0112804D040F27E61E1
:102A700040A001F096FA2069C10303D4C10201D439
:102A8000C10102D54A49084204D040F27F6139A011
:102A900001F087FA474E306820F080603060FDF723
:102AA000E5FDB046F60381464FF47A7A012705E04A
:102AB000FDF7DCFDA0EB0900504539D896FAA6F0E9
:102AC000B0FA80F040F020004009404601D0006894
:102AD00000E0C06996FAA6F1B1FA81F101F01F0198
:102AE00007FA01F10842E3D11DBBD8F810102268A3
:102AF00021F4FE4141EA0221C8F81010D8F8101064
:102B0000626821F40031120941EA4241C8F810100C
:102B1000D8F8001041F08061C8F80010FDF7A6FD5C
:102B2000814607E0FDF7A2FDA0EB0900504501D961
:102B300003251CE096FAA6F0B0FA80F040F02000E1
:102B40004009404601D0006800E0C06996FAA6F14D
:102B5000B1FA81F101F01F0107FA01F10842E1D059
:102B60002DB9D8F8101022691143C8F81010284662
:102B7000BDE8F0872E2E2F447269766572732F534D
:102B8000544D33324C3478785F48414C5F4472691D
:102B90007665722F5372632F73746D33326C347891
:102BA000785F68616C5F7263635F65782E630000B5
:102BB000FFFFEEFE001002402DE9F04704460068DA
:102BC000002508384E2804D940F2C16148A001F020
:102BD000E8F9A06802280AD0042808D0062806D000
:102BE000082804D040F2C26141A001F0DAF920695E
:102BF000C10303D4C10201D4C10102D54B4908422B
:102C000004D040F2C3613AA001F0CBF9484E3068DD
:102C100020F080603060FDF729FDB046F603814664
:102C20004FF47A7A012705E0FDF720FDA0EB0900BB
:102C300050453BD896FAA6F0B0FA80F040F020005C
:102C40004009404601D0006800E0C06996FAA6F14C
:102C5000B1FA81F101F01F0107FA01F10842E3D155
:102C60002DBBD8F81010226821F4FE4141EA022160
:102C7000C8F81010D8F8101022892E4B520821F4F1
:102C8000C00103EB42521143C8F81010D8F80010ED
:102C900041F08061C8F80010FDF7E8FC814607E0CC
:102CA000FDF7E4FCA0EB0900504501D903251CE029
:102CB00096FAA6F0B0FA80F040F0200040094046B5
:102CC00001D0006800E0C06996FAA6F1B1FA81F17E
:102CD00001F01F0107FA01F10842E1D02DB9D8F83F
:102CE000101022691143C8F810102846BDE8F0877B
:102CF0002E2E2F447269766572732F53544D3332E2
:102D00004C3478785F48414C5F4472697665722F25
:102D10005372632F73746D33326C3478785F6861EB
:102D20006C5F7263635F65782E630000FFFFEEFEE9
:102D3000001002400000E0FF2DE9F0470446006863
:102D4000002508384E2804D940F2057149A001F049
:102D500028F9E06802280AD0042808D0062806D0FE
:102D6000082804D040F2067142A001F01AF9206947
:102D7000C10303D4C10201D4C10102D54C490842A8
:102D800004D040F207713BA001F00BF9494E3068C6
:102D900020F080603060FDF769FCB046F6038146A4
:102DA0004FF47A7A012705E0FDF760FCA0EB0900FB
:102DB00050453CD896FAA6F0B0FA80F040F02000DA
:102DC0004009404601D0006800E0C06996FAA6F1CB
:102DD000B1FA81F101F01F0107FA01F10842E3D1D4
:102DE00035BBD8F81010226821F4FE4141EA0221D7
:102DF000C8F81010D8F81010227B4FF07E4352080C
:102E000021F0C06103EB42621143C8F81010D8F8FA
:102E1000001041F08061C8F80010FDF727FC8146E2
:102E200007E0FDF723FCA0EB0900504501D903257D
:102E30001CE096FAA6F0B0FA80F040F020004009BD
:102E4000404601D0006800E0C06996FAA6F1B1FAE8
:102E500081F101F01F0107FA01F10842E1D02DB91B
:102E6000D8F8101022691143C8F810102846BDE8A0
:102E7000F08700002E2E2F447269766572732F53EF
:102E8000544D33324C3478785F48414C5F4472691A
:102E90007665722F5372632F73746D33326C34788E
:102EA000785F68616C5F7263635F65782E630000B2
:102EB000FFFFEEFE001002402DE9F04704460068D7
:102EC000002508384E2804D940F2497144A001F089
:102ED00068F86068072806D0112804D040F24A71CB
:102EE0003FA001F05EF8E068C10301D4C10102D542
:102EF0004A49084204D040F24B7139A001F051F820
:102F0000474E306820F080503060FDF7AFFBB04690
:102F1000760481464FF47A7A012705E0FDF7A6FB97
:102F2000A0EB0900504539D896FAA6F0B0FA80F027
:102F300040F020004009404601D0006800E0C06930
:102F400096FAA6F1B1FA81F101F01F0107FA01F139
:102F50000842E3D11DBBD8F81410226821F4FE41C9
:102F600041EA0221C8F81410D8F81410626821F45C
:102F70000031120941EA4241C8F81410D8F8001093
:102F800041F08051C8F80010FDF770FB814607E062
:102F9000FDF76CFBA0EB0900504501D903251CE0AF
:102FA00096FAA6F0B0FA80F040F0200040094046C2
:102FB00001D0006800E0C06996FAA6F1B1FA81F18B
:102FC00001F01F0107FA01F10842E1D02DB9D8F84C
:102FD0001410E2681143C8F814102846BDE8F087C1
:102FE0002E2E2F447269766572732F53544D3332EF
:102FF0004C3478785F48414C5F4472697665722F33
:103000005372632F73746D33326C3478785F6861F8
:103010006C5F7263635F65782E630000FFFFFEFEE6
:10302000001002402DE9F0470446006800250838EA
:103030004E2804D940F28D7148A000F0B2FFA0687C
:1030400002280AD0042808D0062806D0082804D070
:1030500040F28E7141A000F0A4FFE068C10301D4EA
:10306000C10102D54C49084204D040F28F713BA007
:1030700000F097FF494E306820F080503060FDF737
:10308000F5FAB046760481464FF47A7A012705E0D6
:10309000FDF7ECFAA0EB090050453CD896FAA6F0F3
:1030A000B0FA80F040F020004009404601D00068AE
:1030B00000E0C06996FAA6F1B1FA81F101F01F01B2
:1030C00007FA01F10842E3D135BBD8F814102268A1
:1030D00021F4FE4141EA0221C8F81410D8F8141076
:1030E000227A4FF07E43520821F0C06103EB426226
:1030F0001143C8F81410D8F8001041F08051C8F8F6
:103100000010FDF7B3FA814607E0FDF7AFFAA0EB38
:103110000900504501D903251CE096FAA6F0B0FA43
:1031200080F040F020004009404601D0006800E0F7
:10313000C06996FAA6F1B1FA81F101F01F0107FA10
:1031400001F10842E1D02DB9D8F81410E26811431A
:10315000C8F814102846BDE8F08700002E2E2F4432
:103160007269766572732F53544D33324C347878CC
:103170005F48414C5F4472697665722F5372632FCA
:1031800073746D33326C3478785F68616C5F72632E
:10319000635F65782E630000FFFFFEFE00100240B3
:1031A000F8B51C4E05460024B06DC00002D5FDF7F1
:1031B00013FC0DE0B06D40F08050B065B06D00F0D4
:1031C00080500090FDF708FCB16D21F08051B16591
:1031D000B0F5007F04D0802D08D94FF0030409E03A
:1031E000802D07D9A02D04D9022403E0FCD0702D36
:1031F00000D101240848016821F007012143016042
:10320000006800F00700A04201D00120F8BD0020B6
:10321000F8BD0000001002400020024008B5342133
:103220008DF800108DF801000221684600F001F8C9
:1032300008BD70B50C46054600F01CF94FF09046ED
:10324000002210213046FDF7DDF903E015F8010BEF
:1032500000F048F9641EE4B2F8D23046BDE8704090
:1032600001221021FDF7CEB970B50024264E05E0ED
:10327000641C30192946FFF7DCFF2C44355D002D16
:10328000F6D1002141F2062000F0B1F800214FF400
:10329000905000F0ACF8012141F2092000F0A7F8AD
:1032A0002A2141F2082000F0A2F8002141F20A2070
:1032B00000F09DF8002141F20D2000F098F8012166
:1032C00041F20E2000F093F8002141F20F2000F0AF
:1032D0008EF8002141F2102000F089F8002141F21F
:1032E000112000F084F8102141F2122000F07FF844
:1032F000002141F2132000F07AF8BDE8704000216F
:1033000041F2142000F073B84440000808B533209F
:103310008DF8000001216846FFF78BFF0321684606
:1033200000F027F89DF8010000F00F0008BD38B547
:10333000044620208DF8000000218DF801108DF842
:1033400002108DF8031004216846FFF772FF09216F
:10335000204600F00EF838BD38B5044601218DF83E
:1033600000106846FFF765FF0821204600F001F8CD
:1033700038BD70B50D4604464FF09046002210212E
:103380003046FDF73FF9442000F0ACF804E0FF20A0
:1033900000F0A8F804F8010B6D1EEDB2F7D230462C
:1033A000BDE8704001221021FDF72CB910B50C4C7E
:1033B000012240212046FDF725F90520FCF781FF79
:1033C000002240212046FDF71DF93220FCF779FF4D
:1033D0000122BDE8104010214FF09040FDF712B9D6
:1033E00000040048014642F20120AFF300801CB502
:1033F00011228DF80020020A8DF8012001228DF89B
:1034000002208DF803008DF8041005216846FFF7AF
:1034100010FF1CBD03480068016841F040010160D5
:1034200070470000140000207CB5064614460D4687
:103430000220FFF7F3FEFFF769FF0228FBD105200A
:10344000FFF7ECFEFFF762FF0528FBD131208DF876
:1034500000008DF801608DF80250200A8DF80300FD
:103460008DF8044080208DF8050006216846FFF79E
:10347000E0FE7CBDFEB500244FF0904500221021F7
:103480002846FDF7BFF8442000F02CF8FF2000F09C
:1034900029F80646012210212846FDF7B3F8641CDE
:1034A000E4B2C82C03D96846FFF741FF0024FF2E81
:1034B000E4D1FEBD70B50D460B46044600224FF424
:1034C000C05100F023F838B92B4600228021204655
:1034D00000F06DF8002804D0206E40F02000206637
:1034E000032070BD11B583B04FF47A74012301AA93
:1034F00003A905480094FEF73BFF0028F6D19DF88C
:10350000040004B010BD0000140000202DE9F843B1
:103510001D4616460F460446FDF7A8F880464FF4B0
:10352000C0693DE04F4505D126B9007B8DF800000C
:103530009DF80000681C33D02DB1FDF797F8A0EB83
:103540000800A8422CD32068416821F0E0014160C6
:103550006068B0F5827F0BD1A068B0F5004F02D053
:10356000B0F5806F04D12068016821F0400101604E
:10357000A06AB0F5005F0AD1206801684DF6FF72BD
:10358000114001602068016841F400510160012090
:1035900084F85D00002084F85C000320BDE8F88317
:1035A000206881683940B142BCD10020F6E72DE99E
:1035B000F0411D46174688460446FDF757F8064673
:1035C00034E0681C32D025B1FDF750F8801BA842CA
:1035D0002CD32068416821F0E00141606068B0F5BB
:1035E000827F0BD1A068B0F5004F02D0B0F5806F9C
:1035F00004D12068016821F040010160A06AB0F5A3
:10360000005F0AD1206801684DF6FF721140016029
:103610002068016841F400510160012084F85D00D8
:10362000002084F85C000320BDE8F08120688068F9
:1036300000EA0800B842C4D10020F5E710B5FDF754
:1036400061F8BDE81040FFF746B8000010B5B4B00F
:103650000224E001039010200994009404900A943D
:103660001420CDE90B400720CDE90D0468460F94E6
:10367000FDF7E6FF0F202E9003202F9000203090C2
:103680003190329004212EA8FDF716FD04201B90E6
:10369000109410A8FDF7A8F90E48816D41F08051F3
:1036A0008165806D00F0805033902002FDF73AF97B
:1036B000FDF720FF4FF47A71B0FBF1F0FEF7F7FF52
:1036C0000420FEF7C1FF00221146501EFDF79CF8B2
:1036D00034B010BD001002400D48016841F4700183
:1036E00001600C48016841F0010101600021816026
:1036F0000268094B1A400260C214C260026822F4D8
:103700008022026081610249C003803908607047ED
:1037100088ED00E000100240FFFFF6EA70B50446B5
:10372000406AFF2804D940F285616EA000F039FCA0
:1037300094F82400C00710D0A06A38B1B0F5003F5B
:1037400004D040F28A6167A000F02BFC2068416839
:10375000A26A21F400311143416094F824008007EB
:1037600010D5E06A38B1B0F5803F04D040F29161E5
:103770005CA000F016FC20684168E26A21F4803108
:103780001143416094F82400400710D5206B38B1F4
:10379000B0F5802F04D04FF4D36152A000F001FCAB
:1037A00020684168226B21F480211143416094F824
:1037B0002400000710D5606B38B1B0F5004F04D07D
:1037C00040F29F6147A000F0ECFB20684168626B0B
:1037D00021F400411143416094F82400C00610D543
:1037E000A06B38B1B0F5805F04D040F2A6613DA077
:1037F00000F0D7FB20688168A26B21F4805111434F
:10380000816094F82400800610D5E06B38B1B0F5E3
:10381000005F04D040F2AD6132A000F0C2FB20682E
:103820008168E26B21F400511143816094F8240017
:10383000400640D53A492068884210D0394988422C
:103840000DD0394988420AD03849884207D03849D2
:10385000884204D040F2B46122A000F0A2FB206CA8
:103860004FF4801530B1A84204D040F2B5611DA0DC
:1038700000F097FB20684168226C21F4801111430D
:103880004160206CA84216D1606C68B1B0F5001F91
:103890000AD0B0F5800F07D0B0F5C00F04D040F2C9
:1038A000BA6110A000F07DFB20684168626C21F4D1
:1038B000C0011143416094F82400000610D5A06CAB
:1038C00038B1B0F5002F04D040F2C26105A000F07D
:1038D00068FB20684168A26C21F40021114341601B
:1038E00070BD00002E2E2F447269766572732F53BF
:1038F000544D33324C3478785F48414C5F447269A0
:103900007665722F5372632F73746D33326C347813
:10391000785F68616C5F756172742E6300000000EF
:10392000003801400044004000480040004C004086
:103930000050004070B500250446C5660068006868
:103940006FF07E46000707D5334600224FF4001182
:10395000204600F0DEF958B920680068400709D514
:10396000334600224FF48001204600F0D2F908B11E
:10397000032070BD012084F8690084F8685000209D
:1039800070BD00002DE9F05F044600264068C34981
:1039900010253746884204D340F2CC51C0A000F035
:1039A00000FBA068B0F1805F08D038B1B0F5805F4F
:1039B00004D040F2CD51BAA000F0F3FADFF81C9326
:1039C0002268E0684FF400514A4506D1002819D01A
:1039D000884217D04FF4BA6111E048B1884207D04D
:1039E000B0F5405F04D040F2D451ADA000F0D9FA58
:1039F000206A38B1B0F5006F04D040F2D551A8A0CC
:103A000000F0CFFA20694FF4806B48B1584507D0D9
:103A1000B0F5C06F04D04FF4BB61A1A000F0C1FAB3
:103A2000606930F00C0100D120B940F2D9519CA05E
:103A300000F0B7FAA0694FF4807A60B150450AD01F
:103A4000B0F5007F07D0B0F5407F04D040F2DA51E6
:103A500093A000F0A6FAE0694FF4004830B1404569
:103A600004D040F2DB518EA000F09BFAA1682069DF
:103A7000E269014360691043014320680268984B82
:103A80001A400A43026020684168E26821F440510C
:103A90001143416021684A46A069914201D0236ADE
:103AA00018438B6823F4306303438B608D4B21688C
:103AB0008D4899420DD1D0F8880010F0030006D04F
:103AC000012858D0022854D0032857D155E00125A9
:103AD00054E0864B99420BD1D0F8880010F00C00CE
:103AE00045D0042847D0082843D00C2846D144E0CC
:103AF0007F4B99420BD1D0F8880010F0300036D0BF
:103B0000102838D0202834D0302837D135E0794BF0
:103B100099420BD1D0F8880010F0C00027D040287F
:103B200029D0802825D0C02828D126E0724B994280
:103B30000DD1D0F8880010F4407018D050451AD03C
:103B4000B0F5007F15D0B0F5407F17D115E0914258
:103B500014D1D0F8880010F4406008D058450AD03D
:103B6000B0F5006F05D0B0F5406F07D105E0002536
:103B700004E0022502E0042500E008255F484945ED
:103B80003FD135B1022D0AD0042D05D0082D11D119
:103B90000EE0FDF7C9FC01E0FDF7F2FC80B36268BE
:103BA00002EB4201814205D8B0EB023F02D803E0AC
:103BB0004046F4E701276EE06DB1022D0ED0042DD2
:103BC00012D0082D17D001274D4AA0F5407191421F
:103BD000F0D821685EE0FDF7A7FC07E00023494824
:103BE0000CE0FCF7EFFAEFE7FDF7CAFC010E00026C
:103BF00000236268F5E700234FF400000021F0E79E
:103C000049E0E369434526D1092D1DD2DFE805F0DF
:103C10000508101C131C1C1C1600FDF785FC01E098
:103C2000FDF798FC61684000B0FBF1F086B20CE053
:103C30003549606805E0FDF7A3FCF3E760684FF4E1
:103C40008031B1FBF0F0F1E7012726F00F00C6F359
:103C500042010843BDE7092DACD2DFE805F00609B3
:103C60000C05110505051800A4E7FDF75DFC09E04A
:103C7000FDF770FC06E06268B0FBF2F080B209E08C
:103C8000FDF77EFC6168B0FBF1F080B2A1E76068EF
:103C9000B8FBF0F0C860384600F038B8819698005C
:103CA0002E2E2F447269766572732F53544D333222
:103CB0004C3478785F48414C5F4472697665722F66
:103CC0005372632F73746D33326C3478785F68612C
:103CD0006C5F756172742E6300000000008000400C
:103CE000F369FFEF0038014000100240004400403B
:103CF00000480040004C0040005000400024F40008
:103D0000FFFC0F00000024F40048E80130BCBDE8CF
:103D1000C09F2DE9F0471D4690460F460446FCF72C
:103D2000A5FC06465FEA08004FF000094FF00108C5
:103D300008D030E0681C05D095B1FCF797FC801BDB
:103D4000A8420DD82068C06937EA0000F2D127E008
:103D5000681C20D025B1FCF789FC801BA8421AD929
:103D60002068016821F0800101602068016821F06D
:103D7000200101602068016821F4807101602068E1
:103D8000816821F00101816084F8698084F868907D
:103D90000320BDE8F0872068C06937EA0000D7D06B
:103DA0000020F6E70FB4054B10B503A9044A0298AA
:103DB00000F018F810BC5DF814FB0000A53F0008E7
:103DC0001000002002E008C8121F08C1002AFAD122
:103DD00070477047002001E001C1121F002AFBD18B
:103DE000704700002DE9FF4F8BB09A460F460546FD
:103DF000002606E025280BD052460D9990476D1CF1
:103E0000761C28780028F5D10FB0304600F0C6B8EF
:103E10000024A0460122604900E0044315F8013F58
:103E2000203B02FA03F00842F7D128782E2817D158
:103E300015F8010F44F004042A280ED06FF02F0269
:103E40002878A0F1300109290AD808EB880102EB93
:103E5000410100EB01086D1CF2E757F8048B6D1C63
:103E6000287869283ED006DC0028CDD063280BD006
:103E7000642804D136E0732810D075284BD0524600
:103E80000D999047761C85E017F8040B8DF800001B
:103E900000208DF80100E946012003E057F8049B5B
:103EA0004FF0FF3061074FF0000401D40AE0641CBA
:103EB00044450DDA8442FADB19F804100029F6D1E2
:103EC00006E0641C8442FCDB19F804100029F8D1D8
:103ED000264404E019F8010B52460D999047641EE0
:103EE000F8D257E001CF4FF00A0B002802DA404227
:103EF0002D2102E0210504D52B218DF8241001216C
:103F000003E0E10705D02021F7E70DF12009089132
:103F10000CE00021F9E701CF4FF00A0BF9E7594611
:103F2000FCF784F901F1300209F8012D0028F6D1DF
:103F3000ADEB090000F1200B600701D44FF0010840
:103F4000D84502DDA8EB0B0000E0002080460024ED
:103F500006E009A85246005D0D999047641C761C46
:103F600008988442F5DB04E0302052460D999047D2
:103F7000761CB8F10001A8F10108F5DC05E019F89C
:103F8000010B52460D999047761CBBF10001ABF135
:103F9000010BF4DC6D1C34E70928010030BCBDE8DE
:103FA000C08F704713B54FF6FF7301226946024870
:103FB000FEF742FC00981CBD78000020FCF7AAFB2D
:103FC000FFF744FBFEF79CFCFFF740FBFEF7F6FC17
:103FD000FEF714FDFDF78EFA014614A0FFF7E2FE8E
:103FE000FFF718FAFFF7E2F9FFF73EF97F20FFF736
:103FF000F9F9002211461046FFF716FA0E48FFF7AE
:10400000ABF90E4D0E4C002210212846FCF7FAFAAF
:104010000020401CA042FCDB012210212846FCF7B6
:10402000F1FA0020401CA042FCDBECE748434C4B7B
:104030003D25640D0A000000000000200004004837
:1040400040420F0007020100018CBA8008131004DF
:1040500000000000000611000200520005110001DE
:1040600003600511010100000811020400000000B6
:10407000001011200C00290007124F80018CBA801B
:104080000000051120010C000C1120081800800808
:1040900003800002300D11200922006C04B9E502F2
:1040A0005F00C20B1120072C5447097400A780053C
:1040B00011200135620D112009381118180002FF76
:1040C000FF00280C112008428401D68C07FF0180D4
:1040D000051120014E4005112001510A1011210C3B
:1040E00000E7DFCAAA845D3A1E0AFEF9F910112121
:1040F0000C0CFAFD0000FC0FE7DFCAAA845D10116A
:10410000210C183A1E0AFEF9F9FAFD0000FC0F080E
:1041100011220400087F00420B112307002C0E0B14
:10412000040C73030C11400800410CEC4E005120AC
:10413000FE00000000000102030400000000000077
:10414000000000000102030406070809A086010020
:10415000400D0300801A060000350C0040420F009D
:1041600080841E0000093D0000127A000024F40043
:1041700000366E010048E801006CDC029C4100083A
:104180000000002014000000C43D0008B0410008F9
:1041900014000020D4040000D43D000800000000FA
:1041A000000000000000000000093D0000000000C9
:040000050800018965
:00000001FF
