:020000040800F2
:10000000E8A80020A1010008DB3E00086D340008CC
:10001000253D00082F0A0008DD52000800000000FE
:10002000000000000000000000000000654500081E
:100030003D0C000800000000DD3E00086745000898
:10004000BB010008BB0100086D46000829440008F8
:10005000BB010008BB010008BB010008BB01000890
:10006000BB010008BB010008BB010008BB01000880
:10007000BB010008BB010008BB010008BB01000870
:10008000BB010008BB010008BB010008BB01000860
:10009000BB010008BB010008BB010008BB01000850
:1000A00009470008BB010008BB010008BB010008AC
:1000B000194700085D470008BB010008BB010008A4
:1000C000BB010008BB010008BB010008BB01000820
:1000D000BB010008BB0100089D520008BB010008DD
:1000E000BB010008BB010008BB010008BB01000800
:1000F000BB010008BB010008BB010008BB010008F0
:10010000BB010008BB010008BB010008BB010008DF
:10011000BB010008BB010008BB010008BB010008CF
:10012000BB010008BB010008BB010008BB010008BF
:10013000BB010008BB010008BB010008BB010008AF
:10014000BB010008BB010008BB010008BB0100089F
:10015000BB010008BB010008BB010008BB0100088F
:10016000BB010008BB010008BB010008BB0100087F
:10017000BB010008BB010008BB0100080000000033
:10018000BB010008BB010008DFF810D000F016FB2F
:100190000048004775600008AFF30080E8A8002021
:1001A0000648804706480047FEE7FEE7FEE7FEE711
:1001B000FEE7FEE7FEE7FEE7FEE7FEE71D46000876
:1001C000890100082DE9F05F0546002092469B4614
:1001D00088460646814640241BE02846414647465D
:1001E000224600F03CFA53465A46C01A914110D3B9
:1001F00011461846224600F023FA2D1A67EB010833
:100200004F4622460120002100F01AFA17EB0009A0
:100210004E41201EA4F10104DFDC484631462A4647
:10022000434600F000B830BCBDE8C09F40EA01037F
:100230009B0703D009E008C9121F08C0042AFAD29C
:1002400003E011F8013B00F8013B521EF9D2704760
:10025000D2B201E000F8012B491EFBD27047002208
:10026000F6E710B513460A4604461946FFF7F0FFB5
:10027000204610BD2DE9FE4F804681EA0300C00FE5
:100280000C46009021F0004123F00045B8EB02003D
:10029000A94105D24046214690461C460B460246DF
:1002A00023F00040104347D0270DC7F30A00C3F3E3
:1002B0000A510290401A019040286BDAC3F31300F0
:1002C00040F4801B0098924620B10023D2EB030A31
:1002D00063EB0B0B01985946C0F14002504600F009
:1002E000AFF906460D4650465946019A00F0C7F947
:1002F00010EB08006141002487EA115284EAE77399
:100300001A4340D0009A62B3019A012A4FEA075279
:1003100015DC001B61EB02014FF0004202EA0752BC
:10032000CDE90042001C41F5801132462B4600F019
:10033000C7F903B000F045B840462146F9E7001B75
:1003400061EB0201001C41F5801300185B4120188D
:10035000A2F5001747EB030140EAD570B6196D41CD
:1003600011E06D084FEA360645EAC0754FEA0752BC
:10037000001B61EB0201001C41F5801149084FEAA6
:1003800030000019514132462B4603B000F01CB832
:1003900000F087B90098012240000023D0EB020250
:1003A00063EBE073009821464FEAE074B8EB00007D
:1003B00061EB0401E9E783F000435BE781F0004172
:1003C00058E730BCBDE8C08F30BCBDE8C04FFFF778
:1003D000DFBF2DE9FE4F81EA030404F0004421F061
:1003E000004100944FF0000B23F0004350EA010459
:1003F0005ED052EA03045BD0C3F30A54C1F30A553A
:100400002C44A4F2F3340194A0FB0254C1F3130171
:1004100041F48011C3F3130343F4801301FB02443E
:1004200000FB034E840A970A44EA815447EA835743
:10043000A4FB076802958D0A05FB07854FEA932CFC
:1004400004FB0C542705029D4FEA065847EA16376D
:10045000B5EB08056EEB070C870E920E47EA811785
:1004600042EA8312A7FB0201B6EB0B0164EB000426
:100470002B0D43EA0C335E1844EB1C50DA46514610
:10048000E7FB0201C5F313044FEA0B3343EA1453AD
:100490004FEA0432019C43EA0603A4F10C040294DF
:1004A000009CCDE900B400F00BF903B000F003B8F4
:1004B00000200146F9E730BCBDE8C08F2DE9F04DC2
:1004C00081EA030404F0004B21F0004514464FF08C
:1004D000000A23F0004150EA050220D054EA01024C
:1004E0001DD0C5F30A570246C5F31303C1F3130029
:1004F000C1F30A5640F4801543F48013A7EB0608B5
:10050000101BD64608F2FD3873EB050002D308F144
:10051000010801E092185B41B8F1000F03DA0020F6
:100520000146BDE8F08D00204FF480110646844658
:100530000EE0171B73EB050705D3121B63EB0503D6
:1005400006434CEA010C49084FEA300092185B411F
:1005500050EA0107EDD152EA030012D082EA04000A
:1005600083EA0501084305D0101BAB4106D20122E6
:10057000002306E000224FF0004302E06FF001028A
:1005800053101AEB06004CEB085110EB0A0041EB3C
:100590000B01BDE8F04D00F084B80EB5C10F80EA44
:1005A000E0700844CA07002140F233438DE80E0092
:1005B0000A460B4600F084F803B000BD0EB540F2C9
:1005C000334102910021CDE900110A460B4600F0AB
:1005D00077F803B000BD70B5C1F30A5201F00045D1
:1005E0000024C1F3130140F2FF3341F480119A4219
:1005F00001DA002070BD40F233439A42A2F2334246
:1006000003DC524200F02BF800E090402C43F1D084
:10061000404270BD30B50B46014600202022012427
:1006200009E021FA02F59D4205D303FA02F5491BC0
:1006300004FA02F52844151EA2F10102F1DC30BDD6
:10064000202A04DB203A00FA02F100207047914092
:10065000C2F1200320FA03F3194390407047202A87
:1006600004DB203A21FA02F00021704721FA02F35C
:10067000D040C2F120029140084319467047202A19
:1006800006DBCB17203A41FA02F043EAE07306E0BA
:1006900041FA02F3D040C2F12002914008431946CA
:1006A000704710B5141E73F1000408DA401C41F1C4
:1006B000000192185B411A4301D120F0010010BDE6
:1006C0002DE9F04D92469B4611B1B1FA81F202E05C
:1006D000B0FA80F220329046FFF7B2FF04460F4690
:1006E00040EA0A0041EA0B0153465A46084313D038
:1006F000114653EA010019D0C8F140025046FFF7F5
:10070000AEFF05460E46504659464246FFF798FF53
:10071000084305D0012004E020463946BDE8F08DAD
:100720000020054346EAE0762C4337430A986305E8
:10073000E40AA0EB08000022FD0A44EA47540A300C
:1007400002D500200146E9E7010510196941DDE9FC
:10075000084500196941BDE8F04DA2E7C1F30A520E
:10076000C1F3130140F2FF3341F480119A4202DADF
:1007700000200146704740F233439A42A2F23342CE
:1007800002DC5242FFF76BBFFFF75ABF30B5041EC1
:1007900071F1000404DB4FF00044404264EB0101BE
:1007A000141E73F1000405DB1C464FF00043524257
:1007B00063EB0403994208BF904230BD064C074DDD
:1007C00006E0E06840F0010394E807009847103421
:1007D000AC42F6D3FFF7DCFC7864000898640008AC
:1007E00070B58D1810F8014B14F0030201D110F808
:1007F000012B231106D110F8013B03E010F8016B27
:1008000001F8016B521EF9D1ABB110F8012B04F0C5
:100810000C048A1A0C2C03D0A2EB84129B1C08E057
:1008200010F8014BA2EB0422F8E712F8014B01F893
:10083000014B5B1EF9D5A942D4D3002070BD2DE930
:10084000FF5F82460F46DDE90E4BBAF1000F3CD048
:10085000201D04F0E5FD05460026224628460399A2
:10086000FFF7E4FC029800F0FF08B14607E017F834
:100870000910304605F076FB86B209F10109A8F1AE
:1008800002004845F3DCB8F1020F03DA401C385C83
:10089000464008E0A8F10100385C7040A8F1020170
:1008A000795C80EA012606F00F002855C6F3031193
:1008B000601C2954C6F30321A01C2954310BE01CF1
:1008C0002954201DABF800000AE0204604F0A8FDE2
:1008D0000546224628460399FFF7A8FCABF80040DE
:1008E000284604B000F000B830BCBDE8C09F2DE938
:1008F000FE4F0746884691461E460D9D681D04F032
:100900008FFD04463FB12A4620460C99FFF78EFC26
:100910000E98058085E0C6F30710207006F00F00E2
:10092000607048EA4900A0702078C0F3C0002178C8
:10093000C1F3800148402178C1F34001484021784B
:1009400001F00101484000902078C0F3C0006178B8
:10095000C1F3C00148406178C1F38001484061782B
:10096000C1F340014840A17801F0010148400190E5
:100970002078C0F380006178C1F3C00148406178FD
:1009800001F001014840A178C1F3C0014840A178BD
:10099000C1F34001484002902078C0F340006178E4
:1009A000C1F380014840617801F001014840A1781D
:1009B000C1F380014840A178C1F340014840A178CB
:1009C00001F0010180EA010B207800F0010061785C
:1009D000C1F340014840A178C1F3C0014840A1786B
:1009E000C1F380014840A178C1F340014840A1789B
:1009F00001F0010180EA010A0098E0700198C1004D
:100A0000029841EA800040EA4B0040EA0A00207167
:100A10002A46601D0C99FFF709FC681D81B20E98EB
:100A20000180204600F000B81EBCBDE8E08F00BF8A
:100A3000FEE700002DE9F04107460D4616462F2F30
:100A400003DC07F14000C7B202E00020BDE8F081FE
:100A500040202349086000BF40214FF0904000F043
:100A600055FB0128F8D006F00100D8B1297847EAF3
:100A7000012003F03BFD012E2BDD00240DE00121C0
:100A800001EB4401695C022202EB4402AA5C41EAE8
:100A9000022003F02BFD601CC4B2701EB4EB600F8B
:100AA000EDDB16E047F0400003F044FD012E10DBC3
:100AB00000240BE015F81410012202EB4402AA5C9A
:100AC00041EA022003F012FD601CC4B2B4EB660FD1
:100AD000F0DB40200249103908600120B6E7000031
:100AE0002804004810B500F009F82F220249002020
:100AF000FFF7A0FF10BD00007401002010B54020DA
:100B000006490860302003F015FD402003491039E4
:100B10000860012005F048FA10BD000028040048D4
:100B200010B50446402005490860204603F002FD48
:100B3000402002491039086010BD00002804004818
:100B400000B587B0142102A8FFF789FB00BF2D482C
:100B5000C06C40F002002B49C8640846C06C00F02D
:100B60000200019000BF00BF00BF0846C06C40F00B
:100B70000100C8640846C06C00F00100019000BF8D
:100B800000BF00BF0846C06C40F00400C8640846BF
:100B9000C06C00F00400019000BF00BF41F22400CF
:100BA000029001200390002004900320059002A9E8
:100BB000154800F0A9F9022002900120039002A933
:100BC000114800F0A1F9002220210F4800F0A6FAF8
:100BD000002204210C4800F0A1FA00224FF48051B9
:100BE000094800F09BFA4FF4007002900020039037
:100BF00004900220059002A94FF0904000F084F983
:100C000007B000BD001002400004004830B590F865
:100C1000444004F01C050124AC40056C6C60046881
:100C200063608468102C04D10468A2600468E160E9
:100C300003E00468A1600468E26030BD7047000012
:100C400000BF03A003F0CCFE00BF00BFFEE7000022
:100C50004572726F725F48616E646C65720A0D0056
:100C600070B506460D46012D04D0022D04D0032D8B
:100C700006D103E00F2405E00E2403E00D2401E07B
:100C80000D2400BF00BFF01C411B2A462046FFF781
:100C9000D1FE70BD2DE9F0470C46DDE90867002163
:100CA00000258C4600BF60E04FF0010808FA01F50E
:100CB00004EA050CAC4557D1D0F800804FEA410A50
:100CC0004FF0030909FA0AF928EA0908C0F8008078
:100CD000D0F800804FEA410902FA09F948EA090808
:100CE000C0F80080012A01D0022A27D1D0F808805C
:100CF0004FEA410A4FF0030909FA0AF928EA0908FC
:100D0000C0F80880D0F808804FEA410906FA09F9CE
:100D100048EA0908C0F80880D0F804904FF00108AC
:100D200008FA01F829EA0809C0F80490D0F804800C
:100D300003FA01F948EA0908C0F80480D0F80C80E9
:100D40004FEA410A4FF0030909FA0AF928EA0908AB
:100D5000C0F80C80D0F80C804FEA410907FA09F975
:100D600048EA0908C0F80C80491C10299CD3BDE84A
:100D7000F0872DE9F05F83460E4691469846DDE9FF
:100D80000A7A780004F04CFB044600251BE038F892
:100D9000150024F81500012008E034F8151038F883
:100DA00015200241514024F81510401CB042F4DBDC
:100DB000012202FA06F134F81520501C05F00DFA54
:100DC00024F815006D1CBD42E1DBB9F1000F16D00F
:100DD000082512E034F8150000EBD0714910A0EBA3
:100DE000410149B9012202FA06F134F81520D01E5A
:100DF00005F0F3F924F815006D1CBD42EADBAAF8F2
:100E00000070204600F000B830BCBDE8C09F70B54F
:100E10000446002594F82500022803D00420E0634E
:100E2000012520E02068006820F00E00216808609D
:100E30002068006820F001002168086094F84400F0
:100E400000F01C0101208840216C4860012084F8DA
:100E5000250000BF002084F8240000BFA06B10B163
:100E60002046A16B8847284670BD2DE9F041044615
:100E70000D4616461F464FF0000800BF94F82400A8
:100E8000012802D10220BDE8F081012084F824006D
:100E900000BF94F8250001282CD1022084F82500F9
:100EA0000020E0632068006820F0010021680860ED
:100EB0003B46324629462046FFF7A8FE206B30B15C
:100EC0002068006840F00E00216808600BE0206890
:100ED000006820F00400216808602068006840F085
:100EE0000A00216808602068006840F0010021685D
:100EF000086006E000BF002084F8240000BF4FF027
:100F000002084046BFE7000078B503460022E5E04E
:100F1000012696400D6805EA0604002C7DD04D6838
:100F2000022D02D04D68122D13D1D60803F12005F1
:100F300055F826005507EE0E0F25B540A843560775
:100F4000F60E0D69B5402843D60803F1200545F893
:100F50002600186856000325B540A8430D7905F012
:100F600003055600B540284318604D68012D08D090
:100F70004D68022D05D04D68112D02D04D68122DFF
:100F800013D1986856000325B540A8435600CD6894
:100F9000B54028439860586801259540A8430D79CD
:100FA000C5F300159540284358600D7905F00305F9
:100FB000032D09D1D86A01259540A8430D79C5F3C1
:100FC000C00595402843D862D86856000325B5402F
:100FD000A84356008D68B5402843D8604D6805F099
:100FE0008055B5F1805F78D100BF3F4D2D6E45F043
:100FF00001053D4E356635462D6E05F0010500951F
:1010000000BF00BF4FEAB635960855F82600950791
:101010002E0F0F25B540A84300E05EE0B3F1904FDE
:1010200001D100251EE0314DAB4201D1012519E06F
:101030002F4DAB4201D1022514E02E4DAB4201D120
:1010400003250FE02C4DAB4201D104250AE02B4DC6
:10105000AB4201D1052505E0294DAB4201D1062562
:1010600000E007259607360FB5402843254D960822
:1010700045F82600244D2868A0434D6805F48035C6
:10108000B5F5803F00D120431F4D28602D1D2868F5
:10109000A0434D6805F40035B5F5003F00D120436D
:1010A000194D2D1D28602D1D2868A0434D6805F49D
:1010B0008015B5F5801F00D12043134D08352860F9
:1010C0002D1D2868A0434D6805F40015B5F5001FD7
:1010D00000D120430C4D0C352860521C0D68D540C2
:1010E000002D7FF415AF78BD0010024000040048C9
:1010F00000080048000C0048001000480014004898
:10110000001800480800014000040140024613692D
:101110000B400BB1012000E0002070470AB1816153
:1011200000E08162704700000148006870470000DD
:101130006401002003480068034909680844014924
:1011400008607047640100206C01002010B5002485
:10115000032000F089F80F2000F008F808B10124FE
:1011600001E000F02FF8204610BD000070B50446E5
:10117000002511480068D8B10F4800684FF47A7113
:10118000B1FBF0F00D490968B1FBF0F6304601F013
:10119000ECF958B9102C07D200222146501E00F05D
:1011A00022F80748046004E0012502E0012500E080
:1011B0000125284670BD00006C0100207001002050
:1011C00068010020704701460846002809DB00F04E
:1011D0001F0301229A4043099B0003F1E023C3F857
:1011E000002100BF70472DE9F05F80460D4616468E
:1011F000002704F0CBF8074639462A46334601F06B
:101200000700C0F1070ABAF1040F02D94FF0040A2F
:1012100001E0C0F1070AD14600F1040ABAF1070F54
:1012200002D24FF0000A01E0A0F1030AD4464FF0C9
:10123000010A0AFA09FAAAF1010A0AEA020A0AFAF2
:101240000CFA4FF0010B0BFA0CFBABF1010B0BEAA4
:10125000030B4AEA0B042146404604F09FF800F0D5
:1012600000B830BCBDE8C09F00BF00F00702064BCD
:1012700019684FF6FF031940044B0B4343EA022160
:10128000014B196000BF70470CED00E00000FA054B
:101290000246B2F5007F2AD11D48006800F4C06004
:1012A000B0F5007F32D01A48006820F4C06040F4E6
:1012B0000070174B18601748006832235843164BCC
:1012C000B0FBF3F0411C00E0491E1148406900F4F6
:1012D0008060B0F5806F01D10029F5D10C484069DC
:1012E00000F48060B0F5806F10D10320704708488B
:1012F000006800F4C060B0F5806F07D00448006853
:1013000020F4C06040F48060014B18600020EDE7DD
:10131000007000407001002040420F000248006849
:1013200000F4C0607047000000700040034800688F
:1013300040F4807001490860704700000070004070
:101340000348006840F0040001490860704700004D
:10135000001002402DE9F84304460025A8462088E5
:1013600000F40060B0F5006F30D1606E80B1B0F570
:10137000800F13D0B0F5000F03D0B0F5400F15D19A
:1013800013E0FB48C06840F48030F949C8600FE0C2
:101390000021201D02F0A4FD054609E0002104F112
:1013A000200002F063FE054602E001E0012500BFD7
:1013B00000BF55B9EE488830006820F44000616EE7
:1013C0000843EB49C1F8880000E0A846208800F4F3
:1013D0008050B0F5805F30D1A06E80B1B0F1807FD9
:1013E00013D0B0F1007F03D0B0F1407F15D113E0EE
:1013F000DF48C06840F48030DD49C8600FE000215C
:10140000201D02F06DFD054609E0002104F12000D9
:1014100002F02CFE054602E001E0012500BF00BFFE
:1014200055B9D3488830006820F04070A16E084359
:10143000CF49C1F8880000E0A846206800F40030D9
:10144000B0F5003F77D14FF00009C948806D012108
:1014500021EA107078B100BFC548806D40F080501F
:10146000C34988650846806D00F08050009000BF39
:1014700000BF4FF00109BF48006840F48070BD49CB
:101480000860FFF751FE074606E0FFF74DFEC01B60
:10149000022801D9032505E0B648006800F48070F1
:1014A0000028F2D000BF85BBB1489030006800F43E
:1014B0004076D6B1D4F88400B04216D0AC48903013
:1014C000006820F44076AA48D0F8900040F48030BC
:1014D000A749C1F890000846D0F8900020F4803069
:1014E000C1F890000846C0F8906006F00100A8B16D
:1014F000FFF71AFE074609E0FFF716FEC01B41F290
:101500008831884202D9032507E017E098489030D7
:10151000006800F002000028EED000BF65B99448D2
:101520009030006820F44070D4F88410084390494B
:10153000C1F8900003E00CE0A84600E0A846B9F12D
:10154000010F05D18A48806D20F080508849886558
:1015500000BF207800F0010048B18548883000685D
:1015600020F00300A16B08438149C1F8880020786E
:1015700000F00200022809D17D488830006820F080
:101580000C00E16B08437A49C1F88800207800F02C
:101590000400042809D176488830006820F0300023
:1015A000216C08437249C1F88800207800F00800D7
:1015B000082809D16E488830006820F0C000616CAE
:1015C00008436B49C1F88800207800F0100010280B
:1015D00009D167488830006820F44070A16C084346
:1015E0006349C1F88800207800F02000202809D144
:1015F0005F488830006820F44060E16C08435C4933
:10160000C1F88800208800F40070B0F5007F09D18F
:1016100057488830006820F44020E16D0843544961
:10162000C1F88800208800F48060B0F5806F09D18F
:101630004F488830006820F44010216E08434C4920
:10164000C1F88800207800F04000402809D14848BF
:101650008830006820F44050216D08434449C1F8A7
:101660008800207800F08000802809D14048883028
:10167000006820F44040616D08433D49C1F888008E
:10168000208800F48070B0F5807F09D13848883018
:10169000006820F44030A16D08433549C1F8880046
:1016A000208800F40050B0F5005F1FD1304888302A
:1016B000006820F04060E16E08432D4988310860E1
:1016C000E06EB0F1006F06D12948C06840F4801088
:1016D0002749C8600AE0E06EB0F1806F06D10121B1
:1016E000201D02F0FDFB054605B1A846206800F468
:1016F0000020B0F5002F1FD11D488830006820F071
:101700004060216F08431A4988310860206FB0F1AA
:10171000006F06D11648C06840F480101449C860B4
:101720000AE0206FB0F1806F06D10121201D02F088
:10173000D7FB054605B1A846206800F48020B0F527
:10174000802F24D10A488830006820F04060616F03
:101750000843074988310860606FB0F1006F0BD112
:101760000348C06840F480100149C8600FE00000E1
:101770000010024000700040606FB0F1806F06D131
:101780000121201D02F0ACFB054605B1A8462088CA
:1017900000F48040B0F5804F1FD12248006820F04F
:1017A0004050A16F08431F490860A06FB0F1805FEF
:1017B00007D10221201D02F093FB05466DB1A8461A
:1017C0000BE0A06FB0F1005F07D1022104F120000F
:1017D00002F04CFC054605B1A846208800F4004004
:1017E000B0F5004F09D10F48006820F08040E16F4C
:1017F00008430C498839C1F88800206800F480301B
:10180000B0F5803F0AD10748006820F00040D4F8C6
:101810008010084303498839C1F888004046BDE874
:10182000F8830000881002402DE9F04104460D467F
:1018300014B90120BDE8F0815548006800F00700A8
:10184000A8420ED25248006820F0070028435049B1
:1018500008600846006800F00700A84201D0012097
:10186000E8E7207800F00100002840D060680328F5
:1018700006D14848006800F00070D8B90120D9E7C7
:101880006068022806D14348006800F4003088B937
:101890000120CFE7606830B93E48006800F00200E0
:1018A00040B90120C6E73B48006800F4806008B9F1
:1018B0000120BFE73748806820F0030061680843D3
:1018C00034498860FFF730FC064608E0FFF72CFC3F
:1018D000801B41F28831884201D90320AAE72D48B4
:1018E000806800F00C006168B0EB810FEED12078C9
:1018F00000F00200022807D12648806820F0F0009E
:10190000A1680843234988602148006800F0070067
:10191000A8420ED91E48006820F0070028431C4941
:1019200008600846006800F00700A84201D00120C6
:1019300080E7207800F00400042807D1154880686B
:1019400020F4E060E168084312498860207800F0E4
:101950000800082808D10F48806820F460502169E9
:1019600040EAC1000B49886000F046F809498968DF
:10197000C1F30311084A515C01F01F01C840074937
:10198000086007480068FFF7F1FB0746384651E753
:101990000020024000100240306300087001002067
:1019A00068010020014800687047000070010020B5
:1019B00000B5FFF7F7FF05498968C1F30221044A22
:1019C000515C01F01F01C84000BD00000010024042
:1019D0004063000800B5FFF7E5FF05498968C1F3DA
:1019E000C221044A515C01F01F01C84000BD000043
:1019F0000010024040630008F0B500230020DFF82B
:101A0000D4C0DCF808C00CF00C01DFF8C8C0DCF86A
:101A10000CC00CF0030719B10C291ED1012F1CD1E9
:101A2000DFF8B0C0DCF800C00CF0080CBCF1000F0F
:101A300006D1DFF8A0C0DCF894C0CCF3032305E0A6
:101A4000DFF890C0DCF800C0CCF30313DFF888C0E7
:101A50005CF8233041B9184606E0042901D11F483B
:101A600002E0082900D11E480C2932D1DFF864C0F9
:101A7000DCF80CC00CF00304012C09D0022C02D0BD
:101A8000032C04D101E0154A04E0154A02E000BF2E
:101A90001A4600BF00BFDFF83CC0DCF80CC0CCF336
:101AA000021C0CF10106DFF82CC0DCF80CC0CCF3F2
:101AB000062C0CFB02FCBCFBF6F2DFF818C0DCF8CD
:101AC0000CC0CCF3416C0CF1010C4FEA4C05B2FB9D
:101AD000F5F0F0BD00100240486300080024F40057
:101AE00000127A0070B586B006460D46144600BF57
:101AF0001248C06C40F001001049C8640846C06C30
:101B000000F00100009000BF00BF88150190022086
:101B10000290049000200390059001A94FF090409E
:101B2000FFF7F2F90548806820F0EE4045EA04012D
:101B300008430249886006B070BD000000100240F2
:101B40002DE9F843044614B90120BDE8F883F948AB
:101B5000806800F00C07F748C06800F003062078A2
:101B600000F01000102876D11FB10C2F75D1012E76
:101B700073D1F048006800F0020018B1A06908B9FC
:101B80000120E2E7EB48216A006800F0080020B17C
:101B9000E848006800F0F00005E0E648943000688E
:101BA00000F47060000981421FD9206A02F010FB26
:101BB00008B10120C9E700BFDE48006840F0080016
:101BC000DC4908600846006820F0F000216A0843FC
:101BD000D849086000BF0846406820F47F40E169AA
:101BE00040EA0120D34948601EE000BFD1480068A8
:101BF00040F00800CF4908600846006820F0F00077
:101C0000216A0843CB49086000BF0846406820F4B9
:101C10007F40E16940EA0120C6494860206A02F03D
:101C2000D7FA08B1012090E7FFF7E6FEC1498968BD
:101C3000C1F30311C04A515C01F01F01C840BF4904
:101C40000860BF480068FFF791FA8046B8F1000FBE
:101C50004ED0404679E74BE0FFE7A06980B3B54836
:101C6000006840F00100B3490860FFF75DFA0546DF
:101C700006E0FFF759FA401B022801D9032064E768
:101C8000AC48006800F002000028F2D000BFA9486C
:101C9000006840F00800A74908600846006820F086
:101CA000F000216A0843A349086000BF0846406865
:101CB00020F47F40E16940EA01209E49486017E036
:101CC000FFE79C48006820F001009A490860FFF790
:101CD0002BFA054606E0FFF727FA401B022801D938
:101CE000032032E79348006800F002000028F2D198
:101CF000207800F0010000285CD0082F03D00C2FC2
:101D00000AD1032E08D18B48006800F4003088B354
:101D1000606878BB012018E700BF6068B0F5803FBD
:101D200006D18448006840F48030824908601AE097
:101D30006068B0F5A02F0BD17E48006840F4802089
:101D40007C4908600846006840F4803008600AE07A
:101D50007848006820F480307649086008460068BA
:101D600020F48020086000BF606890B1FFF7DCF9C4
:101D7000054607E01EE0FFF7D7F9401B642801D9AC
:101D80000320E2E66B48006800F400300028F2D03F
:101D900010E0FFF7C9F9054606E0FFF7C5F9401B5B
:101DA000642801D90320D0E66248006800F40030BE
:101DB0000028F2D1207800F00200022852D1042F2E
:101DC00003D00C2F14D1022E12D15A48006800F40F
:101DD000806018B1E06808B90120B6E6554840684F
:101DE00020F0F850217C40EA01605249486039E017
:101DF000E06800B34F48006840F480704D490860C7
:101E0000FFF792F9054606E0FFF78EF9401B02281E
:101E100001D9032099E64748006800F48060002853
:101E2000F2D04448406820F0F850217C40EA01603C
:101E30004049486016E03F48006820F480703D4902
:101E40000860FFF771F9054606E0FFF76DF9401BE2
:101E5000022801D9032078E63648006800F4806043
:101E60000028F2D1207800F00800082836D16069F7
:101E7000D0B130489430006840F001002D49C1F8DD
:101E80009400FFF751F9054606E0FFF74DF9401BB6
:101E9000022801D9032058E626489430006800F053
:101EA00002000028F1D019E022489430006820F0A8
:101EB00001002049C1F89400FFF736F9054606E015
:101EC000FFF732F9401B022801D903203DE61948EB
:101ED0009430006800F002000028F1D1207800F072
:101EE0000400042873D14FF000091248806D00F0FF
:101EF000805078B900BF0F48806D40F080500D4988
:101F000088650846806D00F08050009000BF00BFDB
:101F10004FF001090B48006800F4807008BB0948C5
:101F2000006840F4807007490860FFF7FDF8054637
:101F300011E0000000100240306300087001002032
:101F40006801002000700040FFF7EEF8401B0228F7
:101F500001D90320F9E59948006800F48070002851
:101F6000F2D000BFA068012808D19548006840F071
:101F7000010093499039C1F8900021E0A06805283C
:101F80000FD18F48006840F004008D499039C1F8A6
:101F900090000846D0F8900040F00100C1F8900091
:101FA0000EE08748006820F0010085499039C1F8AB
:101FB00090000846D0F8900020F00400C1F890008E
:101FC00000BFA068A0B1FFF7AFF8054609E02EE01A
:101FD000FFF7AAF8401B41F28831884201D903205B
:101FE000B3E57748006800F002000028F0D012E066
:101FF000FFF79AF8054608E0FFF796F8401B41F214
:102000008831884201D903209FE56D48006800F0BF
:1020100002000028F0D1B9F1010F07D168489038CB
:10202000806D20F0805066499039886500BFA06AB5
:1020300000285BD00C2F78D0A06A022857D16048C6
:102040009038006820F080705D4990390860FFF793
:102050006BF8054606E0FFF767F8401B022801D938
:10206000032072E556489038006800F000700028A0
:10207000F1D1D4E90B10401E41EA0011606B41EA36
:102080000021A08F0122C2EB500041EA40514020C4
:10209000005DC2EB500041EA4061A06B000941EADB
:1020A000404047499039C968464A1140084344496D
:1020B0009039C8600846006840F0807008600846A3
:1020C000C06840F08070C860FFF72EF8054606E053
:1020D000FFF72AF8401B022801D9032035E53848CC
:1020E0009038006800F000700028F1D064E03448B7
:1020F0009038006820F080703149903908600846B7
:10210000006800F0205020B90846C06820F00300A5
:10211000C8602B489038C0682B490840284990393E
:10212000C860FFF701F8054607E00EE0FEF7FCFF88
:10213000401B022801D9032007E521489038006898
:1021400000F000700028F1D136E0A06A012800D12B
:10215000FBE41B489038C66806F00301E06A814240
:1021600028D106F07001206B401EB1EB001F21D179
:1021700006F4FE41606BB1EB002F1BD106F4003179
:10218000A06B072801D0012000E00020814211D17E
:1021900006F4C001A08F0122C2EB5000B1EB405FFA
:1021A00008D106F0C0614020005DC2EB5000B1EBE9
:1021B000406F01D00120C8E40020C6E40070004058
:1021C000901002408C809DF9FFFFEEFE014600BF9B
:1021D00091F82000012801D102207047012081F8E8
:1021E000200000BF022081F8210000BFCA200A6839
:1021F000506253200A68506200BF0868806840F04F
:1022000020000A68906000BFFF200A68506200BF8B
:10221000012081F8210000BF002081F8200000BFCC
:1022200000BFDAE7704770477047000010B50446FA
:102230004FF400203249086020688068C0F3C03045
:1022400078B12068C068C0F3C02050B1204600F0CB
:1022500061F82068C06800F0800060F408602168C0
:10226000C8602068006C2749084008B1012000E0E0
:10227000002078B12068C068C0F3403050B12068B9
:10228000C06800F0800060F402502168C8602046F9
:10229000FFF7C8FF2068006C1B49084008B1012007
:1022A00000E0002078B12068C068C0F3803050B1F1
:1022B0002068C06800F0800060F481402168C86038
:1022C0002046FFF7B0FF2068006C1049084008B1B5
:1022D000012000E0002078B12068C068C0F3C03061
:1022E00050B12068C06800F08000094908432168A7
:1022F000C8602046FFF798FF012084F8210010BD38
:10230000140401400400010004000800040040001F
:102310007F7FFFFF7047000070B504460125002C49
:102320004FD094F8210028B9002084F820002046DE
:1023300000F04CF8022084F8210000BFCA20216878
:10234000486253202168486200BF204601F08EFF9A
:102350000546002D35D1206880681B49084021685A
:102360008860216960680843A16908432168896819
:102370000843216888602168E06808612068016975
:10238000208941EA004021680861204601F090FF61
:102390000546B5B92068C06C20F003002168C86408
:1023A0006169E06908432168C96C08432168C86411
:1023B00000BFFF202168486200BF15B9012084F8E2
:1023C0002100284670BD0000BFFF8FFF10B5B4B0DC
:1023D000044600BF1B48806D40F080501949886555
:1023E0000846806D00F08050009000BF00BFFEF7EF
:1023F0009DFF0420239000202D900120259023A8EC
:10240000FFF79EFB08B100BFFEE74FF400300190DC
:102410004012229001A8FEF79DFF08B100BFFEE721
:1024200008489030006840F400400649C1F8900028
:1024300000220F210220FEF7D6FE0220FEF7C3FE87
:1024400034B010BD0010024070B504462068C0686A
:1024500020F0A0002168C860FEF766FE054607E090
:10246000FEF762FE401BB0F57A7F01D9032070BDF4
:102470002068C06800F020000028F1D00020F6E7B6
:1024800070B504460CB9012070BD606A00B900BF88
:102490000021A16294F85D0028B9002084F85C0056
:1024A000204600F04DF8022084F85D0020680068A6
:1024B00020F0400021680860E068B0F5E06F01D9C5
:1024C000002501E04FF48055E068B0F5706F05D04D
:1024D000E068B0F5E06F01D00021A162206B40B947
:1024E000E068B0F5E06F02D90221216301E001212B
:1024F0002163D4E901010843216908436169084364
:10250000218B01F400710843E1690843216A084303
:10251000A16A0843216808600421A06901EA10400B
:10252000616A0843616B0843E168084328432168F6
:10253000486000202066012084F85D000020A3E7A9
:102540007047042808D14FF0E021096941F00401E7
:102550004FF0E022116107E04FF0E021096921F01E
:1025600004014FF0E0221161704770B50446254622
:10257000681EB0F1807F01D301200FE0681E4FF08C
:10258000E02148610F214FF0FF3002F007FF0020EB
:102590004FF0E021886107200861002070BD70477E
:1025A0007047704730B502460B4600BF92F83C00BA
:1025B000012801D1022030BD012082F83C0000BF7B
:1025C000022082F83D001068416810688468114D4F
:1025D0001068A84203D0104D1068A84203D121F41E
:1025E00070015868014321F070011868014324F01C
:1025F000800498680443106841601068846001207A
:1026000082F83D0000BF002082F83C0000BF00BF00
:10261000D1E70000002C01400034014030B50246F3
:102620000024002300BF92F83C00012801D10220C1
:1026300030BD012082F83C0000BF124D1068A84256
:102640000BD01068B0F1804F07D00F4D1068A84232
:1026500003D00E4D1068A84208D11068036E23F411
:10266000E03301F4E0300343106803660C4624F4C1
:10267000E0341068046500BF002082F83C0000BF11
:1026800000BFD5E7002C01400004004000340140A9
:1026900010B504460CB9012010BD94F83D0028B9CE
:1026A000002084F83C00204600F00CF8022084F85A
:1026B0003D00211D206802F081F8012084F83D00D2
:1026C0000020E9E738B504462068B0F1804F15D105
:1026D00000BF1848806D40F0010016498865084623
:1026E000806D00F00100009000BF00BF0022114685
:1026F0001C20FEF778FD1C20FEF765FD0E492068C2
:10270000884215D100BF0B48806D40F00200094996
:1027100088650846806D00F00200009000BF00BF91
:10272000012200211D20FEF75EFD1D20FEF74BFD5E
:1027300038BD000000100240000400400146086857
:10274000C06820F001000A68D06000BF0868006A15
:1027500041F21112104050B90868006A92101040FE
:1027600028B90868006820F001000A68106000BFFE
:102770000020704710B504462648007800F080001D
:1027800080B90021244800F06DFA2449244A1288B7
:1027900001EB0211086080201E49087001202149C8
:1027A000086035E01F480068401C1E490860084664
:1027B0000068B0F5004F2BD10021174800F052FA05
:1027C0001649174A128801EB021148601148007837
:1027D00000F07F001149124A128801EB0211886053
:1027E0000F480088401C0E490880002009490870E5
:1027F0000C4908600A480088032809DB00210648C4
:1028000000F002F9002006490880012006490870FE
:1028100010BD0000BC010020E403002024040020BF
:10282000C4010020C0010020C60100202DE9F041B4
:1028300004460D46164600BF94F83C00012802D11C
:102840000220BDE8F081012084F83C0000BF022096
:1028500084F83D0096B9EB68D5E90012206802F0D3
:1028600025F82068806920F00C00216888612068C4
:102870008069A9680843216888613DE0042E13D16E
:10288000EB68D5E90012206802F052F820688069F0
:1028900020F440602168886120688069A96840EA66
:1028A00001202168886127E0082E12D1EB68D5E964
:1028B0000012206802F059F82068C06920F00C006E
:1028C0002168C8612068C069A96808432168C86197
:1028D00012E0EB68D5E90012206802F062F8206887
:1028E000C06920F440602168C8612068C069A96897
:1028F00040EA01202168C861012084F83D0000BF42
:10290000002084F83C0000BF00BF9AE710B50446E1
:102910000CB9012010BD94F83D0028B9002084F8BE
:102920003C00204600F00CF8022084F83D00211DF8
:10293000206801F043FF012084F83D000020E9E712
:1029400038B504460D492068884215D100BF0C48AF
:10295000006E40F480300A4908660846006E00F4B4
:102960008030009000BF00BF002211461820FEF703
:102970003AFC1820FEF727FC38BD0000004001405B
:102980000010024070B504460E4636B1042E0BD03E
:10299000082E10D00C2E1CD114E02068C06840F026
:1029A00002002168C86015E02068C06840F004009B
:1029B0002168C8600EE02068C06840F00800216807
:1029C000C86007E02068C06840F010002168C86057
:1029D00000E000BF00BF01223146206801F054FF33
:1029E00020688068074900EA0105062D08D0B5F582
:1029F000803F05D02068006840F001002168086031
:102A0000002070BD0700010030B504460D4635B109
:102A1000042D0BD0082D10D00C2D1CD114E02068F3
:102A2000C06820F002002168C86015E02068C06816
:102A300020F004002168C8600EE02068C06820F023
:102A400008002168C86007E02068C06820F0100016
:102A50002168C86000E000BF00BF0022294620684E
:102A600001F012FF00BF2068006A41F21111084016
:102A700050B92068006A8910084028B920680068A9
:102A800020F001002168086000BF002030BD10B5B3
:102A9000044620680069C0F34000D8B12068C068CF
:102AA000C0F34000B0B16FF002002168086101205E
:102AB00020772068806900F0030018B12046FFF7F6
:102AC00059FE05E0204600F0BEF8204600F0BCF8B4
:102AD0000020207720680069C0F38000D8B120680A
:102AE000C068C0F38000B0B16FF0040021680861D5
:102AF000022020772068806900F4407018B12046D9
:102B0000FFF738FE05E0204600F09DF8204600F073
:102B10009BF80020207720680069C0F3C000D8B17E
:102B20002068C068C0F3C000B0B16FF00800216831
:102B30000861042020772068C06900F0030018B104
:102B40002046FFF717FE05E0204600F07CF82046FF
:102B500000F07AF80020207720680069C0F30010A8
:102B6000D8B12068C068C0F30010B0B16FF0100099
:102B700021680861082020772068C06900F440704F
:102B800018B12046FFF7F6FD05E0204600F05BF89F
:102B9000204600F059F8002020772068006900F0F6
:102BA000010058B12068C06800F0010030B16FF03A
:102BB000010021680861204600F048F8206800699B
:102BC000C0F3C01058B12068C068C0F3C01030B165
:102BD0006FF08000216808612046FFF7E1FC206863
:102BE0000069C0F3002058B12068C068C0F3C0106D
:102BF00030B16FF48070216808612046FFF7CFFC88
:102C000020680069C0F3801058B12068C068C0F324
:102C1000801030B16FF0400021680861204600F05C
:102C20003AF820680069C0F3401058B12068C068C5
:102C3000C0F3401030B16FF02000216808612046D9
:102C4000FFF7AFFC10BD70477047000004490978DA
:102C500021B103490978491C014A117070470000ED
:102C6000BC0100200246002031B1042907D0082908
:102C700008D00C290CD108E01368586B09E01368E0
:102C8000986B06E01368D86B03E01368186C00E0DB
:102C900000BF00BF704770477047704701464B6FD9
:102CA0008A6F43EA020070472DE9F0470446206826
:102CB000C569206806682068876805F00F08B8F1C4
:102CC000000F0CD105F0200048B106F0200030B113
:102CD000206E10B12046216E8847BDE8F087B8F11C
:102CE000000F71D007F0010018B906F490700028A9
:102CF00079D005F0010048B106F4807030B10120B0
:102D000021680862E06F40F00100E06705F0020012
:102D100048B107F0010030B1022021680862E06F7D
:102D200040F00400E06705F0040048B107F001003E
:102D300030B1042021680862E06F40F00200E067D3
:102D400005F0080060B106F0200010B907F001009E
:102D500030B1082021680862E06F40F00800E067A9
:102D6000E06F80B305F0200038B106F0200020B1FC
:102D7000206E10B12046216E8847D4F87C902068E0
:102D8000806800F04000402802D009F0080020B31D
:102D9000204601F076FF2068806800F0400040285F
:102DA00017D12068806820F0400021688860E06EBC
:102DB00058B12048E16E8863E06EFEF728F810B144
:102DC000E06E816B88470DE00DE02046FFF765FF60
:102DD00008E02046FFF761FF04E02046FFF75DFFB3
:102DE0000020E06779E705F4801050B107F4800017
:102DF00038B14FF48010216808622046FFF74CFF7D
:102E00006BE705F0800040B106F0800028B1606EED
:102E100010B12046616E88475FE705F0400030B191
:102E200006F0400018B1204601F03CFF55E700BF16
:102E300053E70000CF4B000810B504460CB9012041
:102E400010BDA06900B100E000BF606F28B900208C
:102E500084F87000204600F029F82420606720687C
:102E6000006820F0010021680860204601F09CFF06
:102E7000012800D1E4E7606A10B1204601F0F4FDBA
:102E80002068406820F4904021684860206880688D
:102E900020F02A00216888602068006840F0010066
:102EA00021680860204601F05BFEC9E710B586B0D6
:102EB00004461F492068884238D100BF1D48C06CB5
:102EC00040F001001B49C8640846C06C00F00100D6
:102ED000009000BF00BF00BF0846806D40F4003086
:102EE00088650846806D00F40030009000BF00BF88
:102EF00004200190022002900120039002200490FF
:102F00000720059001A94FF09040FDF7FDFF082034
:102F1000019001A94FF09040FDF7F6FF2620FEF743
:102F200052F9032200212620FEF75DF906B010BDFC
:102F3000004400400010024010B50346986F20285E
:102F400065D101B10AB9012010BD00BF93F870002E
:102F5000012801D10220F7E7012083F8700000BFAB
:102F60005965A3F85820A3F85A200020186600BF1E
:102F70009868B0F5805F0AD1186920B940F2FF1057
:102F8000A3F85C0020E0FF20A3F85C001CE0986838
:102F900048B9186918B9FF20A3F85C0014E07F2035
:102FA000A3F85C0010E09868B0F1805F09D118695F
:102FB00018B97F20A3F85C0006E03F20A3F85C006E
:102FC00002E00020A3F85C0000BF0020D8672220A8
:102FD00098671868806840F001001C68A0609868D5
:102FE000B0F5805F04D1186910B90A48186601E08D
:102FF0000948186600BF002083F8700000BF1868F9
:10300000006840F490701C68206000209CE702205B
:103010009AE70000D74C0008414D00081D4A01689E
:10302000914236D11C49098801F4004189BB1A49F3
:10303000098801F4804171B1184909780A2903D03F
:103040000021154A118024E01349098841F4004108
:10305000114A11801DE0114909780D2906D10E4948
:10306000098841F480410C4A118012E00B4909782B
:10307000094A1288C2F30D02094B9954064909887E
:10308000491C054A118011460988C72901DD002124
:103090001180704700440040D0010020D201002080
:1030A0008C04002070B504460E461546606F20283B
:1030B00049D106B10DB9012070BD00BF94F8700070
:1030C000012801D10220F7E7012084F8700000BF39
:1030D000E664A4F85050A4F852500020E067212084
:1030E0006067A06EF8B11948A16EC8621848A16E59
:1030F00008631848A16E48630020A16E88632368A6
:1031000003F128022B46E16CA06EFDF7AEFE50B134
:103110001020E06700BF002084F8700000BF20206E
:1031200060670120C8E740202168086200BF0020D6
:1031300084F8700000BF2068806840F0800021683B
:1031400088600020B8E70220B6E700003D4C000888
:10315000754C0008E74B000810B5044601480068AC
:10316000804710BDAC01002070470000F8B505464F
:103170000E46144600BF3449681A8D422CD006DC36
:10318000B5F1904F0AD031482844A0BB15E0B0F506
:10319000806F31D0B0F5A05F3DD13DE000BF2C483D
:1031A000C06C40F001002A49C8640846C06C00F0B9
:1031B0000100009000BF00BF3DE000BF2448C06C8C
:1031C00040F002002249C8640846C06C00F00200CA
:1031D000009000BF00BF2EE000BF1D48C06C40F053
:1031E00004001B49C8640846C06C00F0040000904D
:1031F00000BF00BF1FE00EE000BF1548C06C40F0EC
:1032000008001349C8640846C06C00F0080000902C
:1032100000BF00BF0FE000BF00BF0D48C06C40F012
:1032200080000B49C8640846C06C00F08000009024
:1032300000BF00BF00BF00BF00BF26602146284678
:10324000FDF762FEF8BD00000008004800FCFFB773
:103250000010024070B505460E461446E2B23146F3
:103260002846FDF75BFF70BD08B51D481D49086085
:1032700018211C48C161002181604FF482701949F6
:10328000486000211748016141614FF4E061C1606D
:103290000021816201624FF400718161002141626D
:1032A00000BF1148006E40F480500F490866084680
:1032B000006E00F48050009000BF00BF0948006815
:1032C000006840F040000749096808600548FFF7BA
:1032D000D7F808B1FDF7B4FC00F008F808BD00000D
:1032E00000300140800200200010024000B585B08F
:1032F00014216846FCF7B3FF0220019000200290E1
:1033000003200390052004906A4620214FF090404E
:10331000FFF72CFF6A4640214FF09040FFF726FF51
:103320006A4680214FF09040FFF720FF0120019076
:10333000002002906A4640210448FFF717FF01224F
:1033400040210248FFF786FF05B000BD0004004899
:103350002DE9FF4F85B0884691461E46DDF848B0FE
:103360000020049003900290019000908246002477
:10337000304602F055F80746ABF8006000256CE0D7
:10338000A8F10200A84201DD042000E00598824671
:1033900019F80540BAF1010F41D004F00100C4F35F
:1033A00040014840C4F3800148400490C4F3400009
:1033B000C4F380014840C4F3C0014840039004F0C6
:1033C0000100C4F340014840C4F3C00148400290EA
:1033D00004F00100C4F380014840C4F3C001484038
:1033E0000190E007000EC4F3400140EA8110C4F3ED
:1033F000800140EA4110C4F3C00140EA0111049881
:1034000041EAC001039841EA8001029841EA400084
:1034100001990843CAF10401084178551CE0C4F33E
:10342000C000C4F380014840C4F34001484004F0A8
:10343000010148400090E007C00EC4F3400140EA9B
:10344000C100C4F3800140EA8100C4F3C00140EA36
:1034500041000099084378556D1CB54290DB384611
:1034600009B000F000B830BCBDE8C08F00E000BF7C
:10347000FDE700002DE9FF4F85B00D469B46002675
:1034800000270024129804900020039080460290A8
:1034900082460190CEE0A81EB04201DD042000E08B
:1034A0000598001DC7B2079810B1A81EC4B205E068
:1034B000A81EB04200DD00E02846C4B221460398B1
:1034C00002F0A4FE039021460398FCF7C8FE3119D0
:1034D0001298814206DA22460BEB06010398FCF7AC
:1034E000A5FE06E01298821B0BEB06010398FCF781
:1034F0009DFE7900404602F089FE804679004046F4
:10350000FCF7ADFE00205449088006E0701C86B22E
:1035100051480088401C504908804F480088A0420C
:10352000F4DB00204C49088066E000204B4908800D
:1035300029E049490988494A1288891A481E2146C2
:1035400002F04BFE0399085C43490978791A491E39
:1035500001228A40104040490978791A491E0841E1
:103560003E490978691A491E88403B49098838F85C
:10357000111008433849098828F811003748008895
:10358000401C3649088035480088A042D1DBA81E7F
:10359000B0422CD14FF0000900203149088010E0E2
:1035A0002D48008838F810002D490978084100F0AE
:1035B000010048441FFA80F929480088401C284926
:1035C000088027480088A842EADB484609EBD0710A
:1035D0004910A9EB41012A1B521E91401E4A128834
:1035E00038F8122011431C4A128828F812101A4881
:1035F0000088401C1849088017480088B84294DBAE
:10360000BA444FEA4A01029802F000FE0290029981
:1036100001EB4A01A1EB47007A004146FCF706FEA8
:103620000498A04201DD214600E004990498401A64
:1036300080B20490049800287FF42DAF1398A0F86E
:1036400000A0039801F0BEFE404601F0BBFE0298C8
:1036500009B000F007B800007002002072020020DC
:103660007402002030BCBDE8C08F00000149086032
:103670007047000014040140816270478161704707
:1036800042694A4042617047C16801F0800161F4BB
:103690009061C16070470146C868C0F380207047E0
:1036A0006FF0010101617047016821F001010160C3
:1036B0007047016841F001010160704701460869E7
:1036C00000F001007047000010B50A4600BFEFF39C
:1036D0001083194672B63AB1012A0BD1094B1B6807
:1036E0000343084C236006E0064B1B688343054CEC
:1036F000236000E000BF00BF00BF81F3108800BF5F
:1037000010BD0000D40100202DE9FF4F8FB0054609
:103710000C461E46DDE91C784FF00009CA46CB4630
:1037200000200E900D900C900B900A90099008903C
:1037300007900690059004900AAA2146284601F0B9
:10374000CFFD814609A8BDF8281023463A46CDE9A9
:103750000091029041461E98FDF7C9F882464846FE
:1037600001F030FE08A8BDF8241053462246CDE9EA
:10377000001029464046FDF762F88346504601F0A6
:1037800021FE07A80090BDF820305A463146384641
:10379000FFF7DEFD0E90584601F014FE06A8BDF8B6
:1037A0001C10CDE90010314638460E9B209AFFF7D9
:1037B00061FE0D900E9801F005FE05A8BDF81810E9
:1037C000CDE90010314638460D9B209AFDF7D1FA1D
:1037D0000C900D9801F0F6FD04A8BDF81410CDE989
:1037E0000010314638460C9B119A00F0A5FA0B9058
:1037F0000C9801F0E7FDBDF810101F9801600B98C0
:1038000013B000F000B830BCBDE8C08F2DE9F05F08
:10381000804689464946404602F0ACFA02F02CFD4B
:10382000FE490968880001F0FBFD06460025AB460D
:103830000024A246002700F08FFDF94908600968BE
:10384000481E00F09FFF00BF41F2B1004CF25D62E4
:103850004243F44BA3EB42014CF25D6202EB0122C6
:10386000F14BB2FBF3F202EB0022F04B1A6000BF07
:1038700018460068000CEE49087018460088000AD7
:10388000487018460078887008460078E949097839
:1038900088420FD00320E8490870E5480078E549E0
:1038A0000870E3484078E5490870E1488078E449C9
:1038B00008701EE0DE484078E049097888420BD065
:1038C0000220DD490870DA484078DC490870D848A1
:1038D0008078DB4908700CE0D5488078D7490978B2
:1038E000884206D00120D4490870D1488078D44954
:1038F0000870D1480178CE48FDF7B2F92021D148AF
:10390000FFF7BCFE3520FDF70BF90A2002F04CFB57
:1039100000204FF080414862CB4908600807FFF75C
:10392000C8FEC9482438FFF7C4FEB1E175E1082C90
:1039300023D20020C54908704FF08040406AC44936
:1039400009680844C349096851F82410401AC50899
:10395000C148006850F8240000EE100AF8EEC00AD2
:1039600000EE105AB8EEC00ABC4890ED001A40EEC6
:10397000010ABB48C0ED000ABAE00A2C33D201208C
:10398000B24908708007406AB14909680844B149E2
:10399000096851F82410401AC508AF48006850F86B
:1039A000240000EE100AF8EEC00A00EE105AB8EE3D
:1039B000C00AAA4890ED001A40EE010AA848C0EDDE
:1039C000000A90ED000ADFEDA70AB4EEE00AF1EE7E
:1039D00010FA07DD90ED000ADFEDA30A30EE600A71
:1039E00080ED000A84E00C2C22D202209749087056
:1039F0004007406A9649096808449649096851F8A1
:103A00002410401AC5089448006850F8240000EEBD
:103A1000100AF8EEC00A00EE105AB8EEC00A8F483D
:103A200090ED001A40EE410A8D48C0ED000A5FE0BB
:103A30000D2C23D20320854908704FF08040406A46
:103A40008349096808448349096851F82410401AD9
:103A5000C5088148006850F8240000EE100AF8EE0E
:103A6000C00A00EE105AB8EEC00A7C4890ED001A69
:103A700040EE410A7A48C0ED000A39E06748006824
:103A8000844233D20420714908700007406A7049AB
:103A9000096808446F49096851F82410401AC5089C
:103AA0006D48006850F8240000EE100AF8EEC00AD5
:103AB00000EE105AB8EEC00A684890ED001A40EEC9
:103AC000010A6748C0ED000A90ED000ADFED650AC3
:103AD000B4EEE00AF1EE10FA0ADD90ED000ADFED37
:103AE000620A30EE600A80ED000A01E000BFFEE7E6
:103AF00056480078042817D1B5F5807F14DD00BF43
:103B000041F2B1004CF25D624243464BA3EB4201ED
:103B10004CF25D6202EB0122434BB2FBF3F202EB8B
:103B20000022424B1A6021E000BF4D4A92ED000A8C
:103B3000BCEEC00A10EE102A3B4BB2FBF3F05A1059
:103B40004243474B93ED000ABCEEC00A10EE103A18
:103B5000A3EB42014CF25D6202EB0122324BB2FB5D
:103B6000F3F202EB0022314B1A6000BF2F480068CD
:103B7000000C2F4908702D480088000A48702B4817
:103B800000788870084600782A49097888420FD062
:103B900003202949087026480078264908702448DF
:103BA00040782649087022488078254908701EE030
:103BB0001F4840782149097888420BD002201E49CD
:103BC00008701B4840781D490870194880781C49C6
:103BD00008700CE01648807818490978884206D0A9
:103BE000012015490870124880781549087012485C
:103BF00001780F48FDF734F800BF4FF08040406A6D
:103C000013490978084400F00F000028F5D10AF1A3
:103C1000010A7F1C01200849087027E02C020020BF
:103C2000640200208050DE19BA8C01005C02002082
:103C30006002002054020020630200205502002090
:103C400056020020000400482404004038020020EE
:103C5000B8010020440200203C020020180200208D
:103C60005802002025FACE4D0024F4474FF0804042
:103C7000406A1E49096808441D49096851F8241022
:103C800088427FF654AE46F824700027641C002555
:103C9000184800688442FFF449AE3620FCF740FF24
:103CA00020211548FFF7E8FC1448006801F08AFB62
:103CB000304601F087FB1248006801F083FB0C4896
:103CC000006801F07FFB4FF0000A002400200D493E
:103CD00008700D4908600D4908600807FFF7E4FC0B
:103CE00009482438FFF7E0FC00F012B8B8010020C2
:103CF000480200202C020020000400483C02002062
:103D0000440200203802002024040040240800401F
:103D100030BCBDE8C09F02468A4201DD104600E08B
:103D20000846704700BFFEE702468A4201DA1046A5
:103D300000E00846704700002DE9F04F2DED0E8B96
:103D400081B00D4690469946DDE9187A4FF0180B80
:103D500020200090B91C880001F062FB044624B9C1
:103D60004EA001F0E9FA00BFFEE75846FCF715FC4B
:103D700041EC1A0B012101FA05F0FCF70EFC41ECB5
:103D80001E0B9FED4D0B53EC102BFCF714FB41EC7D
:103D90001C0B4046FCF712FC41EC1D0B53EC1C2B9A
:103DA000FCF78CFB41EC1B0B53EC1A2BFCF711FBC3
:103DB00041EC190B9FED420B53EC102BFCF7FBFA77
:103DC00041EC180BFCF707FC20600098FCF7E5FBC2
:103DD00041EC1A0B012101FA05F0FCF7DEFB41EC86
:103DE0001E0B9FED350B53EC102BFCF7E4FA41EC66
:103DF0001C0B4046FCF7E2FB41EC1D0B53EC1C2B6B
:103E0000FCF75CFB41EC1B0B53EC1A2BFCF7E1FAC3
:103E100041EC190B9FED2A0B53EC102BFCF7CBFA5E
:103E200041EC180BFCF7D7FB606002262BE0B11EBB
:103E300039F81100FCF7C2FB41EC1A0B012101FA21
:103E400005F0FCF7AAFB41EC1C0B4046FCF7B6FB67
:103E500041EC1D0B53EC1C2BFCF730FB41EC1B0B16
:103E600053EC1A2BFCF7B5FA41EC190B9FED140B30
:103E700053EC102BFCF79FFA41EC180BFCF7ABFB53
:103E800044F82600761CB81C8642D0DBAAF8000055
:103E9000204601B000F018B800F01CB80A206D658B
:103EA0006D657279206973206E6F7420616C69672B
:103EB0006E21210A00000000000000000000F03F19
:103EC000000000008084EE40BDEC088BBDEC06CB0A
:103ED000FFF7E2BF30BCBDE8C08F704770470000FD
:103EE0002DE9F04104460F4600255C48C06800F00B
:103EF000030090B15948C06800F00300216888426F
:103F000009D1206838B15548C068C0F30210401C80
:103F10006168884233D0012531E02068012804D04F
:103F2000022809D003281AD10DE04C48006800F09F
:103F3000020000B9012514E04848006800F48060E0
:103F400000B901250DE04548006800F4003028B9AB
:103F50004248006800F4802000B9012501E00125F5
:103F600000BF00BF5DB9D4E90010401E41EA001057
:103F70003A49C96821F0730108433849C860002DE7
:103F800068D13648006820F0806034490860FDF749
:103F9000CBF8064606E0FDF7C7F8801B022801D9DA
:103FA000032505E02D48006800F000600028F2D1EC
:103FB00000BFCDBB6FB9A0680002E168090940EA03
:103FC000414026490969264A1140084323490861AE
:103FD00020E0012F0FD1A0680002218A0122C2EB4C
:103FE000510140EA41501D4909691E4A11400843E8
:103FF0001A4908610EE0A0680002217D0122C2EB8F
:10400000510140EA416015490969174A11400843C6
:10401000124908611148006840F080600F4908604B
:10402000FDF782F8064607E014E0FDF77DF8801BF7
:10403000022801D9032505E00848006800F0006067
:104040000028F2D000BF2DB904480069A1690843D7
:10405000024908612846BDE8F081000000100240D6
:10406000FF80FDFFFF809FFFFF80FFF92DE9F041FA
:1040700004460F4600255348C06800F0030090B185
:104080005048C06800F003002168884209D12068C8
:1040900038B14C48C068C0F30210401C61688842C7
:1040A00033D0012531E02068012804D0022809D04E
:1040B00003281AD10DE04348006800F0020000B95F
:1040C000012514E03F48006800F4806000B9012534
:1040D0000DE03C48006800F4003028B93948006819
:1040E00000F4802000B9012501E0012500BF00BFD8
:1040F0005DB9D4E90010401E41EA00103149C96899
:1041000021F0730108432F49C860002D56D12D4876
:10411000006820F080502B490860FDF705F806463E
:1041200006E0FDF701F8801B022801D9032505E010
:104130002448006800F000500028F2D100BF75BB91
:104140006FB9A0680002E168090940EA41401D49D1
:1041500049691D4A114008431A4948610EE0A068A8
:104160000002217C0122C2EB510140EA4160154965
:104170004969164A114008431249486111480068CC
:1041800040F080500F490860FCF7CEFF064607E07C
:10419000FCF7CAFF801B022802D9032506E00DE0C8
:1041A0000848006800F000500028F1D000BF2DB989
:1041B0000448406961690843024948612846BDE8EE
:1041C000F081000000100240FF80FDFFFF80FFF93A
:1041D000F8B5044600262348806D00F0805018B1E1
:1041E000FDF79CF8054616E000BF1E48806D40F0C4
:1041F00080501C4988650846806D00F08050009012
:1042000000BF00BFFDF78AF805461648806D20F014
:10421000805014498865B5F5007F07D1802C10D9EE
:10422000A02C01D902260CE001260AE0802C01D93D
:10423000032606E0802C01D1022602E0702C00D17A
:1042400001260948006820F007003043064908604D
:104250000846006800F00700B04201D00120F8BD18
:104260000020FCE7001002400020024070B5044628
:1042700000262068C06800F04000B8B9701E2168B0
:10428000C860FCF751FF054609E0FCF74DFF401BF5
:10429000B0F57A7F03D90326032084F82100206833
:1042A000C06800F0400008B9032EEED1304670BD62
:1042B00070B5044600251748006820F080001549B5
:1042C0000860081F006800F0200040B92046FEF793
:1042D000BBF8E0B1032084F82100032517E00D4866
:1042E000001F006820F020000A49091F08602046CE
:1042F000FEF7AAF818B1032084F821000325054829
:10430000001F006840F020000249091F086028468D
:1043100070BD00000C28004010B500200C4981F849
:1043200021000C480860002048607F210848816017
:10433000FF21C1600021016181610121C161FDF79F
:10434000EBFF08B100BFFEE70148FDF73FFF10BDDE
:1043500054040020002800402DE9F04100250026EB
:104360000027A846FFF7D8FF642001F01DFE00F0EB
:1043700085F900BF294800780028FBD00020274994
:104380000870002420E0264800EB0410406824490F
:1043900001EB041189684FF4803202FB01002049CF
:1043A00001EB04110968401A1D4901EB0411C860B2
:1043B0001B4800EB0410C0681A49081A184901EBA1
:1043C0000411C860601CC4B2032CDCDB1448C7684D
:1043D000D0F80C80002416E0114800EB0410C168EE
:1043E0003846FFF798FC07460D4800EB0410C168FB
:1043F0004046FFF799FC8046094800EB0410C0686E
:104400000544601CC4B2032CE6DB032095FBF0F6E8
:10441000044890FBF6F0BDE8F0810000C6010020E2
:104420002404002040420F0010B50848FFF733F97C
:1044300030B10648FFF728F904210548FFF720F9B5
:104440004FF48020FFF712F910BD00000028004053
:10445000000400481CB500242248806C40F0010094
:10446000204988640846006E40F4805008660120A8
:10447000032100230222CDE90010E0214FF09040FB
:10448000FCF708FC00BF44F4007444F4807444F06A
:10449000040400BF00BF44F0180400BF44F040040F
:1044A0001148406840F480500F4948600846406811
:1044B00040F4E060486008460460006820F0400076
:1044C00008600846006820F002000860084600689E
:1044D00020F0010008600846006840F040000860D5
:1044E0001CBD00000010024000300140014600BF2A
:1044F0000F48806800F002000028F9D00C48C16025
:1045000000BF0B48806800F001000028F9D008487F
:10451000C068C2B200BF0648806800F001000028F1
:10452000F9D00348C06842EA002080B2704700001A
:1045300000300140014600BF0948806800F00200D9
:104540000028F9D00648017300BF0548806800F0D4
:1045500001000028F9D00248C068C0B270470000CE
:1045600000300140704710B5FCF7E4FD10BD0000BD
:1045700000B5B9B0442128A8FBF771FE142123A887
:10458000FBF76DFE882101A8FBF769FEFCF7CEFE64
:104590002148006820F018001F499039C1F89000A8
:1045A0001420289001202A902E9000202F90602027
:1045B000309002203290012128A8C1620163282195
:1045C0004163072181630221C1630164FDF7B8FAE9
:1045D00008B100BFFEE70F202390032024900020A5
:1045E000259026902790042123A8FDF71DF908B1F6
:1045F00000BFFEE74FF0005211110020FDF772FAE4
:104600004FF40070FCF744FE08B100BFFEE7FCF772
:1046100097FE39B000BD00009010024010480068BD
:1046200040F470000E4908600E48006840F0010038
:104630000C49086000208860084600680A49084064
:10464000084908608814C8600846006820F4802083
:10465000086000208861C8030149803908607047FC
:1046600088ED00E000100240FFFFF6EA10B50248B6
:10467000FDF7DCFD10BD00005404002000B587B03C
:104680000020049005900690009001900290039005
:104690001B481C4908604F20486000211948816070
:1046A0004FF6FF71C160002101614161802181618C
:1046B000FEF72CF9202004900020069004A9114850
:1046C000FDF770FF00200090012001900020029073
:1046D0000390002269460B48FEF7A8F8012109481B
:1046E000FDF79CFF00210748FEF74CF905480068DC
:1046F000C06840F0010003490968C86007B000BD08
:1047000000400140E403002010B50248FEF7BFF965
:1047100010BD0000E403002000B54FF08040FEF71C
:10472000CDFF012802D18007FEF7BAFF00BD0000CF
:1047300070B505460C464FF08040074908600846B2
:10474000446000218160C5600161FDF7A1FF02485E
:10475000FDF7F4FF70BD00006403002000B50748BA
:10476000FEF7ACFF012807D105480068401C04494A
:1047700008600248FEF794FF00BD000000040040FE
:10478000B801002010B5044609480A4908604F20C6
:104790004860002107488160C4600161FDF778FF2F
:1047A0000448FDF7CBFF00200349086010BD00005E
:1047B00000040040A4030020B801002010B50268E6
:1047C000294B98420ED0B0F1804F0BD0274B984226
:1047D00008D0274B984205D0264B984202D0264B52
:1047E000984203D122F070024B681A431E4B984244
:1047F00017D0B0F1804F14D01C4B984211D01C4BF5
:1048000098420ED01B4B98420BD01B4B984208D0BD
:104810001A4B984205D01A4B984202D0194B984235
:1048200003D122F44072CB681A4322F080034C6912
:1048300043EA040202608B68C3620B6883620A4B1E
:1048400098420BD00C4B984208D00C4B984205D0A4
:104850000B4B984202D00B4B984201D10B6903637A
:104860000123436110BD0000002C01400004004002
:1048700000080040000C00400034014000400140AE
:10488000004401400048014030B501F01F050124FB
:1048900004FA05F3046A9C430462046A01F01F05EC
:1048A00002FA05F52C43046230BD000070B50C46D9
:1048B0001546066A26F0010606628169026A164EEE
:1048C000B04211D0B0F1804F0ED0144EB0420BD098
:1048D000134EB04208D0134EB04205D0124EB04233
:1048E00002D0124EB04201D1012600E000261EB1D6
:1048F00021F00301294301E041F0010121F0F00121
:10490000F02606EA0316314322F00A0204F00A06F2
:1049100032438161026270BD002C014000040040FE
:1049200000080040000C00400034014000400140FD
:1049300070B50C461546066A26F0100606628169B7
:10494000026A21F4407141EA052121F470414FF4DB
:10495000704606EA0336314322F0A002A02606EA9A
:10496000041632438161026270BD70B50C46154673
:10497000066A26F480760662C169026A21F00301A4
:10498000294321F0F001F02606EA0316314322F410
:1049900020624FF4206606EA04263243C1610262B7
:1049A00070BD70B50C461546066A26F48056066240
:1049B000C169026A21F4407141EA052121F4704184
:1049C0004FF4704606EA0336314322F420424FF496
:1049D000204606EA04363243C161026270BD00001F
:1049E0000FB430B5C3B047A802904FF4807103A84C
:1049F000029B469A00F0B0FC80B20090002002902A
:104A0000002400BFEFF31080054672B6BDF8002009
:104A100003A9134801F0FCF90446C4B91148007811
:104A2000012814D16A4601A90D4801F05DFA002061
:104A30000C49087001212020FEF746FE284600F0B0
:104A400026FDBDF80010019801F066FC02E0284642
:104A500000F01DFD204643B030BC5DF814FB0000A3
:104A6000D4050020DC01002090F8241001F00101A1
:104A700039B10168496821F40031826A1143026842
:104A8000516090F8241001F00201022907D1016859
:104A9000496821F48031C26A11430268516090F87C
:104AA000241001F00401042907D10168496821F4A8
:104AB0008021026B11430268516090F8241001F0CC
:104AC0000801082907D10168496821F40041426BB7
:104AD00011430268516090F8241001F01001102970
:104AE00007D10168896821F48051826B1143026803
:104AF000916090F8241001F02001202907D101686D
:104B0000896821F40051C26B11430268916090F8EA
:104B1000241001F04001402913D10168496821F4B3
:104B20008011026C114302685160016CB1F5801F65
:104B300007D10168496821F4C001426C1143026841
:104B4000516090F8241001F08001802907D101689C
:104B5000496821F40021826C11430268516070475A
:104B600038B504460020E067FCF7DEFA0546206809
:104B7000006800F0080008280CD16FF07E402B463A
:104B800000224FF400110090204600F052FB08B1C3
:104B9000032038BD2068006800F0040004280CD110
:104BA0006FF07E402B4600224FF48001009020469B
:104BB00000F03FFB08B10320EBE720206067A0670F
:104BC00000BF002084F8700000BF00BFE1E770B5AF
:104BD0000546AC6A0020A4F85A00A4F8520020460A
:104BE000FEF75BF870BD2DE9F0410546AC6A666FD3
:104BF000A76F2068806800F08000802807D1212EF0
:104C000005D10020A4F85200204600F05BF820688F
:104C1000806800F04000402807D1222F05D10020F5
:104C2000A4F85A00204600F02CF8E06F40F0100085
:104C3000E0672046FEF731F8BDE8F08170B5054623
:104C4000AC6A2868006800F0200078B90020A4F859
:104C500052002068806820F0800021688860206809
:104C6000006840F040002168086002E02046FEF73E
:104C700073FA70BD70B50446A56A2846FEF774FA4B
:104C800070BD0168096821F49071026811600168C3
:104C9000896821F00101026891602021816700216B
:104CA0000166704710B504462068006820F0400097
:104CB0002168086020206067002060662046FEF7BB
:104CC0004BFA10BD0168096821F0C001026811604B
:104CD0002021416770472DE9F0410446B4F85C702B
:104CE000A06F222824D12068868C656D06EA070013
:104CF0002880606D801C6065B4F85A00401EA4F8DE
:104D00005A00B4F85A00C8B92068006820F49070BE
:104D1000216808602068806820F0010021688860B0
:104D20002020A067002020662046FEF777F905E0E6
:104D30002068008B40F0080021680883BDE8F081FE
:104D400070B50446B4F85C60A06F222824D12068B6
:104D5000858CF0B22840616D0870606D401C606504
:104D6000B4F85A00401EA4F85A00B4F85A00C8B962
:104D70002068006820F490702168086020688068CE
:104D800020F00100216888602020A06700202066B4
:104D90002046FEF743F905E02068008B40F008004C
:104DA0002168088370BD00002DE9F84F04460026F5
:104DB000002000908246F8492068884200D100E037
:104DC00000BF2169A068084361690843E16940EABE
:104DD000010920680068F149084040EA090021689B
:104DE00008602068406820F44050E168084321686A
:104DF0004860D4F81890E8492068884202D0206AB8
:104E000040EA09092068806820F4306040EA09001F
:104E10002168886000BFE2492068884216D1E148D5
:104E2000006800F0030030B1012808D0022804D047
:104E3000032808D105E0012507E0022505E0042547
:104E400003E0082501E0102500BF8DE0D649206869
:104E5000884216D1D348006800F00C0030B1042815
:104E600008D0082804D00C2808D105E0002507E068
:104E7000022505E0042503E0082501E0102500BF18
:104E800072E0CA492068884216D1C648006800F01E
:104E9000300030B1102808D0202804D0302808D1A4
:104EA00005E0002507E0022505E0042503E00825CC
:104EB00001E0102500BF57E0BD492068884216D1A7
:104EC000B848006800F0C00030B1402808D0802801
:104ED00004D0C02808D105E0002507E0022505E040
:104EE000042503E0082501E0102500BF3CE0B1499E
:104EF0002068884219D1AB48006800F4407048B17E
:104F0000B0F5807F0AD0B0F5007F05D0B0F5407FC6
:104F100008D105E0002507E0022505E0042503E0AF
:104F2000082501E0102500BF1EE09B49206888424B
:104F300019D19C48006800F4406048B1B0F5806F1A
:104F40000AD0B0F5006F05D0B0F5406F08D105E08C
:104F5000002507E0022505E0042503E0082501E01F
:104F6000102500BF00E0102500BF8B492068884253
:104F700072D1042D10D003DC3DB1022D13D108E015
:104F8000082D0DD0102D0ED10EE0FCF711FD82463C
:104F90000DE0DFF824A20AE0FCF72EFD824606E0D1
:104FA0004FF4004A03E000BF0120009000BF00BFA3
:104FB000BAF1000F0AD0606800EB4000504503D8FA
:104FC00060680003504502D20120009025E1042DC5
:104FD0002ED003DC3DB1022D51D118E0082D3CD07C
:104FE000102D4CD14CE0FCF7E3FC4FF48071A0FB9A
:104FF0000130616849085F1840F10001D4F804C02D
:10500000624600233846FBF7DDF806463BE0D4F85D
:1050100004C04FEA5C000021684BC71841EB01084F
:1050200062460B4638464146FBF7CCF806462AE076
:10503000FCF7E2FC4FF48071A0FB01306168490885
:105040005F1840F10001D4F804C0624600233846DE
:10505000FBF7B8F8064616E022E0D4F804C04FEAA1
:105060005C0000214FF40003C71841EB01086246C1
:105070000B4638464146FBF7A5F8064603E000BF5D
:105080000120009000BF00BFB6F5407F05D3B6F504
:10509000801F02D22068C660BFE001200090BCE003
:1050A000E069B0F5004F57D1042D28D005DC4DB193
:1050B000012D11D0022D36D118E0082D29D0102D48
:1050C00031D131E0FCF774FC4000616800EB510025
:1050D000B0FBF1F086B22AE0FCF77CFC400061688E
:1050E00000EB5100B0FBF1F086B220E0344960687B
:1050F00001EB50006168B0FBF1F086B217E0FCF7FD
:105100007BFC4000616800EB5100B0FBF1F086B21F
:105110000DE04FF48031606801EB50006168B0FB36
:10512000F1F086B203E000BF0120009000BF00BF95
:10513000102E0ED3B6F5803F0BD24FF6F07006EA74
:10514000000BC6F342004BEA000B2068C0F80CB01D
:1051500063E00120009060E0042D3CD005DC4DB1FF
:10516000012D10D0022D49D12CE0082D3CD0102D5E
:1051700044D144E0FCF71CFC616800EB5100B0FB3B
:10518000F1F086B23EE0FCF725FC616800EB5100CF
:10519000B0FBF1F086B235E000800040F369FFEF2C
:1051A00000380140881002400044004000480040A0
:1051B000004C0040005000400024F400000024F4A3
:1051C0000048E8011849606801EB50006168B0FBD5
:1051D000F1F086B216E0FCF70FFC616800EB5100BD
:1051E000B0FBF1F086B20DE04FF40041606801EBD6
:1051F00050006168B0FBF1F086B203E000BF01200F
:10520000009000BF00BF102E05D3B6F5803F02D23C
:105210002068C66001E001200090002020666066E2
:10522000009800F003B800000024F40018BCBDE8AA
:10523000E08F2DE9F04104460D4617469846069E3C
:105240001FE0701CE8B1FBF76FFFA0EB0800B04255
:1052500000D8B6B92068006820F4D07021680860D2
:105260002068806820F00100216888602020606745
:10527000A06700BF002084F8700000BF0320BDE8D5
:10528000F0812068C0692840A84201D1012000E0D7
:105290000020B842D5D00020F1E7000010B500246E
:1052A0000C48FDF701FD00BF01E0641C00BF094888
:1052B000FDF7F4FC2028F8D100BF002401E0641CB5
:1052C00000BF012204490348FDF736FE0028F6D14D
:1052D00000BF10BD54050020D201002000BFFEE732
:1052E0002DE9F04106460D469046680000F098F81A
:1052F000074669003846FAF7B2FF002411E0305D36
:105300000C49095D484000F00F0007F81400305DBB
:105310000849095D484001116000401C3954601C77
:10532000C4B2AC42EBDB6804000CA8F800003846BD
:10533000BDE8F081786300080FB4054B10B503A9F0
:10534000044A029800F06CF910BC5DF814FB0000F0
:1053500009600008CC0100207CB50C001D461646F3
:10536000014601D0601E00E00020CDE90010064B90
:105370006A462946304600F053F9002C02D0009AC4
:10538000002111707CBD00002D5D000802480068FE
:10539000C0F30220704700000CED00E010B50028BB
:1053A00004DB0A07130E054A135406E00A07140E1D
:1053B000034A00F00F031B1FD45410BD00E400E0AB
:1053C00018ED00E030B528B1144C031F002021680F
:1053D0000A4605E0084630BD9A4203D81046526896
:1053E000002AF9D1002800D041680BD00468A3EB53
:1053F0000005A54204D11B681C440346046002E07A
:10540000436000E023603AB11C68D51AA54203D17D
:1054100015682C441C6052685A6030BD7802002028
:105420002DE9F04782460F4C10480D4E0E4F001BE1
:105430004FF0000820F007054FF001090022114647
:10544000504600F0EFFD002802D1306810B1002076
:10545000BDE8F0873C60C4E90058C6F80090EDE76D
:105460007C020020EC06002078020020E8A6002044
:1054700002E008C8121F08C1002AFAD1704770471D
:10548000002001E001C1121F002AFBD1704780F308
:10549000108870472DE9FF5F82B00021DDE90430FC
:1054A000020DDDF840B0034318D044F61050A2F2CC
:1054B000FF3242431514119801281FD0A5EB0B00B1
:1054C000401C5FEA000A4FF000064E4FDFF83891AB
:1054D000B046504615D5CAF1000413E011980124D6
:1054E0004AA3012801D16FEA0B010298119AC0E981
:1054F0000031C0E9024206B000F08EB8CBF10000E6
:10550000DFE704460021404A491842EB0450CDE948
:10551000001012E0E00707D032463B4640464946BD
:10552000FAF757FF8046894632463B4610461946F1
:10553000FAF74FFF06460F466410002CEAD1DDE96A
:105540000401DDE90023BAF1000F06DAFAF741FFA2
:1055500042464B46FAF73DFF05E0FAF7AFFF4246F9
:105560004B46FAF7ABFF04460E460022284BFBF7EA
:105570000DF903D84FF0FF30014607E00022254B1C
:1055800020463146FAF776FEFBF7E8F8102409E0EA
:10559000002C0ADB0A220023FAF714FE039B3032A8
:1055A0001A55641E50EA0102F2D1641C039AC4F138
:1055B00011031444119A012A03D0012208430DD18A
:1055C0000AE0084304D000204FF0110B119072E75D
:1055D000A3EB0B056D1E0DE05B4504DD4FF00002F3
:1055E00005F1010504E003DA4FF00002A5F1010521
:1055F000002AECD002981199C0E90231C0E90045B7
:1056000079E70000000014400000F03F3000000087
:105610000000F0430000E03F30BCBDE8C09F000048
:105620002DE9FF4F95B09A46884606460025EEE1E3
:10563000252877D100242746F94A0121039400E068
:10564000044316F8013F203B01FA03F01042F7D162
:1056500030782A2811D06FF02F033078A0F1300273
:10566000092A16D8039A44F0020402EB820203EBE3
:1056700042021044761C0390EFE758F8042B039283
:10568000002A03DA504244F40054039044F0020428
:10569000761C30782E2816D116F8010F44F0040439
:1056A0002A280DD06FF02F023078A0F13003092B9B
:1056B00009D807EB870302EB4303C718761CF3E70F
:1056C00058F8047B761C30786C280FD006DC4C2808
:1056D00017D068280DD06A2814D104E0742810D09F
:1056E0007A280FD10DE044F400140AE044F4801449
:1056F00001E044F440147278824202D104F580142F
:10570000761C761C307866280BD013DC582877D0AE
:1057100009DC002875D04528F6D04628F4D0472863
:105720001AD193E118E0632835D0642879D0652830
:1057300012D18BE1702873D008DC6728F1D069287A
:105740006FD06E280DD06F2806D1ACE073282CD016
:10575000752874D0782853D05246179990476D1CFD
:1057600054E1C4F30250022809D003280DD0D8F820
:10577000001004280DD00D6008F1040846E1D8F8A7
:105780000010EA17C1E90052F6E7D8F800100D80C2
:10579000F2E70D70F0E718F8041B8DF800100020F8
:1057A0008DF80100EB46012003E058F804BB4FF0F0
:1057B000FF3061074FF0000102D40DE009F1010153
:1057C0008946B9420FDA8145F8DB1BF80910002938
:1057D000F4D108E009F1010189468142FADB1BF8A6
:1057E00009100029F6D103985346A0EB090721467A
:1057F0003846179A00F083FA284400EB090507E0C1
:1058000044E008E10DE01BF8010B52461799904760
:10581000B9F10109F7D2534621463846179AF2E00A
:1058200039E00A21C4F302524FF0000B0091022A22
:1058300006D058F8040BC117032A09D00AE023E068
:1058400008F1070020F00702F2E80201904605E0A7
:1058500000B2C117042A01D140B2C117002906DAEB
:105860000A460021404261EB02012D2202E022059E
:1058700004D52B228DF80420012203E0E20701D099
:105880002022F7E7914657E00A2100E010214FF06F
:10589000000B00910BE010214FF0000B44F00404CA
:1058A0000827009103E008204FF0000B0090C4F39C
:1058B0000252022A05D058F8040B0021032A08D00E
:1058C00008E008F1070020F00702F2E80201904624
:1058D00003E080B2042A00D1C0B24FF000092207D1
:1058E0002AD53278702A07D0DDF800C08CF0100C71
:1058F0005CEA0B0C05D00EE040228DF8042001225A
:1059000008E050EA010306D030238DF804308DF80A
:10591000052002229146009B83F0080353EA0B0303
:105920000AD150EA010201D1620705D530228DF873
:1059300004204FF001097F1E3278582A04D039A282
:105940000C920CAA02920BE03BA2F9E75B46009A8C
:10595000FAF738FC0C9B9B5C029A521E0292137061
:1059600050EA0102F2D1029804A9081A00F1200BB2
:10597000600702D524F4803400E001275F4502DD92
:10598000A7EB0B0000E0002000EB0B010090039858
:105990004944401A0390E00306D453462146179A1F
:1059A000039800F0ACF90544002706E001A8524630
:1059B000C05D179990476D1C7F1C4F45F6DBE003D7
:1059C0000CD553462146179A039800F098F90544E0
:1059D00004E030205246179990476D1C0099481EEC
:1059E00000900029F5DC08E0029802995246007800
:1059F000491C0291179990476D1CBBF10001ABF156
:105A0000010BF1DC5BE100F068F90544761C3078AD
:105A100000287FF40DAE19B0284600F05BB90000F5
:105A20000928010030313233343536373839616274
:105A30006364656600000000303132333435363738
:105A4000383941424344454600000000600700D415
:105A5000062708F1070020F00700F0E8022380463F
:105A600003F0004C5FEA0C0001D097A009E020058C
:105A700001D596A005E0E00701D095A001E0AFF2C6
:105A80004C001390307823F0004365280CD006DCDE
:105A9000452809D046281DD047287FD13BE06628FD
:105AA00018D067287AD136E00021112F01DB1120B0
:105AB00000E0781CCDE9000104A90CA8FFF7EAFC7E
:105AC000DDE90D010C9A4FF0000B07F1010910926E
:105AD00000914EE04FF000400097CDE9011004A97D
